:020000040800F2
:1000000000000524212B0008292500082B250008C5
:100010002D2500082F2500083125000800000000CC
:1000200000000000000000000000000081A900089E
:10003000332500080000000021AA000885AA000856
:10004000712B0008712B0008712B0008712B000820
:10005000712B0008712B0008712B0008712B000810
:10006000712B0008712B0008712B0008712B000800
:10007000712B000835250008712B0008712B000832
:10008000712B0008712B0008712B0008712B0008E0
:10009000712B0008712B0008712B0008712B0008D0
:1000A000712B0008712B0008712B0008712B0008C0
:1000B000712B0008712B0008712B0008712B0008B0
:1000C000712B0008712B0008712B0008712B0008A0
:1000D000712B0008712B0008712B0008712B000890
:1000E000712B0008712B000800000000712B000824
:1000F000712B0008712B0008712B0008712B000870
:10010000712B0008712B0008712B0008712B00085F
:10011000712B0008712B0008712B0008712B00084F
:10012000712B0008712B0008712B0008712B00083F
:10013000712B0008712B0008712B0008712B00082F
:1001400000000000000000000000000000000000AF
:10015000712B0008712B0008712B0008712B00080F
:10016000712B0008712B0008712B0008712B0008FF
:10017000712B000845250008712B000800000000C5
:10018000712B0008712B0008712B0008712B0008DF
:10019000712B0008712B0008712B0008712B0008CF
:1001A000712B0008712B0008712B00080000000063
:1001B000712B0008712B0008712B0008712B0008AF
:1001C000712B0008712B00080000000000000000E7
:1001D0000000000000000000712B0008000000007B
:1001E000000000000000000000000000000000000F
:1001F0000000000000000000712B0008712B0008B7
:10020000712B0008712B000800000000712B000802
:10021000712B0008712B0008712B0008712B00084E
:10022000712B000800000000712B00080000000086
:10023000712B0008712B000800000000712B0008D2
:10024000712B0008712B0008712B0008712B00081E
:10025000712B0008712B0008712B0008712B00080E
:10026000712B0008712B0008712B0008712B0008FE
:10027000712B0008712B0008712B00080000000092
:10028000712B0008712B0008712B0008712B0008DE
:1002900000000000712B0008712B00080000000016
:1002A00000000000712B0008712B0008712B000862
:1002B000712B0008712B0008712B0008712B0008AE
:0C02C000712B000855250008712B000868
:1002D00080F0004002E000BF81F0004142001FBFFB
:1002E0005FEA410392EA030F7FEA226C7FEA236C04
:1002F0006AD04FEA1262D2EB1363C1BFD2184140F9
:1003000048404140B8BF5B42192B88BF704710F08E
:10031000004F40F4000020F07F4018BF404211F031
:10032000004F41F4000121F07F4118BF494292EA99
:10033000030F3FD0A2F1010241FA03FC10EB0C00C5
:10034000C3F1200301FA03F100F0004302D5494252
:1003500060EB4000B0F5000F13D3B0F1807F06D3FF
:1003600040084FEA310102F10102FE2A51D2B1F1F7
:10037000004F40EBC25008BF20F0010040EA0300EC
:100380007047490040EB0000013A28BFB0F5000F6C
:10039000EDD2B0FA80FCACF1080CB2EB0C0200FA22
:1003A0000CF0AABF00EBC25052421843BCBFD04071
:1003B0001843704792F0000F81F4000106BF80F4EB
:1003C00000000132013BB5E74FEA41037FEA226CAE
:1003D00018BF7FEA236C21D092EA030F04D092F079
:1003E000000F08BF0846704790EA010F1CBF0020AD
:1003F000704712F07F4F04D1400028BF40F000400A
:10040000704712F100723CBF00F50000704700F029
:10041000004343F0FE4040F4000070477FEA226250
:1004200016BF08467FEA23630146420206BF5FEA21
:10043000412390EA010F40F4800070474FF0000321
:1004400004E000BF10F0004348BF40425FEA000CE8
:1004500008BF704743F0964301464FF000001CE090
:1004600050EA010208BF70474FF000030AE000BFE6
:1004700050EA010208BF704711F0004302D5404224
:1004800061EB41015FEA010C02BF84460146002096
:1004900043F0B64308BFA3F18053A3F50003BCFAB1
:1004A0008CF2083AA3EBC25310DB01FA02FC63445E
:1004B00000FA02FCC2F12002BCF1004F20FA02F265
:1004C00043EB020008BF20F00100704702F1200258
:1004D00001FA02FCC2F1200250EA4C0021FA02F2B9
:1004E00043EB020008BF20EADC70704753B94AB9F9
:1004F000002908BF00281CBF4FF0FF314FF0FF302C
:1005000000F00CB8ADF1080C6DE904CE0CF09EF9CA
:10051000DDF804E0DDE9022304B07047704700BF56
:10052000844641EA000313F003036DD1403A41D3FE
:1005300051F8043B40F8043B51F8043B40F8043BBD
:1005400051F8043B40F8043B51F8043B40F8043BAD
:1005500051F8043B40F8043B51F8043B40F8043B9D
:1005600051F8043B40F8043B51F8043B40F8043B8D
:1005700051F8043B40F8043B51F8043B40F8043B7D
:1005800051F8043B40F8043B51F8043B40F8043B6D
:1005900051F8043B40F8043B51F8043B40F8043B5D
:1005A00051F8043B40F8043B51F8043B40F8043B4D
:1005B000403ABDD2303211D351F8043B40F8043BED
:1005C00051F8043B40F8043B51F8043B40F8043B2D
:1005D00051F8043B40F8043B103AEDD20C3205D3FD
:1005E00051F8043B40F8043B043AF9D2043208D0F5
:1005F000D2071CBF11F8013B00F8013B01D30B8867
:1006000003806046704700BF082A13D38B078DD044
:1006100010F003038AD0C3F10403D21ADB071CBF16
:1006200011F8013B00F8013B80D331F8023B20F880
:10063000023B7BE7043AD9D3013A11F8013B00F8B9
:10064000013BF9D20B7803704B7843708B78837041
:10065000604670470348044B834202D0034B03B10A
:10066000184770475C0200245C0200240000000070
:100670000548064B1B1AD90F01EBA301491002D004
:10068000034B03B1184770475C0200245C0200244E
:100690000000000010B5064C237843B9FFF7DAFFDD
:1006A000044B13B10448AFF300800123237010BD45
:1006B000600200240000000070D2000808B5054B5D
:1006C0001BB105490548AFF30080BDE80840FFF7BE
:1006D000CFBF00BF000000006402002470D20008F9
:1006E000F6EE007A60EE277A10EE103A074AA2EB97
:1006F000630307EE103A67EE277A67EE277AB7EEC4
:10070000080A30EE670A27EE000A7047DF59375FA4
:1007100010B52DED068B0446B0EE409AF0EE609ACF
:10072000B0EE418AF0EE618AB0EE42AAF0EE62AA23
:10073000F5EE401AF1EE10FA14BF01230023B5EED6
:10074000402AF1EE10FA18BF43F001032BB9F5EE81
:10075000402AF1EE10FA00F0938068EEA87A2AEEB3
:100760000A7A77EE877A2AEEAA0A37EE800AFFF72E
:10077000B7FF68EE808A2AEE00AA6AEE80AA94ED9E
:10078000017AD4ED036A27EE266AD4ED007AD4ED1F
:10079000025A27EEA55A36EE456A27EE277A66EE0C
:1007A000A55A37EE257A67EEA77AF6EE005A77EE6D
:1007B000E57A66EEA66A77EEA67A6AEE276A6AEEB0
:1007C000875A76EEE56A6AEE86AA68EEA77A7AEE2E
:1007D000E7AA68EE878A2AEE06AA78EECA8A624BF2
:1007E000D3ED007AF5EEC07AF1EE10FA40F3B38063
:1007F000D3ED007A67EEA67A9FED5C7A67EE877A92
:100800005B4991ED006A76EE277AC1ED007AD3ED6F
:10081000007A67EEAA7A67EE877A564A92ED006A06
:1008200076EE277AC2ED007AD3ED007A67EEA87AE9
:1008300067EE877A504B93ED007A77EE277AC3ED17
:10084000007AD1ED007A39EE279AD2ED007A79EE6E
:10085000A79AD3ED007A38EE278A484BD3ED007A79
:1008600067EEA67A39EE279AD3ED007A67EEAA7A78
:1008700079EEA79AD3ED007A67EEA87A38EE278A48
:10088000DFED3F7A29EE270A69EEA70A28EE271A3C
:10089000D4ED006A94ED017AD4ED027A27EE409A05
:1008A00020EEA76A39EE469AD4ED039A29EE816AC2
:1008B00039EE469A39EE269A84ED009A60EE268A41
:1008C00021EE276A78EE868A29EEA06A78EEC68A3B
:1008D00078EE878AC4ED018A20EEA68A21EE076AA7
:1008E00038EE468A29EE806A38EE068A38EE278A84
:1008F00084ED028A21EE261A60EE870A31EE201A74
:1009000020EE270A31EE401A79EE819AC4ED039A5F
:1009100069EE097A28EEA87A77EE877A28EE087AC7
:1009200077EE877A29EEA90A37EE800AFFF7D8FE1C
:1009300029EE009A84ED009A68EE808AC4ED018A5F
:1009400028EE008A84ED028A69EE809AC4ED039A4B
:10095000BDEC068B10BD0023054A1360054A1360E9
:10096000054A136079E700BF880200246F12833ABA
:1009700084020024800200247C0200240000002461
:100980006F12033A0E4B1B78C3B982B00C4B012295
:100990001A700C4B5B680193019A0B4B1B689A42CF
:1009A00003D20A4A136801331360064B5A68064B98
:1009B0001A60034B00221A7002B07047704700BFE4
:1009C000A8020024001000E0B8020024BC020024A9
:1009D00008B54FF0E022D2F8FC3D43F08073C2F836
:1009E000FC3D0E4B002159601A6842F001021A606A
:1009F0000B4B03FB00F00B4B18600B4BA3FB0023CE
:100A00009B090A4A13600A4BA3FB0030800C094B78
:100A10001860094B1960FFF7B5FF08BD001000E032
:100A200040420F00C8020024D34D6210C4020024CB
:100A300083DE1B43C0020024BC02002400B52DED60
:100A4000028B83B00D4B5B680193019B02689B1A7C
:100A500007EE903AF8EE677A094B93ED007AB8EE1C
:100A6000477A87EE878A019B0360FFF78BFFB0EE22
:100A7000480A03B0BDEC028B5DF804FB001000E0F7
:100A8000C80200242DE9F04182B0294B5B68019334
:100A9000FFF778FF274B1C6800266508E3071B1B40
:100AA00065F10005DB186D411C1945F10005019B3E
:100AB000E41845F10005204B1C605D601F4BD3F826
:100AC00000804246334620462946FFF70FFD074681
:100AD0001B4B186059604246334620462946FFF7B3
:100AE00005FD10461C461546164B1A605C60DFF883
:100AF0006480C8F80070144B1F683A46334621469C
:100B0000FFF7F4FC80B2A8F8040000FB07F7E81B2D
:100B100064F100010D4B186059600D4B1A683346A3
:100B2000FFF7E4FCA8F8060002B0BDE8F08100BFC2
:100B3000001000E0BC020024B0020024C80200241F
:100B4000A002002498020024C40200249002002481
:100B5000C0020024CC02002408B5FFF793FF0B4A23
:100B6000116893884FF47A7000FB013300EE103A5D
:100B7000B8EE400AD38807EE903AF8EEE77A9FED98
:100B8000047A67EE877A30EE270A08BDCC0200248B
:100B90006F12833A08B5FFF775FF074A116893880B
:100BA0004FF47A7000FB03F3044800FB0133D08854
:100BB0001844002108BD00BFCC02002440420F00B1
:100BC000D0ED017A90ED0D7AD0ED0E6A37EE267AEF
:100BD000F6EE006A27EE267A67EE877A90ED197AAC
:100BE00067EE877AC0ED137A7047D0ED0D7A90EDFD
:100BF000117A27EE877AB5EEC07AF1EE10FA26DD8B
:100C0000F5EEC07AF1EE10FA1CDD90ED087AB4EE44
:100C1000E77AF1EE10FA1ADAD0ED076A37EE266AB3
:100C2000B4EEE76AF1EE10FA0FDB90ED136A76EEA0
:100C3000E77A37EE277AC7EE267A66EE277AC0ED96
:100C4000137A7047F1EE677ADFE70023C3647047D9
:100C5000D0ED116A90ED137A36EE877A1F4B83ED53
:100C6000007AD0ED107A76EEA77A90ED126A77EEE0
:100C7000867A1B4BC3ED007AF5EEC07AF1EE10FADE
:100C800028DD90ED036AB4EEE76AF1EE10FA0AD5BA
:100C9000D0ED0D7A66EEA76AF5EEC06AF1EE10FAB5
:100CA00001DD0023C364D0ED067AB4EEE77AF1EEFD
:100CB00010FA03DD0023C364C0ED117AF1EE677A08
:100CC000B4EEE77AF1EE10FA03D50023C364C0ED69
:100CD000117A7047F1EE677AD3E700BFD80200249B
:100CE000D4020024D0ED027A90ED0C7AD0ED0B6A9C
:100CF00037EE667A67EE877AD0ED196A87EEA67AC4
:100D000080ED127A704790ED126AD0ED197A26EED6
:100D1000276A90ED0A7A77EE877AC6EE276A90ED19
:100D2000166A27EE067A87EE276A76EE867AC0ED97
:100D3000127A704790ED146AD0ED197A26EE276A80
:100D400090ED097A77EE877AC6EE276A90ED156AFC
:100D500027EE067A87EE276A76EE867AC0ED147A59
:100D6000704790ED147AD0ED037AB4EEE77AF1EEA5
:100D700010FA01DDC0ED147A90ED147AF1EE677A85
:100D8000B4EEE77AF1EE10FA01D5C0ED147A7047AF
:100D900090ED147AB0EEC77AD0ED037ADFED1D6ADC
:100DA00067EEA67AB4EEE77AF1EE10FA2BD4D0ED26
:100DB000177AB0EEE77ADFED186AB4EEE67AF1EE74
:100DC00010FA20D4D0ED0B6A77EEE67AF0EEE77AEF
:100DD000C7EE876ADFED117AF4EEE76AF1EE10FAFA
:100DE00012DD836EC26E013342F100028366C26679
:100DF000816EC36E40F2F512914273F1000302D38B
:100E0000012380F87030704700220023C0E91A23C4
:100E1000EEE700BF6F12833A17B7D1383333733F11
:100E200038B50546782009F075FF04467822002180
:100E30000BF088FE2B6823606B686360AB68A3606F
:100E4000EB68E3602B6923612B7D2375AB69A3619C
:100E5000EB69E3612B6A23626B6A6362AB6AA3622C
:100E600004F16000FFF7EAFD044A1378591C117081
:100E7000034A42F82340204638BD00BF54030024F3
:100E8000DC02002410B52DED028B0446F0EE408A02
:100E9000B0EE608A90F91430002B71DB04F1600031
:100EA000FFF7CCFD84ED190AC4ED0B8A84ED178A97
:100EB00078EE680AC4ED0D0AF5EEC00AF1EE10FAFC
:100EC00061DDF0EE607A94ED047AB4EEE77AF1EE4B
:100ED00010FA73D5D4ED007A60EEA77AC4ED107ADB
:100EE000D4ED017A60EEA77A60EE277AC4ED137A2A
:100EF000D4ED027A94ED0E7A70EEC70A67EEA07A0E
:100F000087EE807A84ED127A237D13F0040F3DD1B1
:100F1000237D13F0200F3DD1237D13F0020F3DD12F
:100F2000237D13F0400F3DD1237D13F0010F3DD100
:100F3000D4ED117A94ED137A77EE877AC4ED117AB5
:100F400094ED107A77EE877A94ED127A77EE877ABD
:100F5000C4ED147A237D13F0100F2BD12046FFF738
:100F600000FFE36A236394ED140A84ED150AA36C71
:100F7000A365636BA363E36CE363BDEC028B10BDFD
:100F8000FFF706FF8AE7F1EE607A9CE72046FFF75D
:100F900017FEBDE72046FFF728FEBDE72046FFF716
:100FA000A1FEBDE72046FFF7AEFEBDE72046FFF7F6
:100FB0004FFEBDE72046FFF7BDFECFE700232365C8
:100FC000E364CEE70346002080ED000AC0ED010A8D
:100FD00080ED021AC0ED061A80ED032AC0ED042A46
:100FE000037570477047704710B44FF0E0235C6999
:100FF000C0EB00104FEA401C9B69002104E0E01A9E
:1010000002441144614509D21A464FF0E0239B691E
:101010009A42FAD0F3D9D21A1144F3E75DF8044B9F
:10102000704710B504E04FF47A70FFF7DDFF2046FB
:10103000431E9CB20028F6D110BD000008B5002266
:101040000121024803F01CF808BD00BF0008025847
:1010500008B501221146024803F012F808BD00BF8E
:101060000008025808B500220821024803F008F8D9
:1010700008BD00BF0008025808B501220821024837
:1010800002F0FEFF08BD00BF0008025800B587B09F
:101090008DF80F004FF47A73009301230DF11702BE
:1010A0000DF10F01034805F01FFE9DF8170007B072
:1010B0005DF804FBBC86002410B50C46FFF7E6FF84
:1010C0002046FFF7E3FF10BD10B50C4640F080004E
:1010D000FFF7DCFF5520FFF7D9FF207010BD38B5B2
:1010E0000D46144640F08000FFF7D0FF06E0552083
:1010F000FFF7CCFF05F8010B013CE4B2002CF6D160
:1011000038BD000070B5FFF799FF8020FFF7BEFFE4
:101110005520FFF7BBFF5520FFF7B8FFFFF798FFFB
:101120009620FFF761FFFFF789FF8020FFF7AEFFF2
:101130005520FFF7ABFF5520FFF7A8FFFFF788FF0B
:101140009620FFF751FFFFF779FFB6217E20FFF7CA
:10115000B3FFFFF77DFF5020FFF763FFFFF76EFF40
:101160008020FFF793FF5520FFF790FF5520FFF7F2
:101170008DFFFFF76DFF9620FFF736FFFFF75EFF4D
:101180008020FFF783FF5520FFF780FF5520FFF7F2
:101190007DFF0446FFF75CFF9620FFF725FF1E2C1E
:1011A00032D10024052C2DD8FFF748FF174A04EB55
:1011B0004403D1184E78D55C31462846FFF77CFFB2
:1011C000FFF746FF9620FFF70FFFFFF737FF45F0C9
:1011D0008000FFF75BFF5520FFF758FF5520FFF712
:1011E00055FF0546FFF734FF9620FFF7FDFEAE42A0
:1011F00002D10134E4B2D5E704EB4404034B2344A9
:10120000987800E0002070BDFF20FCE760D3000864
:1012100070B582B000248DF80740FFF723FF0DF171
:10122000070529462046FFF74FFFFFF725FF9620C9
:10123000FFF7DAFEFFF716FF29462046FFF744FFC7
:10124000FFF71AFF9620FFF7CFFEFFF70BFFB6213F
:101250001420FFF731FFFFF70FFF5020FFF7E1FEEB
:10126000FFF700FF29462046FFF72EFFFFF704FF98
:101270009620FFF7B9FEFFF7F5FE29462046FFF757
:1012800023FFFFF7F9FE9620FFF7AEFE9DF807302B
:101290000F2B2ED1052C29D8FFF7E4FE164A04EBBC
:1012A0004403D1184D78D65C29463046FFF704FF39
:1012B000FFF7E2FE9620FFF797FEFFF7D3FE0DF152
:1012C00007013046FFF700FFFFF7D6FE9620FFF735
:1012D0008BFE9DF807309D4202D10134E4B2D9E77C
:1012E00004EB4404044B2344987800E0002002B04F
:1012F00070BDFF20FBE700BF4CD3000810B5FFF71F
:1013000071FEFFF770FEFFF7FDFE0446FFF780FF5A
:101310002043C0B210BD00002DE9F04182B0064666
:101320000C461546002700970197FFF787FE92208D
:10133000FFF7ACFE062269461220FFF7D0FEFFF74A
:1013400087FE9DF801301B021BB29DF8002013435D
:1013500007EE903AF8EEE77A474A92ED007A67EEA8
:10136000877AC4ED007A9DF803301B021BB29DF80A
:1013700002100B4307EE903A92ED007AF8EEE77A0E
:1013800067EE877AC4ED017A9DF805301B021BB227
:101390009DF80420134307EE903AF8EEE77A67EEE3
:1013A000877AC4ED027AFFF75DFE08226946384667
:1013B000FFF795FEFFF760FE9DF800300F2B28D059
:1013C000FFF73CFEA220FFF761FE022269462220C1
:1013D000FFF785FEFFF73CFE9DF800209DF80130E9
:1013E0005B0943EAC203B3F5806F01DBA3F5006339
:1013F00007EE903AF8EEE77AB4EE007A67EE877A75
:10140000B3EE077A77EE877AC5ED007A02B0BDE8D1
:10141000F0819DF803301B021BB29DF8022013439C
:1014200007EE903AF8EEE77A144A92ED007A67EE0A
:10143000877AC6ED007A9DF805301B021BB29DF835
:1014400004100B4307EE903A92ED007AF8EEE77A3B
:1014500067EE877AC6ED017A9DF807301B021BB252
:101460009DF80620134307EE903AF8EEE77A67EE10
:10147000877AC6ED027AA3E708000024040000245E
:10148000002300E001333F2B21DC124AD25C202AEA
:10149000F8D15A1C0F498A5C402AF3D110B403EBEF
:1014A000010C0D4CC858DCF80410DCF80820DCF8FE
:1014B0000C300FC4DCF81000DCF81410DCF8182035
:1014C000DCF81C300FC400205DF8044B704701208D
:1014D000704700BF74030024F403002400B589B0F2
:1014E000FFF7CEFF60B98446002301930293039374
:1014F0000493059306930793244B1B78202B02D06B
:1015000009B05DF804FB214A5278402AF8D14FF621
:10151000FF715940891A1E4B1980034615E0590086
:10152000CA1C1A4810F802E05A1C10F8120040EACF
:101530000E232031694421F81C3C15490B88A3EB8C
:101540000E039BB21B1A0B8013460D2BE7DD0F4BCE
:10155000DA7F9B7F43EA02230E4A13800C4A1288EB
:101560009342CDD109E008AB03EB4C0333F81C2CBC
:10157000094B23F81C200CF1010CBCF1050FF2DD26
:10158000064B054A07CA83E80700B9E7F4030024BD
:101590006603002464030024680300245803002425
:1015A00008B540220249034807F03EFA08BD00BFD3
:1015B000B4030024EC88002438B5074C074D0FCD48
:1015C0000FC40FCD0FC40FCD0FC495E80F0084E8F2
:1015D0000F00FFF783FF38BD74030024B403002419
:1015E00008B509E0094B00221A70084B1A78084B1D
:1015F0001A70012009F021F9064B1B89B3F5FA6F27
:10160000F0D1024B01221A70EFE700BF180400244A
:10161000140400245803002408B5FFF7C1FF01207B
:1016200009F00BF9FBE70000274AD2ED007A274BBF
:10163000C3ED007A264B93ED007A82ED007A30EE0E
:10164000600A83ED000A20EE011A224B83ED001A96
:1016500077EE006A77EEA67A67EEA17A1E4BC3EDAD
:10166000007AF4EEE27AF1EE10FA01DDC3ED002A21
:1016700030EE470A20EE020A184B83ED000A164BA3
:10168000D3ED007A31EE271A30EE010A144B83EDC8
:10169000000AB4EEC30AF1EE10FA01DD83ED003A60
:1016A0000F4BD3ED007AF5EEC07AF1EE10FA08D4C4
:1016B0000B4BD3ED007AFCEEE77A17EE903A98B236
:1016C000704700221A60F3E7300400242C04002441
:1016D00034040024280400242404002420040024CA
:1016E0001C0400244FF07E5303600023436083609A
:1016F000C360704708B5D2ED022A92ED012AD2EDFF
:10170000001A91ED021AD1ED010A91ED000AFEF7DF
:10171000FFFF08BDF8B52DED028B04460F461646B7
:101720001D46D0ED000A90ED030A20EE800AD0EDB0
:10173000017A90ED027A27EE877A30EE070A60EEA2
:10174000A00A67EEA77A70EEA70A70EEA00AB7EEBD
:10175000008A70EEC80A30EE000A0BF003FB87ED3A
:10176000000AD4ED017A94ED037A67EE877A94ED5E
:10177000007AD4ED026A27EE267A77EEC77AB8EEC1
:10178000000A27EE800A0BF0C1FA86ED000AD4EDBC
:10179000000A94ED010A20EE800A94ED027AD4ED5D
:1017A000037A27EE277A30EE070A60EEA00A67EE8A
:1017B000A77A70EEA70A70EEA00A70EEC80A30EEA3
:1017C000000A0BF0CFFA85ED000ABDEC028BF8BDE4
:1017D0002DE9F0470A2009F030F80C212C4806F0DA
:1017E000EDF902E0642009F028F8FFF787FD0028F2
:1017F000F8D12848FFF776FFFFF7CCF905460F46EA
:10180000DFF8B490244C254E4A4621463046FFF777
:1018100083FDDFF880A0224631465046FFF76AFF7D
:101820001F4EA6F108083346321F41465046FFF7C7
:1018300071FFDFED1C1A9FED1C3AF0EE612AB2EE4B
:10184000042A9FED1A1AD9ED000AB3EE0E0AFFF72B
:10185000EBFE0F4B1B6818642268154BDA60626858
:101860001A61A2685A6156F8082C9A6056F8042C3E
:101870001A60D8F808205A60FFF78CF9401B61EB1A
:1018800007010C4B18605960012008F0D6FFB3E740
:10189000908700244C040024600400246C0400247D
:1018A000480400240000C8420000FA4500009643A6
:1018B000CC040024380400245C04002401380328EC
:1018C0002CD8DFE800F0020C1621DFED157A20EEAF
:1018D000270ABCEEC00A134B83ED0F0A7047DFEDF9
:1018E000107A20EE270ABCEEC00A0E4B83ED0D0ADB
:1018F0007047DFED0B7A20EE270ABCEEC00A4FF0EE
:10190000804383ED0F0A7047DFED057A20EE270A4A
:10191000BCEEC00A4FF0804383ED0D0A704700BF54
:10192000007EBB460000014038B52DED028B00243F
:10193000434B1C709FED438AB0EE480A0120FFF72D
:10194000BDFFB0EE480A0220FFF7B8FFB0EE480A2C
:101950000320FFF7B3FFB0EE480A0420FFF7AEFF05
:10196000394D2146284606F029F90821284606F077
:1019700025F9364D2146284606F020F9082128464B
:1019800006F01CF94EE0324B93ED000ADFED2D7AA4
:1019900030EE270A2F4C84ED000A93ED017A37EEE2
:1019A000277A84ED017A93ED027A37EE277A84ED77
:1019B000027A93ED037A77EE277AC4ED037A012059
:1019C000FFF77CFF94ED010A0220FFF777FF94ED0B
:1019D000020A0320FFF772FF94ED030A0420FFF7C9
:1019E0006DFF27E0DFED178AB0EE680A0120FFF7F0
:1019F00065FFB0EE680A0220FFF760FFB0EE680AEC
:101A00000320FFF75BFFB0EE680A0420FFF756FFE4
:101A1000FFF7A2F830EE480A0F4B83ED000A0120D1
:101A200008F00BFFFFF798F8B0EE408A044B1B78E4
:101A3000012BA8D0024B1B78002BD3D0E8E700BFC6
:101A400018040024CDCC4C3D28880024DC870024D9
:101A5000940400247C0400247804002408B50120A8
:101A600008F0EBFEFBE700003A4B9B8840F2DC52AB
:101A7000934237D807EE903AF8EE677A9FED367AC0
:101A800077EEC77AB2EE047A67EEC77A334BC3EDCE
:101A9000007A334B93ED005A304AD2ED007A75EE5E
:101AA000276A93ED016A76EE865A93ED027A75EE17
:101AB000C75A2C4BC3ED005A77EEC57A76EE275AFB
:101AC00077EE255AC3ED015A77EEC67A77EEC77ADC
:101AD000C3ED027A76EEC66A37EE267A83ED037A94
:101AE00000231BE01D4B00221A60D2E7F5EEC07AFE
:101AF000F1EE10FA26D91B4A02EB8302D2ED006AFE
:101B00009FED197AC6EE877A9FED187A67EE877A8D
:101B1000174A02EB8302C2ED007A0133032B17DC74
:101B2000104A02EB8302D2ED007A9FED0F7AF4EEB9
:101B3000C77AF1EE10FAD9DB0A4A02EB830282ED92
:101B4000007AD8E7074A02EB830200211160D2E74E
:101B5000704700BF580300240080BB449004002459
:101B6000E4040024A404002400409C45CDCC4C3D5A
:101B7000940400240E4AD2ED027A9FED0E7A67EEAD
:101B8000877A0D4BC3ED027AD2ED017A67EE877A40
:101B9000C3ED017AD2ED007A67EE877AC3ED007A61
:101BA000D168D9601169196152695A61704700BFE3
:101BB000CC0400241B2F6542B40400241C4B1B786A
:101BC000012B07D01B4B00221A605A601A4A9268F8
:101BD0009A607047174BD3ED026A184AD18807EE16
:101BE000901AF8EE677A9FED167A77EEC77A9FED36
:101BF000156A67EE867A76EEE77AC3ED027A518847
:101C000007EE901AF8EE677A77EEC77ADFED0E6A84
:101C100067EEA67AC3ED017A128807EE902AF8EEF5
:101C2000677A77EEC77A67EEE67AC3ED007A704797
:101C300018040024F0040024B404002458030024F1
:101C40000080BB4417B7D1388FC2753D10B52DED5C
:101C5000048B9FED409A9FED408ADFED408A07207C
:101C6000F7EE002AB0EE492AF0EE481AB0EE681AF4
:101C7000F0EE480AB3EE040AFFF7A4F9384C6060AE
:101C8000FFF7CEF820600720F0EE482AB3EE0E2AC8
:101C9000F0EE481AB0EE481AF0EE480AB7EE000A25
:101CA000FFF790F92F4C6060FFF7BAF8206007202B
:101CB000F7EE002AB0EE492AF0EE481AB0EE681AA4
:101CC000F0EE480AB3EE040AFFF77CF9264C606098
:101CD000FFF7A6F820600720F0EE482AB3EE0E2AA0
:101CE000F0EE481AB0EE481AF0EE480AB7EE000AD5
:101CF000FFF768F91D4C6060FFF792F8206007203D
:101D0000F7EE002AB0EE492AF0EE481AB0EE681A53
:101D1000F0EE480AB3EE040AFFF754F9144C606081
:101D2000FFF77EF820600720DFED122AB3EE0E2ABF
:101D3000F0EE481AB0EE481AF0EE480AB7EE000A84
:101D4000FFF740F90C4C6060FFF76AF82060BDECCB
:101D5000048B10BD00409C45000000000AD7233CC6
:101D6000300500242805002420050024180500243F
:101D7000100500249A99993E08050024F8B5204FD3
:101D8000204CD7ED000A94ED000A1F4B1868FFF7AE
:101D900079F8F0EE400A1D4E86ED000A94ED030A34
:101DA0001B4B1868FFF76EF81A4D85ED000AD7ED4A
:101DB000010A94ED010A184B1868FFF763F8F0EE7A
:101DC000400A86ED010A94ED040A144B1868FFF7E7
:101DD00059F885ED010AD7ED020A94ED020A104B7D
:101DE0001868FFF74FF8F0EE400A86ED020A94ED0E
:101DF000050A0C4B1868FFF745F885ED020AF8BD97
:101E0000F0040024B404002428050024FC04002469
:101E100030050024E40400241805002420050024D3
:101E2000080500241005002408B5FFF7A3FEFFF7FE
:101E3000C5FEFFF7A3FFFFF717FE08BD38B5FFF794
:101E400005FFFEF7A7FE04460D46FFF7EDFFFEF780
:101E5000A1FE001B61EB0501FEF702FB024B1860BF
:101E6000012008F0EAFCECE78C04002400B583B004
:101E70000B4BD3F8D82042F00102C3F8D820D3F896
:101E8000D83003F001030193019B002211460D207D
:101E900000F016FF0D2000F023FF03B05DF804FBF7
:101EA0000044025808B50AF08BFA012008F0C5FC7E
:101EB000FBE70000034B0360034B0B6080231360C0
:101EC000704700BF940B002494090024034B036067
:101ED000034B0B604FF48073136070473809002484
:101EE0003805002410B5B2B03F4C0DF1AC0CA6463D
:101EF000BEE80F00ACE80F009EE807008CE8070082
:101F000000212BA808F066FC384B18600DF1900CEE
:101F100004F11C0EBEE80F00ACE80F009EE80700BD
:101F20008CE80700002124A808F054FC304B18600E
:101F30000DF1740C04F1380EBEE80F00ACE80F0090
:101F40009EE807008CE8070000211DA808F042FC6D
:101F5000284B18600DF1580C04F1540EBEE80F0028
:101F6000ACE80F009EE807008CE80700002116A8E7
:101F700008F030FC204B18600DF13C0C04F1700EA1
:101F8000BEE80F00ACE80F009EE807008CE80700F1
:101F900000210FA808F01EFC184B18600DF1200C52
:101FA00004F18C0EBEE80F00ACE80F009EE80700BD
:101FB0008CE80700002108A808F00CFC104B186002
:101FC0000DF1040E04F1A80CBCE80F00AEE80F0000
:101FD0009CE807008EE80700002101A808F0FAFB42
:101FE000084B186032B010BD88D20008308600243B
:101FF0002C860024CC6500246C5500240C4500245C
:10200000AC3400244C2C0024F0B58BB005AD00247A
:1020100005940694079408940994364BD3F8E0206D
:1020200042F00402C3F8E020D3F8E02002F00402FA
:102030000092009AD3F8E02042F08002C3F8E0203A
:10204000D3F8E02002F080020192019AD3F8E02058
:1020500042F00102C3F8E020D3F8E02002F00102D0
:102060000292029AD3F8E02042F00202C3F8E02084
:10207000D3F8E02002F002020392039AD3F8E020A2
:1020800042F01002C3F8E020D3F8E03003F0100370
:102090000493049B184E01224FF46041304601F036
:1020A000EFFF22460921304601F0EAFF4FF460437A
:1020B000059301270697079408942946304601F0B6
:1020C000D5FE092305930697079403230893294611
:1020D000304601F0CBFE4FF4807305930223069344
:1020E0000794089409942946044801F0BFFE0BB0F8
:1020F000F0BD00BF0044025800080258000002581A
:1021000008B50268034B9A4200D008BD00F060FD9C
:10211000FBE700BF00E0004072B6FEE700B59DB0EF
:102120004C22002109A80AF00DFD2022002101A85F
:102130000AF008FD022002F01BFE00230093264B4C
:102140009A6922F440429A619B6903F440430093E8
:10215000009B214B9B6913F4005FFAD02323099362
:102160004FF480330A9301220C9240230D930F9277
:10217000022312931393149328211591169204228B
:10218000179218930C23199300231A931B9309A8F1
:1021900002F020FED8B93F230193032102910023CE
:1021A0000393082304934023059306934FF480621E
:1021B0000792089301A803F04DFA50B94FF480221A
:1021C0000021084603F0F8F81DB05DF804FBFFF7A6
:1021D000A3FFFFF7A1FF00BF0048025808B500F0B9
:1021E000C9FCFFF79BFFFFF70FFFFFF73FFE00F073
:1021F00013F800F099FB00F03FF800F0AFFA00F0A0
:1022000033FB00F0EBFB4FF4F070FEF7E1FBFFF760
:1022100069FE08F0DAFAFEE708B51548154B0360C9
:102220004FF480034360002383600722C2604FF0B5
:10223000007202614FF0807242614FF080628261F1
:102240004FF08042C261036243628362C3624263B1
:102250008363C363036443648364C3640365436546
:10226000836504F079FC00B908BDFFF755FFFBE773
:10227000BC8600240038004008B51648164B0360A1
:102280004FF4800343604FF4003383600723C3603F
:10229000002303614FF0807242614FF080628261DF
:1022A0004FF08052C261036243628362C3624FF0A7
:1022B000804242638363C363036443648364C3648F
:1022C00003654365836504F047FC00B908BDFFF76B
:1022D00023FFFBE734860024001400582DE9F04169
:1022E000BAB0044600213591369137913891399131
:1022F000B82206A80AF026FC2368544A934205D067
:10230000534A934252D03AB0BDE8F0814FF4805224
:102310000023CDE9062306A803F05EFC002842D185
:102320004C4BD3F8E82042F48042C3F8E820D3F8BD
:10233000E82002F480420092009AD3F8E02042F0B4
:102340000402C3F8E020D3F8E02002F00402019276
:10235000019AD3F8E02042F00202C3F8E020D3F85B
:10236000E03003F002030293029B062335934FF003
:102370000208CDF8D8800027379703263896052520
:10238000399535AC2146344801F070FD4FF40053C7
:102390003593CDF8D88037973896399521462F4810
:1023A00001F064FDAFE7FFF7B7FEB9E74FF48042F5
:1023B0000023CDE906234FF0A043319306A803F094
:1023C0000BFC00283FD1234BD3F8F42042F020022D
:1023D000C3F8F420D3F8F42002F020020392039A09
:1023E000D3F8E02042F00102C3F8E020D3F8E02067
:1023F00002F001020492049AD3F8E02042F00402B1
:10240000C3F8E020D3F8E03003F004030593059B04
:102410008023359302263696002437943894082377
:10242000399335AD29460E4801F020FD4FF4805315
:1024300035933696379438940523399329460648C0
:1024400001F014FD5FE7FFF767FEBCE700380040CE
:1024500000140058004402580008025800040258B2
:102460000000025800B583B00A4BD3F8F42042F0C4
:102470000202C3F8F420D3F8F43003F0020301930E
:10248000019B00220F216FF0010000F019FC03B046
:102490005DF804FB004402580F2801D90120704761
:1024A00010B58AB0044600220146A12000F008FCC5
:1024B000A12000F015FC174B1C60174BD3F8EC2043
:1024C00042F08072C3F8EC20D3F8EC3003F0807354
:1024D0000093009B01A902A803F04CFA03F038FA1C
:1024E00043000E4AA2FB03239B0C013B0C480D4A00
:1024F000026040F2E732C260436000230361836000
:1025000005F05CF910B101200AB010BD044804F0D8
:10251000B3FFF9E7180000240044025883DE1B4390
:102520004487002400E00040FEE7FEE7FEE7FEE708
:10253000FEE7704708B5024801F0FEF808BD00BF8D
:102540007488002408B5024802F0D1F808BD00BF25
:1025500024DF002408B5024804F0E3FF08BD00BFF3
:1025600044870024224AD2F8883043F47003C2F82A
:102570008830204B1B6803F00F03062B06D81D4A3A
:10258000136823F00F0343F0070313601A4B1A6814
:1025900042F001021A6000221A611968174A0A40C3
:1025A0001A60144B1B6813F0080F06D0114A136809
:1025B00023F00F0343F0070313600F4B00229A61CF
:1025C000DA611A620E4999620E49D9620E4919639D
:1025D0005A639963DA6319645A64196821F4802193
:1025E00019601A66094B43F2D2021A60704700BFA5
:1025F00000ED00E000200052004402587FEDF6EAB2
:10260000000202020000FF018002010100400052AE
:1026100084B003681A4A934207D0B3F1804F12D0B6
:10262000184A93421DD004B07047174BD3F8F020DE
:1026300042F00102C3F8F020D3F8F03003F00103B8
:102640000193019BEFE7104BD3F8E82042F0010221
:10265000C3F8E820D3F8E83003F001030293029BAB
:10266000E1E7094BD3F8E82042F00202C3F8E82082
:10267000D3F8E83003F002030393039BD3E700BFD2
:1026800000000140000400400044025800B589B039
:102690000023039304930593069307930368294A41
:1026A000934208D0B3F1804F1ED0274A934233D0D3
:1026B00009B05DF804FB254BD3F8E02042F010028E
:1026C000C3F8E020D3F8E03003F010030093009B40
:1026D0004FF408530393022304930123079303A9A0
:1026E0001B4801F0C3FBE3E7184BD3F8E02042F0AE
:1026F0000102C3F8E020D3F8E03003F001030193B6
:10270000019B05230393022304930123079303A949
:10271000104801F0ABFBCBE70C4BD3F8E02042F0C4
:102720000202C3F8E020D3F8E03003F00203029382
:10273000029B022303930493079303A9064801F025
:1027400095FBB5E70000014000040040004402583A
:1027500000100258000002580004025810B59CB046
:102760000024189419941A941B9415941694179491
:102770000E940F9410941194129413941494342280
:10278000214601A80AF0DEF93548364B0360C7231D
:102790004360846045F6BF53C36004614461802395
:1027A000836105F00BF8002845D14FF4805318934E
:1027B00018A92B4805F056F900283FD1284805F004
:1027C0002DF800283DD1002315931693179315A9D2
:1027D000234805F0ABFA002836D160230E9300227F
:1027E0000F92109211921292139214920EA91C48F9
:1027F00005F08EF858BB08220EA9194805F088F894
:1028000040BB0023019302930393049305934FF479
:1028100000520692079309934FF000720A920B93AD
:102820000D9301A90E4805F0D9FAB0B90C48FFF78D
:102830002DFF1CB010BDFFF76FFCB6E7FFF76CFC77
:10284000BCE7FFF769FCBEE7FFF766FCC5E7FFF7EB
:1028500063FCD0E7FFF760FCD3E7FFF75DFCE5E73B
:10286000288800240000014000B58FB000230A939F
:102870000B930C930D930793089309930093019383
:102880000293039304930593069326484FF08042E6
:102890000260C7224260836045F6BF52C260036196
:1028A0008023836104F08AFF50BB4FF480530A9366
:1028B0000AA91C4805F0D6F828BB1A4804F0AEFF58
:1028C00020BB00230793099307A9164805F02EFAA9
:1028D000F8B96023009300220192029204926946A3
:1028E000104805F015F8B8B9082269460D4805F0FA
:1028F0000FF8A0B90B48FFF7C9FE0FB05DF804FB55
:10290000FFF70AFCD1E7FFF707FCD6E7FFF704FC67
:10291000D7E7FFF701FCDCE7FFF7FEFBE4E7FFF793
:10292000FBFBE7E7DC87002400B58FB000230A93A8
:102930000B930C930D9307930893099300930193C2
:10294000029303930493059306932248224A02605C
:1029500017224260836042F20F72C26003618023DB
:10296000836104F02BFF28BB4FF480530A930AA91C
:10297000184805F077F800BB164804F04FFFF8B987
:1029800000230793099307A9124805F0CFF9D0B99E
:102990006023009300230193029304930C22694661
:1029A0000C4804F0B5FF88B90A48FFF76FFE0FB076
:1029B0005DF804FBFFF7B0FBD6E7FFF7ADFBDBE705
:1029C000FFF7AAFBDCE7FFF7A7FBE1E7FFF7A4FBB4
:1029D000EAE700BF908700240004004008B51748CC
:1029E000174B03604FF4E133436000238360C360FF
:1029F00003610C2242618361C361036243628362AB
:102A000005F087FF70B900210C4806F078F860B92E
:102A100000210A4806F098F850B9084806F050F826
:102A200048B908BDFFF778FBEDE7FFF775FBEFE767
:102A3000FFF772FBF1E7FFF76FFBF2E7EC8800248A
:102A4000007C004030B5B7B004460021319132918E
:102A5000339134913591B82202A80AF073F82268B4
:102A60002A4B9A4201D037B030BD02220023CDE973
:102A7000022302A803F0B0F8002840D1244BD3F879
:102A8000E82042F00042C3F8E820D3F8E82002F042
:102A900000420092009AD3F8E02042F01002C3F8FE
:102AA000E020D3F8E03003F010030193019B0323EF
:102AB00031930223329300253395349508233593BF
:102AC00031A9144801F0D2F91348144B0360512383
:102AD00043608560C5604FF4806303614561856133
:102AE0004FF48073C3614FF440330362456200F0DA
:102AF0000BFB38B9084BC4F880309C63B3E7FFF791
:102B00000BFBBBE7FFF708FBF4E700BF007C0040CE
:102B1000004402580010025874880024400002400B
:102B2000DFF834D0FFF71EFD0C480D490D4A002395
:102B300002E0D458C4500433C4188C42F9D30A4A72
:102B40000A4C002301E013600432A242FBD30AF0D6
:102B50004DF8FFF743FB70470000052400000024F8
:102B60005C020024B8D4000860020024D8E60024E7
:102B7000FEE7000010B5032000F090F802F06EFCB4
:102B80000F498B69C3F303230E4AD35C03F01F0381
:102B9000D8408B6903F00F03D35C03F01F0320FAC6
:102BA00003F3094A1360094B18600F20FFF774FC08
:102BB00010B10124204610BD0446FFF753FCF9E78D
:102BC000004402582CD400080C00002410000024FB
:102BD000034B1B78034A11680B441360704700BF16
:102BE0001400002480890024014B1868704700BF3E
:102BF0008089002438B50446FFF7F6FF0546B4F196
:102C0000FF3F02D0044B1B781C44FFF7EDFF401B35
:102C1000A042FAD338BD00BF14000024002807DB0F
:102C200000F01F02400901239340024A42F820307D
:102C3000704700BF00E100E0002804DB0901C9B2D1
:102C4000044B1954704700F00F000901C9B2024B40
:102C50001954704700E400E014ED00E000B500F006
:102C60000700C0F1070CBCF1040F28BF4FF0040CA3
:102C7000031D062B0FD9C31E4FF0FF3E0EFA0CF0BA
:102C800021EA000199400EFA03FE22EA0E0241EA0F
:102C900002005DF804FB0023EEE700000649CB6864
:102CA00023F4E0631B041B0C000200F4E060034308
:102CB000024A1A43CA60704700ED00E00000FA05BE
:102CC00010B50446054BD868C0F30220FFF7C6FFD5
:102CD00001462046FFF7B0FF10BD00BF00ED00E049
:102CE00008B5FFF79BFF08BDF0B4876D0468664E1A
:102CF000664DAC4218BFB44242D01835AC423FD00A
:102D00001835AC423CD01835AC4239D01835AC42FD
:102D100036D01835AC4233D01835AC4230D005F53A
:102D20005675AC422CD01835AC4229D01835AC427F
:102D300026D01835AC4223D01835AC4220D01835F7
:102D4000AC421DD01835AC421AD01835AC4217D061
:102D50004F4DAC4214D01435AC4211D01435AC42B6
:102D60000ED01435AC420BD01435AC4208D014351B
:102D7000AC4205D01435AC4202D01435AC4207D178
:102D8000446E856E6560C46E14B1046F456F6560F6
:102D900004683D4E3D4DAC4218BFB44252D0183588
:102DA000AC424FD01835AC424CD01835AC4249D06B
:102DB0001835AC4246D01835AC4243D01835AC4239
:102DC00040D005F55675AC423CD01835AC4239D0F0
:102DD0001835AC4236D01835AC4233D01835AC4239
:102DE00030D01835AC422DD01835AC422AD0183529
:102DF000AC4227D0264E274DAC4218BFB44211D06A
:102E0000254DAC420ED01435AC420BD01435AC423B
:102E100008D01435AC4205D01435AC4202D014357C
:102E2000AC4224D1C46D04F01F050124AC407C6089
:102E3000046863608368402B20D00368996003684E
:102E4000DA6014E0C46D04F01F0C3F2404FA0CF4A3
:102E5000BC6005682C6824F480242C6004686360DE
:102E60008368402B05D0036899600368DA60F0BC82
:102E7000704703689A600368D960F8E703689A604E
:102E80000368D960F3E700BF100002402800024049
:102E9000085402581C5402583054025803682749F9
:102EA000274A934218BF8B422FD0183293422CD01E
:102EB0001832934229D01832934226D018329342C6
:102EC00023D01832934220D0183293421DD002F5FD
:102ED0005672934219D01832934216D01832934248
:102EE00013D01832934210D0183293420DD01832BA
:102EF00093420AD01832934207D01832934204D03A
:102F000023F0FF038365806D704710B4D9B2103988
:102F10000C4AA2FB0142C2F302120B4CA25CC26536
:102F20005F2907D96FF3090304338365806D5DF86A
:102F3000044B70476FF309038365F7E71000024005
:102F400028000240ABAAAAAA3CD4000883699BB916
:102F5000836A012B0AD0022B02D00BB100207047EC
:102F6000C36A13F0807F2AD100207047C36AB3F18F
:102F7000C07F26D000207047B3F5005F0AD0836A77
:102F8000022B26D9032B26D1C36A13F0807F24D1CC
:102F900000207047836A032B03D8DFE803F0140492
:102FA000140A00207047C36A13F0807F0DD10020FF
:102FB0007047C36AB3F1C07F09D000207047012079
:102FC00070470120704701207047012070470120A1
:102FD00070470120704700207047012070470000B3
:102FE00003682149214A934218BF8B4227D01432EB
:102FF000934224D01432934221D0143293421ED0F3
:10300000143293421BD01432934218D0143293429C
:1030100015D0DAB2103A1649A1FB0212120915496D
:103020001944A8291ED9144B13449B000366134B63
:10303000436602F01F020123934083667047DBB2B0
:10304000083B0F4AA2FB03230E4A02EB1312920025
:1030500002660D4A4266C3F30413012202FA03F327
:10306000836670470832DEE7085402581C54025841
:10307000ABAAAAAAF0FBFDBF0082001080080240A4
:10308000CDCCCCCC009600168058025801794A1E4F
:10309000072A2BD830B40368154D164CA34218BF2D
:1030A000AB4218D01434A34215D01434A34212D02A
:1030B0001434A3420FD01434A3420CD01434A342CE
:1030C00009D01434A34206D00B4B0B449B00C366BB
:1030D0000A4B036705E00A4B0B449B00C366094B90
:1030E000036701239340436730BC7047704700BFBC
:1030F000085402581C5402583F82001040090240F4
:103100003F9600164059025870B50446FFF76CFD13
:10311000002C00F0B781054623685349534A934277
:1031200018BF8B420CBF0121002150D018329342AE
:103130004DD0183293424AD01832934247D01832B9
:10314000934244D01832934241D0183293423ED039
:1031500002F5567293423AD01832934237D0183261
:10316000934234D01832934231D0183293422ED049
:10317000183293422BD01832934228D018329342FF
:1031800025D03B493B4A934218BF8B4200F0328125
:10319000394A934200F02E811432934200F02A8182
:1031A0001432934200F026811432934200F02281BF
:1031B0001432934200F01E811432934200F01A81BF
:1031C00040236365032384F8353001204AE002225E
:1031D00084F83520002284F8342079BB274A9342B2
:1031E0002CD01832934229D01832934226D018326C
:1031F000934223D01832934220D0183293421DD0EC
:1032000002F55672934219D01832934216D01832F2
:10321000934213D01832934210D0183293420DD0FB
:10322000183293420AD01832934207D01832934290
:1032300004D01A6822F001021A6003E01A6822F032
:1032400001021A6023681A6812F0010F18D0FFF704
:10325000CBFC431B052BF5D920236365032384F89E
:103260003530012070BD00BF100002402800024030
:10327000085402581C54025830540258400002406E
:103280001A6881491140A268E0680243206902433C
:1032900060690243A0690243E0690243206A024375
:1032A0000A43616A042900F090806168522900F2A3
:1032B00096803F29C0F08E803F39744820FA01F192
:1032C00011F0010F01D042F480121A60266875696E
:1032D00025F00705636A1D43042B08D1A36A1D432B
:1032E000E36A23B12046FFF731FE00287CD17561E7
:1032F0002046FFF7D3FDE36D03F01F023F23934009
:10330000836023686249634A934218BF8B4242D06C
:10331000183293423FD0183293423CD01832934235
:1033200039D01832934236D01832934233D0183203
:10333000934230D002F5567293422CD01832934209
:1033400029D01832934226D01832934223D0183213
:10335000934220D0183293421DD0183293421AD093
:103360001832934217D04C4A934214D014329342ED
:1033700011D0143293420ED0143293420BD0143237
:10338000934208D01432934205D01432934202D0B3
:103390001432934213D12046FFF722FEA368802BFC
:1033A00063D0236E22791A60636EA26E5A606368DE
:1033B000013B072B5CD90023E3662367636700208A
:1033C0006065012384F835304CE7E16A206B0143E6
:1033D0000A436AE7293905293FF677AF73E774395D
:1033E00003293FF672AF6EE740236365012084F83E
:1033F000350037E7022284F83520002284F8342093
:1034000019686FF31011A268402A2CD0802A27D0A7
:103410000022E06842EAD002206942EAD0026069F4
:1034200042EAD002A06942EAD002E06942EAD00250
:10343000206A42EA10120A431A602268174B1344AA
:10344000174AA2FB03231B099B00E3652046FFF7F5
:1034500025FDE26D02F01F0101228A40426050E723
:103460004FF48042D5E71022D3E70023636098E74A
:103470002046FFF70BFEE36E00221A60236F626F97
:103480005A609CE70120EDE63F8010FE0F030F001D
:10349000100002402800024008540258F8ABFDA773
:1034A000CDCCCCCC002800F03D8170B5044690F81E
:1034B0003400012800F03881012084F8340094F8A9
:1034C0003500012807D04FF400636365002384F8BA
:1034D0003430012070BD022084F835000020606582
:1034E0002068924E924DA84218BFB0422FD0183596
:1034F000A8422CD01835A84229D01835A84226D089
:103500001835A84223D01835A84220D01835A84233
:103510001DD005F55675A84219D01835A84216D009
:103520001835A84213D01835A84210D01835A84233
:103530000DD01835A8420AD01835A84207D0183542
:10354000A84204D0056825F00105056003E0056880
:1035500025F0010505602046FFF7C6FB2368734987
:10356000734A934218BF8B4238D01832934235D0F9
:103570001832934232D0183293422FD018329342ED
:103580002CD01832934229D01832934226D002F51B
:103590005672934222D0183293421FD0183293426F
:1035A0001CD01832934219D01832934216D01832D8
:1035B000934213D01832934210D0183293420DD058
:1035C0001A6822F00E0242F00A021A60236C93B1CC
:1035D0002268136843F0040313600CE01A6822F0B9
:1035E0001E0242F016021A60236C23B1226813688F
:1035F00043F00803136023684C494D4A934218BFB7
:103600008B4242D0183293423FD0183293423CD082
:103610001832934239D01832934236D0183293423E
:1036200033D01832934230D002F5567293422CD0E8
:103630001832934229D01832934226D0183293423E
:1036400023D01832934220D0183293421DD0183222
:1036500093421AD01832934217D0364A934214D06C
:103660001432934211D0143293420ED0143293424A
:103670000BD01432934208D01432934205D0143246
:10368000934202D0143293420ED1236E1A6812F480
:10369000803F03D01A6842F480721A60E36E1BB157
:1036A0001A6842F480721A6023682049204A9342C3
:1036B00018BF8B4230D0183293422DD0183293422B
:1036C0002AD01832934227D01832934224D018328D
:1036D000934221D0183293421ED002F55672934283
:1036E0001AD01832934217D01832934214D018329D
:1036F000934211D0183293420ED0183293420BD01D
:103700001832934208D01832934205D01A6842F01A
:1037100001021A600020DDE61A6842F001021A6018
:103720000020D7E6012070470220D3E610000240B7
:103730002800024008540258F0B583B00446002324
:1037400001937D4B1D687D4BA3FB0535AD0A876D4D
:103750003E68D7F800C0036879497A48834218BFA9
:103760008B420CBF0120002061D0774A93425ED08B
:10377000183293425BD01832934258D01832934299
:1037800055D01832934252D0183293424FD002F59E
:10379000567293424BD01832934248D0183293421B
:1037A00045D01832934242D0183293423FD018325B
:1037B00093423CD01832934239D01832934236D0DB
:1037C0006249634A934218BF8B4212D0614A9342C6
:1037D0000FD0143293420CD01432934209D01432D9
:1037E000934206D01432934203D01432934240F0F5
:1037F0005F821A68E16D01F01F010420884010EA21
:103800000C0F00F0A58212F0040F00F0A182786086
:1038100012F4004F00F0588212F4803F40F04E82C4
:10382000A36C002B00F044822046984740E2E26DF2
:1038300002F01F0108228A40324241D070BB424A46
:1038400093422BD01832934228D01832934225D07D
:103850001832934222D0183293421FD0183293422A
:103860001CD002F55672934218D01832934215D0EC
:103870001832934212D0183293420FD0183293422A
:103880000CD01832934209D01832934206D0183225
:10389000934203D01A68C2F3C00202E01A68C2F36E
:1038A00080026AB11A6822F004021A60E36D03F024
:1038B0001F0208239340BB60636D43F001036365FF
:1038C000E26D02F01F0226FA02F313F0010F47D057
:1038D00023681B481B498B4218BF83423CD01831D8
:1038E0008B4239D018318B4236D018318B4233D0CD
:1038F00018318B4230D018318B422DD018318B4289
:103900002AD001F556718B4226D018318B4223D034
:1039100018318B4220D018318B421DD018318B4288
:103920001AD018318B4217D018318B4214D018316D
:103930008B4211D01B6813E010000024B5814E1B90
:103940001000024028000240400002400854025883
:103950001C540258305402585B6913F0800F3BD15D
:10396000E36D03F01F03042202FA03F333423FD056
:103970002268954895498A4218BF824234D018314E
:103980008A4231D018318A422ED018318A422BD047
:1039900018318A4228D018318A4225D018318A42FB
:1039A00022D001F556718A421ED018318A421BD0AE
:1039B00018318A4218D018318A4215D018318A42FB
:1039C00012D018318A420FD018318A420CD01831E7
:1039D0008A4209D013680BE001239340BB60636DFA
:1039E00043F002036365BBE7126812F0020F3DD19A
:1039F000E36D03F01F03102202FA03F333425FD09A
:103A00002268714871498A4218BF824234D0183105
:103A10008A4231D018318A422ED018318A422BD0B6
:103A200018318A4228D018318A4225D018318A426A
:103A300022D001F556718A421ED018318A421BD01D
:103A400018318A4218D018318A4215D018318A426A
:103A500012D018318A420FD018318A420CD0183156
:103A60008A4209D01268C2F3800208E0BB60636D2D
:103A700043F004036365BBE71268C2F3C002FAB106
:103A8000BB6023681A6812F4802F0DD01B6813F4F2
:103A9000002F04D1236C9BB12046984710E0A36C03
:103AA00073B1204698470BE01A6812F4807F03D167
:103AB0001A6822F008021A60236C0BB1204698475E
:103AC000E36D03F01F03202202FA03F3334200F0F8
:103AD000918022683C483D498A4218BF82422ED0DC
:103AE00018318A422BD018318A4228D018318A42A4
:103AF00025D018318A4222D018318A421FD018317D
:103B00008A421CD001F556718A4218D018318A4277
:103B100015D018318A4212D018318A420FD018318C
:103B20008A420CD018318A4209D018318A4206D014
:103B300018318A4203D01268C2F3400202E01268D0
:103B4000C2F30012002A55D0BB6094F83530042B24
:103B50000ED023681A6812F4802F39D01B6813F432
:103B6000002F2CD1636C002B44D02046984741E0B5
:103B70002268136823F0160313602268536923F048
:103B800080035361236CB3B12268136823F00803E8
:103B90001360E36D03F01F023F239340BB600123DA
:103BA00084F83530002384F83430236D002B7FD027
:103BB000204698477CE0A36C002BE5D1E9E7E36B56
:103BC000C3B12046984715E010000240280002408B
:103BD0001A6812F4807F09D11A6822F010021A6064
:103BE000012384F83530002384F83430E36B0BB1C3
:103BF00020469847636D002B5AD0636D13F0010F78
:103C000052D0042384F8353023689649964A93426B
:103C100018BF8B422FD0183293422CD018329342C7
:103C200029D01832934226D01832934223D018322A
:103C3000934220D0183293421DD002F5567293421F
:103C400019D01832934216D01832934213D018323A
:103C5000934210D0183293420DD0183293420AD0BA
:103C60001832934207D01832934204D01A6822F0D7
:103C700001021A6003E01A6822F001021A60019B37
:103C800001330193AB4204D823681B6813F0010F82
:103C9000F5D123681B6813F0010F0BD0032384F8C0
:103CA0003530002384F83430E36C0BB1204698475C
:103CB00003B0F0BD012384F83530F2E7236C002B0C
:103CC000F6D020469847F3E712F0200F3AD1236848
:103CD0006449654A934218BF8B422FD018329342F1
:103CE0002CD01832934229D01832934226D0183261
:103CF000934223D01832934220D0183293421DD0E1
:103D000002F55672934219D01832934216D01832E7
:103D1000934213D01832934210D0183293420DD0F0
:103D2000183293420AD01832934207D01832934285
:103D300004D01A6822F004021A6003E01A6822F024
:103D400008021A60236C002BB2D020469847AFE7D8
:103D50000220884010EA0C0F60D012F0020F5DD0F4
:103D6000786012F4004F0ED012F4803F05D1636CDE
:103D7000002B9DD0204698479AE7E36B002B97D005
:103D80002046984794E712F0200F40D12368354928
:103D9000354A934218BF8B422FD0183293422CD011
:103DA0001832934229D01832934226D018329342C7
:103DB00023D01832934220D0183293421DD002F5FE
:103DC0005672934219D01832934216D01832934249
:103DD00013D01832934210D0183293420DD01832BB
:103DE00093420AD01832934207D01832934204D03B
:103DF0001A6822F00A021A6003E01A6822F014021C
:103E00001A60012384F83530002384F83430E36BE2
:103E1000002B3FF44DAF2046984749E7082000FAB1
:103E200001F111EA0C0F3FF443AF12F0080F3FF419
:103E30003FAF1A6822F00E021A60E36D03F01F0311
:103E4000012202FA03F37B60626584F835200023C7
:103E500084F83430E36C002B3FF42AAF20469847B7
:103E600026E700BF1000024028000240F0B583B0F2
:103E700000236BE085685E000324B44025EA040556
:103E8000CC68B4402C438460456825EA0C054C6836
:103E9000C4F300149C402C43446069E0DD080835FD
:103EA00050F8254003F0070C4FEA8C0C4FF00F0E32
:103EB0000EFA0CFE24EA0E0E0C6904FA0CF444EA25
:103EC0000E0440F825406BE0092400E0002404FAC9
:103ED0000EF42C430CF1020C664D45F82C404FF0CB
:103EE000B0442568D44325EA02064F6817F4801FC2
:103EF00001D042EA05064FF0B0452E606D6804EA35
:103F000005064F6817F4001F01D042EA05064FF07E
:103F1000B0456E60D5F8845004EA05064F6817F482
:103F2000003F01D042EA05064FF0B045C5F8846075
:103F3000D5F880502C404E6816F4803F01D042EAFC
:103F400005044FF0B042C2F8804001330A6832FAEB
:103F500003F400F08C804FF0010C0CFA03FC1CEA17
:103F60000202F2D04C6804F00304013C012C81D918
:103F70004C6804F00304032C0CD0C4685D004FF0BF
:103F8000030C0CFA05FC24EA0C0C8C68AC4044EAE7
:103F90000C04C4604C6804F00304022C3FF47EAFB0
:103FA00004684FEA430E4FF0030C0CFA0EFC24EAAF
:103FB0000C0C4C6804F0030404FA0EF444EA0C04FC
:103FC00004604C6814F4403FBFD02B4CD4F8F4503C
:103FD00045F00205C4F8F450D4F8F44004F00204AB
:103FE0000194019C4FEA930C0CF10205214C54F80A
:103FF000255003F0030E4FEA8E0E0F2404FA0EF440
:1040000025EA04051D4CA0423FF460AF04F580642E
:10401000A0421ED004F58064A0421CD004F5806448
:10402000A0421AD004F58064A04218D004F5806440
:10403000A04216D004F58064A04214D004F5806438
:10404000A04212D004F50064A0423FF43DAF0A2420
:104050003DE701243BE7022439E7032437E7042442
:1040600035E7052433E7062431E707242FE703B0BB
:10407000F0BD00BF00040058004402580000025880
:104080000AB1816170470904816170472DE9F043ED
:1040900083B0D0F8008001EBC10300EB83039A6A80
:1040A0005B6A9A4254D807460C469B1A01EBC10240
:1040B00000EB8202D2699A4200D31A4602F1030948
:1040C0004FEA990915E006F103094FEA9909BB790E
:1040D00004EBC40507EB8505296A0093B3B2E2B28D
:1040E000404605F090F82B6A33442B62AB6A3344A8
:1040F000AB6208EB441303F510639B699BB24B451D
:1041000012D304EBC40307EB83039A6A5B6A9A42F7
:104110000AD24BB19B1A04EBC40207EB8202D669A8
:104120009E42D0D31E46CEE704EBC40307EB8307C1
:104130007A6ABB6A9A420FD804F00F040122A240A7
:10414000D8F8343823EA0203C8F83438002000E0F5
:10415000012003B0BDE8F0830020FAE730B583B05A
:1041600000287AD0044690F89534ABB1032384F844
:104170009534206804F0FCFD237C8DF80030231D6D
:104180000ECB206804F02AFD58B1022384F8953440
:104190000125284603B030BD80F8943408F006FAB3
:1041A000E4E70021206805F044FA0246B8B9034666
:1041B0002079984218D903EBC30104EB8101012057
:1041C00048750B75CB8500200876C861086203EB43
:1041D000C30104EB810148620133DBB2E8E702234B
:1041E00084F895340125D4E7904217D902EBC20335
:1041F00004EB8303002183F8551283F8542283F8DB
:104200005812C3F85C12C3F8601202EBC20304EB4D
:104210008303C3F864120132D2B2E5E7237C8DF840
:104220000030231D0ECB206804F0F8FD054658B978
:1042300000236374012384F89534237B012B08D079
:10424000206805F0B5F9A4E7022384F89534012528
:104250009FE7204600F076FDF2E7012599E7036825
:1042600090F89424012A1AD010B50446012280F84F
:104270009424DA6812F0400F02D0427B012A09D060
:10428000206804F06FFD206805F084F9002084F8B0
:10429000940410BD9A6B42F480329A63F0E70220D6
:1042A0007047000070B504460D460068066C00EBD0
:1042B000411303F530639A68A179012911D0384977
:1042C0008E4256D03DB905EBC50304EB8303D3F80A
:1042D0006432002B5ED0E9B2204608F0A9F9002034
:1042E00070BD12F0080F09D02E498E42F7D912F492
:1042F000004FF4D04FF400429A60F0E712F0200F24
:1043000002D020229A60EAE712F0280FE7D125496F
:104310008E4206D912F4004F03D04FF400429A6047
:10432000DDE705EBC50204EB8202D2F874121B69CB
:10433000C3F31203CB1AC2F868327DB905EBC5028C
:1043400004EB8202D2F864226AB105EBC50204EBE9
:104350008202D2F860121944C2F86012E9B2204613
:1043600008F066F9BBE704F29C42012105F0A0F9D0
:10437000F4E712F4004F03D04FF400429A60AEE726
:1043800012F0200F01D020229A60E9B2204608F0F6
:104390004FF9A4E704F29C42002105F089F99AE75D
:1043A0000A31544F0A30544F38B5044603681D6C27
:1043B00003EB4113D3F8081B0E4A954207D903F5C6
:1043C000306311F4004F02D04FF400429A6020464F
:1043D00008F026F9074B9D4202D9A379012B01D0A1
:1043E000002038BD04F29C420121206805F060F9EC
:1043F000F6E700BF0A30544F90F89434012B0CD0EC
:1044000010B50446012380F894344174006805F027
:10441000B1F8002084F8940410BD0220704738B52C
:1044200005468C4611F0800F2BD101F00F0E0EEBDC
:10443000CE04A40004F514740444211D0EEBCE0E2A
:1044400000EB8E0E00208EF855020CF00F0C81F858
:1044500000C0C2F30A028A600B714A780AB1A1F85F
:104460001AC0022B1CD095F89434012B1BD00123C9
:1044700085F89434286804F0ABFD002085F8940496
:1044800038BD01F00F0000EBC00189001031294454
:10449000043100EBC00005EB800001244475D4E733
:1044A00000234B71DFE70220EAE710B504460A4615
:1044B00011F0800F20D101F00F0000EBC0039B0032
:1044C00003F514732344191D00EBC00004EB8000B6
:1044D000002380F8553202F00F020A7094F89434E9
:1044E000012B18D0012384F89434206804F0BCFD1B
:1044F000002084F8940410BD01F00F0000EBC0030D
:104500009B0010332344191D00EBC00004EB800016
:1045100001234375DFE70220EDE710B5144601F0F3
:104520000F0C0CEBCC01890001F51471014404312E
:104530000CEBCC0E00EB8E0ECEF86022CEF864327F
:104540000023CEF868328EF855328EF854C2827944
:10455000012A04D0006804F06DFE002010BDCEF8E2
:104560007042F7E701F00F0101EBC10100EB8100A0
:10457000D0F86802704710B5144601F00F0C0CEB30
:10458000CC0189001031014404310CEBCC0E00EB5E
:104590008E0ECEF82020CEF824300023CEF828301E
:1045A00001238EF815308EF814C082799A4204D017
:1045B000006804F03FFE002010BDCEF83040F7E761
:1045C00038B501F00F050279AA4238D304460B46EC
:1045D00011F0800F1FD101EBC101890001F51471A9
:1045E0000144043103EBC30300EB8303002283F88F
:1045F000552201238B700D7094F89434012B20D038
:10460000012384F89434206804F059FF85B1002018
:1046100084F8940438BD05EBC501890010310144CC
:10462000043105EBC50300EB830301225A75E0E773
:1046300004F29C42A179206805F03AF8E7E70120EE
:10464000E8E70220E6E701F00F0302799A4230D34F
:1046500010B5044611F0800F1ED103EBC301890091
:1046600001F514710144043103EBC30200EB820233
:10467000002082F8550200228A700B7094F894345E
:10468000012B18D0012384F89434206804F044FFEF
:10469000002084F8940410BD03EBC301890010319D
:1046A0000144043103EBC30200EB82020120507588
:1046B000E1E7012070470220EDE708B511F0800F17
:1046C0000CD101F00F0101EBC101890001F514715A
:1046D00001440431006804F037FD08BD01F00F010A
:1046E00001EBC1018900103101440431F2E72DE9E9
:1046F000F04F83B004460568284604F096FF10B1D9
:1047000003B0BDE8F08F0646206804F05FFF002884
:10471000F6D005F50067BB68C3F30D23C4F8D434A5
:10472000206804F053FF10F0020F04D02268536990
:1047300003F002035361206804F048FF10F0100FEB
:1047400016D02268936923F010039361D5F8208076
:1047500008F00F0908F4F013B3F5802F6AD0B3F511
:10476000402F00F08D802268936943F0100393611D
:10477000206804F02BFF10F4002F40F09380206895
:1047800004F024FF10F4802F40F0FC80206804F037
:104790001DFF0028C0F27D81206804F017FF10F48F
:1047A000006F09D0BB6813F0010F40F08A812268C6
:1047B000536903F400635361206804F007FF10F0AD
:1047C000006F15D02268536903F00063536194F8B9
:1047D000CC34002B40F07981012184F8CC1423687B
:1047E0005B6DC3F38303C4F8D034204600F0BEFAF7
:1047F000206804F0EBFE10F4805F40F06A812068CE
:1048000004F0E4FE10F4005F40F0B681206804F08C
:10481000DDFE10F0080F40F0C781206804F0D6FEDE
:1048200010F0800F00F0DA81AB6923F08003AB61F8
:104830000126C3E147F6F07318EA030F93D04FEA5D
:10484000181A4FEAC903019309EBC90B04EB8B0B50
:10485000C8F30A12DBF86012284604F00DFEDBF8FC
:104860006032CAF30A0A5344CBF86032DBF868328C
:10487000019A4A4404EB82025344C2F8683272E758
:10488000082204F29C41284604F0F6FD09EBC90316
:1048900004EB8303D3F86822C8F30A184244C3F830
:1048A000682260E7206804F095FE8046B14635E056
:1048B00005EB49130122C3F8082B49462046FFF7B0
:1048C000F1FC3CE005EB49130822C3F8082B4946EC
:1048D0002046FFF769FD35E009EBC90304EB8303CC
:1048E00093F85732012B41D005EB49130222C3F84C
:1048F000082B1AF0200F04D005EB49132022C3F82F
:10490000082B1AF4005F05D005EB49134FF4005251
:10491000C3F8082B09F101094FEA5808B8F1000F54
:104920003FF42DAF18F0010FF4D05FFA89FB594620
:10493000206804F05FFE824610F0010FB8D11AF033
:10494000080FBFD11AF0100F04D005EB4913102245
:10495000C3F8082B1AF0020FCBD06B6913F0800F4D
:10496000BAD07B6843F480637B60B5E709EBC90389
:1049700004EB8303002283F857225946204607F0B0
:10498000A7FEB1E7206804F02DFE8046B14625E081
:104990005946204607F058FE1AF0080F04D005EBE0
:1049A00049130822C3F808291AF0100F04D005EBA8
:1049B00049131022C3F808291AF0400F04D005EB60
:1049C00049134022C3F808291AF0020F40D11AF007
:1049D000800F59D109F101094FEA5808B8F1000FC9
:1049E0003FF4D4AE18F0010FF4D05FFA89FB5946BA
:1049F000206804F008FE824610F0010FCCD009F0C8
:104A00000F02012101FA02F27B6B23EA02037B63AE
:104A100005EB4913C3F80819A3798B42B8D109EB08
:104A2000C90304EB83031A6AD9690A441A62B9F10B
:104A3000000FADD109EBC90304EB83035B6A002BC4
:104A4000A6D104F29C420121206804F031FE9FE7C8
:104A50004946284604F092F909EBC90304EB8303A5
:104A6000DB7D012B05D005EB49130222C3F8082991
:104A7000ADE709EBC90304EB83030022DA7559465D
:104A8000204607F02BFEEEE749462046FFF7FEFAE8
:104A9000A0E77B6823F001037B6094F8CC34012B02
:104AA00008D0204607F00EFE2268536903F0004349
:104AB000536171E6002184F8CC14204600F056F9C9
:104AC000F2E7204607F0E6FD71E6204607F0E2FD3A
:104AD0008EE67B6823F001037B601021206804F0E0
:104AE0004DF91AE005EB46134FF67F31C3F808196C
:104AF000D3F8002922F40012C3F80029C3F8081BD8
:104B0000D3F8002B22F40012C3F8002BD3F8002BAB
:104B100042F00062C3F8002B01362379B342E1D89A
:104B2000FB6943F00113FB61E37BDBB1D7F8843011
:104B300043F00B03C7F884307B6C43F00B037B64BA
:104B4000D5F8003823F4FE63C5F8003804F29C421F
:104B5000A179206804F0ACFD2268536903F4805306
:104B600053614CE67A6942F22B0313437B613B6944
:104B700043F00B033B61E3E7206804F08BFD206802
:104B800004F014FAE071266800F0AEFE0146E27906
:104B9000304604F075F8204607F067FD2268536937
:104BA00003F40053536131E6204607F058FD2268B4
:104BB000536903F0080353612FE601362379B342AA
:104BC0000CD906EBC60304EB830393F85732012B91
:104BD000F3D1F1B22046FFF770FDEEE7206804F054
:104BE000F5FC10F4801F25D1206804F0EFFC10F4D0
:104BF000001F58D0012326E001362379B3421BD988
:104C000005EB4613D3F8002906EBC60304EB830338
:104C10001B7E012BF0D1002AEEDA06EBC60304EB73
:104C200083030122DA7566F07F01C9B22046FFF7DF
:104C300044FDE1E70126E0E72268536903F48013AD
:104C40005361D1E7013322799A4227D905EB431208
:104C5000D2F8001B03EBC30204EB820292F8582245
:104C6000012AEFD10029EDDAD4F8D42482EA1142E6
:104C700012F0010FE6D103EBC30204EB8202012123
:104C800082F85712AA6942F08002AA616A6912F09A
:104C9000800FD7D17B6843F400737B60226853692F
:104CA00003F400135361206804F090FC10F0804F6F
:104CB00010D1206804F08AFC10F0040F3FF420ADFE
:104CC00023685D6815F0040F0DD1226853682B43EB
:104CD000536015E5204607F007FD2268536903F08D
:104CE00080435361E5E7204607F004FDEDE710B48B
:104CF0000468606A31B940EA0240A06200205DF8B1
:104D0000044B70478C46A36A00EB1340002308E075
:104D100003F1400104EB8101496800EB11400133CC
:104D2000DBB20CF1FF318B42F2D340EA02400CF1CE
:104D30003F0104EB81046060E0E7036859620020F2
:104D400070470000034602680121C0F8D814002013
:104D500083F8CC04936943F000639361516D024B77
:104D60000B435365704700BF0300001070470000FD
:104D7000134BDB6813F0040F07D1114BDB6803F012
:104D8000070383421AD00120704710B50C4AD3683C
:104D900023F007030343D360FDF726FF0446084BC7
:104DA0005B6813F4005F07D1FDF71EFF001BB0F531
:104DB0007A7FF4D9012000E0002010BD0020704768
:104DC00000480258024AD36843F08073D3607047AA
:104DD00000480258002800F0D58238B50446036820
:104DE00013F0010F25D0A04A136903F03803926A2B
:104DF000102B15D0182B0FD06368B3F5803F3FD030
:104E0000002B53D1984B1A6822F480321A601A682A
:104E100022F480221A6038E002F00302022AEBD169
:104E2000914B1B6813F4003F03D06368002B00F024
:104E3000AB82236813F0020F00F088808A4A13695E
:104E4000926A13F038035AD0182B55D0E368002B20
:104E500000F0A98084490A6822F0190213430B600C
:104E6000FDF7C2FE0546804B1B6813F0040F40F0AF
:104E70009180FDF7B9FE401B0228F4D903208AE295
:104E8000794A136843F48033136063682BB3FDF7EA
:104E9000ABFE0546744B1B6813F4003FC9D1FDF708
:104EA000A3FE401B6428F5D9032074E2B3F5A02FBC
:104EB00009D06D4B1A6822F480321A601A6822F405
:104EC00080221A60E1E7684B1A6842F480221A6077
:104ED0001A6842F480321A60D7E7FDF785FE05466E
:104EE000614B1B6813F4003FA3D0FDF77DFE401B10
:104EF0006428F5D903204EE212F0030FA6D15A4BD5
:104F00001B6813F0040F03D0E368002B00F03E820F
:104F1000554A136823F01903E1680B431360FDF74A
:104F200063FE0546504B1B6813F0040F06D1FDF7D6
:104F30005BFE401B0228F5D903202CE24A4A536845
:104F400023F0FE43216943EA01635360236813F0B1
:104F5000100F51D0444A136903F03803926A082BAA
:104F600039D0182B33D0E369002B69D03E4A13683F
:104F700043F080031360FDF737FE05463A4B1B688C
:104F800013F4807F53D1FDF72FFE401B0228F5D983
:104F9000032000E2344A536823F0FE43216943EAC8
:104FA00001635360D2E7304A136823F001031360B2
:104FB000FDF71AFE05462C4B1B6813F0040FC5D0F5
:104FC000FDF712FE401B0228F5D90320E3E102F0B1
:104FD0000302012AC7D1244B1B6813F4807F03D03E
:104FE000E369802B40F0D4811F4AD36823F07C53BF
:104FF000216A43EA0163D360236813F0080F49D0A4
:105000006369002B32D0184A536F43F00103536792
:10501000FDF7EAFD0546144B5B6F13F0020F39D123
:10502000FDF7E2FD401B0228F5D90320B3E10E4A4B
:10503000D36823F07C53216A43EA0163D360DBE742
:10504000094A136823F080031360FDF7CDFD054680
:10505000054B1B6813F4807FCED0FDF7C5FD401BC8
:105060000228F5D9032096E1004402589D4A536F67
:1050700023F001035367FDF7B7FD0546994B5B6FBE
:1050800013F0020F06D0FDF7AFFD401B0228F5D943
:10509000032080E1236813F0200F29D0A3699BB17E
:1050A000904A136843F480531360FDF79DFD054655
:1050B0008C4B1B6813F4005F1AD1FDF795FD401B64
:1050C0000228F5D9032066E1864A136823F4805349
:1050D0001360FDF789FD0546824B1B6813F4005FE2
:1050E00006D0FDF781FD401B0228F5D9032052E1CF
:1050F000236813F0040F21D1636A002B00F04A816A
:10510000784A126902F03802182A00F0F180022B66
:1051100075D0744A136823F080731360FDF764FD43
:105120000446704B1B6813F0007F00F0D880FDF739
:105130005BFD001B0228F4D903202CE16A4A1368A6
:1051400043F480731360FDF74FFD0546664B1B6803
:1051500013F4807F06D1FDF747FD401B6428F5D985
:10516000032018E1A368012B0AD00BBB5D4B1A6F1B
:1051700022F001021A671A6F22F004021A6704E093
:10518000584A136F43F001031367A36833B3FDF765
:105190002BFD0546534B1B6F13F0020FACD1FDF7EF
:1051A00023FD401B41F288339842F3D90320F2E0FB
:1051B000052B09D04B4B1A6F22F001021A671A6FA8
:1051C00022F004021A67E0E7464B1A6F42F004022D
:1051D0001A671A6F42F001021A67D6E7FDF704FD5D
:1051E0000546404B1B6F13F0020F85D0FDF7FCFC0A
:1051F000401B41F288339842F3D90320CBE0394A6F
:10520000136823F080731360FDF7EEFC0546354B01
:105210001B6813F0007F06D0FDF7E6FC401B022858
:10522000F5D90320B7E02F4B996A304A0A40A16AAA
:10523000E06A41EA00110A439A62226B013AC2F322
:105240000802616B0139490289B20A43A16B013935
:10525000090401F4FE010A43E16B0139090601F07A
:10526000FE410A431A63DA6A22F00102DA625A6BDB
:105270006FF3CF02A16C42EAC1025A63DA6A22F0EC
:105280000C02216C0A43DA62DA6A22F00202616CD3
:105290000A43DA62DA6A42F48032DA62DA6A42F4A3
:1052A0000032DA62DA6A42F48022DA62DA6A42F0C2
:1052B0000102DA621A6842F080721A60FDF794FC0B
:1052C0000446084B1B6813F0007F06D1FDF78CFCE9
:1052D000001B0228F5D903205DE000205BE00020E0
:1052E00059E000BF00440258004802580CFCFFFF80
:1052F00030498A6A086B012B4ED002F00303A16A81
:105300008B424BD1C2F30512E36A9A4248D1C0F3F3
:105310000802236B013B9A4244D1C0F34622636BDF
:10532000013B9A4240D1C0F30642A36B013B9A4233
:105330003CD1C0F30660E36B013B984238D11D4B72
:105340005B6BC3F3CC03A26C9A4201D1002022E034
:10535000184AD36A23F00103D362FDF745FC0546E2
:10536000FDF742FCA842FBD0124A536B6FF3CF0308
:10537000A16C43EAC1035363D36A43F00103D362D0
:10538000002008E001207047012004E0012002E035
:10539000012000E0002038BD0120FCE70120FAE7F1
:1053A0000120F8E70120F6E70120F4E70120F2E709
:1053B0000120F0E70044025870B588B00C4615464D
:1053C00010BB234ED6F8E03043F00103C6F8E030BE
:1053D000D6F8E03003F001030193019B4FF4807392
:1053E0000393022304930323069300230593079357
:1053F00003A91848FEF73AFD336923F0FE732543ED
:105400001D43356108B070BD114ED6F8E03043F051
:105410000403C6F8E030D6F8E03003F0040302934A
:10542000029B4FF400730393022304930323069318
:1054300000230593079303A90748FEF717FD336977
:1054400023F07E4344EAC5141C433461DAE700BF0D
:10545000004402580000025800080258754B1B69AE
:1054600003F03803102B00F0DE80182B0FD0002B38
:1054700040F0DB806F4B1B6813F0200F00F0D780EB
:105480006C4B1B68C3F3C1036B48D840704710B422
:10549000684B9A6A02F003029C6AC4F30510D96A49
:1054A00001F001015B6BC3F3CC0301FB03F307EED7
:1054B000903AF8EE677A14F47C7F77D0012A4AD0CC
:1054C000022A76D0002A40F091805A4B1B6813F0D4
:1054D000200F23D057490A68C2F3C102564BD3406C
:1054E00007EE103AF8EE476A07EE100AB8EE476A80
:1054F00086EE867A0B6BC3F3080306EE903AF8EE5D
:10550000666A9FED4E6A67EE867A76EEA77AF7EEC8
:10551000006A77EEA67A27EE277A38E007EE100ABF
:10552000F8EE476A9FED466A86EE267A414B1B6B82
:10553000C3F3080306EE903AF8EE666A9FED3F6A01
:1055400067EE867A76EEA77AF7EE006A77EEA67AAD
:1055500027EE277A1BE007EE100AF8EE476A9FED68
:10556000396A86EE267A334B1B6BC3F3080306EECB
:10557000903AF8EE666A9FED316A67EE867A76EECB
:10558000A77AF7EE006A77EEA67A27EE277A294BFC
:105590001B6BC3F34623013307EE903AF8EE677AAC
:1055A000C7EE276AFCEEE67A17EE900A5DF8044B28
:1055B000704707EE100AF8EE476A9FED236A86EE01
:1055C000267A1C4B1B6BC3F3080306EE903AF8EEE9
:1055D000666A9FED1A6A67EE867A76EEA77AF7EE2C
:1055E000006A77EEA67A27EE277AD0E707EE100A50
:1055F000F8EE476A9FED136A86EE267A0D4B1B6B19
:10560000C3F3080306EE903AF8EE666A9FED0B6A64
:1056100067EE867A76EEA77AF7EE006A77EEA67ADC
:1056200027EE277AB3E709487047094870470248D0
:10563000704700BF004402580090D00300000039BA
:105640000024744C0024744A001BB74B00366E01D2
:1056500000093D00002800F0328170B50D46044677
:105660009B4B1B6803F00F038B420BD2984A1368C5
:1056700023F00F030B431360136803F00F038B42F7
:1056800040F01F81236813F0040F0CD02269914B66
:105690009B6903F070039A4205D98E498B6923F008
:1056A00070031A438A61236813F0080F0CD06269F3
:1056B000884BDB6903F070039A4205D98549CB69B1
:1056C00023F070031A43CA61236813F0100F0CD043
:1056D000A269804BDB6903F4E0639A4205D97D49F6
:1056E000CB6923F4E0631A43CA61236813F0200FE7
:1056F0000CD0E269774B1B6A03F070039A4205D91C
:1057000074490B6A23F070031A430A62236813F08A
:10571000020F0CD0E2686F4B9B6903F00F039A42B3
:1057200005D96C498B6923F00F031A438A612368FA
:1057300013F0010F41D0674A936923F47063A168A5
:105740000B4393616368022B0AD0032B27D0012BF4
:105750002CD0604A126812F0040F06D10120ADE08F
:10576000126812F4003F00F0AE805A490A6922F034
:10577000070213430B61FDF737FA0646554B1B69C9
:1057800003F038036268B3EBC20F16D0FDF72CFAB2
:10579000801B41F288339842F0D903208EE04D4AB5
:1057A000126812F0007FE0D1012087E0494A1268B8
:1057B00012F4807FD9D1012080E0236813F0020F1A
:1057C0000CD0E268434B9B6903F00F039A4205D269
:1057D00040498B6923F00F031A438A613C4B1B68D5
:1057E00003F00F03AB420AD9394A136823F00F03C1
:1057F0002B431360136803F00F03AB4265D123689A
:1058000013F0040F0CD02269324B9B6903F0700334
:105810009A4205D22F498B6923F070031A438A619B
:10582000236813F0080F0CD062692A4BDB6903F080
:1058300070039A4205D22749CB6923F070031A43BB
:10584000CA61236813F0100F0CD0A269214BDB69E9
:1058500003F4E0639A4205D21E49CB6923F4E06366
:105860001A43CA61236813F0200F0CD0E269194B68
:105870001B6A03F070039A4205D216490B6A23F0A3
:1058800070031A430A62FFF7E9FD12498B69C3F3FB
:105890000323114AD35C03F01F03D8408B6903F044
:1058A0000F03D35C03F01F0320FA03F30B4A1360CA
:1058B0000B4B18600B4B1868FCF7EEFD70BD012018
:1058C00070470120FAE70120F8E70120F6E700BF62
:1058D00000200052004402582CD400080C00002480
:1058E000100000241800002408B5FFF7B7FD0B4A8C
:1058F0009369C3F303230A49CB5C03F01F0320FA27
:1059000003F3926902F00F02885C00F01F0023FA93
:1059100000F0044A1060044A136008BD00440258B5
:105920002CD400080C0000241000002408B5FFF758
:10593000DBFF054BDB69C3F30213044AD35C03F0BE
:105940001F03D84008BD00BF004402582CD40008F3
:1059500008B5FFF7C9FF054BDB69C3F30223044A0F
:10596000D35C03F01F03D84008BD00BF00440258B9
:105970002CD400083F230360114B1A6902F0070280
:1059800042609A6902F4706282609A6902F00F02C2
:10599000C2609A6902F070020261DA6902F0700274
:1059A0004261DA6902F4E06282611B6A03F070030B
:1059B000C361044B1B6803F00F030B60704700BF0B
:1059C0000044025800200052404B9B6A03F003033E
:1059D000032B79D070B505460E463C4A136823F078
:1059E00080631360FDF700F90446384B1B6813F021
:1059F000006F06D0FDF7F8F8031B022BF5D9032042
:105A000070BD324B9A6A22F47C32296842EA013234
:105A10009A626A68013AC2F30802A9680139490228
:105A200089B20A43E9680139090401F4FE010A4315
:105A300029690139090601F0FE410A439A63DA6ACD
:105A400022F0C00269690A43DA62DA6A22F02002AF
:105A5000A9690A43DA62DA6A22F01002DA62DA6BC2
:105A60006FF3CF02E96942EAC102DA63DA6A42F00F
:105A70001002DA62C6B91A46DB6A43F40023D36225
:105A8000124A136843F080631360FDF7ADF80446D3
:105A90000E4B1B6813F0006F14D1FDF7A5F8001B27
:105AA0000228F5D90320ABE7012E05D0074AD36AB7
:105AB00043F40013D362E3E7044AD36A43F4801348
:105AC000D362DDE700209BE70120704700440258C5
:105AD000404B9B6A03F00303032B79D070B5054656
