:020000040800F2
:1000000000000524112E0008ED270008EF27000846
:10001000F1270008F3270008F5270008000000007A
:1000200000000000000000000000000091BC00087B
:10003000F72700080000000031BD000895BD00084A
:10004000612E0008612E0008612E0008612E000854
:10005000612E0008612E0008612E0008612E000844
:10006000612E0008612E0008612E0008F9270008A3
:10007000612E0008612E0008612E0008612E000824
:10008000612E0008612E0008612E00080928000872
:1000900019280008612E0008612E0008612E000852
:1000A000612E0008612E0008612E0008612E0008F4
:1000B000612E0008612E0008612E0008612E0008E4
:1000C000612E0008612E0008612E0008612E0008D4
:1000D000612E0008612E0008612E0008612E0008C4
:1000E000612E0008612E000800000000612E00084B
:1000F000612E0008612E0008612E0008612E0008A4
:10010000612E0008612E0008612E0008612E000893
:10011000612E0008612E0008612E0008612E000883
:10012000612E0008612E0008612E0008612E000873
:10013000612E0008612E0008612E0008612E000863
:1001400000000000000000000000000000000000AF
:10015000612E0008612E0008612E0008612E000843
:10016000612E0008612E0008612E0008612E000833
:10017000612E000829280008612E000800000000F8
:10018000612E0008612E0008612E0008612E000813
:10019000612E0008612E0008612E0008612E000803
:1001A000612E0008612E0008612E0008000000008A
:1001B000612E0008612E0008612E0008612E0008E3
:1001C000612E0008612E0008000000000000000001
:1001D0000000000000000000612E00080000000088
:1001E000000000000000000000000000000000000F
:1001F0000000000000000000612E0008612E0008D1
:10020000612E0008612E000800000000612E000829
:10021000612E0008612E0008612E0008612E000882
:10022000612E000800000000612E000800000000A0
:10023000612E0008612E000800000000612E0008F9
:10024000612E0008612E0008612E0008612E000852
:10025000612E0008612E0008612E0008612E000842
:10026000612E0008612E0008612E0008612E000832
:10027000612E0008612E0008612E000800000000B9
:10028000612E0008612E0008612E0008612E000812
:1002900000000000612E0008612E00080000000030
:1002A00000000000612E0008612E0008612E000889
:1002B000612E0008612E0008612E00083928000810
:0C02C000612E000849280008612E00088B
:1002D00053B94AB9002908BF00281CBF4FF0FF31AD
:1002E0004FF0FF3000F00CB8ADF1080C6DE904CE12
:1002F0000DF0A2FCDDF804E0DDE9022304B0704754
:10030000704700BF844641EA000313F003036DD138
:10031000403A41D351F8043B40F8043B51F8043BC8
:1003200040F8043B51F8043B40F8043B51F8043BCF
:1003300040F8043B51F8043B40F8043B51F8043BBF
:1003400040F8043B51F8043B40F8043B51F8043BAF
:1003500040F8043B51F8043B40F8043B51F8043B9F
:1003600040F8043B51F8043B40F8043B51F8043B8F
:1003700040F8043B51F8043B40F8043B51F8043B7F
:1003800040F8043B51F8043B40F8043B51F8043B6F
:1003900040F8043B403ABDD2303211D351F8043B0F
:1003A00040F8043B51F8043B40F8043B51F8043B4F
:1003B00040F8043B51F8043B40F8043B103AEDD2BE
:1003C0000C3205D351F8043B40F8043B043AF9D20F
:1003D000043208D0D2071CBF11F8013B00F8013BE2
:1003E00001D30B8803806046704700BF082A13D3EF
:1003F0008B078DD010F003038AD0C3F10403D21A07
:10040000DB071CBF11F8013B00F8013B80D331F83A
:10041000023B20F8023B7BE7043AD9D3013A11F8BA
:10042000013B00F8013BF9D20B7803704B78437025
:100430008B788370604670470348044B834202D038
:10044000034B03B1184770475C0200245C02002490
:10045000000000000548064B1B1AD90F01EBA30151
:10046000491002D0034B03B1184770475C020024C7
:100470005C0200240000000010B5064C237843B94C
:10048000FFF7DAFF044B13B10448AFF300800123F8
:10049000237010BD600200240000000038E6000850
:1004A00008B5054B1BB105490548AFF30080BDE811
:1004B0000840FFF7CFBF00BF000000006402002427
:1004C00038E60008F6EE007A60EE277A10EE103A71
:1004D000074AA2EB630307EE103A67EE277A67EE4E
:1004E000277AB7EE080A30EE670A27EE000A70474F
:1004F000DF59375F10B52DED068B0446B0EE409AFC
:10050000F0EE609AB0EE418AF0EE618AB0EE42AA57
:10051000F0EE62AAF5EE401AF1EE10FA14BF0123D4
:100520000023B5EE402AF1EE10FA18BF43F00103A4
:100530002BB9F5EE402AF1EE10FA00F0938068EE48
:10054000A87A2AEE0A7A77EE877A2AEEAA0A37EE96
:10055000800AFFF7B7FF68EE808A2AEE00AA6AEEEB
:1005600080AA94ED017AD4ED036A27EE266AD4EDD1
:10057000007AD4ED025A27EEA55A36EE456A27EEE8
:10058000277A66EEA55A37EE257A67EEA77AF6EE59
:10059000005A77EEE57A66EEA66A77EEA67A6AEEFC
:1005A000276A6AEE875A76EEE56A6AEE86AA68EEF0
:1005B000A77A7AEEE7AA68EE878A2AEE06AA78EE8C
:1005C000CA8A624BD3ED007AF5EEC07AF1EE10FAEA
:1005D00040F3B380D3ED007A67EEA67A9FED5C7AA4
:1005E00067EE877A5B4991ED006A76EE277AC1ED76
:1005F000007AD3ED007A67EEAA7A67EE877A564AD8
:1006000092ED006A76EE277AC2ED007AD3ED007A99
:1006100067EEA87A67EE877A504B93ED007A77EE13
:10062000277AC3ED007AD1ED007A39EE279AD2ED20
:10063000007A79EEA79AD3ED007A38EE278A484BF4
:10064000D3ED007A67EEA67A39EE279AD3ED007AD9
:1006500067EEAA7A79EEA79AD3ED007A67EEA87AC8
:1006600038EE278ADFED3F7A29EE270A69EEA70ADE
:1006700028EE271AD4ED006A94ED017AD4ED027ABF
:1006800027EE409A20EEA76A39EE469AD4ED039AF7
:1006900029EE816A39EE469A39EE269A84ED009A5F
:1006A00060EE268A21EE276A78EE868A29EEA06A15
:1006B00078EEC68A78EE878AC4ED018A20EEA68A93
:1006C00021EE076A38EE468A29EE806A38EE068AFD
:1006D00038EE278A84ED028A21EE261A60EE870A18
:1006E00031EE201A20EE270A31EE401A79EE819A77
:1006F000C4ED039A69EE097A28EEA87A77EE877A34
:1007000028EE087A77EE877A29EEA90A37EE800A72
:10071000FFF7D8FE29EE009A84ED009A68EE808AF1
:10072000C4ED018A28EE008A84ED028A69EE809A7F
:10073000C4ED039ABDEC068B10BD0023054A13607F
:10074000054A1360054A136079E700BF8802002458
:100750006F12833A84020024800200247C02002469
:10076000000000246F12033A0E4B1B78C3B982B00D
:100770000C4B01221A700C4B5B680193019A0B4BD6
:100780001B689A4203D20A4A136801331360064B6E
:100790005A68064B1A60034B00221A7002B0704769
:1007A000704700BFA8020024001000E0B802002437
:1007B000BC02002408B54FF0E022D2F8FC3D43F023
:1007C0008073C2F8FC3D0E4B002159601A6842F05C
:1007D00001021A600B4B03FB00F00B4B18600B4B34
:1007E000A3FB00239B090A4A13600A4BA3FB0030BA
:1007F000800C094B1860094B1960FFF7B5FF08BD65
:10080000001000E040420F00C8020024D34D6210E7
:10081000C402002483DE1B43C0020024BC02002467
:1008200000B52DED028B83B00D4B5B680193019BEE
:1008300002689B1A07EE903AF8EE677A094B93ED3F
:10084000007AB8EE477A87EE878A019B0360FFF74C
:100850008BFFB0EE480A03B0BDEC028B5DF804FBE1
:10086000001000E0C80200242DE9F04182B0294BBD
:100870005B680193FFF778FF274B1C68002665082B
:10088000E3071B1B65F10005DB186D411C1945F1E1
:100890000005019BE41845F10005204B1C605D60DC
:1008A0001F4BD3F800804246334620462946FFF7C7
:1008B0000FFD07461B4B18605960424633462046E1
:1008C0002946FFF705FD10461C461546164B1A60D3
:1008D0005C60DFF86480C8F80070144B1F683A460B
:1008E00033462146FFF7F4FC80B2A8F8040000FB71
:1008F00007F7E81B64F100010D4B186059600D4BC0
:100900001A683346FFF7E4FCA8F8060002B0BDE819
:10091000F08100BF001000E0BC020024B0020024FF
:10092000C8020024A002002498020024C40200246B
:1009300090020024C0020024CC02002408B5FFF776
:1009400093FF0B4A116893884FF47A7000FB0133D0
:1009500000EE103AB8EE400AD38807EE903AF8EE6F
:10096000E77A9FED047A67EE877A30EE270A08BDB2
:10097000CC0200246F12833AD0ED017A90ED0D7A0B
:10098000D0ED0E6A37EE267AF6EE006A27EE267A6A
:1009900067EE877A90ED197A67EE877AC0ED137A61
:1009A0007047D0ED0D7A90ED117A27EE877AB5EE8B
:1009B000C07AF1EE10FA26DDF5EEC07AF1EE10FA0B
:1009C0001CDD90ED087AB4EEE77AF1EE10FA1ADA4F
:1009D000D0ED076A37EE266AB4EEE76AF1EE10FA58
:1009E0000FDB90ED136A76EEE77A37EE277AC7EEE3
:1009F000267A66EE277AC0ED137A7047F1EE677AB1
:100A0000DFE70023C3647047D0ED116A90ED137ADD
:100A100036EE877A1F4B83ED007AD0ED107A76EEB2
:100A2000A77A90ED126A77EE867A1B4BC3ED007AB7
:100A3000F5EEC07AF1EE10FA28DD90ED036AB4EE1F
:100A4000E76AF1EE10FA0AD5D0ED0D7A66EEA76AE4
:100A5000F5EEC06AF1EE10FA01DD0023C364D0EDBB
:100A6000067AB4EEE77AF1EE10FA03DD0023C364F0
:100A7000C0ED117AF1EE677AB4EEE77AF1EE10FA92
:100A800003D50023C364C0ED117A7047F1EE677A95
:100A9000D3E700BFD8020024D4020024D0ED027AAC
:100AA00090ED0C7AD0ED0B6A37EE667A67EE877AB6
:100AB000D0ED196A87EEA67A80ED127A704790ED34
:100AC000126AD0ED197A26EE276A90ED0A7A77EE4F
:100AD000877AC6EE276A90ED166A27EE067A87EEC9
:100AE000276A76EE867AC0ED127A704790ED146A26
:100AF000D0ED197A26EE276A90ED097A77EE877A9B
:100B0000C6EE276A90ED156A27EE067A87EE276A09
:100B100076EE867AC0ED147A704790ED147AD0EDB7
:100B2000037AB4EEE77AF1EE10FA01DDC0ED147A43
:100B300090ED147AF1EE677AB4EEE77AF1EE10FAFE
:100B400001D5C0ED147A704790ED147AB0EEC77AF3
:100B5000D0ED037ADFED1D6A67EEA67AB4EEE77A90
:100B6000F1EE10FA2BD4D0ED177AB0EEE77ADFED84
:100B7000186AB4EEE67AF1EE10FA20D4D0ED0B6AE2
:100B800077EEE67AF0EEE77AC7EE876ADFED117A64
:100B9000F4EEE76AF1EE10FA12DD836EC26E0133F5
:100BA00042F100028366C266816EC36E40F2F512A6
:100BB000914273F1000302D3012380F87030704733
:100BC00000220023C0E91A23EEE700BF6F12833A28
:100BD00017B7D1383333733F38B5054678200BF05B
:100BE00021FA0446782200210DF084F92B68236055
:100BF0006B686360AB68A360EB68E3602B6923619B
:100C00002B7D2375AB69A361EB69E3612B6A2362DA
:100C10006B6A6362AB6AA36204F16000FFF700FED7
:100C2000044A1378591C1170034A42F823402046A5
:100C300038BD00BF54030024DC02002410B52DEDA4
:100C4000028B0446F0EE408AB0EE608A90F91430D0
:100C5000002B71DB04F16000FFF7E2FD84ED190A5F
:100C6000C4ED0B8A84ED178A78EE680AC4ED0D0A8C
:100C7000F5EEC00AF1EE10FA61DDF0EE607A94ED67
:100C8000047AB4EEE77AF1EE10FA73D5D4ED007A77
:100C900060EEA77AC4ED107AD4ED017A60EEA77AFF
:100CA00060EE277AC4ED137AD4ED027A94ED0E7AD1
:100CB00070EEC70A67EEA07A87EE807A84ED127A2A
:100CC000237D13F0040F3DD1237D13F0200F3DD180
:100CD000237D13F0020F3DD1237D13F0400F3DD152
:100CE000237D13F0010F3DD1D4ED117A94ED137AE9
:100CF00077EE877AC4ED117A94ED107A77EE877AE1
:100D000094ED127A77EE877AC4ED147A237D13F08E
:100D1000100F2BD12046FFF700FFE36A236394ED09
:100D2000140A84ED150AA36CA365636BA363E36CDB
:100D3000E363BDEC028B10BDFFF706FF8AE7F1EE1F
:100D4000607A9CE72046FFF717FEBDE72046FFF7D5
:100D500028FEBDE72046FFF7A1FEBDE72046FFF7CE
:100D6000AEFEBDE72046FFF74FFEBDE72046FFF78A
:100D7000BDFECFE700232365E364CEE703460020F2
:100D800080ED000AC0ED010A80ED021AC0ED061ADE
:100D900080ED032AC0ED042A037570477047704741
:100DA00010B44FF0E0235C69C0EB00104FEA401C28
:100DB0009B69002104E0E01A02441144614509D214
:100DC0001A464FF0E0239B699A42FAD0F3D9D21A1F
:100DD0001144F3E75DF8044B704710B504E04FF49D
:100DE0007A70FFF7DDFF2046431E9CB20028F6D143
:100DF00010BD000008B500220121024804F0F4F8FB
:100E000008BD00BF0008025808B50122114602487B
:100E100004F0EAF808BD00BF0008025808B5002237
:100E20000821024804F0E0F808BD00BF000802589D
:100E300008B501220821024804F0D6F808BD00BF19
:100E40000008025800B587B08DF80F004FF47A7390
:100E5000009301230DF117020DF10F01034807F074
:100E600053F89DF8170007B05DF804FB14990024AF
:100E700010B50C46FFF7E6FF2046FFF7E3FF10BD75
:100E800010B50C4640F08000FFF7DCFF5520FFF75F
:100E9000D9FF207010BD38B50D46144640F08000D3
:100EA000FFF7D0FF06E05520FFF7CCFF05F8010B58
:100EB000013CE4B2002CF6D138BD000070B5FFF75C
:100EC00099FF8020FFF7BEFF5520FFF7BBFF55209D
:100ED000FFF7B8FFFFF798FF9620FFF761FFFFF7D6
:100EE00089FF8020FFF7AEFF5520FFF7ABFF5520AD
:100EF000FFF7A8FFFFF788FF9620FFF751FFFFF7E6
:100F000079FFB6217E20FFF7B3FFFFF77DFF50206A
:100F1000FFF763FFFFF76EFF8020FFF793FF552079
:100F2000FFF790FF5520FFF78DFFFFF76DFF96202D
:100F3000FFF736FFFFF75EFF8020FFF783FF5520A6
:100F4000FFF780FF5520FFF77DFF0446FFF75CFFAA
:100F50009620FFF725FF1E2C32D10024052C2DD81A
:100F6000FFF748FF174A04EB4403D1184E78D55CCD
:100F700031462846FFF77CFFFFF746FF9620FFF734
:100F80000FFFFFF737FF45F08000FFF75BFF5520AD
:100F9000FFF758FF5520FFF755FF0546FFF734FFD1
:100FA0009620FFF7FDFEAE4202D10134E4B2D5E750
:100FB00004EB4404034B2344987800E0002070BD08
:100FC000FF20FCE790E7000870B582B000248DF8A0
:100FD0000740FFF723FF0DF107012046FFF750FF01
:100FE000FFF726FF9620FFF7DBFEFFF717FF0DF157
:100FF00007012046FFF744FFFFF71AFF9620FFF78F
:10100000CFFEFFF70BFFB6211420FFF731FFFFF7EC
:101010000FFF5020FFF7E1FEFFF700FF0DF1070182
:101020002046FFF72DFFFFF703FF9620FFF7B8FEDE
:10103000FFF7F4FE0DF107012046FFF721FFFFF750
:10104000F7FE9620FFF7ACFE9DF807300F2B2ED150
:10105000052C29D8FFF7E2FE164A04EB4403D11809
:101060004D78D65C29463046FFF702FFFFF7E0FED9
:101070009620FFF795FEFFF7D1FE0DF107013046F0
:10108000FFF7FEFEFFF7D4FE9620FFF789FE9DF8DE
:1010900007309D4202D10134E4B2D9E704EB4404A5
:1010A000044B2344987800E0002002B070BDFF207C
:1010B000FBE700BF7CE7000810B5FFF76FFEFFF706
:1010C0006EFEFFF7FBFE0446FFF77EFF2043C0B233
:1010D00010BD0000F0B583B006460D46144600274B
:1010E00000970197FFF786FE9220FFF7ABFE0622DE
:1010F00069461220FFF7CFFEFFF786FE9DF801300C
:101100001B021BB29DF80020134307EE903AF8EE45
:10111000E77A474A92ED007A67EE877AC5ED007A62
:101120009DF803301B021BB29DF802100B4307EE23
:10113000903A92ED007AF8EEE77A67EE877AC5ED9D
:10114000017A9DF805301B021BB29DF80420134361
:1011500007EE903AF8EEE77A67EE877AC5ED027A05
:10116000FFF75CFE082269463846FFF794FEFFF75A
:101170005FFE9DF800300F2B27D0FFF73BFEA2202B
:10118000FFF760FE022269462220FFF784FEFFF788
:101190003BFE9DF800209DF801305B0943EAC20345
:1011A000B3F5806F01DBA3F5006307EE903AF8EE2C
:1011B000E77AB4EE007A67EE877AB3EE077A77EED5
:1011C000877AC4ED007A03B0F0BD9DF803301B02AE
:1011D0001BB29DF80220134307EE903AF8EEE77A2F
:1011E000144A92ED007A67EE877AC6ED007A9DF890
:1011F00005301B021BB29DF804100B4307EE903A1A
:1012000092ED007AF8EEE77A67EE877AC6ED017A1A
:101210009DF807301B021BB29DF80620134307EE12
:10122000903AF8EEE77A67EE877AC6ED027AA4E79D
:101230000800002404000024F0B58BB000240294C0
:1012400003940226049601250595069407941A4FE7
:1012500002A9384603F000FA00942346324631468C
:10126000384603F03EFA2A462946384603F054FA37
:10127000124F02A9384603F0EFF900942346324694
:101280003146384603F02DFA2A462946384603F0FF
:1012900043FA0B4F02A9384603F0DEF900942346C7
:1012A00032463146384603F01CFA2A46294638466B
:1012B00003F032FA0BB0F0BD90060024F0050024D4
:1012C0005005002470B5FFF7B7FF0E4E304603F00F
:1012D00052FA0D4D284603F04EFA0C4C204603F00E
:1012E0004AFA00220121304603F08CFB0022012142
:1012F000284603F087FB00220121204603F082FBF1
:1013000070BD00BF90060024F005002450050024A5
:1013100011F0010F00D1704700B58DB06B4602AAE5
:10132000402103F07DFA029BA3F20122062A29D86C
:10133000013BDBB2154A1370154903EB830201EB45
:10134000420031F912C0A0F808C09DF800E09DF8F5
:1013500001C04CEA0E2C21F812C09DF802201202A6
:1013600012B29DF803C042EA0C0242809DF80420AC
:10137000120212B29DF805C042EA0C0282809DF86A
:10138000062082710DB05DF804FB00BF55030024F8
:101390006803002400B58BB00191002102910391F4
:1013A00004930591069107910891099101A903F011
:1013B000FCF910B90BB05DF804FB0120FAE700005E
:1013C00008B594460B4A4FEA202E82F800E0507090
:1013D00008129070D1704FEA2C21117182F805C06B
:1013E00019129171D371082340F2FF110248FFF7DF
:1013F000D1FF08BD60030024F005002408B5944621
:101400000B4A4FEA202E82F800E0507008129070CC
:10141000D1704FEA2C21117182F805C01912917117
:10142000D37108234FF400710248FFF7B3FF08BDE2
:10143000580300249006002400F0030000EB800015
:10144000014B03EB400070476803002488B0002381
:101450000193029303930493059306930793214BFF
:101460001B78202B01D008B070471E4A5278402AC2
:10147000F9D14FF6FF715940891A1B4B198000238F
:1014800015E05900CA1C174810F802C05A1C10F881
:10149000120040EA0C232031694421F81C3C124917
:1014A0000B88A3EB0C039BB21B1A0B8013460D2B6E
:1014B000E7DD0C4BDA7F9B7F43EA02230B4A138064
:1014C000094A12889342CED1002308E008AA02EB11
:1014D000430232F81C1C064A22F813100133052B74
:1014E000F4DDC0E7CC030024BE030024BC030024C9
:1014F000C003002408B520220249034808F0ACFBD1
:1015000008BD00BFCC030024449B002408B5FFF7AE
:101510009DFF054B054A07CA83E8070020220449BE
:10152000044808F099FB08BDB0030024C003002460
:10153000CC030024449B002410B588B000238DF810
:1015400007300EE04FF0600C14E04FF0600C1EE02E
:101550004FF0600CC3F1170420346C4404F818CC2D
:101560000133072B21DC41FA03F414F0010FE9D019
:101570004FF0780CC3F1070420346C4404F818CC05
:1015800040FA03F414F0010FDFD04FF0780CC3F1F0
:101590000F0420346C4404F818CC42FA03F414F01D
:1015A000010FD5D04FF0780CD4E74FF6FF7300222F
:1015B0000DF107010F4806F047FB0E4B93F8813001
:1015C000DBB2012BF9D14FF6FF73182202A90948AB
:1015D00006F03AFB002408E04FF6FF7301220DF1FC
:1015E0000701044806F030FB0134632CF4DD08B039
:1015F00010BD00BF8C98002410B5344B1B68052B20
:1016000013D8DFE803F0034323135333304C002295
:1016100011462078FFF790FF23780133DBB2237067
:10162000C72B02D9294B03221A6010BD284C002277
:1016300011462078FFF780FF2378013BDBB223704F
:10164000032BF2D8214B02221A60EEE7204C002235
:1016500021781046FFF770FF23780133DBB2237047
:10166000C72BE2D9194B05221A60DEE7184C00227D
:1016700021781046FFF760FF2378013BDBB223702F
:10168000032BD2D8114B01221A60CEE7104C2278DE
:1016900000210846FFF750FF23780133DBB22370A7
:1016A000C72BC2D9094B04221A60BEE7084C227826
:1016B00000210846FFF740FF2378013BDBB223708F
:1016C000032BB2D8014B00221A60AEE7F0030024CE
:1016D000EC03002410B50720DFED092A9FED092A4D
:1016E000DFED091A9FED091ADFED090AB3EE040ACE
:1016F000FFF744FB074C6060FFF76EFA206010BDF7
:101700000000000000007A460000FA446F12833A9D
:10171000CDCCCC3DF803002408B5044B1868FFF786
:101720008DFA034B83ED000A08BD00BFF8030024C7
:10173000F403002408B50120FFF77EFE0246034BA8
:101740000068516803C312891A8008BD0004002490
:1017500008B5FFF7BFFFFFF7EDFF0B4BB3F90A30FA
:1017600000EE103A094BD3ED000AB8EEC00AFFF7BD
:10177000D3FFBDEEC00A064B10EE102A5A8001209E
:101780000AF09BF9E7E700BFF80300240C000024EF
:101790008404002408B5FFF7ADFE01200AF08DF99E
:1017A000FBE70000274AD2ED007A274BC3ED007A11
:1017B000264B93ED007A82ED007A30EE600A83EDDD
:1017C000000A20EE011A224B83ED001A77EE006A20
:1017D00077EEA67A67EEA17A1E4BC3ED007AF4EE9F
:1017E000E27AF1EE10FA01DDC3ED002A30EE470A8D
:1017F00020EE020A184B83ED000A164BD3ED007A57
:1018000031EE271A30EE010A144B83ED000AB4EED4
:10181000C30AF1EE10FA01DD83ED003A0F4BD3ED70
:10182000007AF5EEC07AF1EE10FA08D40B4BD3ED46
:10183000007AFCEEE77A17EE903A98B270470022F1
:101840001A60F3E7200400241C040024240400246C
:101850001804002414040024100400240C040024A0
:101860004FF07E530360002343608360C360704782
:1018700008B5D2ED022A92ED012AD2ED001A91EDBF
:10188000021AD1ED010A91ED000AFEF733FE08BD00
:10189000F8B52DED028B04460F4616461D46D0EDD9
:1018A000000A90ED030A20EE800AD0ED017A90ED57
:1018B000027A27EE877A30EE070A60EEA00A67EE1A
:1018C000A77A70EEA70A70EEA00AB7EE008A70EE53
:1018D000C80A30EE000A0CF021FC87ED000AD4EDB6
:1018E000017A94ED037A67EE877A94ED007AD4ED6D
:1018F000026A27EE267A77EEC77AB8EE000A27EE5C
:10190000800A0CF0DFFB86ED000AD4ED000A94EDAE
:10191000010A20EE800A94ED027AD4ED037A27EED4
:10192000277A30EE070A60EEA00A67EEA77A70EE1B
:10193000A70A70EEA00A70EEC80A30EE000A0CF09A
:10194000EDFB85ED000ABDEC028BF8BD80B50A20E9
:101950000AF0B3F80C21264807F03CFA02E06420B4
:101960000AF0ABF8FFF7A8FB0028F8D12148FFF7F1
:1019700077FF214F214C224D3A4621462846FFF75A
:10198000A9FBDFF87080224629464046FFF770FF2A
:101990001C4DA5F108062B462A1F31464046FFF78D
:1019A00077FFDFED191A9FED193AF0EE612AB2EEDA
:1019B000042A9FED171AD7ED000AB3EE0E0AFFF7BF
:1019C000F1FE0B4B1B6818642268124BDA606268E8
:1019D0001A61A2685A6155F8082C1A6055F8042C4F
:1019E0005A60B2689A6001200AF067F8C1E700BF48
:1019F000E8990024500400246004002464040024B6
:101A0000700400244C0400240000C8420000FA4581
:101A1000000096432C04002408B5FFF753FC0D4842
:101A2000B0F90630B0F90420B0F90210B0F90000A6
:101A3000FFF7E4FC0848B0F90630B0F90420B0F92B
:101A40000210B0F90000FFF7BBFC01200AF035F8E6
:101A5000E5E700BF840400247C0400240138032847
:101A60002CD8DFE800F0020C1621DFED157A20EE0D
:101A7000270ABCEEC00A134B83ED0F0A7047DFED57
:101A8000107A20EE270ABCEEC00A0E4B83ED0D0A39
:101A90007047DFED0B7A20EE270ABCEEC00A4FF04C
:101AA000804383ED0F0A7047DFED057A20EE270AA9
:101AB000BCEEC00A4FF0804383ED0D0A704700BFB3
:101AC000007EBB460000014010B52DED028B9FED5E
:101AD0001B8AB0EE480A0120FFF7C0FFB0EE480AAB
:101AE0000220FFF7BBFFB0EE480A0320FFF7B6FF66
:101AF000B0EE480A0420FFF7B1FF114C0021204648
:101B000007F068F90821204607F064F90D4C002120
:101B1000204607F05FF90821204607F05BF9FEF741
:101B20000DFFB0EE408AFEF709FF30EE480A064B83
:101B300083ED000A012009F0C0FFF0E7CDCC4C3D59
:101B4000809A0024349A00248C04002408B5134899
:101B5000FC2303700023124A136043708370C37028
:101B6000037143718371C371037243728372C372D1
:101B7000037343738373C373037443748374C374B1
:101B8000037543758375C375037619210BF054FEF5
:101B9000FFF732FD012009F090FFD8E79004002400
:101BA000AC04002438B52DED068B9FED45AADFED82
:101BB000459A9FED459ADFED458A9FED458A0720BE
:101BC000F0EE4A2AB0EE692AF0EE491AB0EE681A31
:101BD000F0EE480AB3EE040AFFF7D0F83D4C60601F
:101BE000FEF7FAFF20600720F0EE4A2AB0EE692ADD
:101BF000F0EE491AB0EE681AF0EE480AB3EE040AA5
:101C0000FFF7BCF8344D68606068FEF7E5FF2860B8
:101C10000720F0EE4A2AB0EE692AF0EE491AB0EE3B
:101C2000681AF0EE480AB3EE040AFFF7A7F82B4D46
:101C300068606068FEF7D0FF28600720F0EE4A2A4F
:101C4000B0EE692AF0EE491AB0EE681AF0EE480AD2
:101C5000B3EE040AFFF792F8214D68606068FEF762
:101C6000BBFF28600720F0EE4A2AB0EE692AF0EEAA
:101C7000491AB0EE681AF0EE480AB3EE040AFFF70C
:101C80007DF8184D68606068FEF7A6FF28600720A1
:101C9000F0EE4A2AB0EE692AF0EE491AB0EE681A60
:101CA000F0EE480AB3EE040AFFF768F80E4D6860DC
:101CB0006068FEF791FF2860BDEC068B38BD00BF61
:101CC0000000000000007A460000FA446F12833AD8
:101CD000CDCCCC3D440500243C0500243405002433
:101CE0002C050024240500241C0500242DE9F043C4
:101CF00085B000222B4B196801A809F0E5FE019B75
:101D0000102B43D0DFF8B090274CDFF8B080D9ED2E
:101D1000000A94ED000AD8F80000FEF78FFFF0EEFD
:101D2000400A224F87ED000A214E94ED030A3068E5
:101D3000FEF784FF1F4D85ED000AD9ED010A94EDF1
:101D4000010AD8F80000FEF779FFF0EE400A87EDAF
:101D5000010A94ED040A3068FEF770FF85ED010A70
:101D6000D9ED020A94ED020AD8F80000FEF766FFEA
:101D7000F0EE400A87ED020A94ED050A3068FEF79E
:101D80005DFF85ED020A05B0BDE8F083029D064CBB
:101D900028686968AA68EB680FC42869696903C480
:101DA000B0E700BF28040024B0040024F804002495
:101DB00044050024C8040024D40400243C05002465
:101DC00008B5FFF7EFFEFFF791FF012009F075FE60
:101DD000F9E7000000B583B00B4BD3F8D82042F0F0
:101DE0000102C3F8D820D3F8D83003F001030193DF
:101DF000019B002205210B2001F0DAF80B2001F0F5
:101E0000E7F803B05DF804FB0044025810B515482C
:101E1000154B036000238360C360037443748374B1
:101E2000032141610A2282611D24C4610262416270
:101E30008262C4620263436301228263C3630164FA
:101E4000042242648364C264036542658365C3659A
:101E500001664366826602F0B5FA00B910BD00F073
:101E6000BDFAFBE79006002400A0004010B516481C
:101E7000164B036000238360C36003744374837450
:101E8000032141610A2282611D24C4610262416210
:101E90008262C462026340F20642426301228263AC
:101EA000C3630164042242648364C26403654265BF
:101EB0008365C36501664366826602F083FA00B9F2
:101EC00010BD00F08BFAFBE7F005002400A40040F1
:101ED00010B51648164B036000238360C36003747B
:101EE00043748374032141610A2282611D24C46109
:101EF000026241628262C462026340F6120242637D
:101F000001228263C3630164042242648364C26465
:101F1000036542658365C36501664366826602F0B8
:101F200051FA00B910BD00F059FAFBE75005002442
:101F300000D4004030B5BBB0044600213591369145
:101F4000379138913991B82206A80BF0D3FF236856
:101F50006F4A934208D06F4A93424BD06E4A9342E5
:101F600000F08E803BB030BD4FF400420023CDE93D
:101F700006234FF08053219306A804F0E1FD40BBF7
:101F8000664A136801331360012B25D0644BD3F8E4
:101F9000E02042F00802C3F8E020D3F8E03003F07C
:101FA00008030193019B03233593022336930024F6
:101FB000379438940923399335A95A4802F00AFF17
:101FC00022460521132000F0F3FF132001F000F852
:101FD000C8E700F003FAD3E7514BD3F8EC2042F402
:101FE0008072C3F8EC20D3F8EC3003F480730093D4
:101FF000009BCBE74FF400420023CDE906234FF0CE
:102000008053219306A804F09BFD40BB434A13680C
:1020100001331360012B25D0414BD3F8E02042F06F
:102020000202C3F8E020D3F8E03003F00203039388
:10203000039B60233593022336930024379438940E
:102040000923399335A9384802F0C4FE22460521F8
:10205000142000F0ADFF142000F0BAFF82E700F07A
:10206000BDF9D3E72E4BD3F8EC2042F48072C3F8CD
:10207000EC20D3F8EC3003F480730293029BCBE79F
:102080004FF400420023CDE906234FF08053219303
:1020900006A804F055FD48BB204A136801331360BD
:1020A000012B26D01E4BD3F8E02042F00802C3F8E3
:1020B000E020D3F8E03003F008030593059B4FF4CC
:1020C00040533593022336930024379438940525E2
:1020D000399535A9134802F07DFE224629469F20F6
:1020E00000F066FF9F2000F073FF3BE700F076F9F9
:1020F000D2E70B4BD3F8EC2042F48072C3F8EC200B
:10210000D3F8EC3003F480730493049BCAE700BF58
:1021100000A0004000A4004000D400404C05002472
:1021200000440258000C02580004025808B50BF095
:1021300027FB012009F0C1FCFBE70000034B036013
:10214000034B0B6080231360704700BF8C0D00248D
:102150008C0B0024034B0360034B0B604FF4807324
:1021600013607047300B00243007002410B5B8B05E
:10217000484C0DF1C40CA646BEE80F00ACE80F00B9
:102180009EE807008CE80700002131A809F062FCF6
:10219000414B18600DF1A80C04F11C0EBEE80F00B5
:1021A000ACE80F009EE807008CE8070000212AA891
:1021B00009F050FC394B18600DF18C0C04F1380E0D
:1021C000BEE80F00ACE80F009EE807008CE80700AF
:1021D000002123A809F03EFC314B18600DF1700C72
:1021E00004F1540EBEE80F00ACE80F009EE80700B3
:1021F0008CE8070000211CA809F02CFC294B186072
:102200000DF1540C04F1700EBEE80F00ACE80F00A5
:102210009EE807008CE80700002115A809F01AFCC9
:10222000214B18600DF1380C04F18C0EBEE80F0044
:10223000ACE80F009EE807008CE8070000210EA81C
:1022400009F008FC194B18600DF11C0C04F1A80EE4
:10225000BEE80F00ACE80F009EE807008CE807001E
:10226000002107A809F0F6FB114B1860EE4604F1B7
:10227000C40CBCE80F00AEE80F009CE807008EE835
:1022800007000021684609F0E5FB0A4B186038B0EA
:1022900010BD00BF50E600088898002484980024F0
:1022A00024780024C46700246457002404370024E1
:1022B000A42600244416002470B58CB00024079492
:1022C000089409940A940B943B4BD3F8E02042F015
:1022D0000402C3F8E020D3F8E02002F004020192E7
:1022E000019AD3F8E02042F08002C3F8E020D3F84E
:1022F000E02002F080020292029AD3F8E02042F03D
:102300000102C3F8E020D3F8E02002F001020392BA
:10231000039AD3F8E02042F00202C3F8E020D3F899
:10232000E02002F002020492049AD3F8E02042F086
:102330001002C3F8E020D3F8E02002F0100205926A
:10234000059AD3F8E02042F00802C3F8E020D3F861
:10235000E03003F008030693069B184D01224FF46A
:102360006041284602F040FE22460921284602F03C
:102370003BFE4FF4604307930126089609940A94A4
:1023800007A9284602F026FD092307930896099419
:1023900003230A9307A9284602F01CFD4FF480731B
:1023A00007930223089309940A940B9407A90448FD
:1023B00002F010FD0CB070BD004402580008025835
:1023C0000000025808B50268034B9A4200D008BDCD
:1023D00000F076FDFBE700BF00E0004072B6FEE7CC
:1023E00000B59DB04C22002109A80BF083FD2022EE
:1023F000002101A80BF07EFD022003F06DFC0023FC
:102400000093264B9A6922F440429A619B6903F437
:1024100040430093009B214B9B6913F4005FFAD06B
:10242000232309934FF480330A9301220C92402313
:102430000D930F9202231293139314932821159155
:1024400016920422179218930C23199300231A93BF
:102450001B9309A803F072FCD8B93F230193032111
:1024600002910023039308230493402305930693CA
:102470004FF480620792089301A804F09FF850B9C6
:102480004FF480220021084603F04AFF1DB05DF89A
:1024900004FBFFF7A3FFFFF7A1FF00BF00480258AE
:1024A00008B500F0DFFCFFF79BFFFFF705FFFFF724
:1024B00091FC00F019F800F0B1FB00F045F800F0D5
:1024C000C7FA00F04BFBFFF7A1FCFFF7CFFCFFF7CB
:1024D000FFFC00F0FDFB4FF4F070FEF76BF9FFF727
:1024E00045FE09F0B2FAFEE708B51548154B036042
:1024F0004FF480034360002383600722C2604FF0E3
:10250000007202614FF0807242614FF0806282611E
:102510004FF08042C261036243628362C3624263DE
:102520008363C363036443648364C3640365436573
:10253000836505F0C1FA00B908BDFFF74FFFFBE75F
:10254000149900240038004008B51648164B036063
:102550004FF4800343604FF4003383600723C3606C
:10256000002303614FF0807242614FF0806282610C
:102570004FF08052C261036243628362C3624FF0D4
:10258000804242638363C363036443648364C364BC
:1025900003654365836505F08FFA00B908BDFFF751
:1025A0001DFFFBE78C98002400140058F0B5BBB069
:1025B0000446002135913691379138913991B822EE
:1025C00006A80BF097FC2368514A934204D0514A65
:1025D00093424DD03BB0F0BD4FF480520023CDE983
:1025E000062306A804F0ACFA00283ED14A4BD3F8E3
:1025F000E82042F48042C3F8E820D3F8E82002F44F
:1026000080420092009AD3F8E02042F00402C3F81E
:10261000E020D3F8E02002F004020192019AD3F8FE
:10262000E02042F00202C3F8E020D3F8E03003F0EB
:1026300002030293029B0623359302273697002656
:102640003796032538950524399435A9334802F087
:10265000C1FB4FF40053359336973796389539942C
:1026600035A92F4802F0B6FBB4E7FFF7B7FEBDE788
:102670004FF480420023CDE906234FF0A04331936D
:1026800006A804F05DFA00283ED1234BD3F8F420CD
:1026900042F02002C3F8F420D3F8F42002F0200224
:1026A0000392039AD3F8E02042F00102C3F8E0203D
:1026B000D3F8E02002F001020492049AD3F8E0205B
:1026C00042F00402C3F8E020D3F8E03003F0040342
:1026D0000593059B80233593022536950024379476
:1026E00038940823399335A90E4802F073FB4FF450
:1026F000805335933695379438940523399335A90B
:10270000064802F067FB65E7FFF768FEBDE700BF1C
:1027100000380040001400580044025800080258D5
:10272000000402580000025800B583B00A4BD3F8E9
:10273000F42042F00202C3F8F420D3F8F43003F09E
:1027400002030193019B00220F216FF0010000F0B2
:102750002FFC03B05DF804FB004402580F2801D998
:102760000120704710B58AB0044600220146A1201E
:1027700000F01EFCA12000F02BFC174B1C60174B37
:10278000D3F8EC2042F08072C3F8EC20D3F8EC30A0
:1027900003F080730093009B01A902A804F09EF847
:1027A00004F08AF843000E4AA2FB03239B0C013B72
:1027B0000C480D4A026040F2E732C26043600023D9
:1027C0000361836006F006F910B101200AB010BD64
:1027D000044805F05DFFF9E71C000024004402589E
:1027E00083DE1B439C99002400E00040FEE7FEE7E7
:1027F000FEE7FEE7FEE7704708B5024801F016F96C
:1028000008BD00BFCC9A002408B5024802F052F976
:1028100008BD00BF9006002408B5024802F04AF93E
:1028200008BD00BFF005002408B5024802F013FF00
:1028300008BD00BF7CF1002408B5024802F03AF957
:1028400008BD00BF5005002408B5024805F075FF1B
:1028500008BD00BF9C990024224AD2F8883043F476
:102860007003C2F88830204B1B6803F00F03062B5F
:1028700006D81D4A136823F00F0343F007031360C3
:102880001A4B1A6842F001021A6000221A61196894
:10289000174A0A401A60144B1B6813F0080F06D041
:1028A000114A136823F00F0343F0070313600F4B23
:1028B00000229A61DA611A620E4999620E49D96260
:1028C0000E4919635A639963DA6319645A64196883
:1028D00021F4802119601A66094B43F2D2021A6072
:1028E000704700BF00ED00E0002000520044025895
:1028F0007FEDF6EA000202020000FF018002010102
:102900000040005284B003681A4A934207D0B3F1E2
:10291000804F12D0184A93421DD004B07047174B15
:10292000D3F8F02042F00102C3F8F020D3F8F030E1
:1029300003F001030193019BEFE7104BD3F8E8206C
:1029400042F00102C3F8E820D3F8E83003F00103B5
:102950000293029BE1E7094BD3F8E82042F0020220
:10296000C3F8E820D3F8E83003F002030393039B95
:10297000D3E700BF000001400004004000440258BB
:1029800000B589B00023039304930593069307933E
:102990000368294A934208D0B3F1804F1ED0274ADA
:1029A000934233D009B05DF804FB254BD3F8E02007
:1029B00042F01002C3F8E020D3F8E03003F0100337
:1029C0000093009B4FF408530393022304930123C5
:1029D000079303A91B4802F0FDF9E3E7184BD3F86E
:1029E000E02042F00102C3F8E020D3F8E03003F029
:1029F00001030193019B0523039302230493012305
:102A0000079303A9104802F0E5F9CBE70C4BD3F884
:102A1000E02042F00202C3F8E020D3F8E03003F0F7
:102A200002030293029B022303930493079303A9D7
:102A3000064802F0CFF9B5E700000140000400406D
:102A400000440258001002580000025800040258C6
:102A500010B59CB00024189419941A941B941594E2
:102A6000169417940E940F94109411941294139436
:102A700014943422214601A80BF03CFA3548364B19
:102A80000360C7234360846045F6BF53C36004619D
:102A900044618023836105F09DFF002845D14FF4F8
:102AA0008053189318A92B4806F0E8F800283FD166
:102AB000284805F0BFFF00283DD100231593169349
:102AC000179315A9234806F045FA002836D160234C
:102AD0000E9300220F92109211921292139214925E
:102AE0000EA91C4806F020F858BB08220EA9194868
:102AF00006F01AF840BB002301930293039304935A
:102B000005934FF400520692079309934FF0007219
:102B10000A920B930D9301A90E4806F073FAB0B90F
:102B20000C48FFF72DFF1CB010BDFFF757FCB6E7B0
:102B3000FFF754FCBCE7FFF751FCBEE7FFF74EFC84
:102B4000C5E7FFF74BFCD0E7FFF748FCD3E7FFF7FB
:102B500045FCE5E7809A00240000014000B58FB0F5
:102B600000230A930B930C930D93079308930993F7
:102B700000930193029303930493059306932648CD
:102B80004FF080420260C7224260836045F6BF5228
:102B9000C26003618023836105F01CFF50BB4FF4CA
:102BA00080530A930AA91C4806F068F828BB1A4803
:102BB00005F040FF20BB00230793099307A916489F
:102BC00006F0C8F9F8B9602300930022019202923E
:102BD00004926946104805F0A7FFB8B90822694673
:102BE0000D4805F0A1FFA0B90B48FFF7C9FE0FB0D3
:102BF0005DF804FBFFF7F2FBD1E7FFF7EFFBD6E749
:102C0000FFF7ECFBD7E7FFF7E9FBDCE7FFF7E6FBB5
:102C1000E4E7FFF7E3FBE7E7349A002400B58FB061
:102C200000230A930B930C930D9307930893099336
:102C30000093019302930393049305930693224810
:102C4000224A026017224260836042F20F72C26021
:102C500003618023836105F0BDFE28BB4FF48053E0
:102C60000A930AA9184806F009F800BB164805F0AF
:102C7000E1FEF8B900230793099307A9124806F06B
:102C800069F9D0B960230093002301930293049360
:102C90000C2269460C4805F047FF88B90A48FFF73F
:102CA0006FFE0FB05DF804FBFFF798FBD6E7FFF768
:102CB00095FBDBE7FFF792FBDCE7FFF78FFBE1E734
:102CC000FFF78CFBEAE700BFE8990024000400400E
:102CD00008B51748174B03604FF4E13343600023F6
:102CE0008360C36003610C2242618361C36103623C
:102CF0004362836206F025FF70B900210C4807F09B
:102D000016F860B900210A4807F036F850B90848AB
:102D100006F0EEFF48B908BDFFF760FBEDE7FFF7EF
:102D20005DFBEFE7FFF75AFBF1E7FFF757FBF2E731
:102D3000449B0024007C004030B5B7B0044600211D
:102D400031913291339134913591B82202A80BF030
:102D5000D1F82268294B9A4201D037B030BD022207
:102D60000023CDE9022302A803F0EAFE00283ED1A9
:102D7000234BD3F8E82042F00042C3F8E820D3F810
:102D8000E82002F000420092009AD3F8E02042F0DE
:102D90001002C3F8E020D3F8E03003F010030193F1
:102DA000019B0323319302233293002533953495FD
:102DB0000823359331A9134802F00CF81248134B3D
:102DC0000360512343608560C5604FF480630361F5
:102DD00045618561C5614FF480330362456200F04F
:102DE0000BFB38B9084BC4F880309C63B5E7FFF79C
:102DF000F5FABDE7FFF7F2FAF4E700BF007C004008
:102E00000044025800100258CC9A002410000240DE
:102E1000DFF834D0FFF720FD0C480D490D4A0023A0
:102E200002E0D458C4500433C4188C42F9D30A4A7F
:102E30000A4C002301E013600432A242FBD30BF0E2
:102E4000B1F8FFF72DFB70470000052400000024B7
:102E50005C020024FCE800086002002430F9002431
:102E6000FEE7000010B5032000F090F803F0AAFA86
:102E70000F498B69C3F303230E4AD35C03F01F038E
:102E8000D8408B6903F00F03D35C03F01F0320FAD3
:102E900003F3094A1360094B18600F20FFF75EFC2B
:102EA00010B10124204610BD0446FFF73DFCF9E7B0
:102EB0000044025860E800081000002414000024B8
:102EC000034B1B78034A11680B441360704700BF23
:102ED00018000024D89B0024014B1868704700BFDD
:102EE000D89B002438B50446FFF7F6FF0546B4F139
:102EF000FF3F02D0044B1B781C44FFF7EDFF401B43
:102F0000A042FAD338BD00BF18000024002807DB18
:102F100000F01F02400901239340024A42F820308A
:102F2000704700BF00E100E0002804DB0901C9B2DE
:102F3000044B1954704700F00F000901C9B2024B4D
:102F40001954704700E400E014ED00E000B500F013
:102F50000700C0F1070CBCF1040F28BF4FF0040CB0
:102F6000031D062B0FD9C31E4FF0FF3E0EFA0CF0C7
:102F700021EA000199400EFA03FE22EA0E0241EA1C
:102F800002005DF804FB0023EEE700000649CB6871
:102F900023F4E0631B041B0C000200F4E060034315
:102FA000024A1A43CA60704700ED00E00000FA05CB
:102FB00010B50446054BD868C0F30220FFF7C6FFE2
:102FC00001462046FFF7B0FF10BD00BF00ED00E056
:102FD00008B5FFF79BFF08BDF0B4876D0468664E27
:102FE000664DAC4218BFB44242D01835AC423FD017
:102FF0001835AC423CD01835AC4239D01835AC420B
:1030000036D01835AC4233D01835AC4230D005F547
:103010005675AC422CD01835AC4229D01835AC428C
:1030200026D01835AC4223D01835AC4220D0183504
:10303000AC421DD01835AC421AD01835AC4217D06E
:103040004F4DAC4214D01435AC4211D01435AC42C3
:103050000ED01435AC420BD01435AC4208D0143528
:10306000AC4205D01435AC4202D01435AC4207D185
:10307000446E856E6560C46E14B1046F456F656003
:1030800004683D4E3D4DAC4218BFB44252D0183595
:10309000AC424FD01835AC424CD01835AC4249D078
:1030A0001835AC4246D01835AC4243D01835AC4246
:1030B00040D005F55675AC423CD01835AC4239D0FD
:1030C0001835AC4236D01835AC4233D01835AC4246
:1030D00030D01835AC422DD01835AC422AD0183536
:1030E000AC4227D0264E274DAC4218BFB44211D077
:1030F000254DAC420ED01435AC420BD01435AC4249
:1031000008D01435AC4205D01435AC4202D0143589
:10311000AC4224D1C46D04F01F050124AC407C6096
:10312000046863608368402B20D00368996003685B
:10313000DA6014E0C46D04F01F0C3F2404FA0CF4B0
:10314000BC6005682C6824F480242C6004686360EB
:103150008368402B05D0036899600368DA60F0BC8F
:10316000704703689A600368D960F8E703689A605B
:103170000368D960F3E700BF100002402800024056
:10318000085402581C540258305402580368274906
:10319000274A934218BF8B422FD0183293422CD02B
:1031A0001832934229D01832934226D018329342D3
:1031B00023D01832934220D0183293421DD002F50A
:1031C0005672934219D01832934216D01832934255
:1031D00013D01832934210D0183293420DD01832C7
:1031E00093420AD01832934207D01832934204D047
:1031F00023F0FF038365806D704710B4D9B2103996
:103200000C4AA2FB0142C2F302120B4CA25CC26543
:103210005F2907D96FF3090304338365806D5DF877
:10322000044B70476FF309038365F7E71000024012
:1032300028000240ABAAAAAA70E8000883699BB9DB
:10324000836A012B0AD0022B02D00BB100207047F9
:10325000C36A13F0807F2AD100207047C36AB3F19C
:10326000C07F26D000207047B3F5005F0AD0836A84
:10327000022B26D9032B26D1C36A13F0807F24D1D9
:1032800000207047836A032B03D8DFE803F014049F
:10329000140A00207047C36A13F0807F0DD100200C
:1032A0007047C36AB3F1C07F09D000207047012086
:1032B00070470120704701207047012070470120AE
:1032C00070470120704700207047012070470000C0
:1032D00003682149214A934218BF8B4227D01432F8
:1032E000934224D01432934221D0143293421ED000
:1032F000143293421BD01432934218D014329342AA
:1033000015D0DAB2103A1649A1FB0212120915497A
:103310001944A8291ED9144B13449B000366134B70
:10332000436602F01F020123934083667047DBB2BD
:10333000083B0F4AA2FB03230E4A02EB1312920032
:1033400002660D4A4266C3F30413012202FA03F334
:10335000836670470832DEE7085402581C5402584E
:10336000ABAAAAAAF0FBFDBF0082001080080240B1
:10337000CDCCCCCC009600168058025801794A1E5C
:10338000072A2BD830B40368154D164CA34218BF3A
:10339000AB4218D01434A34215D01434A34212D037
:1033A0001434A3420FD01434A3420CD01434A342DB
:1033B00009D01434A34206D00B4B0B449B00C366C8
:1033C0000A4B036705E00A4B0B449B00C366094B9D
:1033D000036701239340436730BC7047704700BFC9
:1033E000085402581C5402583F8200104009024001
:1033F0003F9600164059025870B50446FFF76CFD21
:10340000002C00F0B781054623685349534A934284
:1034100018BF8B420CBF0121002150D018329342BB
:103420004DD0183293424AD01832934247D01832C6
:10343000934244D01832934241D0183293423ED046
:1034400002F5567293423AD01832934237D018326E
:10345000934234D01832934231D0183293422ED056
:10346000183293422BD01832934228D0183293420C
:1034700025D03B493B4A934218BF8B4200F0328132
:10348000394A934200F02E811432934200F02A818F
:103490001432934200F026811432934200F02281CC
:1034A0001432934200F01E811432934200F01A81CC
:1034B00040236365032384F8353001204AE002226B
:1034C00084F83520002284F8342079BB274A9342BF
:1034D0002CD01832934229D01832934226D0183279
:1034E000934223D01832934220D0183293421DD0F9
:1034F00002F55672934219D01832934216D0183200
:10350000934213D01832934210D0183293420DD008
:10351000183293420AD01832934207D0183293429D
:1035200004D01A6822F001021A6003E01A6822F03F
:1035300001021A6023681A6812F0010F18D0FFF711
:10354000CBFC431B052BF5D920236365032384F8AB
:103550003530012070BD00BF10000240280002403D
:10356000085402581C54025830540258400002407B
:103570001A6881491140A268E06802432069024349
:1035800060690243A0690243E0690243206A024382
:103590000A43616A042900F090806168522900F2B0
:1035A00096803F29C0F08E803F39744820FA01F19F
:1035B00011F0010F01D042F480121A60266875697B
:1035C00025F00705636A1D43042B08D1A36A1D4338
:1035D000E36A23B12046FFF731FE00287CD17561F4
:1035E0002046FFF7D3FDE36D03F01F023F23934016
:1035F000836023686249634A934218BF8B4242D07A
:10360000183293423FD0183293423CD01832934242
:1036100039D01832934236D01832934233D0183210
:10362000934230D002F5567293422CD01832934216
:1036300029D01832934226D01832934223D0183220
:10364000934220D0183293421DD0183293421AD0A0
:103650001832934217D04C4A934214D014329342FA
:1036600011D0143293420ED0143293420BD0143244
:10367000934208D01432934205D01432934202D0C0
:103680001432934213D12046FFF722FEA368802B09
:1036900063D0236E22791A60636EA26E5A606368EB
:1036A000013B072B5CD90023E36623676367002097
:1036B0006065012384F835304CE7E16A206B0143F3
:1036C0000A436AE7293905293FF677AF73E774396A
:1036D00003293FF672AF6EE740236365012084F84B
:1036E000350037E7022284F83520002284F83420A0
:1036F00019686FF31011A268402A2CD0802A27D0B5
:103700000022E06842EAD002206942EAD002606901
:1037100042EAD002A06942EAD002E06942EAD0025D
:10372000206A42EA10120A431A602268174B1344B7
:10373000174AA2FB03231B099B00E3652046FFF702
:1037400025FDE26D02F01F0101228A40426050E730
:103750004FF48042D5E71022D3E70023636098E757
:103760002046FFF70BFEE36E00221A60236F626FA4
:103770005A609CE70120EDE63F8010FE0F030F002A
:10378000100002402800024008540258F8ABFDA780
:10379000CDCCCCCC002800F03E8170B5044690F82A
:1037A0003400012800F03981012084F8340094F8B5
:1037B0003500C0B2012807D04FF4006363650023D1
:1037C00084F83430012070BD022084F835000020D8
:1037D00060652068924E934DA84218BFB0422FD02A
:1037E0001835A8422CD01835A84229D01835A8423F
:1037F00026D01835A84223D01835A84220D0183535
:10380000A8421DD005F55675A84219D01835A84212
:1038100016D01835A84213D01835A84210D0183544
:10382000A8420DD01835A8420AD01835A84207D0B2
:103830001835A84204D0056825F00105056003E0AD
:10384000056825F0010505602046FFF7C5FB2368E4
:103850007349744A934218BF8B4238D0183293424E
:1038600035D01832934232D0183293422FD01832CA
:1038700093422CD01832934229D01832934226D04A
:1038800002F55672934222D0183293421FD018325A
:1038900093421CD01832934219D01832934216D05A
:1038A0001832934213D01832934210D018329342F8
:1038B0000DD01A6822F00E0242F00A021A60236C40
:1038C00093B12268136843F0040313600CE01A6894
:1038D00022F01E0242F016021A60236C23B1226805
:1038E000136843F00803136023684D494D4A93421F
:1038F00018BF8B4242D0183293423FD018329342C5
:103900003CD01832934239D01832934236D0183214
:10391000934233D01832934230D002F5567293421C
:103920002CD01832934229D01832934226D0183224
:10393000934223D01832934220D0183293421DD0A4
:10394000183293421AD01832934217D0364A934213
:1039500014D01432934211D0143293420ED0143248
:1039600093420BD01432934208D01432934205D0C4
:103970001432934202D0143293420ED1236E1A684D
:1039800012F4803F03D01A6842F480721A60E36E2A
:103990001BB11A6842F480721A6023682049214AD8
:1039A000934218BF8B4230D0183293422DD0183238
:1039B00093422AD01832934227D01832934224D00F
:1039C0001832934221D0183293421ED002F556721B
:1039D00093421AD01832934217D01832934214D01F
:1039E0001832934211D0183293420ED018329342BB
:1039F0000BD01832934208D01832934205D01A687F
:103A000042F001021A600020DDE61A6842F001026D
:103A10001A600020D7E6012070470220D3E600BFDD
:103A2000100002402800024008540258F0B583B04C
:103A30000446002301937D4B1D687D4BA3FB053598
:103A4000AD0A876D3E68D7F800C0036879497A48A7
:103A5000834218BF8B420CBF0120002061D0774AFF
:103A600093425ED0183293425BD01832934258D0C2
:103A70001832934255D01832934252D018329342A2
:103A80004FD002F5567293424BD01832934248D031
:103A90001832934245D01832934242D018329342A2
:103AA0003FD0183293423CD01832934239D018326A
:103AB000934236D06249634A934218BF8B4212D078
:103AC000614A93420FD0143293420CD01432934285
:103AD00009D01432934206D01432934203D01432E8
:103AE000934240F061821A68E16D01F01F010420E9
:103AF000884010EA0C0F00F0A78212F0040F00F0CB
:103B0000A382786012F4004F00F05A8212F4803FD2
:103B100040F05082A36C002B00F04682204698476C
:103B200042E2E26D02F01F0108228A40324241D097
:103B300070BB424A93422BD01832934228D018329D
:103B4000934225D01832934222D0183293421FD08C
:103B5000183293421CD002F55672934218D0183294
:103B6000934215D01832934212D0183293420FD09C
:103B7000183293420CD01832934209D01832934233
:103B800006D01832934203D01A68C2F3C00202E092
:103B90001A68C2F380026AB11A6822F004021A603D
:103BA000E36D03F01F0208239340BB60636D43F095
:103BB00001036365E26D02F01F0226FA02F313F0BF
:103BC000010F47D023681B481B498B4218BF834213
:103BD0003CD018318B4239D018318B4236D0183155
:103BE0008B4233D018318B4230D018318B422DD0DC
:103BF00018318B422AD001F556718B4226D01831EC
:103C00008B4223D018318B4220D018318B421DD0EB
:103C100018318B421AD018318B4217D018318B4291
:103C200014D018318B4211D01B6813E0140000240B
:103C3000B5814E1B100002402800024040000240A7
:103C4000085402581C540258305402585B6913F04F
:103C5000800F3BD1E36D03F01F03042202FA03F34C
:103C600033423FD02268964896498A4218BF824222
:103C700034D018318A4231D018318A422ED01831CE
:103C80008A422BD018318A4228D018318A4225D056
:103C900018318A4222D001F556718A421ED018315D
:103CA0008A421BD018318A4218D018318A4215D066
:103CB00018318A4212D018318A420FD018318A4204
:103CC0000CD018318A4209D013680BE001239340CD
:103CD000BB60636D43F002036365BBE7126812F0DB
:103CE000020F3DD1E36D03F01F03102202FA03F32C
:103CF00033425FD02268724872498A4218BF8242BA
:103D000034D018318A4231D018318A422ED018313D
:103D10008A422BD018318A4228D018318A4225D0C5
:103D200018318A4222D001F556718A421ED01831CC
:103D30008A421BD018318A4218D018318A4215D0D5
:103D400018318A4212D018318A420FD018318A4273
:103D50000CD018318A4209D01268C2F3800208E000
:103D6000BB60636D43F004036365BBE71268C2F395
:103D7000C002FAB1BB6023681A6812F4802F0DD01C
:103D80001B6813F4002F04D1236C9BB12046984785
:103D900010E0A36C73B1204698470BE01A6812F448
:103DA000807F03D11A6822F008021A60236C0BB1DD
:103DB00020469847E36D03F01F03202202FA03F325
:103DC000334200F0938022683D483E498A4218BF42
:103DD00082422ED018318A422BD018318A4228D004
:103DE00018318A4225D018318A4222D018318A42AD
:103DF0001FD018318A421CD001F556718A4218D062
:103E000018318A4215D018318A4212D018318A42AC
:103E10000FD018318A420CD018318A4209D018319B
:103E20008A4206D018318A4203D01268C2F3400297
:103E300002E01268C2F30012002A57D0BB6094F867
:103E40003530DBB2042B0ED023681A6812F4802FB1
:103E50003AD01B6813F4002F2DD1636C002B45D092
:103E60002046984742E02268136823F01603136047
:103E70002268536923F080035361236CBBB122682D
:103E8000136823F008031360E36D03F01F023F2360
:103E90009340BB60012384F83530002384F834302C
:103EA000236D002B00F08080204698477CE0A36CB7
:103EB000002BE4D1E8E7E36BC3B12046984715E057
:103EC00010000240280002401A6812F4807F09D1D5
:103ED0001A6822F010021A60012384F8353000239A
:103EE00084F83430E36B0BB120469847636D002BA8
:103EF0005AD0636D13F0010F52D0042384F835308B
:103F000023689649964A934218BF8B422FD01832A5
:103F100093422CD01832934229D01832934226D0A3
:103F20001832934223D01832934220D01832934251
:103F30001DD002F55672934219D01832934216D012
:103F40001832934213D01832934210D01832934251
:103F50000DD0183293420AD01832934207D018324B
:103F6000934204D01A6822F001021A6003E01A6832
:103F700022F001021A60019B01330193AB4204D885
:103F800023681B6813F0010FF5D123681B6813F039
:103F9000010F0BD0032384F83530002384F834302C
:103FA000E36C0BB12046984703B0F0BD012384F8C1
:103FB0003530F2E7236C002BF6D020469847F3E724
:103FC00012F0200F3AD123686449654A934218BF22
:103FD0008B422FD0183293422CD01832934229D0E2
:103FE0001832934226D01832934223D0183293428B
:103FF00020D0183293421DD002F55672934219D048
:104000001832934216D01832934213D0183293428A
:1040100010D0183293420DD0183293420AD0183281
:10402000934207D01832934204D01A6822F0040257
:104030001A6003E01A6822F008021A60236C002B51
:10404000B2D020469847AFE70220884010EA0C0F14
:1040500060D012F0020F5DD0786012F4004F0ED0E5
:1040600012F4803F05D1636C002B9DD02046984709
:104070009AE7E36B002B97D02046984794E712F01D
:10408000200F40D123683549354A934218BF8B42EF
:104090002FD0183293422CD01832934229D01832A4
:1040A000934226D01832934223D01832934220D024
:1040B000183293421DD002F55672934219D018322D
:1040C000934216D01832934213D01832934210D034
:1040D000183293420DD0183293420AD018329342CC
:1040E00007D01832934204D01A6822F00A021A60EC
:1040F00003E01A6822F014021A60012384F83530B4
:10410000002384F83430E36B002B3FF44DAF20469E
:10411000984749E7082000FA01F111EA0C0F3FF433
:1041200043AF12F0080F3FF43FAF1A6822F00E02BF
:104130001A60E36D03F01F03012202FA03F37B60B0
:10414000626584F83520002384F83430E36C002B5A
:104150003FF42AAF2046984726E700BF10000240F0
:104160002800024030B4416B0468D4F884306F4AB0
:10417000134043EA8103C4F884300468D4F88430DF
:1041800023F47F03856B43EA0543C4F88430836BD3
:104190000B440468D4F88810114041EA8301C4F844
:1041A00088100468D4F8881021F4FE01C56B41EA38
:1041B0000541C4F88810C16B03EB41030468D4F8CF
:1041C000A010114041EA8301C4F8A0100468D4F89B
:1041D000A01021F4FE01056C41EA0541C4F8A010CD
:1041E000016C446C04FB01330468D4F8B010114036
:1041F00041EA8301C4F8B0100468D4F8B01021F487
:10420000FE01856C41EA0541C4F8B010816CC46CB4
:1042100004FB01330468D4F8AC10114041EA830177
:10422000C4F8AC10016D446D04FB01330468D4F88C
:10423000F010114041EA8301C4F8F0100468D4F88A
:10424000F01021F47C11856D41EA0541C4F8F010AD
:10425000816D03EB41030468D4F8C0100A4042EAC0
:104260008303C4F8C0300268D2F8C03023F47C1352
:10427000C16D43EA0143C2F8C0300268D2F8C030D1
:1042800023F07C53016E43EA0163C2F8C030436BF4
:10429000274A1A449200C266836B02EB83030367CA
:1042A000C16B03EBC1034367016C446C04FB01F178
:1042B00003EB81038367816CC46C04FB01F103EBA6
:1042C0008103C367016D446D04FB01F103EB8103BE
:1042D000C0F88030816D03EBC103C0F88430816E7B
:1042E000C46D01FB04FC03EB8C03C0F88830046E42
:1042F00004FB01F103EB8103C0F890300D498B42C0
:104300000DD9D0F89C3043F02003C0F89C30032333
:1043100080F89830012007E0002342F8043BD0F8F1
:1043200090309342F8D8002030BC70470300FFFF64
:10433000002B0010FCD3004070B54C68FCB90D692F
:104340008C6825430C6845EA84450E6ACC6944EACA
:1043500006648E6934434E693443CE6844EA0644A9
:10436000D0F88460806E00FB03F306EB830E46F802
:104370002350CEF804400EF1080E002019E00C691D
:104380008D6825430C68254345F08045DDE702EB49
:10439000000C9CF803409CF802301B0443EA0463C1
:1043A0009CF8014043EA0423145C23434EF8043B89
:1043B0000430CB68024CE35C8342E8D870BD00BF98
:1043C00078E8000830B595B004464C22A04901A811
:1043D000FBF798FF002C00F0388123689D4A934238
:1043E00020D094F898300BB32268936923F010031F
:1043F0009361FEF771FD054623689A6912F0080F74
:104400001AD0FEF769FD431B0A2BF5D9D4F89C306E
:1044100043F00103C4F89C30032384F89830012052
:1044200015B030BD03F580736360DAE784F8993026
:104430002046FDF77FFDD7E79A6942F001029A61B5
:10444000FEF74AFD054623689A6912F0010F0FD165
:10445000FEF742FD401B0A28F5D9D4F89C3043F002
:104460000103C4F89C30032384F898300120D7E777
:104470009A6942F002029A61237C012B40D02268A3
:10448000936943F040039361637C012B3ED0226823
:10449000936923F480439361A37C012B3CD0226871
:1044A000936943F4805393612268936923F44073C2
:1044B000A1680B4393612268936923F0A40393617D
:1044C0002268136923F010031361E368012B29D0DC
:1044D000002B2CD0022B00F09B802268936943F0C4
:1044E000800393612268136943F010031361E3684A
:1044F000032B1CD12268936943F02003936116E0DB
:104500002268936923F040039361BDE722689369B1
:1045100043F480439361BFE72268936923F4805397
:104520009361C1E72268936943F004039361A3692F
:104530005A1EE369013B1B0243EA4263226A013AC5
:1045400013436269013A216843EA0243CB61A368DD
:10455000B3F5407F62D0236E33B12268D2F8C03009
:10456000616E0B43C2F8C030E36D226ED3420DD0B2
:104570002168D1F8C83023F00703A26E14A800EB1D
:10458000820252F84C2C1343C1F8C830236C6BB133
:104590002168D1F8BC3023F00703626C14A800EB4B
:1045A000820252F84C2C1343C1F8BC30A36C73B197
:1045B0002168D1F8BC3023F07003E26C14A800EB42
:1045C000820252F84C2C43EA0213C1F8BC30236D2E
:1045D00073B12168D1F8BC3023F4E063626D14A894
:1045E00000EB820252F84C2C43EA0223C1F8BC30A3
:1045F0002268184B9A4222D00023C4F89430C4F8A1
:104600009C30012384F898302046FFF7ABFD07E784
:104610002268936943F02003936188E7A36A013B12
:10462000E26A013A43EA0223226B013A43EA0213A7
:10463000626A013A216843EA0243CB608BE7626811
:10464000936823F003039360D6E70120E8E600BFF8
:1046500030E7000800A0004090F89830013BDBB242
:10466000012B07D9D0F89C3043F00203C0F89C30EE
:10467000012070470B68DBB9CB68072B0ED08A6826
:10468000DB0643EA82730A6943EA02434A69134339
:10469000C26E496842F82130002070470A69CB6930
:1046A0001B0243EA02438A69134343F06053EFE776
:1046B00010B4CA680B6943EA4273072A0FD04A69EB
:1046C0008C6842EA8472006F496800EBC10C40F8C4
:1046D0003130CCF8042000205DF8044B70478A6923
:1046E000F1E790F898C05FFA8CFCBCF1010F07D09D
:1046F000D0F89C3043F00403C0F89C300120704790
:10470000920042EA011242EA43030168009A1A4306
:10471000C1F880200020704790F89830DBB2012B60
:1047200007D0D0F89C3043F00403C0F89C3001203F
:10473000704751B90168D1F8F03023F07C5343EA57
:104740000263C1F8F03000207047012909D00168E8
:10475000D1F8B03023F0FE4343EA0263C1F8B03031
:10476000F1E70168D1F8A03023F0FE4343EA026389
:10477000C1F8A030E7E790F89830DBB2012B07D002
:10478000D0F89C3043F00403C0F89C3001207047FF
:10479000022380F898300268936923F00103936143
:1047A0000023C0F89C301846704738B5044690F88E
:1047B0009830DBB2022B2BD10368D3F8C00010F085
:1047C0007C5F0CD0D3F8C40010F4001F0FD0D4F8D5
:1047D0009C3043F40073C4F89C3001201FE0D4F8EF
:1047E0009C3043F02003C4F89C30012017E0D3F83C
:1047F000C450C5F304452B462046FFF79DFD2268B3
:104800000123AB40C2F8D030C4F89430002006E059
:10481000D0F89C3043F00803C0F89C30012038BD2C
:1048200090F898C05FFA8CFCBCF1020F40F0DF807A
:1048300070B540290CD041293DD0046D8C426DD813
:10484000D0F89C3043F02003C0F89C300120C1E038
:104850000468D4F8A05015F4FE0F0CD0D4F8A4507E
:1048600015F07F0F0FD1D0F89C3043F48073C0F85F
:104870009C300120AEE0D0F89C3043F02003C0F81B
:104880009C300120A6E0D4F8A46016F0807604D015
:10489000D4F8A050002D0CDB0026D4F8A440C4F3BB
:1048A00005242644456F446C06FB04F405EB840E96
:1048B0003BE00126F1E70468D4F8B05015F4FE0F90
:1048C0000CD0D4F8B45015F07F0F0FD1D0F89C3035
:1048D00043F48073C0F89C3001207BE0D0F89C301A
:1048E00043F02003C0F89C30012073E0D4F8B4609A
:1048F00016F0807604D0D4F8B050002D0CDB0026E2
:10490000D4F8B440C4F305242644856FC46C06FB78
:1049100004F405EB840E08E00126F1E7C56F446D51
:1049200001FB04F405EB840E0026DEF8004004F0E1
:104930008044546064BBDEF80040C4F38A441460D1
:10494000DEF8004004F000549460DEF8004004F00B
:1049500000441461BEF80440D461BEF8064004F07F
:104960000F04D460DEF8044004F480145461DEF8CF
:10497000044004F4001494619EF8074004F07F049E
:104980001462DEF80440E40F54624FF0000C0CE0B7
:10499000DEF8004024F060441460D1E70EEB0C0414
:1049A000247A03F80C400CF1010CD468144D2C5DF2
:1049B0006445F3D8402909D041290CD01F290ED8CD
:1049C000026801238B40C2F8983002E00368C3F804
:1049D000A860002070BD0368C3F8B860F9E701F073
:1049E0001F01026801238B40C2F89C30F1E7D0F828
:1049F0009C3043F00803C0F89C300120704700BF92
:104A000078E8000890F89830013BDBB2012B07D919
:104A1000D0F89C3043F00203C0F89C30012070476E
:104A200010B403689C6D0C4224D1DC6D44F0010489
:104A3000DC6511F4007F05D00468D4F8E03013433E
:104A4000C4F8E03011F4806F05D00468D4F8E43085
:104A50001343C4F8E4300068436D0C4A0A40134322
:104A600043650B4A536943EA9173536100205DF833
:104A7000044B70479C6D31EA040402D00324DC65CA
:104A8000D7E7DC6D44F00204DC65D2E7FFFFCF3FDF
:104A900000A80040704770477047704770477047E4
:104AA000704770477047704770477047704770474E
:104AB000704770472DE9F04F83B00446904B1A6958
:104AC0005B69134001939B07009303681A6D02F41E
:104AD000704A5A6D0AEA020A1A6D02F00F095A6DFD
:104AE00009EA02091A6D02F0F0085A6D08EA020894
:104AF0001E6D06F071565A6D16401F6D07F06077F7
:104B00005A6D17405D6DD3F850B015F4807F02D018
:104B10001BF4807F64D115F4806F02D01BF4806F8A
:104B200067D1009B002B74D1BAF1000F7ED1B9F18F
:104B3000000F40F08780B8F1000F40F08F8015F42F
:104B4000006F03D01BF4006F40F0948015F4007FD9
:104B500003D01BF4007F40F0988015F4002F03D0A1
:104B60001BF4002F40F0A18015F4803F03D01BF40C
:104B7000803F40F0A58015F4802F03D01BF4802FD8
:104B800040F0A98015F4003F0FD01BF4003F0CD07B
:104B900023684FF400321A65594B00221A61D4F889
:104BA0009C3043F08003C4F89C30002F40F09E807E
:104BB0004EB123681E65B20F514B1A61D4F89C3078
:104BC0003343C4F89C3022684E4B9A4200F09C80DC
:104BD000D4F89C30002B40F0F98003B0BDE8F08F92
:104BE0004FF480721A65464B00221A61FFF75BFF93
:104BF00091E72368D3F8DC10D3F8E4204FF4806009
:104C000018653F4B0020186111402046FFF747FF11
:104C100087E7236800221A65019B03F00303384AE3
:104C2000136100992046FFF735FF7DE72368C3F83D
:104C300050A04FEA9A72324B1A6151462046FFF754
:104C40002AFF74E72368C3F850904FEA99722C4BFF
:104C50001A6149462046FCF75BFB6CE72368C3F802
:104C600050804FEA9872264B1A6141462046FFF762
:104C700013FF64E723684FF400621A65204B00229B
:104C80001A612046FFF709FF60E72368D3F8D810C0
:104C9000D3F8E0204FF400701865194B002018611C
:104CA00011402046FFF7FAFE57E723684FF4002231
:104CB0001A65134B00221A612046FFF7F1FE53E7F5
:104CC00023684FF480321A650D4B00221A6120468A
:104CD000FFF7E7FE4FE723684FF480221A65084B81
:104CE00000221A612046FFF7DDFE4BE723681F65AF
:104CF000BA0F034B1A6139462046FFF7D6FE57E735
:104D000000A8004000A0004063689A6812F0030FFA
:104D10003FF45EAF196A01F00F015A6A186A00F099
:104D20003008586A08EA00081F6A07F4C077586A12
:104D300007401E6A06F4FC46586A06401D6A05F4E0
:104D4000F025586A0540D3F82490D3F820A01140EC
:104D50001CD1B8F1000F1ED119F0400F02D01AF08B
:104D6000400F20D15FBB36B163681E62D4F89C301F
:104D70003343C4F89C30002D3FF42AAF63681D62B2
:104D8000D4F89C302B43C4F89C3021E719622046AC
:104D9000FFF78CFEDDE76368C3F8208041462046BC
:104DA000FFF785FED8E76368D96BDA6B402018629D
:104DB00002F03F02090C2046FFF77AFED2E7636853
:104DC0001F6239462046FFF774FECCE72046FFF706
:104DD0006BFE02E7F0B583B000236BE085685E00F0
:104DE0000324B44025EA0405CC68B4402C43846015
:104DF000456825EA0C054C68C4F300149C402C431C
:104E0000446069E0DD08083550F8254003F0070CE0
:104E10004FEA8C0C4FF00F0E0EFA0CFE24EA0E0E29
:104E20000C6904FA0CF444EA0E0440F825406BE0E7
:104E3000092400E0002404FA0EF42C430CF1020CC7
:104E4000664D45F82C404FF0B0442568D44325EA20
:104E500002064F6817F4801F01D042EA05064FF0A2
:104E6000B0452E606D6804EA05064F6817F4001F10
:104E700001D042EA05064FF0B0456E60D5F8845087
:104E800004EA05064F6817F4003F01D042EA050620
:104E90004FF0B045C5F88460D5F880502C404E687E
:104EA00016F4803F01D042EA05044FF0B042C2F848
:104EB000804001330A6832FA03F400F08C804FF02E
:104EC000010C0CFA03FC1CEA0202F2D04C6804F05C
:104ED0000304013C012C81D94C6804F00304032C29
:104EE0000CD0C4685D004FF0030C0CFA05FC24EAFA
:104EF0000C0C8C68AC4044EA0C04C4604C6804F0B0
:104F00000304022C3FF47EAF04684FEA430E4FF0D7
:104F1000030C0CFA0EFC24EA0C0C4C6804F003049D
:104F200004FA0EF444EA0C0404604C6814F4403FA4
:104F3000BFD02B4CD4F8F45045F00205C4F8F4501F
:104F4000D4F8F44004F002040194019C4FEA930C5D
:104F50000CF10205214C54F8255003F0030E4FEAE2
:104F60008E0E0F2404FA0EF425EA04051D4CA0420F
:104F70003FF460AF04F58064A0421ED004F5806465
:104F8000A0421CD004F58064A0421AD004F58064CD
:104F9000A04218D004F58064A04216D004F58064C5
:104FA000A04214D004F58064A04212D004F500643D
:104FB000A0423FF43DAF0A243DE701243BE7022431
:104FC00039E7032437E7042435E7052433E70624CB
:104FD00031E707242FE703B0F0BD00BF00040058FD
:104FE00000440258000002580AB181617047090468
:104FF000816170472DE9F04383B0D0F8008001EB68
:10500000C10300EB83039A6A5B6A9A4254D807464D
:105010000C469B1A01EBC10200EB8202D2699A4254
:1050200000D31A4602F103094FEA990915E006F187
:1050300003094FEA9909BB7904EBC40507EB850521
:10504000296A0093B3B2E2B2404605F0F2F92B6A46
:1050500033442B62AB6A3344AB6208EB441303F571
:1050600010639B699BB24B4512D304EBC40307EB5F
:1050700083039A6A5B6A9A420AD24BB19B1A04EB89
:10508000C40207EB8202D6699E42D0D31E46CEE709
:1050900004EBC40307EB83077A6ABB6A9A420FD812
:1050A00004F00F040122A240D8F8343823EA0203A6
:1050B000C8F83438002000E0012003B0BDE8F083D8
:1050C0000020FAE730B583B000287AD0044690F883
:1050D0009534ABB1032384F89534206804F060FF65
:1050E000237C8DF80030231D0ECB206804F08EFE4B
:1050F00058B1022384F895340125284603B030BD09
:1051000080F8943408F048FCE4E70021206805F0BA
:10511000A6FB024608B9034617E0022384F895343B
:105120000125EAE703EBC30104EB81010120487587
:105130000B75CB8500200876C861086203EBC301BC
:1051400004EB810148620133DBB220799842E9D84F
:1051500016E002EBC20304EB8303002183F855122F
:1051600083F8542283F85812C3F85C12C3F8601213
:1051700002EBC20304EB8303C3F864120132D2B220
:105180009042E6D8237C8DF80030231D0ECB20689A
:1051900004F05CFF054658B900236374012384F8CA
:1051A0009534237B012B08D0206805F017FBA4E77A
:1051B000022384F8953401259FE7204600F076FD10
:1051C000F2E7012599E7036890F89424012A1AD0A0
:1051D00010B50446012280F89424DA6812F0400FDA
:1051E00002D0427B012A09D0206804F0D3FE206857
:1051F00005F0E6FA002084F8940410BD9A6B42F49E
:1052000080329A63F0E702207047000070B50446D0
:105210000D460068066C00EB411303F530639A6895
:10522000A179012911D038498E4256D03DB905EBFC
:10523000C50304EB8303D3F86432002B5ED0E9B2DC
:10524000204608F0EBFB002070BD12F0080F09D0DB
:105250002E498E42F7D912F4004FF4D04FF4004299
:105260009A60F0E712F0200F02D020229A60EAE75D
:1052700012F0280FE7D125498E4206D912F4004FCB
:1052800003D04FF400429A60DDE705EBC50204EB62
:105290008202D2F874121B69C3F31203CB1AC2F84C
:1052A00068327DB905EBC50204EB8202D2F86422B4
:1052B0006AB105EBC50204EB8202D2F86012194410
:1052C000C2F86012E9B2204608F0A8FBBBE704F27E
:1052D0009C42012105F002FBF4E712F4004F03D0D9
:1052E0004FF400429A60AEE712F0200F01D0202266
:1052F0009A60E9B2204608F091FBA4E704F29C42D0
:10530000002105F0EBFA9AE70A31544F0A30544F66
:1053100038B5044603681D6C03EB4113D3F8081B32
:105320000E4A954207D903F5306311F4004F02D0BD
:105330004FF400429A60204608F068FB074B9D42FC
:1053400002D9A379012B01D0002038BD04F29C4280
:105350000121206805F0C2FAF6E700BF0A30544F79
:1053600090F89434012B0CD010B50446012380F83A
:1053700094344174006805F013FA002084F8940412
:1053800010BD0220704738B505468C4611F0800FDD
:105390002BD101F00F0E0EEBCE04A40004F5147413
:1053A0000444211D0EEBCE0E00EB8E0E00208EF875
:1053B00055020CF00F0C81F800C0C2F30A028A609B
:1053C0000B714A780AB1A1F81AC0022B1CD095F8CB
:1053D0009434012B1BD0012385F89434286804F001
:1053E0000DFF002085F8940438BD01F00F0000EB9C
:1053F000C001890010312944043100EBC00005EBE5
:10540000800001244475D4E700234B71DFE70220BC
:10541000EAE710B504460A4611F0800F20D101F0EA
:105420000F0000EBC0039B0003F514732344191D08
:1054300000EBC00004EB8000002380F8553202F03E
:105440000F020A7094F89434012B18D0012384F8C9
:105450009434206804F01EFF002084F8940410BDEA
:1054600001F00F0000EBC0039B0010332344191D13
:1054700000EBC00004EB800001234375DFE702204E
:10548000EDE710B5144601F00F0C0CEBCC018900D0
:1054900001F51471014404310CEBCC0E00EB8E0EBF
:1054A000CEF86022CEF864320023CEF868328EF84F
:1054B00055328EF854C28279012A04D0006804F073
:1054C000CFFF002010BDCEF87042F7E701F00F01CA
:1054D00001EBC10100EB8100D0F86802704710B504
:1054E000144601F00F0C0CEBCC0189001031014483
:1054F00004310CEBCC0E00EB8E0ECEF82020CEF853
:1055000024300023CEF8283001238EF815308EF891
:1055100014C082799A4204D0006804F0A1FF0020F0
:1055200010BDCEF83040F7E738B501F00F0502792D
:10553000AA4238D304460B4611F0800F1FD101EB6D
:10554000C101890001F514710144043103EBC30367
:1055500000EB8303002283F8552201238B700D702A
:1055600094F89434012B20D0012384F894342068DB
:1055700005F0BBF885B1002084F8940438BD05EB34
:10558000C501890010310144043105EBC50300EB6E
:10559000830301225A75E0E704F29C42A179206856
:1055A00005F09CF9E7E70120E8E70220E6E701F0D3
:1055B0000F0302799A4230D310B5044611F0800FE0
:1055C0001ED103EBC301890001F5147101440431BC
:1055D00003EBC30200EB8202002082F85502002296
:1055E0008A700B7094F89434012B18D0012384F83E
:1055F0009434206805F0A6F8002084F8940410BDC7
:1056000003EBC301890010310144043103EBC302F1
:1056100000EB820201205075E1E701207047022073
:10562000EDE708B511F0800F0CD101F00F0101EB8F
:10563000C101890001F5147101440431006804F0CE
:1056400099FE08BD01F00F0101EBC1018900103185
:1056500001440431F2E72DE9F04F83B004460568B8
:10566000284605F0F8F810B103B0BDE8F08F064603
:10567000206805F0C1F80028F6D005F50067BB6882
:10568000C3F30D23C4F8D434206805F0B5F810F046
:10569000020F04D02268536903F0020353612068AB
:1056A00005F0AAF810F0100F16D02268936923F0C5
:1056B00010039361D5F8208008F00F0908F4F01367
:1056C000B3F5802F6AD0B3F5402F00F08D802268AB
:1056D000936943F010039361206805F08DF810F48E
:1056E000002F40F09380206805F086F810F4802F9A
:1056F00040F0FC80206805F07FF80028C0F27D8132
:10570000206805F079F810F4006F09D0BB6813F039
:10571000010F40F08A812268536903F400635361EA
:10572000206805F069F810F0006F15D02268536901
:1057300003F00063536194F8CC34002B40F079817E
:10574000012184F8CC1423685B6DC3F38303C4F890
:10575000D034204600F0BEFA206805F04DF810F471
:10576000805F40F06A81206805F046F810F4005F21
:1057700040F0B681206805F03FF810F0080F40F0C7
:10578000C781206805F038F810F0800F00F0DA814A
:10579000AB6923F08003AB610126C3E147F6F073E8
:1057A00018EA030F93D04FEA181A4FEAC90301937E
:1057B00009EBC90B04EB8B0BC8F30A12DBF8601280
:1057C000284604F06FFFDBF86032CAF30A0A53443C
:1057D000CBF86032DBF86832019A4A4404EB82026B
:1057E0005344C2F8683272E7082204F29C4128460A
:1057F00004F058FF09EBC90304EB8303D3F86822D4
:10580000C8F30A184244C3F8682260E7206804F02D
:10581000F7FF8046B14635E005EB49130122C3F896
:10582000082B49462046FFF7F1FC3CE005EB491305
:105830000822C3F8082B49462046FFF769FD35E0EA
:1058400009EBC90304EB830393F85732012B41D0D2
:1058500005EB49130222C3F8082B1AF0200F04D0DD
:1058600005EB49132022C3F8082B1AF4005F05D07A
:1058700005EB49134FF40052C3F8082B09F1010955
:105880004FEA5808B8F1000F3FF42DAF18F0010FA0
:10589000F4D05FFA89FB5946206804F0C1FF8246C4
:1058A00010F0010FB8D11AF0080FBFD11AF0100F85
:1058B00004D005EB49131022C3F8082B1AF0020F8D
:1058C000CBD06B6913F0800FBAD07B6843F4806350
:1058D0007B60B5E709EBC90304EB8303002283F87F
:1058E00057225946204608F0E9F8B1E7206804F04D
:1058F0008FFF8046B14625E05946204608F09AF8C9
:105900001AF0080F04D005EB49130822C3F8082940
:105910001AF0100F04D005EB49131022C3F8082920
:105920001AF0400F04D005EB49134022C3F80829B0
:105930001AF0020F40D11AF0800F59D109F1010974
:105940004FEA5808B8F1000F3FF4D4AE18F0010F39
:10595000F4D05FFA89FB5946206804F06AFF82465A
:1059600010F0010FCCD009F00F02012101FA02F270
:105970007B6B23EA02037B6305EB4913C3F8081929
:10598000A3798B42B8D109EBC90304EB83031A6AEC
:10599000D9690A441A62B9F1000FADD109EBC90304
:1059A00004EB83035B6A002BA6D104F29C42012125
:1059B000206804F093FF9FE74946284604F0F6FA72
:1059C00009EBC90304EB8303DB7D012B05D005EB59
:1059D00049130222C3F80829ADE709EBC90304EB18
:1059E00083030022DA755946204608F06DF8EEE789
:1059F00049462046FFF7FEFAA0E77B6823F0010343
:105A00007B6094F8CC34012B08D0204608F050F885
:105A10002268536903F00043536171E6002184F862
:105A2000CC14204600F056F9F2E7204608F028F89A
:105A300071E6204608F024F88EE67B6823F0010327
:105A40007B601021206804F0B1FA1AE005EB4613E0
:105A50004FF67F31C3F80819D3F8002922F4001259
:105A6000C3F80029C3F8081BD3F8002B22F4001256
:105A7000C3F8002BD3F8002B42F00062C3F8002BD0
:105A800001362379B342E1D8FB6943F00113FB618E
:105A9000E37BDBB1D7F8843043F00B03C7F88430E5
:105AA0007B6C43F00B037B64D5F8003823F4FE6372
:105AB000C5F8003804F29C42A179206804F00EFF7A
:105AC0002268536903F4805353614CE67A6942F2C9
:105AD0002B0313437B613B6943F00B033B61E3E71B
