:020000040800F2
:1000000000000524351500082D1300082F130008E3
:1000100031130008331300083513000800000000F6
:10002000000000000000000000000000E1460008A1
:10003000371300080000000081470008E54700086A
:100040008515000885150008851500088515000828
:100050008515000885150008851500088515000818
:100060008515000885150008851500088515000808
:1000700085150008851500088515000885150008F8
:1000800085150008851500088515000885150008E8
:1000900085150008851500088515000885150008D8
:1000A00085150008851500088515000885150008C8
:1000B00085150008851500088515000885150008B8
:1000C00085150008851500088515000885150008A8
:1000D0008515000885150008851500088515000898
:1000E000851500088515000800000000851500082A
:1000F0008515000885150008851500088515000878
:100100008515000885150008851500088515000867
:100110008515000885150008851500088515000857
:100120008515000885150008851500088515000847
:100130008515000885150008851500088515000837
:1001400000000000000000000000000000000000AF
:100150008515000885150008851500088515000817
:100160008515000885150008851500088515000807
:100170008515000885150008851500080000000099
:1001800085150008851500088515000885150008E7
:1001900085150008851500088515000885150008D7
:1001A0008515000885150008851500080000000069
:1001B00085150008851500088515000885150008B7
:1001C00085150008851500080000000000000000EB
:1001D000000000000000000085150008000000007D
:1001E000000000000000000000000000000000000F
:1001F00000000000000000008515000885150008BB
:100200008515000885150008000000008515000808
:100210008515000885150008851500088515000856
:10022000851500080000000085150008000000008A
:1002300085150008851500080000000085150008D8
:100240008515000885150008851500088515000826
:100250008515000885150008851500088515000816
:100260008515000885150008851500088515000806
:100270008515000885150008851500080000000098
:1002800085150008851500088515000885150008E6
:10029000000000008515000885150008000000001A
:1002A0000000000085150008851500088515000868
:1002B00085150008851500088515000885150008B6
:0C02C0008515000839130008851500089A
:1002D000844641EA000313F003036DD1403A41D351
:1002E00051F8043B40F8043B51F8043B40F8043B10
:1002F00051F8043B40F8043B51F8043B40F8043B00
:1003000051F8043B40F8043B51F8043B40F8043BEF
:1003100051F8043B40F8043B51F8043B40F8043BDF
:1003200051F8043B40F8043B51F8043B40F8043BCF
:1003300051F8043B40F8043B51F8043B40F8043BBF
:1003400051F8043B40F8043B51F8043B40F8043BAF
:1003500051F8043B40F8043B51F8043B40F8043B9F
:10036000403ABDD2303211D351F8043B40F8043B3F
:1003700051F8043B40F8043B51F8043B40F8043B7F
:1003800051F8043B40F8043B103AEDD20C3205D34F
:1003900051F8043B40F8043B043AF9D2043208D047
:1003A000D2071CBF11F8013B00F8013B01D30B88B9
:1003B00003806046704700BF082A13D38B078DD097
:1003C00010F003038AD0C3F10403D21ADB071CBF69
:1003D00011F8013B00F8013B80D331F8023B20F8D3
:1003E000023B7BE7043AD9D3013A11F8013B00F80C
:1003F000013BF9D20B7803704B7843708B78837094
:10040000604670470348044B834202D0034B03B15C
:10041000184770476C0100246C01002400000000A4
:100420000548064B1B1AD90F01EBA301491002D056
:10043000034B03B1184770476C0100246C01002482
:100440000000000010B5064C237843B9FFF7DAFF2F
:10045000044B13B10448AFF300800123237010BD97
:100460006C010024000000006468000808B5054B1A
:100470001BB105490548AFF30080BDE80840FFF710
:10048000CFBF00BF000000007001002464680008B6
:10049000F6EE007A60EE277A10EE103A074AA2EBE9
:1004A000630307EE103A67EE277A67EE277AB7EE16
:1004B000080A30EE670A27EE000A7047DF59375FF7
:1004C00010B52DED068B0446B0EE409AF0EE609A22
:1004D000B0EE418AF0EE618AB0EE42AAF0EE62AA76
:1004E000F5EE401AF1EE10FA14BF01230023B5EE29
:1004F000402AF1EE10FA18BF43F001032BB9F5EED4
:10050000402AF1EE10FA00F0938068EEA87A2AEE05
:100510000A7A77EE877A2AEEAA0A37EE800AFFF780
:10052000B7FF68EE808A2AEE00AA6AEE80AA94EDF0
:10053000017AD4ED036A27EE266AD4ED007AD4ED71
:10054000025A27EEA55A36EE456A27EE277A66EE5E
:10055000A55A37EE257A67EEA77AF6EE005A77EEBF
:10056000E57A66EEA66A77EEA67A6AEE276A6AEE02
:10057000875A76EEE56A6AEE86AA68EEA77A7AEE80
:10058000E7AA68EE878A2AEE06AA78EECA8A624B44
:10059000D3ED007AF5EEC07AF1EE10FA40F3B380B5
:1005A000D3ED007A67EEA67A9FED5C7A67EE877AE4
:1005B0005B4991ED006A76EE277AC1ED007AD3EDC2
:1005C000007A67EEAA7A67EE877A564A92ED006A59
:1005D00076EE277AC2ED007AD3ED007A67EEA87A3C
:1005E00067EE877A504B93ED007A77EE277AC3ED6A
:1005F000007AD1ED007A39EE279AD2ED007A79EEC1
:10060000A79AD3ED007A38EE278A484BD3ED007ACB
:1006100067EEA67A39EE279AD3ED007A67EEAA7ACA
:1006200079EEA79AD3ED007A67EEA87A38EE278A9A
:10063000DFED3F7A29EE270A69EEA70A28EE271A8E
:10064000D4ED006A94ED017AD4ED027A27EE409A57
:1006500020EEA76A39EE469AD4ED039A29EE816A14
:1006600039EE469A39EE269A84ED009A60EE268A93
:1006700021EE276A78EE868A29EEA06A78EEC68A8D
:1006800078EE878AC4ED018A20EEA68A21EE076AF9
:1006900038EE468A29EE806A38EE068A38EE278AD6
:1006A00084ED028A21EE261A60EE870A31EE201AC6
:1006B00020EE270A31EE401A79EE819AC4ED039AB2
:1006C00069EE097A28EEA87A77EE877A28EE087A1A
:1006D00077EE877A29EEA90A37EE800AFFF7D8FE6F
:1006E00029EE009A84ED009A68EE808AC4ED018AB2
:1006F00028EE008A84ED028A69EE809AC4ED039A9E
:10070000BDEC068B10BD0023054A1360054A13603B
:10071000054A136079E700BF940100246F12833A01
:10072000900100248C010024880100240000002492
:100730006F12033A7047704710B44FF0E0235C69C2
:10074000C0EB00104FEA401C9B69002104E0E01A56
:1007500002441144614509D21A464FF0E0239B69D7
:100760009A42FAD0F3D9D21A1144F3E75DF8044B58
:10077000704710B504E04FF47A70FFF7DDFF2046B4
:10078000431E9CB20028F6D110BD000008B500221F
:100790000121024801F0A8F808BD00BF0008025876
:1007A00008B501221146024801F09EF808BD00BFBD
:1007B0000008025808B500220821024801F094F808
:1007C00008BD00BF0008025808B5012208210248F0
:1007D00001F08AF808BD00BF0008025800B587B0D4
:1007E0008DF80F004FF47A73009301230DF1170277
:1007F0000DF10F01034802F009FE9DF8170007B044
:100800005DF804FB1C29002410B50C46FFF7E6FF39
:100810002046FFF7E3FF10BD10B50C4640F0800006
:10082000FFF7DCFF5520FFF7D9FF207010BD38B56A
:100830000D46144640F08000FFF7D0FF06E055203B
:10084000FFF7CCFF05F8010B013CE4B2002CF6D118
:1008500038BD000070B5FFF799FF8020FFF7BEFF9D
:100860005520FFF7BBFF5520FFF7B8FFFFF798FFB4
:100870009620FFF761FFFFF789FF8020FFF7AEFFAB
:100880005520FFF7ABFF5520FFF7A8FFFFF788FFC4
:100890009620FFF751FFFFF779FFB6217E20FFF783
:1008A000B3FFFFF77DFF5020FFF763FFFFF76EFFF9
:1008B0008020FFF793FF5520FFF790FF5520FFF7AB
:1008C0008DFFFFF76DFF9620FFF736FFFFF75EFF06
:1008D0008020FFF783FF5520FFF780FF5520FFF7AB
:1008E0007DFF0446FFF75CFF9620FFF725FF1E2CD7
:1008F00032D10024052C2DD8FFF748FF174A04EB0E
:100900004403D1184E78D55C31462846FFF77CFF6A
:10091000FFF746FF9620FFF70FFFFFF737FF45F081
:100920008000FFF75BFF5520FFF758FF5520FFF7CA
:1009300055FF0546FFF734FF9620FFF7FDFEAE4258
:1009400002D10134E4B2D5E704EB4404034B234461
:10095000987800E0002070BDFF20FCE7C868000820
:1009600070B582B000248DF80740FFF723FF0DF12A
:1009700007012046FFF750FFFFF726FF9620FFF7FD
:10098000DBFEFFF717FF0DF107012046FFF744FFDD
:10099000FFF71AFF9620FFF7CFFEFFF70BFFB621F8
:1009A0001420FFF731FFFFF70FFF5020FFF7E1FEA4
:1009B000FFF700FF0DF107012046FFF72DFFFFF7BE
:1009C00003FF9620FFF7B8FEFFF7F4FE0DF10701D5
:1009D0002046FFF721FFFFF7F7FE9620FFF7ACFE5A
:1009E0009DF807300F2B2ED1052C29D8FFF7E2FEFA
:1009F000164A04EB4403D1184D78D65C294630469C
:100A0000FFF702FFFFF7E0FE9620FFF795FEFFF7E6
:100A1000D1FE0DF107013046FFF7FEFEFFF7D4FED1
:100A20009620FFF789FE9DF807309D4202D10134E0
:100A3000E4B2D9E704EB4404044B2344987800E083
:100A4000002002B070BDFF20FBE700BFB4680008C3
:100A500010B5FFF76FFEFFF76EFEFFF7FBFE0446D3
:100A6000FFF77EFF2043C0B210BD0000F0B583B099
:100A700006460D461446002700970197FFF786FEAD
:100A80009220FFF7ABFE062269461220FFF7CFFE49
:100A9000FFF786FE9DF801301B021BB29DF8002077
:100AA000134307EE903AF8EEE77A474A92ED007A60
:100AB00067EE877AC5ED007A9DF803301B021BB202
:100AC0009DF802100B4307EE903A92ED007AF8EE93
:100AD000E77A67EE877AC5ED017A9DF805301B024B
:100AE0001BB29DF80420134307EE903AF8EEE77A24
:100AF00067EE877AC5ED027AFFF75CFE0822694649
:100B00003846FFF794FEFFF75FFE9DF800300F2B8D
:100B100027D0FFF73BFEA220FFF760FE02226946C6
:100B20002220FFF784FEFFF73BFE9DF800209DF892
:100B300001305B0943EAC203B3F5806F01DBA3F523
:100B4000006307EE903AF8EEE77AB4EE007A67EECB
:100B5000877AB3EE077A77EE877AC4ED007A03B02E
:100B6000F0BD9DF803301B021BB29DF80220134319
:100B700007EE903AF8EEE77A144A92ED007A67EEC3
:100B8000877AC6ED007A9DF805301B021BB29DF8EE
:100B900004100B4307EE903A92ED007AF8EEE77AF4
:100BA00067EE877AC6ED017A9DF807301B021BB20B
:100BB0009DF80620134307EE903AF8EEE77A67EEC9
:100BC000877AC6ED027AA4E7080000240400002416
:100BD0004FF07E530360002343608360C36070471F
:100BE00008B5D2ED022A92ED012AD2ED001A91ED5C
:100BF000021AD1ED010A91ED000AFFF761FC08BD70
:100C0000F8B52DED028B04460F4616461D46D0ED75
:100C1000000A90ED030A20EE800AD0ED017A90EDF3
:100C2000027A27EE877A30EE070A60EEA00A67EEB6
:100C3000A77A70EEA70A70EEA00AB7EE008A70EEEF
:100C4000C80A30EE000A05F07FFB87ED000AD4EDFC
:100C5000017A94ED037A67EE877A94ED007AD4ED09
:100C6000026A27EE267A77EEC77AB8EE000A27EEF8
:100C7000800A05F03DFB86ED000AD4ED000A94EDF4
:100C8000010A20EE800A94ED027AD4ED037A27EE71
:100C9000277A30EE070A60EEA00A67EEA77A70EEB8
:100CA000A70A70EEA00A70EEC80A30EE000A05F03E
:100CB0004BFB85ED000ABDEC028BF8BD80B50A2028
:100CC00003F06BFC0C21704803F00EFB02E0642083
:100CD00003F063FCFFF7BCFE0028F8D16B48FFF778
:100CE00077FF87E083ED007A694BD3ED007AF5EE6C
:100CF000C07AF1EE10FA01D500221A60624B1A6830
:100D0000634BD3ED007AFCEEE77A17EE903A9BB294
:100D10001364604BFC221A705F48D0ED007A9FED9F
:100D20005F7A67EE877AFDEEE77A17EE902A5C49E4
:100D3000C1ED007A5A7014129C701414DC701216F3
:100D40001A71D0ED017A67EE877AFDEEE77A17EE39
:100D5000902AC1ED007A5A7114129C711414DC713E
:100D600012161A72D0ED027A67EE877AFDEEE77AF4
:100D700017EE902AC1ED007A5A7210129872101470
:100D8000D87212161A734748D0ED007A67EE877A48
:100D9000FDEEE77A17EE902AC1ED007A5A7314122D
:100DA0009C731414DC7312161A74D0ED017A67EE7A
:100DB000877AFDEEE77A17EE902AC1ED007A5A7431
:100DC00014129C741414DC7412161A75D0ED027A85
:100DD00067EE877AFDEEE77A17EE902AC1ED007A8A
:100DE0005A75111299751114D97512161A760120B7
:100DF00003F0D3FB2C4C284F2C4E2246394630466C
:100E0000FFF734FE214D3A4631462846FFF7E8FE0B
:100E1000274B1A1FA3F108012846FFF7F1FE254AC8
:100E2000D2ED006A244BC3ED006A244B93ED006AB7
:100E300082ED006A94ED007ADFED217A77EEC77AD1
:100E4000C3ED007A9FED1F7A27EE877A76EE275A58
:100E500076EEA56ADFED1C5A66EEA56A37EE267AB5
:100E600077EEC67AF2EE046A67EEA67A77EE277A14
:100E7000074BC3ED007A9FED157AF4EEC77AF1EED9
:100E800010FA7FF731AF2DE7F0290024D4010024B8
:100E9000C401002498010024E801002400007A44E1
:100EA000B4010024C8010024E4010024F40100245A
:100EB000D0010024BC010024B8010024C00100249A
:100EC000000020420000C842000048420000FA43EF
:100ED00008B5012003F061FBFBE70000034B036052
:100EE000034B0B6080231360704700BF5C08002435
:100EF0005C060024034B0360034B0B604FF48073CC
:100F000013607047000600240002002410B58EB064
:100F1000124C0DF11C0CA646BEE80F00ACE80F0009
:100F20009EE807008CE80700002107A803F002FBF9
:100F30000B4B1860EE4604F11C0CBCE80F00AEE849
:100F40000F009CE807008EE807000021684603F0C8
:100F5000F1FA044B18600EB010BD00BF7C680008A9
:100F6000182900241429002470B58AB0002405949F
:100F700006940794089409942F4BD3F8E02042F08C
:100F80000402C3F8E020D3F8E02002F0040201924A
:100F9000019AD3F8E02042F08002C3F8E020D3F8B1
:100FA000E02002F080020292029AD3F8E02042F0A0
:100FB0000202C3F8E020D3F8E02002F0020203921C
:100FC000039AD3F8E02042F00102C3F8E020D3F8FE
:100FD000E03003F001030493049B184D01224FF409
:100FE0006041284600F080FC22460921284600F096
:100FF0007BFC4FF460430593012606960794089402
:1010000005A9284600F066FB092305930696079478
:101010000323089305A9284600F05CFB4FF4807376
:1010200005930223069307940894099405A904489C
:1010300000F050FB0AB070BD00440258000802588E
:101040000000025808B50268034B9A4200D008BD60
:1010500000F0C8FAFBE700BF00E0004072B6FEE710
:1010600000B59DB04C22002109A805F059F82022B6
:10107000002101A805F054F8022000F03BFC0023F9
:101080000093244B9A6922F440429A619B6903F4CD
:1010900040430093009B1F4B9B6913F4005FFAD001
:1010A000032309934FF480330A9301220C924023C7
:1010B0000D930223129313931493142115911692F6
:1010C000179318930C23199300231A931B9309A8C1
:1010D00000F03AFCD0B93F23019303210291002391
:1010E000039304934023059306934FF48062079281
:1010F000089301A801F068F850B94FF4802200214C
:10110000084600F013FF1DB05DF804FBFFF7A6FFD3
:10111000FFF7A4FF0048025808B500F035FAFFF7C2
:101120009FFFFFF721FF00F007F800F0A9F9FFF794
:10113000EDFE03F0FAF9FEE708B51548154B03601C
:101140004FF480034360002383600722C2604FF0A6
:10115000007202614FF0807242614FF080628261E2
:101160004FF08042C261036243628362C3624263A2
:101170008363C363036443648364C3640365436537
:10118000836502F07BF800B908BDFFF767FFFBE756
:101190001C29002400380040F0B5B9B004460021F5
:1011A00033913491359136913791B82204A804F0E7
:1011B000B7FF2268284B9A4201D039B0F0BD4FF4F6
:1011C00080520023CDE9042304A801F0ADFA0028E1
:1011D0003ED1224BD3F8E82042F48042C3F8E82005
:1011E000D3F8E82002F480420192019AD3F8E0207B
:1011F00042F00402C3F8E020D3F8E02002F0040239
:101200000292029AD3F8E02042F00202C3F8E020F2
:10121000D3F8E03003F002030393039B06233393D8
:1012200002273497002635960325369505243794F2
:1012300033A90B4800F04EFA4FF400533393349720
:1012400035963695379433A9064800F043FAB4E74B
:10125000FFF704FFBDE700BF00380040004402581C
:10126000000802580004025800B583B00A4BD3F8B6
:10127000F42042F00202C3F8F420D3F8F43003F073
:1012800002030193019B00220F216FF0010000F087
:101290000DFA03B05DF804FB004402580F2801D991
:1012A0000120704710B58AB0044600220146A120F3
:1012B00000F0FCF9A12000F009FA174B1C60174B55
:1012C000D3F8EC2042F08072C3F8EC20D3F8EC3075
:1012D00003F080730093009B01A902A801F0F2F8CB
:1012E00001F0DEF843000E4AA2FB03239B0C013BF6
:1012F0000C480D4A026040F2E732C26043600023AE
:101300000361836002F0F0FD10B101200AB010BD4E
:10131000044802F03FFCF9E718000024004402589A
:1013200083DE1B43A429002400E00040FEE7FEE723
:10133000FEE7FEE7FEE7704708B5024802F07FFCD3
:1013400008BD00BFA4290024224AD2F8883043F403
:101350007003C2F88830204B1B6803F00F03062B84
:1013600006D81D4A136823F00F0343F007031360E8
:101370001A4B1A6842F001021A6000221A611968B9
:10138000174A0A401A60144B1B6813F0080F06D066
:10139000114A136823F00F0343F0070313600F4B48
:1013A00000229A61DA611A620E4999620E49D96285
:1013B0000E4919635A639963DA6319645A641968A8
:1013C00021F4802119601A66094B43F2D2021A6097
:1013D000704700BF00ED00E00020005200440258BA
:1013E0007FEDF6EA000202020000FF018002010127
:1013F0000040005202680A4B9A4200D0704782B007
:10140000084BD3F8E82042F00202C3F8E820D3F8F2
:10141000E83003F002030193019B02B0704700BF64
:10142000000400400044025800B587B00023019337
:10143000029303930493059302680E4B9A4202D0E1
:1014400007B05DF804FB0C4BD3F8E02042F0020239
:10145000C3F8E020D3F8E03003F002030093009BD0
:10146000022301930293059301A9044800F032F985
:10147000E6E700BF000400400044025800040258A0
:1014800000B58FB000230A930B930C930D93079331
:101490000893099300930193029303930493059394
:1014A00006932248224A026017224260836042F279
:1014B0000F72C26003618023836102F015FD28BBB7
:1014C0004FF480530A930AA9184802F061FE00BB4A
:1014D000164802F039FDF8B900230793099307A9CC
:1014E000124802F0C1FFD0B960230093002301939A
:1014F000029304930C2269460C4802F09FFD88B9C0
:101500000A48FFF791FF0FB05DF804FBFFF7A6FD57
:10151000D6E7FFF7A3FDDBE7FFF7A0FDDCE7FFF76A
:101520009DFDE1E7FFF79AFDEAE700BFF0290024FF
:1015300000040040DFF834D0FFF706FF0C480D49E7
:101540000D4A002302E0D458C4500433C4188C421E
:10155000F9D30A4A0A4C002301E013600432A24284
:10156000FBD304F035FEFFF7D7FD704700000524DC
:10157000000000246C010024686900086C0100244C
:10158000A86B0024FEE7000010B5032000F07CF8F3
:1015900000F01EFD0F498B69C3F303230E4AD35C91
:1015A00003F01F03D8408B6903F00F03D35C03F0F3
:1015B0001F0320FA03F3094A1360094B18600F2038
:1015C000FFF76CFE10B10124204610BD0446FFF762
:1015D0004BFEF9E7004402580C6900080C00002497
:1015E00010000024034B1B78034A11680B4413605E
:1015F000704700BF140000243C2A0024014B1868E7
:10160000704700BF3C2A0024002807DB00F01F02BF
:10161000400901239340024A42F82030704700BF3E
:1016200000E100E0002804DB0901C9B2044B1954B1
:10163000704700F00F000901C9B2024B19547047FE
:1016400000E400E014ED00E000B500F00700C0F198
:10165000070CBCF1040F28BF4FF0040C031D062B30
:101660000FD9C31E4FF0FF3E0EFA0CF021EA000125
:1016700099400EFA03FE22EA0E0241EA02005DF8EA
:1016800004FB0023EEE700000649CB6823F4E06387
:101690001B041B0C000200F4E0600343024A1A43DF
:1016A000CA60704700ED00E00000FA0510B504467E
:1016B000054BD868C0F30220FFF7C6FF014620465D
:1016C000FFF7B0FF10BD00BF00ED00E008B5FFF769
:1016D0009BFF08BDF0B583B000236BE085685E001A
:1016E0000324B44025EA0405CC68B4402C4384604C
:1016F000456825EA0C054C68C4F300149C402C4353
:10170000446069E0DD08083550F8254003F0070C17
:101710004FEA8C0C4FF00F0E0EFA0CFE24EA0E0E60
:101720000C6904FA0CF444EA0E0440F825406BE01E
:10173000092400E0002404FA0EF42C430CF1020CFE
:10174000664D45F82C404FF0B0442568D44325EA57
:1017500002064F6817F4801F01D042EA05064FF0D9
:10176000B0452E606D6804EA05064F6817F4001F47
:1017700001D042EA05064FF0B0456E60D5F88450BE
:1017800004EA05064F6817F4003F01D042EA050657
:101790004FF0B045C5F88460D5F880502C404E68B5
:1017A00016F4803F01D042EA05044FF0B042C2F87F
:1017B000804001330A6832FA03F400F08C804FF065
:1017C000010C0CFA03FC1CEA0202F2D04C6804F093
:1017D0000304013C012C81D94C6804F00304032C60
:1017E0000CD0C4685D004FF0030C0CFA05FC24EA31
:1017F0000C0C8C68AC4044EA0C04C4604C6804F0E7
:101800000304022C3FF47EAF04684FEA430E4FF00E
:10181000030C0CFA0EFC24EA0C0C4C6804F00304D4
:1018200004FA0EF444EA0C0404604C6814F4403FDB
:10183000BFD02B4CD4F8F45045F00205C4F8F45056
:10184000D4F8F44004F002040194019C4FEA930C94
:101850000CF10205214C54F8255003F0030E4FEA19
:101860008E0E0F2404FA0EF425EA04051D4CA04246
:101870003FF460AF04F58064A0421ED004F580649C
:10188000A0421CD004F58064A0421AD004F5806404
:10189000A04218D004F58064A04216D004F58064FC
:1018A000A04214D004F58064A04212D004F5006474
:1018B000A0423FF43DAF0A243DE701243BE7022468
:1018C00039E7032437E7042435E7052433E7062402
:1018D00031E707242FE703B0F0BD00BF0004005834
:1018E00000440258000002580AB18161704709049F
:1018F00081617047134BDB6813F0040F07D1114B64
:10190000DB6803F0070383421AD00120704710B54B
:101910000C4AD36823F007030343D360FFF76EFE3E
:101920000446084B5B6813F4005F07D1FFF766FEBF
:10193000001BB0F57A7FF4D9012000E0002010BD33
:101940000020704700480258002800F0D58238B5C2
:101950000446036813F0010F25D0A04A136903F071
:101960003803926A102B15D0182B0FD06368B3F58B
:10197000803F3FD0002B53D1984B1A6822F480321D
:101980001A601A6822F480221A6038E002F003021A
:10199000022AEBD1914B1B6813F4003F03D063681C
:1019A000002B00F0AB82236813F0020F00F0888058
:1019B0008A4A1369926A13F038035AD0182B55D00B
:1019C000E368002B00F0A98084490A6822F019021C
:1019D00013430B60FFF712FE0546804B1B6813F0A4
:1019E000040F40F09180FFF709FE401B0228F4D954
:1019F00003208AE2794A136843F4803313606368F2
:101A00002BB3FFF7FBFD0546744B1B6813F4003F37
:101A1000C9D1FFF7F3FD401B6428F5D9032074E218
:101A2000B3F5A02F09D06D4B1A6822F480321A60EA
:101A30001A6822F480221A60E1E7684B1A6842F4BF
:101A400080221A601A6842F480321A60D7E7FFF7E2
:101A5000D5FD0546614B1B6813F4003FA3D0FFF78B
:101A6000CDFD401B6428F5D903204EE212F0030F90
:101A7000A6D15A4B1B6813F0040F03D0E368002B68
:101A800000F03E82554A136823F01903E1680B43C6
:101A90001360FFF7B3FD0546504B1B6813F0040FAE
:101AA00006D1FFF7ABFD401B0228F5D903202CE23D
:101AB0004A4A536823F0FE43216943EA01635360B5
:101AC000236813F0100F51D0444A136903F0380310
:101AD000926A082B39D0182B33D0E369002B69D0D8
:101AE0003E4A136843F080031360FFF787FD054605
:101AF0003A4B1B6813F4807F53D1FFF77FFD401BE7
:101B00000228F5D9032000E2344A536823F0FE434B
:101B1000216943EA01635360D2E7304A136823F036
:101B200001031360FFF76AFD05462C4B1B6813F099
:101B3000040FC5D0FFF762FD401B0228F5D9032032
:101B4000E3E102F00302012AC7D1244B1B6813F41E
:101B5000807F03D0E369802B40F0D4811F4AD36893
:101B600023F07C53216A43EA0163D360236813F0B6
:101B7000080F49D06369002B32D0184A536F43F0E5
:101B800001035367FFF73AFD0546144B5B6F13F0F3
:101B9000020F39D1FFF732FD401B0228F5D903208F
:101BA000B3E10E4AD36823F07C53216A43EA016310
:101BB000D360DBE7094A136823F080031360FFF763
:101BC0001DFD0546054B1B6813F4807FCED0FFF743
:101BD00015FD401B0228F5D9032096E10044025868
:101BE0009D4A536F23F001035367FFF707FD054636
:101BF000994B5B6F13F0020F06D0FFF7FFFC401B01
:101C00000228F5D9032080E1236813F0200F29D0A2
:101C1000A3699BB1904A136843F480531360FFF7A4
:101C2000EDFC05468C4B1B6813F4005F1AD1FFF7DF
:101C3000E5FC401B0228F5D9032066E1864A1368BB
:101C400023F480531360FFF7D9FC0546824B1B68D1
:101C500013F4005F06D0FFF7D1FC401B0228F5D932
:101C6000032052E1236813F0040F21D1636A002B93
:101C700000F04A81784A126902F03802182A00F00E
:101C8000F180022B75D0744A136823F080731360BF
:101C9000FFF7B4FC0446704B1B6813F0007F00F0A4
:101CA000D880FFF7ABFC001B0228F4D903202CE1FD
:101CB0006A4A136843F480731360FFF79FFC05467C
:101CC000664B1B6813F4807F06D1FFF797FC401B1F
:101CD0006428F5D9032018E1A368012B0AD00BBBB7
:101CE0005D4B1A6F22F001021A671A6F22F004028C
:101CF0001A6704E0584A136F43F001031367A3689F
:101D000033B3FFF77BFC0546534B1B6F13F0020FF9
:101D1000ACD1FFF773FC401B41F288339842F3D9F2
:101D20000320F2E0052B09D04B4B1A6F22F0010281
:101D30001A671A6F22F004021A67E0E7464B1A6F1F
:101D400042F004021A671A6F42F001021A67D6E7DE
:101D5000FFF754FC0546404B1B6F13F0020F85D074
:101D6000FFF74CFC401B41F288339842F3D9032023
:101D7000CBE0394A136823F080731360FFF73EFC11
:101D80000546354B1B6813F0007F06D0FFF736FC85
:101D9000401B0228F5D90320B7E02F4B996A304A3F
:101DA0000A40A16AE06A41EA00110A439A62226B82
:101DB000013AC2F30802616B0139490289B20A4350
:101DC000A16B0139090401F4FE010A43E16B0139F9
:101DD000090601F0FE410A431A63DA6A22F00102A1
:101DE000DA625A6B6FF3CF02A16C42EAC1025A6306
:101DF000DA6A22F00C02216C0A43DA62DA6A22F013
:101E00000202616C0A43DA62DA6A42F48032DA6210
:101E1000DA6A42F40032DA62DA6A42F48022DA6282
:101E2000DA6A42F00102DA621A6842F080721A60DD
:101E3000FFF7E4FB0446084B1B6813F0007F06D154
:101E4000FFF7DCFB001B0228F5D903205DE0002032
:101E50005BE0002059E000BF0044025800480258EF
:101E60000CFCFFFF30498A6A086B012B4ED002F050
:101E70000303A16A8B424BD1C2F30512E36A9A4273
:101E800048D1C0F30802236B013B9A4244D1C0F30E
:101E90004622636B013B9A4240D1C0F30642A36BDA
:101EA000013B9A423CD1C0F30660E36B013B984290
:101EB00038D11D4B5B6BC3F3CC03A26C9A4201D1AA
:101EC000002022E0184AD36A23F00103D362FFF70F
:101ED00095FB0546FFF792FBA842FBD0124A536BD5
:101EE0006FF3CF03A16C43EAC1035363D36A43F09A
:101EF0000103D362002008E001207047012004E0C4
:101F0000012002E0012000E0002038BD0120FCE7B4
:101F10000120FAE70120F8E70120F6E70120F4E7C5
:101F20000120F2E70120F0E70044025870B588B0C4
:101F30000C46154610BB234ED6F8E03043F00103A3
:101F4000C6F8E030D6F8E03003F001030193019BBE
:101F50004FF4807303930223049303230693002317
:101F60000593079303A91848FFF7B4FB336923F0DF
:101F7000FE7325431D43356108B070BD114ED6F880
:101F8000E03043F00403C6F8E030D6F8E03003F068
:101F900004030293029B4FF4007303930223049300
:101FA0000323069300230593079303A90748FFF72C
:101FB00091FB336923F07E4344EAC5141C4334612A
:101FC000DAE700BF00440258000002580008025837
:101FD000754B1B6903F03803102B00F0DE80182BC3
:101FE0000FD0002B40F0DB806F4B1B6813F0200FED
:101FF00000F0D7806C4B1B68C3F3C1036B48D8401B
:10200000704710B4684B9A6A02F003029C6AC4F3EA
:102010000510D96A01F001015B6BC3F3CC0301FB2E
:1020200003F307EE903AF8EE677A14F47C7F77D0EA
:10203000012A4AD0022A76D0002A40F091805A4BD9
:102040001B6813F0200F23D057490A68C2F3C1025E
:10205000564BD34007EE103AF8EE476A07EE100AE7
:10206000B8EE476A86EE867A0B6BC3F3080306EE7A
:10207000903AF8EE666A9FED4E6A67EE867A76EEE3
:10208000A77AF7EE006A77EEA67A27EE277A38E08D
:1020900007EE100AF8EE476A9FED466A86EE267A4A
:1020A000414B1B6BC3F3080306EE903AF8EE666AE9
:1020B0009FED3F6A67EE867A76EEA77AF7EE006AC2
:1020C00077EEA67A27EE277A1BE007EE100AF8EEE5
:1020D000476A9FED396A86EE267A334B1B6BC3F352
:1020E000080306EE903AF8EE666A9FED316A67EEF5
:1020F000867A76EEA77AF7EE006A77EEA67A27EE72
:10210000277A294B1B6BC3F34623013307EE903A22
:10211000F8EE677AC7EE276AFCEEE67A17EE900AC9
:102120005DF8044B704707EE100AF8EE476A9FED22
:10213000236A86EE267A1C4B1B6BC3F3080306EE5C
:10214000903AF8EE666A9FED1A6A67EE867A76EE46
:10215000A77AF7EE006A77EEA67A27EE277AD0E71D
:1021600007EE100AF8EE476A9FED136A86EE267AAC
:102170000D4B1B6BC3F3080306EE903AF8EE666A4C
:102180009FED0B6A67EE867A76EEA77AF7EE006A25
:1021900077EEA67A27EE277AB3E709487047094811
:1021A00070470248704700BF004402580090D003B7
:1021B000000000390024744C0024744A001BB74B03
:1021C00000366E0100093D00002800F0328170B534
:1021D0000D4604469B4B1B6803F00F038B420BD24A
:1021E000984A136823F00F030B431360136803F03E
:1021F0000F038B4240F01F81236813F0040F0CD0B3
:102200002269914B9B6903F070039A4205D98E496C
:102210008B6923F070031A438A61236813F0080F57
:102220000CD06269884BDB6903F070039A4205D9D0
:102230008549CB6923F070031A43CA61236813F000
:10224000100F0CD0A269804BDB6903F4E0639A4263
:1022500005D97D49CB6923F4E0631A43CA61236839
:1022600013F0200F0CD0E269774B1B6A03F0700368
:102270009A4205D974490B6A23F070031A430A6223
:10228000236813F0020F0CD0E2686F4B9B6903F0D8
:102290000F039A4205D96C498B6923F00F031A4347
:1022A0008A61236813F0010F41D0674A936923F4D0
:1022B0007063A1680B4393616368022B0AD0032B00
:1022C00027D0012B2CD0604A126812F0040F06D1DF
:1022D0000120ADE0126812F4003F00F0AE805A49D0
:1022E0000A6922F0070213430B61FFF787F90646DC
:1022F000554B1B6903F038036268B3EBC20F16D06D
:10230000FFF77CF9801B41F288339842F0D9032013
:102310008EE04D4A126812F0007FE0D1012087E084
:10232000494A126812F4807FD9D1012080E02368E5
:1023300013F0020F0CD0E268434B9B6903F00F03CC
:102340009A4205D240498B6923F00F031A438A61F0
:102350003C4B1B6803F00F03AB420AD9394A1368A0
:1023600023F00F032B431360136803F00F03AB42FA
:1023700065D1236813F0040F0CD02269324B9B699E
:1023800003F070039A4205D22F498B6923F0700342
:102390001A438A61236813F0080F0CD062692A4B34
:1023A000DB6903F070039A4205D22749CB6923F019
:1023B00070031A43CA61236813F0100F0CD0A2698E
:1023C000214BDB6903F4E0639A4205D21E49CB69D5
:1023D00023F4E0631A43CA61236813F0200F0CD082
:1023E000E269194B1B6A03F070039A4205D2164941
:1023F0000B6A23F070031A430A62FFF7E9FD1249E2
:102400008B69C3F30323114AD35C03F01F03D84045
:102410008B6903F00F03D35C03F01F0320FA03F36F
:102420000B4A13600B4B18600B4B1868FEF736FF16
:1024300070BD012070470120FAE70120F8E7012074
:10244000F6E700BF00200052004402580C69000863
:102450000C000024100000241800002408B5FFF729
:10246000B7FD0B4A9369C3F303230A49CB5C03F01E
:102470001F0320FA03F3926902F00F02885C00F058
:102480001F0023FA00F0044A1060044A136008BDDC
:10249000004402580C6900080C00002410000024BD
:1024A00008B5FFF7DBFF054BDB69C3F30223044AE2
:1024B000D35C03F01F03D84008BD00BF004402589E
:1024C0000C6900083F230360114B1A6902F00702F0
:1024D00042609A6902F4706282609A6902F00F02A7
:1024E000C2609A6902F070020261DA6902F0700259
:1024F0004261DA6902F4E06282611B6A03F07003F0
:10250000C361044B1B6803F00F030B60704700BFEF
:102510000044025800200052404B9B6A03F0030322
:10252000032B79D070B505460E463C4A136823F05C
:1025300080631360FFF762F80446384B1B6813F0A2
:10254000006F06D0FFF75AF8031B022BF5D90320C2
:1025500070BD324B9A6A22F47C32296842EA013219
:102560009A626A68013AC2F30802A968013949020D
:1025700089B20A43E9680139090401F4FE010A43FA
:1025800029690139090601F0FE410A439A63DA6AB2
:1025900022F0C00269690A43DA62DA6A22F0200294
:1025A000A9690A43DA62DA6A22F01002DA62DA6BA7
:1025B0006FF3CF02E96942EAC102DA63DA6A42F0F4
:1025C0001002DA62C6B91A46DB6A43F40023D3620A
:1025D000124A136843F080631360FFF70FF8044654
:1025E0000E4B1B6813F0006F14D1FFF707F8001BA8
:1025F0000228F5D90320ABE7012E05D0074AD36A9C
:1026000043F40013D362E3E7044AD36A43F480132C
:10261000D362DDE700209BE70120704700440258A9
:10262000404B9B6A03F00303032B79D070B505463A
:102630000E463C4A136823F080531360FEF7DEFF1A
:102640000446384B1B6813F0005F06D0FEF7D6FF38
:10265000031B022BF5D9032070BD324B9A6A22F07E
:102660007C72296842EA01529A626A68013AC2F3AE
:102670000802A9680139490289B20A43E9680139A7
:10268000090401F4FE010A4329690139090601F030
:10269000FE410A431A64DA6A22F4406269690A4315
:1026A000DA62DA6A22F40072A9690A43DA62DA6A43
:1026B00022F48072DA625A6C6FF3CF02E96942EA5F
:1026C000C1025A64DA6A42F48072DA62C6B91A4602
:1026D000DB6A43F48003D362124A136843F08053E9
:1026E0001360FEF78BFF04460E4B1B6813F0005F70
:1026F00014D1FEF783FF001B0228F5D90320ABE7B6
:10270000012E05D0074AD36A43F08073D362E3E712
:10271000044AD36A43F40003D362DDE700209BE759
:102720000120704700440258F8B50446036813F0CE
:10273000006F2FD0436EB3F5001F25D015D8E3B13D
:10274000B3F5801F0ED102210830FFF7E5FE0546E4
:1027500075BB934A136D23F44013616E0B431365ED
:10276000002619E00126354616E0B3F5401F01D1D9
:102770000025EEE7012635460EE0894AD36A43F488
:102780000033D3620025E4E702212830FFF748FF39
:102790000546DDE700263546236813F4807F29D0FF
:1027A000A36D042B22D8DFE803F005131A0A0A00F0
:1027B0002E46F1E77A4AD36A43F40033D362C5B9AF
:1027C000774A136D23F00703A16D0B43136511E0E6
:1027D000002104F10800FFF79FFE0546EFE7002106
:1027E00004F12800FFF71CFF0546E8E701263546FF
:1027F00000E02E46236813F4806F2DD0D4F8A43067
:10280000B3F5800F3DD00DD8C3B1B3F5001F06D18D
:10281000002104F10800FFF77FFE054613E00126C2
:10282000354619E0B3F5000F0DD0B3F5200F0AD0EF
:10283000B3F5C00F07D0012635460DE0584AD36ADC
:1028400043F40033D3621DBB554A936D23F46003F8
:10285000D4F8A4100B439365236813F4006F37D0AA
:10286000D4F8A830B3F1007F5ED016D80BB3B3F123
:10287000807F0FD1002104F10800FFF74DFE0546CF
:102880001CE0002104F12800FFF7CAFE0546DAE744
:102890002E46E1E7012635461AE0B3F1806F0DD0F0
:1028A000B3F1A06F0AD0B3F1407F07D001263546BF
:1028B0000EE03B4AD36A43F40033D362002D3AD191
:1028C000374A936D23F0E063D4F8A8100B43936567
:1028D000236813F0007F13D0E36C202B35D02FD862
:1028E00033B1102B29D12E4AD36A43F40033D3627B
:1028F00095BB2B4AD36C23F03003E16C0B43D364BC
:10290000236813F4805F4ED0E36DB3F5005F3FD0D2
:1029100027D87BB3B3F5805F20D1002104F10800F4
:10292000FFF7FAFD05462AE0002104F12800FFF731
:1029300077FE0546C2E72E46CAE701263546DFE7A1
:10294000302BD5D001263546DAE7022104F1080004
:10295000FFF7E2FD0546CBE72E46D1E701263546D7
:1029600021E0B3F5405F0AD0B3F5804F07D00126D0
:10297000354618E00A4AD36A43F40033D3628DB96E
:10298000074A136D23F4E043E16D0B4313650AE03E
:10299000002104F12800FFF743FE0546EFE700BFE2
:1029A000004402582E46236813F4005F17D0236EAC
:1029B000B3F5003F4FD042D843B1B3F5803F3BD190
:1029C000012104F10800FFF7A7FD0546002D49D1BC
:1029D000924A136D23F4E023216E0B4313652368A1
:1029E00013F4804F19D0D4F8AC30B3F1005F4AD063
:1029F0003DD843B1B3F1805F36D1012104F1080025
:102A0000FFF78AFD0546002D44D1844A936D23F0DB
:102A1000E043D4F8AC100B439365236813F4004FE4
:102A200047D0E36EB3F1805F36D0B3F1005F4BD097
:102A3000BBB3012635463CE001263546CFE7B3F56A
:102A4000802FC3D0B3F5A02FC0D0B3F5403FBDD089
:102A500001263546C3E7012104F12800FFF7E0FD18
:102A60000546B3E72E46BAE701263546D5E7B3F16A
:102A7000804FC8D0B3F1A04FC5D0B3F1405FC2D0F2
:102A800001263546C9E7012104F12800FFF7C8FDFA
:102A90000546B8E72E46C0E7604AD36A43F40033E0
:102AA000D362C5B95D4A136D23F04053E16E0B4309
:102AB0001365236813F0807F1CD0A36C032B44D8CC
:102AC000DFE803F0100B3C10012104F10800FFF7D0
:102AD00023FD0546E5E72E46EBE7504AD36A43F46B
:102AE0000033D362A5BB4D4AD36C23F00303A16C22
:102AF0000B43D364236813F4800F2BD1236813F0A6
:102B0000010F00F0A980A36F282B00F2A380DFE85B
:102B100003F091A1A1A1A1A1A1A18BA1A1A1A1A11A
:102B2000A1A19AA1A1A1A1A1A1A191A1A1A1A1A1AC
:102B3000A1A191A1A1A1A1A1A1A19100022104F1B2
:102B40000800FFF7E9FC0546CCE701263546D1E74A
:102B50002E46CFE7324A136843F480731360FEF7C2
:102B60004DFD07462E4B1B6813F4807F05D1FEF701
:102B700045FDC01B6428F5D90325002D4AD1274BFC
:102B80001B6FD4F8B020534013F4407F0CD0234B7C
:102B90001A6F22F44072196F41F480311967196F6E
:102BA00021F4803119671A67D4F8B030B3F5807F0B
:102BB00015D08DBBD4F8B03003F44072B2F5407F2D
:102BC0001ED0164A136923F47C53136113490B6F0B
:102BD000D4F8B020C2F30B0213430B678EE7FEF765
:102BE0000DFD07460D4B1B6F13F0020FE1D1FEF7F1
:102BF00005FDC01B41F288339842F3D90325D8E77D
:102C00000648026922F47C52064901EA1313134371
:102C10000361DBE72E4671E72E466FE7004402585A
:102C200000480258CFFFFF00012104F10800FFF720
:102C300073FC0546E5B9B14A536D23F03803A16F23
:102C40000B43536508E0012104F12800FFF7E8FC7D
:102C50000546EFE701263546236813F0020F17D02B
:102C6000636F052B29D8DFE803F00B05210B0B0B55
:102C70002E46F1E7012104F10800FFF74DFC05465F
:102C8000F5B99E4A536D23F00703616F0B435365FB
:102C9000236813F0040F26D0D4F89030052B00F2EF
:102CA000D680DFE803F0150FCD151515012104F1CD
:102CB0002800FFF7B5FC0546E2E701263546E7E7C1
:102CC0002E46E5E7012104F10800FFF725FC054643
:102CD000002D40F0BF80894A936D23F00703D4F89C
:102CE00090100B439365236813F0200F1DD0D4F888
:102CF0008C30B3F1005F00F0C18000F2B0804BB1C6
:102D0000B3F1805F40F0A880002104F10800FFF7D4
:102D100003FC0546002D40F0B880784A536D23F03F
:102D2000E043D4F88C100B435365236813F0400F35
:102D30001DD0D4F89830B3F5006F00F0BA8000F2DF
:102D4000A9804BB1B3F5806F40F0A180002104F160
:102D50000800FFF7E1FB0546002D40F0B180674A0F
:102D6000936D23F4E053D4F898100B4393652368D4
:102D700013F0800F1DD0D4F89C30B3F5804F00F0D5
:102D8000B38000F2A2804BB1B3F5005F40F09A80AF
:102D9000002104F10800FFF7BFFB0546002D40F0BD
:102DA000AA80564A936D23F46043D4F89C100B43D9
:102DB0009365236813F0080F0DD0D4F88030B3F575
:102DC000805F00F09D804D4A536D23F44053D4F84A
:102DD00080100B435365236813F0100F0DD0D4F807
:102DE0009430B3F5807F00F09580444A936D23F4CE
:102DF0004073D4F894100B439365236813F4002FA9
:102E000000F09D80D4F8A030B3F5803F00F08C80B6
:102E1000B3F5003F08D0002B40F08D80002104F175
:102E20000800FFF779FB0546002D40F08780334A04
:102E3000936D23F44033D4F8A0100B4393657EE0E8
:102E4000012104F12800FFF7EBFB054640E70126CE
:102E5000354648E72E4646E70126354665E7B3F195
:102E6000804F3FF457AFB3F1A04F3FF453AFB3F1EE
:102E7000405F3FF44FAF0126354656E7022104F18B
:102E80002800FFF7CDFB054644E72E464DE7012617
:102E900035466CE7B3F5805F3FF45EAFB3F5A05FF6
:102EA0003FF45AAFB3F5406F3FF456AF01263546B5
:102EB0005DE7022104F12800FFF7B2FB05464BE76E
:102EC0002E4654E70126354673E7B3F5004F3FF42D
:102ED00065AFB3F5204F3FF461AFB3F5C04F3FF49A
:102EE0005DAF0126354664E7022104F12800FFF7B3
:102EF00097FB054652E72E465BE700BF00440258A9
:102F0000022104F12800FFF78BFB00283FF45BAFA0
:102F1000012658E7022104F12800FFF781FB002871
:102F20003FF463AF012660E7022104F12800FFF7B8
:102F300077FB054678E70126354600E02E462368F4
:102F400013F4802F24D0D4F88430B3F5001F14D0AC
:102F5000B3F5401F07D0B3F5801F15D17C4AD36A63
:102F600043F40033D36295B9794A536D23F4401387
:102F7000D4F884100B4353650AE0012104F12800C2
:102F8000FFF74EFB0546EEE70126354600E02E46EC
:102F9000236813F4803F06D0236DCBB1B3F5803F97
:102FA00024D001263546236813F0005F27D123681B
:102FB00013F4003F3DD0E36FB3F5807F2BD027D9CA
:102FC000B3F5007F2CD0B3F5407F29D0012630E047
:102FD0005F4AD36A43F40033D36275B95C4AD36C59
:102FE00023F48033216D0B43D364DCE7022104F129
:102FF0000800FFF791FA0546EFE72E46D3E70221D6
:1030000004F12800FFF70CFB0028D0D00126CEE702
:1030100033B101260DE04E4AD36A43F40033D36244
:10302000002D5CD14A4A536D23F44073E16F0B438A
:103030005365236813F4801F06D0454A136D23F0AF
:103040000043216F0B431365236813F4001F06D060
:103050003F4A136D23F08073A16E0B431365236801
:1030600013F0804F09D03A4B1A6922F400421A61DA
:103070001A69D4F8B4100A431A612368002B06DADF
:10308000334AD36C23F04053616D0B43D364236800
:1030900013F4000F07D02E4A536D23F44003D4F8E5
:1030A00088100B435365636813F0010F19D16368EF
:1030B00013F0020F1ED1636813F0040F23D163686D
:1030C00013F0080F28D1636813F0100F2DD1636837
:1030D00013F0200F32D106B101263046F8BD2E463E
:1030E000A7E7002104F10800FFF716FA0028DED058
:1030F0000646DCE7012104F10800FFF70DFA00287D
:10310000D9D00646D7E7022104F10800FFF704FAF8
:103110000028D4D00646D2E7002104F12800FFF7AA
:103120007FFA0028CFD00646CDE7012104F1280020
:10313000FFF776FA0028CAD00646C8E7022104F154
:103140002800FFF76DFA0028C5D00126C5E700BFAB
:103150000044025810B402685369916941F00801B3
:10316000916101688A6942F010028A6101680A6807
:1031700022F001020A6001680C69294A22400A61B2
:1031800001688A6822F440428A6090F88120D2B2B5
:10319000042A0DD013F0200F0AD0D0F8842042F07A
:1031A0008002C0F8842001688A6942F020028A61A6
:1031B00090F88120D2B2032A0DD013F0400F0AD02C
:1031C000D0F8842042F00402C0F8842001688A69A3
:1031D00042F040028A6113F4007F0AD0D0F88420C4
:1031E00042F00102C0F8842001688A6942F400724A
:1031F0008A6113F4807F0AD0D0F8843043F008034A
:10320000C0F884300268936943F4807393610023AB
:10321000A0F86230A0F86A305DF8044B704700BF38
:1032200090FCFFFFC36B5B09C0680830C00803FB5C
:10323000000070472DE9F84380460F4616461D46AC
:10324000DDF8209000E0BDB1D8F800305C6937EAC5
:1032500004040CBF01230023B3420AD1FEF7CEF9C8
:10326000A0EB0900A842EED3B5F1FF3FEBD003205D
:1032700000E00020BDE8F8830320FBE7002800F011
:10328000B78070B504460023836205685C4B5D4ED1
:103290009D4218BFB54214BF0126002607D0A3F5F2
:1032A00074439D4203D0C3680F2B00F2A3802046D5
:1032B000FFF7B8FF2EB1544B9D4202D0082800F210
:1032C0009B804F4A4F4B9D4218BF954203D003F558
:1032D00080639D4202D1102800F2908094F88130E2
:1032E000F3B1022384F881302268136823F00103CC
:1032F000136023689A6802F4F812A169B1F1806F33
:1033000014D0636813F4800F23D0E368062B20D910
:1033100021680B6823F48073206D03430B601DE06C
:1033200084F880302046FDF737FFDAE76168B1F5B1
:10333000800F06D00029E4D1A16BB1F1805FE0D10C
:1033400002E0A06B0028F5D1196841F480511960A2
:10335000D7E721680B6823F480730B60E369A16AE7
:103360000B431343E26B1343E16822680B43936002
:10337000636B626A1343A26B1343A269134322690E
:10338000134362691343226A134362681343E26C76
:103390001343A2681343A26C1343A16D22680B432D
:1033A000D36063686BB92268936823F4C05343F415
:1033B000006393602268936823F4C06343F48063DE
:1033C00093602268136D23F001031365636813F49F
:1033D000800F06D02268D36823F00043616D0B4351
:1033E000D3600020C4F88400012384F8813070BDCC
:1033F000012070470120FAE70120F8E70120F6E7F5
:103400000030014000380040003C00402DE9F04F02
:1034100083B004468A4691461D46D0F800B0C66B7C
:10342000C6F34F16FEF7EAF894F88170FFB2012F49
:1034300040F02D820136B6B28046B9F1000F18BFB8
:10344000BAF1000F00F02482002D00F0218294F8E0
:103450008030012B00F02082012384F88030052386
:1034600084F881300023C4F88430C4F86490A4F850
:103470006A50A4F86850C4F85CA0A4F86250A4F89C
:103480006050236763672268D36823F4C023D36046
:1034900022689C499C4B9A4218BF8A4209D003F586
:1034A00080639A4202D04FF0080904E04FF01009FF
:1034B00001E04FF0100953686FF30F032B43536083
:1034C0002268136843F0010313606368B3F5800F4B
:1034D00006D0E3680F2B7AD94FEA990BA9461FE073
:1034E0002268136843F400731360F2E723685A6993
:1034F000B9F1000F14D0596911F0010F32D0626E8A
:103500001B6B1360636E04336366B4F86A309BB25E
:10351000013B9BB2A4F86A30B4F86A901FFA89F9AB
:1035200045EA09039BB2002B00F0948123685A6995
:1035300012F0020FDAD0002DD8D005EB0B02914526
:10354000D4D2E26D12681A62E36D0433E365B4F815
:1035500062309BB2013B9BB2A4F86230B4F8625077
:10356000ADB2C3E7B14514D212F4004F11D0626E70
:103570001B6B1360636E04336366B4F86A309BB2EE
:10358000013B9BB2A4F86A30B4F86A901FFA89F93B
:10359000C6E7FEF733F8A0EB08000C9B984202D375
:1035A000B3F1FF3F02D10C9B002BB9D12046FFF7AE
:1035B000D1FDD4F8843043F48073C4F884300123FF
:1035C00084F88130002384F88030032760E1072BE2
:1035D00040F23E814FEA59039A46A9461AE0236811
:1035E0005A69B9F1000F15D05B6913F0010F34D09F
:1035F000636EBBF830201A80636E02336366B4F8E2
:103600006A309BB2013B9BB2A4F86A30B4F86A906E
:103610001FFA89F945EA09039BB2002B00F01A81D1
:1036200023685B6913F0020FD9D0002DD7D0534621
:10363000EB189945D3D2E36D1B88ABF82030E36DCE
:103640000233E365B4F862309BB2013B9BB2A4F84D
:103650006230B4F86250ADB2C1E7B1451BD212F48A
:10366000004F18D0636EBBF830201A80636E9A1C2E
:103670006266BBF830205A80636E02336366B4F82A
:103680006A309BB2023B9BB2A4F86A30B4F86A90ED
:103690001FFA89F9BEE7B9F1010F15D112F4005FE5
:1036A00012D0636EBBF830201A80636E02336366FB
:1036B000B4F86A309BB2013B9BB2A4F86A30B4F80C
:1036C0006A901FFA89F9A5E7FDF798FFA0EB0800BB
:1036D0000C9B984202D3B3F1FF3F02D10C9B002B0D
:1036E00098D12046FFF736FDD4F8843043F4807338
:1036F000C4F88430012384F88130002384F88030BA
:103700000327C5E0003001400038004023685A69B3
:10371000BBF1000F15D0596911F0010F34D0626E62
:1037200093F830301370636E01336366B4F86A3017
:103730009BB2013B9BB2A4F86A30B4F86AB01FFA9E
:103740008BFB45EA0B039BB2002B00F083802368C0
:103750005A6912F0020FD9D0002DD7D005EB09021B
:103760009345D3D2E26D127883F82020E36D0133C4
:10377000E365B4F862309BB2013B9BB2A4F86230BF
:10378000B4F86250ADB2C1E7B3452AD212F4004F8B
:1037900027D0626E93F830301370636E5A1C6266E5
:1037A000226892F830205A70636E5A1C6266226852
:1037B00092F830205A70636E5A1C6266226892F842
:1037C00030205A70636E01336366B4F86A309BB27E
:1037D000043B9BB2A4F86A30B4F86AB01FFA8BFBC2
:1037E000AFE7BBF1030F15D812F4C04F12D0626ED1
:1037F00093F830301370636E01336366B4F86A3047
:103800009BB2013B9BB2A4F86A30B4F86AB01FFACD
:103810008BFB96E7FDF7F2FEA0EB08000C9B9842AD
:1038200002D3B3F1FF3F02D10C9B002B89D120467C
:10383000FFF790FCD4F8843043F48073C4F88430EC
:10384000012384F88130002384F8803003271FE0AF
:10385000AB4676E7CDF800800C9B0022082120467D
:10386000FFF7E8FC28B1D4F8843043F02003C4F813
:1038700084302046FFF76EFC012384F8813000235A
:1038800084F88030D4F8843013B9002700E0022790
:10389000384603B0BDE8F08F0227F9E7F0B4026ABA
:1038A000036A23F001030362466884691E4B2340C8
:1038B0000D681D4322F002028B6813431B4A1C4C07
:1038C000A04218BF90420CBF012200220CD004F588
:1038D0008044A04214BF00240124164FB84203D0F4
:1038E00014B9154CA04205D123F00803CC6823433A
:1038F00023F004035AB9114A904214BF0022012256
:103900000C4CA04203D012B90B4A904205D126F4C8
:1039100040764A6932438E691643466085614A683B
:1039200042630362F0BC70478CFFFEFF0000014061
:1039300000040140004001400048014000440140B3
:1039400070B4036A026A22F4807202624568C46934
:103950001A4A22400E68164323F400738A6843EA29
:103960000223174A174CA04218BF90420CBF0122F5
:10397000002206D123F40063CC6843EA042323F435
:1039800080635AB9104A904214BF002201220F4CA2
:10399000A04203D012B90E4A904207D125F44052FA
:1039A0004C6942EA04128C6942EA04154560C6611A
:1039B0004A68C263036270BC704700BF8CFFFEFFA1
:1039C000000001400004014000440140004001406B
:1039D0000048014070B4036A026A22F48052026215
:1039E0004468C569144A2A400D6842EA052223F456
:1039F00000538D6843EA0533104E114DA84218BF9D
:103A0000B0420DD005F58045A84214BF0025012520
:103A100006F58046B04203D015B90A4DA84204D13C
:103A200024F480444D6944EA85144460C2614A68C4
:103A30000264036270BC7047FF8CFFFE000001400F
:103A4000000401400048014070B4036A026A22F495
:103A5000803202624268456D144E2E400D682E433E
:103A600023F400338C6843EA0443114D114CA04207
:103A700018BFA8420DD004F58044A04214BF002412
:103A8000012405F58045A84203D014B90A4CA04290
:103A900004D122F480324C6942EA04224260466535
:103AA0004A688265036270BC704700BF8FFFFEFFEB
:103AB00000000140000401400048014070B4036A66
:103AC000026A22F4801202624468456D144A2A4058
:103AD0000D6842EA052223F400138D6843EA05537A
:103AE000104E114DA84218BFB0420DD005F58045CB
:103AF000A84214BF0025012506F58046B04203D038
:103B000015B90A4DA84204D124F480244D6944EA31
:103B10008524446042654A68C265036270BC704790
:103B2000FF8FFFFE000001400004014000480140FB
:103B300010B4036A046A24F001040462846924F066
:103B4000F00C4CEA021223F00A030B438261036279
:103B50005DF8044B704710B4036A046A24F0100443
:103B60000462846924F4704C4CEA023223F0A0030E
:103B700043EA0113826103625DF8044B7047000061
:103B80008268034B13400B4343F007038360704785
:103B90008FFFCFFF90F83D30DBB2012B42D10223E3
:103BA00080F83D300268D36843F00103D3600368B6
:103BB0001E4AB3F1804F18BF934225D0A2F57C4234
:103BC000934221D002F5806293421DD002F58062BB
:103BD000934219D002F57842934215D0A2F56C4277
:103BE000934211D002F5943293420DD0A2F5C04217
:103BF000934209D002F58062934205D01A6842F0E0
:103C000001021A60002070479968094A0A40062A92
:103C100018BFB2F5803F07D01A6842F001021A605F
:103C200000207047012070470020704700000140CD
:103C3000070001007047704770477047704770B5C4
:103C400004460368DE681D6915F0020F10D016F0F7
:103C5000020F0DD06FF002021A610123037703688F
:103C60009B6913F0030F64D0FFF7E6FF002323776F
:103C700015F0040F12D016F0040F0FD023686FF068
:103C800004021A610223237723689B6913F4407F9F
:103C900055D02046FFF7D0FF0023237715F0080FFB
:103CA00012D016F0080F0FD023686FF008021A61C7
:103CB000042323772368DB6913F0030F46D02046E3
:103CC000FFF7BAFF0023237715F0100F12D016F07C
:103CD000100F0FD023686FF010021A6108232377AA
:103CE0002368DB6913F4407F37D02046FFF7A4FF39
:103CF0000023237715F0010F02D016F0010F33D106
:103D000015F4025F02D016F0800F35D115F4807FD4
:103D100002D016F0800F37D115F0400F02D016F008
:103D2000400F39D115F0200F02D016F0200F3BD1F3
:103D300070BDFFF780FF2046FFF77FFF96E7204624
:103D4000FFF779FF2046FFF778FFA5E72046FFF74A
:103D500072FF2046FFF771FFB4E72046FFF76BFFC5
:103D60002046FFF76AFFC3E723686FF001021A617C
:103D70002046FDF767F9C3E723686FF402521A6122
:103D8000204600F0CAFBC1E723686FF480721A6115
:103D9000204600F0C3FBBFE723686FF040021A61C2
:103DA0002046FFF74BFFBDE723686FF020021A6142
:103DB000204600F0B1FBBBE730B50368424A9042B1
:103DC00014BF4FF0000E4FF0010EB0F1804F14BF42
:103DD00072464EF00102AAB93C4CA04214BF002426
:103DE00001243B4DA8420DD064B904F1804404F590
:103DF0008234A04214BF0024012405F50065A842C6
:103E000000D01CB123F070034C68234362BB2F4ADF
:103E1000904214BF002201222D4CA04224D01ABB94
:103E200002F1804202F58232904214BF0022012248
:103E300004F50064A04217D0B2B9264A904214BFDC
:103E40000022012204F59A34A0420DD062B9224A20
:103E5000904214BF0022012204F50064A04203D066
:103E600012B91E4A904204D123F4407CCB6843EA45
:103E70000C0323F080034A69134303608A68C2621B
:103E80000A688262164A904214BF73464EF00103DC
:103E900063B9104B984214BF0023012302F57052FE
:103EA000904203D013B90F4B984201D10B690363C1
:103EB00001234361036913F0010F03D0036923F069
:103EC0000103036130BD00BF000001400008004055
:103ED000000400400044014000E0004000E40040D5
:103EE000000401400048014060B310B5044690F85A
:103EF0003D3013B3022384F83D30214651F8040BC2
:103F0000FFF75AFF012384F8483084F83E3084F8E4
:103F10003F3084F8403084F8413084F8423084F8EF
:103F2000433084F8443084F8453084F8463084F8CF
:103F3000473084F83D30002010BD80F83C30FDF75C
:103F400059FAD7E70120704760B310B5044690F8DE
:103F50003D3013B3022384F83D30214651F8040B61
:103F6000FFF72AFF012384F8483084F83E3084F8B4
:103F70003F3084F8403084F8413084F8423084F88F
:103F8000433084F8443084F8453084F8463084F86F
:103F9000473084F83D30002010BD80F83C30FFF7FA
:103FA00049FED7E70120704770B4036A026A22F025
:103FB00010020262456884691A4E26400C6846EA7F
:103FC000042623F020038A6843EA0213164A174C9A
:103FD000A04218BF90420CBF0122002206D123F05C
:103FE0008003CC6843EA041323F040035AB9104A13
:103FF000904214BF002201220E4CA04203D012B9FD
:104000000D4A904207D125F4406C4A694CEA820C73
:104010008A694CEA8205456086614A688263036268
:1040200070BC7047FF8CFFFE00000140000401409F
:1040300000440140004001400048014038B590F87C
:104040003C30012B00F0958004460D46012380F89A
:104050003C30142A00F28880DFE802F00B86868666
:104060001F86868634868686488686865D86868610
:1040700071000068FFF712FC2268936943F008039F
:1040800093612268936923F0040393612268936922
:1040900029690B439361002067E00068FFF784FF04
:1040A0002268936943F4006393612268936923F45F
:1040B0008063936122689369296943EA01239361CC
:1040C000002052E00068FFF73BFC2268D36943F010
:1040D0000803D3612268D36923F00403D361226803
:1040E000D36929690B43D36100203EE00068FFF7E4
:1040F00071FC2268D36943F40063D3612268D369F9
:1041000023F48063D3612268D369296943EA0123D8
:10411000D361002029E00068FFF796FC2268536D08
:1041200043F0080353652268536D23F0040353657D
:104130002268536D29690B435365002015E0006820
:10414000FFF7BCFC2268536D43F40063536522689B
:10415000536D23F4806353652268536D296943EAE4
:1041600001235365002000E00120002384F83C3047
:1041700038BD0220FCE710B4846824F47F4C42EA86
:1041800003220A4342EA0C0282605DF8044B704746
:1041900090F83C30012B00F08F8010B504460123CD
:1041A00080F83C30022380F83D3002689068434B31
:1041B000034093600B68702B55D031D8502B6CD0D6
:1041C0001FD8402B0AD1CA6849682068FFF7B0FCA5
:1041D00040212068FFF7D4FC002029E068D8202B7C
:1041E00003D00AD80BB1102B05D119462068FFF770
:1041F000C7FC00201CE001201AE0302BF5D0012084
:1042000016E0602B0AD1CA6849682068FFF7A3FC52
:1042100060212068FFF7B4FC002009E0012007E0DE
:10422000B3F5005F2CD00AD8B3F5805F42D10020EF
:10423000012384F83D30002384F83C3010BD204A2F
:104240009342D2D007D8B3F5801FCED0B3F1101F60
:10425000CBD00120ECE71B4A9342C6D010329342E8
:10426000C3D00120E4E7CB684A6889682068FFF77B
:1042700082FF2268936843F0770393600020D7E7BA
:10428000CB684A6889682068FFF775FF22689368E1
:1042900043F4804393600020CAE7CA6849682068F5
:1042A000FFF746FC50212068FFF76AFC0020BFE7BB
:1042B0000120BDE70120BBE7022070478800CEFF48
:1042C000200010003000100001F01F014FF0010C21
:1042D0000CFA01FC036A23EA0C030362036A8A40B6
:1042E000134303627047000010B5044610293DD8FF
:1042F000DFE801F0093C3C3C203C3C3C273C3C3C9A
:104300002E3C3C3C350090F83E30DBB2013B18BF00
:104310000123002B40F09E80102900F28980DFE805
:1043200001F02C878787778787877B8787877F87B9
:104330008787830090F83F30DBB2013B18BF012331
:10434000E7E790F84030DBB2013B18BF0123E0E71C
:1043500090F84130DBB2013B18BF0123D9E790F858
:104360004230DBB2013B18BF0123D2E790F8433063
:10437000DBB2013B18BF0123CBE7022384F83E30B8
:1043800001222068FFF7A0FF23683449344A934292
:1043900018BF8B420BD002F57052934207D002F542
:1043A0008062934203D002F58062934203D15A6C3B
:1043B00042F400425A642368284AB3F1804F18BF80
:1043C000934239D0A2F57C42934235D002F5806207
:1043D000934231D002F5806293422DD002F57842AB
:1043E000934229D0A2F56C42934225D002F5943233
:1043F000934221D0A2F5C04293421DD002F58062C3
:10440000934219D01A6842F001021A60002022E09B
:10441000022384F83F30B3E7022384F84030AFE74B
:10442000022384F84130ABE7022384F84230A7E747
:10443000022384F84330A3E799680A4A0A40062A0F
:1044400018BFB2F5803F07D01A6842F001021A6027
:10445000002000E0012010BD0020FCE7000001402A
:10446000000401400700010090F83C20012A4DD0D3
:1044700070B40346012280F83C20022280F83D20DF
:10448000026850689468224E224DAA4218BFB24278
:1044900003D120F470004D68284320F070000D68AF
:1044A000284350601A681A48B2F1804F18BF824200
:1044B0001FD0A0F57C4082421BD000F58060824274
:1044C00017D000F58060824213D000F57840824218
:1044D0000FD0A0F56C4082420BD000F594308242A0
:1044E00007D0A0F5C040824203D000F58060824230
:1044F00004D124F08004896821439160012283F86B
:104500003D20002083F83C0070BC704702207047BB
:104510000000014000040140704770477047842844
:1045200001D0033070470020704708B501F0C6F88D
:10453000002008BD2DE9F04387B00E464469C4B1A0
:104540008569B5B14768D0F80080D0F81090B0F90F
:104550000800FFF7E4FF02950194009033464A46B5
:104560004146384601F03CF80590059807B0BDE893
:10457000F083446805680769B0F90800FFF7CFFFCA
:1045800005AB019300903346BAB22946204601F0AC
:1045900062F80128E9D00020E8E708B500B9012059
:1045A00001F0EEF9002008BD00F1080343604FF070
:1045B000FF328260C3600361002303607047002301
:1045C0000361704743684B609A688A6051609960E4
:1045D0000861036801330360704730B40D68B5F1BA
:1045E000FF3F11D000F108031C465B681A68AA421D
:1045F000FAD963684B6099608C60616008610368F8
:104600000133036030BC70470469F2E70369416815
:1046100082688A60416851605A68824206D00022EE
:1046200002611A68013A1A601868704782685A6015
:10463000F5E7000082B0002301930D4B1B68B3F136
:10464000FF3F08D04FF0500383F31188BFF36F8F03
:10465000BFF34F8FFEE74FF0500383F31188BFF392
:104660006F8FBFF34F8F019B002BFCD002B07047C0
:104670001C00002408480068006880F308884FF098
:10468000000080F3148862B661B6BFF34F8FBFF3AA
:104690006F8F00DF00BF000008ED00E0DFF80C00C6
:1046A000016841F4700101607047000088ED00E08E
:1046B0004FF0807340F8043C21F0010140F8081CE1
:1046C000054B40F80C3C40F8202C6FF0020340F8FA
:1046D000243C4438704700BF354600080000000005
:1046E000074B19680868B0E8F04F80F30988BFF3FA
:1046F0006F8F4FF0000080F311887047AFF3008098
:10470000D06700244FF0500383F31188BFF36F8FFD
:10471000BFF34F8F0B4A136801331360012B00D096
:1047200070474FF0E023D3F8043D13F0FF0FF7D0AC
:104730004FF0500383F31188BFF36F8FBFF34F8F98
:10474000FEE700BF1C000024094B1B6843B94FF073
:10475000500383F31188BFF36F8FBFF34F8FFEE7D2
:10476000013B034A13600BB983F31188704700BF04
:104770001C000024000000000000000000000000F9
:10478000EFF30980BFF36F8F154B1A681EF0100FFF
:1047900008BF20ED108A20E9F04F10602DE90900D4
:1047A0004FF0500080F31188BFF34F8FBFF36F8F2E
:1047B00001F00CF94FF0000080F3118809BC196872
:1047C0000868B0E8F04F1EF0100F08BFB0EC108A78
:1047D00080F30988BFF36F8F704700BFAFF300808D
:1047E000D067002408B54FF0500383F31188BFF35E
:1047F0006F8FBFF34F8F00F0BBFF28B14FF0E02366
:104800004FF08052C3F8042D002383F3118808BDB4
:104810004FF0E022002313619361054B1B680549AB
:10482000A1FB03139B09013B5361072313617047ED
:1048300010000024D34D62104FF0E023D3F8002D78
:104840003D4B9A421CD04FF0E023D3F8002D3B4B58
:104850009A421ED030B583B0394B1A78D2B2019249
:10486000FF221A701B78DBB28DF803309DF80330FD
:1048700003F05003334A1370334B07221A601BE0D6
:104880004FF0500383F31188BFF36F8FBFF34F8F47
:10489000FEE74FF0500383F31188BFF36F8FBFF330
:1048A0004F8FFEE7284A1368013B13609DF80330E1
:1048B0005B00DBB28DF803309DF8033013F0800FFE
:1048C000F0D1214B1B68032B08D04FF0500383F32A
:1048D0001188BFF36F8FBFF34F8FFEE71B021A4A99
:1048E000136003F4E0631360019BDBB2144A13709E
:1048F0004FF0E024D4F8203D43F47003C4F8203D89
:10490000D4F8203D43F07043C4F8203DFFF780FF0A
:1049100000250E4B1D60FFF7C1FED4F8343F43F075
:104920004043C4F8343FFFF7A5FE01F04FF8FFF70E
:1049300081FE284603B030BD71C20F4170C20F41E5
:1049400000E400E0442A0024402A00241C00002443
:10495000EFF305830F2B0FD9114A9B5CDBB2114A91
:1049600012789A4208D94FF0500383F31188BFF3AD
:104970006F8FBFF34F8FFEE74FF0E023D3F80C3D6E
:1049800003F4E063084A1268934208D94FF05003D9
:1049900083F31188BFF36F8FBFF34F8FFEE770472C
:1049A000F0E300E0442A0024402A0024124A12F0D6
:1049B000070F1ED0D11D21F00701C1F5705313441C
:1049C0000A460E480260002141601344083B23F070
:1049D00007030B48036059601960991A516013600E
:1049E000084B1960084B1960084B4FF000421A60E1
:1049F00070474FF47053E4E7682A0024602A0024CB
:104A00005C2A0024542A0024582A0024482A00241E
:104A1000164B1A461B688342FBD3516802EB010C0C
:104A2000844509D0416800EB010C634509D003605F
:104A3000904219D0106070474068014451601046A0
:104A4000F0E710B40A4C2468A3420BD05B68194409
:104A5000416013681B680360904200D010605DF8ED
:104A6000044B70470460F7E7704700BF602A0024DA
:104A70005C2A002438B5044600F06CFE384B1B68F5
:104A8000B3B1384B1B681C4250D1002C50D004F1FC
:104A9000080214F0070F02D022F007020832002AA1
:104AA00055D0314B1B68934253D330490C6804E016
:104AB000FFF77CFFE5E721461C466368934202D27C
:104AC0002368002BF7D1264B1B68A34243D00D6807
:104AD000083523680B6063689B1A102B10D9A01847
:104AE00010F0070F08D04FF0500383F31188BFF385
:104AF0006F8FBFF34F8FFEE743606260FFF788FF61
:104B0000626819490B689B1A0B60194909688B4246
:104B100001D217490B60134B1B68134363600023DA
:104B20002360144A13680133136002E0002500E09B
:104B3000002500F0A9FE15F0070F0ED04FF050032E
:104B400083F31188BFF36F8FBFF34F8FFEE700250C
:104B5000EFE70025EDE70025EBE7284638BD00BF6D
:104B60005C2A0024482A0024582A0024602A0024B1
:104B7000542A0024502A0024002834D038B5044692
:104B8000A0F1080550F8043C174A1268134208D1F6
:104B90004FF0500383F31188BFF36F8FBFF34F8F34
:104BA000FEE750F8081C41B14FF0500383F3118821
:104BB000BFF36F8FBFF34F8FFEE723EA020340F886
:104BC000043C00F0C7FD54F8041C084A13680B4469
:104BD00013602846FFF71CFF054A13680133136072
:104BE00000F052FE38BD7047482A0024582A00249D
:104BF0004C2A002410B50446FFF784FDA26BE36B3A
:104C00009A4204D00024FFF79FFD204610BD0124E6
:104C1000F9E710B50446FFF775FDA36B23B901242E
:104C2000FFF792FD204610BD0024F9E770B5044659
:104C30001546866B026C5AB903681BB10020013619
:104C4000A66370BD806800F0EBFF0023A360F6E769
:104C50006DB94068FBF73CFB6368226C13446360EA
:104C6000A268934219D3236863602846E7E7C068C7
:104C7000FBF72EFBE368226C51429B1AE36022682B
:104C8000934202D2A3680B44E360022D01D00020BE
:104C9000D5E726B1013E0020D1E72846CFE7002026
:104CA000CDE70346026C6AB110B50846D9681144D5
:104CB000D9609C68A14201D31968D960D968FBF713
:104CC00007FB10BD704738B50546FFF71BFD95F88B
:104CD000454064B201E0013C64B2002C0ADD6B6A1D
:104CE00043B105F1240000F0F1FE0028F3D000F0FC
:104CF00081FFF0E7FF2385F84530FFF725FDFFF73B
:104D000001FD95F8444064B201E0013C64B2002C1E
:104D10000ADD2B6943B105F1100000F0D7FE002831
:104D2000F3D000F067FFF0E7FF2385F84430FFF78A
:104D30000BFD38BD38B5E0B10D460446FFF7E2FC87
:104D40002368E26B216C01FB0230A0600020A063AD
:104D50006360013A02FB0133E360FF2384F84430CF
:104D600084F84530FDB9236963B9FFF7EDFC0120F4
:104D700038BD4FF0500383F31188BFF36F8FBFF33B
:104D80004F8FFEE704F1100000F0A0FE0028ECD0E9
:104D90004FF0E0234FF08052C3F8042DBFF34F8F44
:104DA000BFF36F8FE1E704F11000FFF7FDFB04F1A3
:104DB0002400FFF7F9FBD8E738B51D46049C0B46E5
:104DC00049B92460E063236401212046FFF7B2FF64
:104DD00084F84C5038BD2260F4E740B94FF05003DE
:104DE00083F31188BFF36F8FBFF34F8FFEE710B5CA
:104DF00084B01C4683B10B1E18BF0123002A08BFD4
:104E000043F001038BB94FF0500383F31188BFF3D4
:104E10006F8FBFF34F8FFEE74FF0500383F311887E
:104E2000BFF36F8FBFF34F8FFEE7B1FA81F35B09DA
:104E3000002A18BF43F0010343B94FF0500383F336
:104E40001188BFF36F8FBFF34F8FFEE7502303939B
:104E5000039B502B08D04FF0500383F31188BFF30E
:104E60006F8FBFF34F8FFEE7039B012384F846301B
:104E700000949DF81830FFF79FFF204604B010BD46
:104E8000F0B585B0019288B10F461D460446B1B118
:104E9000022D20D1E36B012B1DD04FF0500383F383
:104EA0001188BFF36F8FBFF34F8FFEE74FF05003B2
:104EB00083F31188BFF36F8FBFF34F8FFEE7036C4F
:104EC000002BE5D04FF0500383F31188BFF36F8FB1
:104ED000BFF34F8FFEE700F093FE064658B9019BE3
:104EE000002B48D04FF0500383F31188BFF36F8F2E
:104EF000BFF34F8FFEE700263DE02A4639462046A5
:104F0000FFF794FE636A7BB948B14FF0E0234FF09E
:104F10008052C3F8042DBFF34F8FBFF36F8FFFF79D
:104F200013FC012005B0F0BD04F1240000F0CEFD1B
:104F30000028F4D04FF0E0234FF08052C3F8042D46
:104F4000BFF34F8FBFF36F8FE9E7FFF7FDFB002043
:104F5000E8E702A800F000FE012619E0002384F82B
:104F6000443021E0002384F8453023E02046FFF759
:104F7000AAFE00F089FCFFF7C5FBA26BE36B9A4227
:104F8000BBD3022DB9D0019B002BDED0002EE0D088
:104F9000FFF7DAFB00F0DEFBFFF7B4FB94F84420E8
:104FA00052B2B2F1FF3FD9D094F8452052B2B2F1DB
:104FB000FF3FD7D0FFF7C8FB01A902A800F0D8FD3A
:104FC000D8B92046FFF716FE0028CFD0019904F18A
:104FD000100000F047FD2046FFF775FE00F054FC7E
:104FE0000028C8D14FF0E0234FF08052C3F8042DC1
:104FF000BFF34F8FBFF36F8FBDE72046FFF763FE10
:1050000000F042FC00208DE72DE9F84390B10F46F7
:1050100016461C460546B1B1022C20D1EB6B012B84
:105020001DD04FF0500383F31188BFF36F8FBFF390
:105030004F8FFEE74FF0500383F31188BFF36F8F5C
:10504000BFF34F8FFEE7036C002BE5D04FF050030A
:1050500083F31188BFF36F8FBFF34F8FFEE7FFF726
:1050600077FCEFF311884FF0500383F31188BFF3FF
:105070006F8FBFF34F8FAA6BEB6B9A4206D3022C54
:1050800004D0002088F31188BDE8F88395F8459096
:105090004FFA89F9AB6B224639462846FFF7C6FD21
:1050A000B9F1FF3F06D009F101035BB285F8453045
:1050B0000120E7E76B6A0BB90120E3E705F1240063
:1050C00000F004FD18B126B101203060DAE70120BC
:1050D000D8E70120D6E7F0B585B0019290B10F4630
:1050E0000446C1B100F08CFD064600BB019B002BBD
:1050F0005ED04FF0500383F31188BFF36F8FBFF37F
:105100004F8FFEE74FF0500383F31188BFF36F8F8B
:10511000BFF34F8FFEE7036C002BE3D04FF050033B
:1051200083F31188BFF36F8FBFF34F8FFEE7002625
:105130003EE039462046FFF7B4FD013DA5632369F3
:1051400023B9FFF701FB012005B0F0BD04F1100009
:1051500000F0BCFC0028F4D04FF0E0234FF0805268
:10516000C3F8042DBFF34F8FBFF36F8FE9E7FFF74D
:10517000EBFA0020E8E702A800F0EEFC012621E0AF
:10518000002384F8443029E0002384F845302BE0E4
:105190002046FFF798FD00F077FB09E02046FFF777
:1051A00092FD00F071FB2046FFF733FD00283FD150
:1051B000FFF7A8FAA56B002DBBD1019B002BD6D021
:1051C000002ED8D0FFF7C0FA00F0C4FAFFF79AFA21
:1051D00094F844305BB2B3F1FF3FD1D094F845303E
:1051E0005BB2B3F1FF3FCFD0FFF7AEFA01A902A83F
:1051F00000F0BEFC0028D1D12046FFF70AFD0028B0
:10520000C6D0019904F1240000F02CFC2046FFF7E1
:105210005AFD00F039FB0028CAD14FF0E0234FF0CF
:105220008052C3F8042DBFF34F8FBFF36F8FBFE7DA
:10523000002089E70023072B0CD8074A52F83320B7
:105240000AB10133F7E7044A42F8331002EBC30214
:1052500050607047704700BF6866002470B5044610
:105260000D461646FFF74EFA94F844305BB2B3F1A0
:10527000FF3F0DD094F845305BB2B3F1FF3F0BD048
:10528000FFF762FAA36B5BB12046FFF71CFD70BD10
:10529000002384F84430EDE7002384F84530EFE73D
:1052A0003246294604F1240000F0F4FBECE700004C
:1052B000084B1B681B6823B9074B4FF0FF321A607D
:1052C0007047044B1B68DB68DB685A68024B1A6046
:1052D000704700BF18670024B06600242DE9F0472E
:1052E00080460D4617469946089EDDF824A00A9C84
:1052F0009200A521206B00F013FF236B6FF040425A
:105300003A4403EB820727F00707A5B34FF0000CE0
:10531000BCF10F0F09D815F80C3004EB0C0282F821
:10532000343013B10CF1010CF2E7002384F8433060
:10533000062E00D90626E662E66400252565201DB6
:10534000FFF73DF904F11800FFF739F92461C6F1C0
:105350000706A6616462656584F858504A4641466E
:105360003846FFF7A5F92060BAF1000F01D0CAF85E
:105370000040BDE8F087002384F83430D8E700000F
:1053800038B5002407E004EB840293000E4818446B
:10539000FFF70AF90134062CF5D90C4D2846FFF722
:1053A00003F90B4C2046FFF7FFF80A48FFF7FCF81B
:1053B0000948FFF7F9F80948FFF7F6F8084B1D60B0
:1053C000084B1C6038BD00BF4467002430670024D0
:1053D0001C67002400670024EC660024D4660024C7
:1053E000186700241467002410B50446FFF78AF9F3
:1053F000224A136801331360214B1B685BB1214BB8
:105400001B686BB91E4B1B68DA6AE36A9A4207D8BD
:105410001B4B1C6004E01A4B1C601368012B29D045
:10542000194A1368013313606364E06A01238340FF
:10543000164A11680B43136000EB8000211D144BCA
:1054400003EB8000FFF7BEF8FFF77EF90D4B1B68FA
:105450007BB10B4B1B68DA6AE36A9A4209D24FF0C0
:10546000E0234FF08052C3F8042DBFF34F8FBFF3FA
:105470006F8F10BDFFF784FFD2E700BFD066002416
:10548000D0670024C4660024B4660024C8660024E3
:105490004467002410B5044690F8593063B1012BDD
:1054A00011D0022B0ED04FF0500383F31188BFF3BD
:1054B0006F8FBFF34F8FFEE7006BFFF75DFB20465A
:1054C000FFF75AFB10BDFFF757FBFBE70F4B1B68BD
:1054D000D3B110B5FFF716F90D4BDB68DC68201D62
:1054E000FFF794F80B4A1368013B1360074A1368EF
:1054F000013B1360FFF728F92046FFF7CBFF034B72
:105500001B68002BE6D110BD704700BFE866002481
:10551000EC660024D066002408B5FFF7D7FF074BE0
:105520001B68012BF9D94FF0E0234FF08052C3F8EC
:10553000042DBFF34F8FBFF36F8FEEE74467002456
:1055400070B504460D461F4B1E681F4B186804308B
:10555000FFF75CF848B91C4B1B68DB6A01229A40D4
:105560001A490B6823EA02030B60B4F1FF3F14BF32
:1055700000230123002D08BF00236BB93444124BD4
:105580001B685C60A6420ED9114B18680E4B196857
:105590000431FFF722F870BD0B4B196804310D4838
:1055A000FFF710F8F7E70C4B1868074B1968043140
:1055B000FFF713F8094B1B68A342ECD9074B1C609B
:1055C000E9E700BFCC660024D0670024C866002449
:1055D00014670024D466002418670024B0660024F1
:1055E00030B587B00B9C7CB10C9DB5B15C250495A2
:1055F000049D5C2D1AD04FF0500383F31188BFF344
:105600006F8FBFF34F8FFEE74FF0500383F3118886
:10561000BFF36F8FBFF34F8FFEE74FF0500383F35D
:105620001188BFF36F8FBFF34F8FFEE7049D0C9D72
:105630002C63022485F8594000240394029505AC9C
:1056400001940A9C0094FFF749FE0C98FFF7CCFEEA
:10565000059807B030BD2DE9F04385B00746884670
:1056600014461E469000FFF705FA08B381465C20F9
:10567000FFF700FA0546A8B1C0F83090002380F883
:105680005930039302900D9B01930C9B009333467A
:10569000224641463846FFF721FE2846FFF7A4FE82
:1056A000012007E04846FFF767FA4FF0FF3001E0BE
:1056B0004FF0FF3005B0BDE8F083000010B588B0B2
:1056C00000240594069407AA06A905A8FBF706FC82
:1056D000059B0293069B019300942346079A174962
:1056E0001748FFF77DFF174B1860C0B100F060FB53
:1056F000012815D14FF0500383F31188BFF36F8F4A
:10570000BFF34F8F104B4FF0FF321A600F4B012247
:105710001A600F4B00221A60FFF78EF803E000209A
:10572000B0F1FF3F01D008B010BD4FF0500383F33C
:105730001188BFF36F8FBFF34F8FFEE7F468000847
:1057400019550008AC660024B0660024C466002425
:10575000CC660024024A136801331360704700BF0F
:10576000A8660024014B1868704700BFCC6600246F
:10577000F8B53A4B1B68002B69D1394B1D680135D0
:105780001D60C5B9374B1B681B6843B14FF0500310
:1057900083F31188BFF36F8FBFF34F8FFEE7314A5A
:1057A0001168314B186810601960304A1368013372
:1057B0001360FFF77DFD2E4B1B68AB423DD90027E0
:1057C0002C4B1B68DB6A03EB83039A002A4B9B5824
:1057D000012B00D90127294B1B68002B3CD0012746
:1057E0003AE001271F4B1B681B6843B31D4B1B6826
:1057F000DB68DC6863689D4226D3261D3046FEF7D1
:1058000005FFA36A1BB104F11800FEF7FFFEE36A6F
:1058100001229A401A49086802430A6003EB830395
:105820009A00314614481044FEF7CCFEE26A114B50
:105830001B68DB6A9A42D4D2D4E70027D2E70C4B2C
:105840004FF0FF321A60BBE7094A1360B8E70D4A10
:1058500013680133136000273846F8BDA86600249A
:10586000CC6600241867002414670024B86600245E
:10587000B0660024D067002444670024BC6600247E
:10588000C8660024C066002438B5354B1B6843B990
:105890004FF0500383F31188BFF36F8FBFF34F8F27
:1058A000FEE7FEF72FFF2E4B1A68013A1A601B68BD
:1058B000002B4FD12B4B1B680BB900244BE000246D
:1058C000294B1B681BB3284BDB68DC6804F118000C
:1058D000FEF79CFE251D2846FEF798FEE06A012390
:1058E0008340224A11680B43136000EB8000294675
:1058F0001F4B03EB8000FEF765FEE26A1D4B1B6841
:10590000DB6A9A42DCD31C4B01221A60D8E70CB147
:10591000FFF7CEFC194B1C6884B9174B1C68D4B137
:105920004FF0E0234FF08052C3F8042DBFF34F8FA8
:10593000BFF36F8F01240EE0013C07D0FFF718FF83
:105940000028F9D00C4B01221A60F5E70B4B00221E
:105950001A60E2E70024FEF7F7FE204638BD00BFDC
:10596000A8660024D066002400670024C8660024CE
:1059700044670024D0670024BC660024C06600246D
:1059800010B5A8B10446104B1B6843B14FF050034B
:1059900083F31188BFF36F8FBFF34F8FFEE7FFF7DD
:1059A000D9FE00212046FFF7CBFDFFF76DFF48B978
:1059B0004FF0E0234FF08052C3F8042DBFF34F8F18
:1059C000BFF36F8F10BD00BFA8660024204B1B687B
:1059D0001BB1204B01221A6070471E4B00221A6037
:1059E0001D4B1B68B3FA83F3DBB2C3F11F0303EB58
:1059F00083018A0019498A5842B94FF0500383F352
:105A00001188BFF36F8FBFF34F8FFEE7134803EB8F
:105A100083018A00024451684968516003EB830C9A
:105A20004FEA8C0208320244914209D003EB83030F
:105A30009A000A4B13445B68DA68094B1A60704796
:105A4000486862469100054A0A445060EEE700BF8C
:105A5000A8660024BC660024C866002444670024AD
:105A6000D067002458B110B50C46094A11681831A6
:105A7000FEF7B3FD01212046FFF762FD10BD4FF098
:105A8000500383F31188BFF36F8FBFF34F8FFEE78F
:105A9000D067002438B570B10D4614460A4A116823
:105AA0001831FEF78FFD0CB14FF0FF352146284627
:105AB000FFF746FD38BD4FF0500383F31188BFF365
:105AC0006F8FBFF34F8FFEE7D067002438B5C368F0
:105AD000DC6824B304F118052846FEF797FD184B3F
