:020000040800F2
:1000000000000524211D00087D1800087F18000845
:1000100081180008831800088518000800000000F7
:10002000000000000000000000000000B17B00089C
:100030008718000800000000517C0008B57C00080B
:10004000711D0008711D0008711D0008711D000858
:10005000711D0008711D0008711D0008711D000848
:10006000711D0008711D0008711D0008711D000838
:10007000711D0008711D0008711D0008711D000828
:10008000711D0008711D0008711D0008711D000818
:10009000711D0008711D0008711D0008711D000808
:1000A000711D0008711D0008711D0008711D0008F8
:1000B000711D0008711D0008711D0008711D0008E8
:1000C000711D0008711D0008711D0008711D0008D8
:1000D000711D0008711D0008711D0008711D0008C8
:1000E000711D0008711D000800000000711D00084E
:1000F000711D0008711D0008711D0008711D0008A8
:10010000711D0008711D0008711D0008711D000897
:10011000711D0008711D0008711D0008711D000887
:10012000711D0008711D0008711D0008711D000877
:10013000711D0008711D0008711D0008711D000867
:1001400000000000000000000000000000000000AF
:10015000711D0008711D0008711D0008711D000847
:10016000711D0008711D0008711D0008711D000837
:10017000711D000889180008711D000800000000AA
:10018000711D0008711D0008711D0008711D000817
:10019000711D0008711D0008711D0008711D000807
:1001A000711D0008711D0008711D0008000000008D
:1001B000711D0008711D0008711D0008711D0008E7
:1001C000711D0008711D0008000000000000000003
:1001D0000000000000000000711D00080000000089
:1001E000000000000000000000000000000000000F
:1001F0000000000000000000711D0008711D0008D3
:10020000711D0008711D000800000000711D00082C
:10021000711D0008711D0008711D0008711D000886
:10022000711D000800000000711D000800000000A2
:10023000711D0008711D000800000000711D0008FC
:10024000711D0008711D0008711D0008711D000856
:10025000711D0008711D0008711D0008711D000846
:10026000711D0008711D0008711D0008711D000836
:10027000711D0008711D0008711D000800000000BC
:10028000711D0008711D0008711D0008711D000816
:1002900000000000711D0008711D00080000000032
:1002A00000000000711D0008711D0008711D00088C
:1002B000711D0008711D0008711D0008711D0008E6
:0C02C000711D000899180008711D00084D
:1002D000844641EA000313F003036DD1403A41D351
:1002E00051F8043B40F8043B51F8043B40F8043B10
:1002F00051F8043B40F8043B51F8043B40F8043B00
:1003000051F8043B40F8043B51F8043B40F8043BEF
:1003100051F8043B40F8043B51F8043B40F8043BDF
:1003200051F8043B40F8043B51F8043B40F8043BCF
:1003300051F8043B40F8043B51F8043B40F8043BBF
:1003400051F8043B40F8043B51F8043B40F8043BAF
:1003500051F8043B40F8043B51F8043B40F8043B9F
:10036000403ABDD2303211D351F8043B40F8043B3F
:1003700051F8043B40F8043B51F8043B40F8043B7F
:1003800051F8043B40F8043B103AEDD20C3205D34F
:1003900051F8043B40F8043B043AF9D2043208D047
:1003A000D2071CBF11F8013B00F8013B01D30B88B9
:1003B00003806046704700BF082A13D38B078DD097
:1003C00010F003038AD0C3F10403D21ADB071CBF69
:1003D00011F8013B00F8013B80D331F8023B20F8D3
:1003E000023B7BE7043AD9D3013A11F8013B00F80C
:1003F000013BF9D20B7803704B7843708B78837094
:10040000604670470348044B834202D0034B03B15C
:1004100018477047640200246402002400000000B2
:100420000548064B1B1AD90F01EBA301491002D056
:10043000034B03B118477047640200246402002490
:100440000000000010B5064C237843B9FFF7DAFF2F
:10045000044B13B10448AFF300800123237010BD97
:100460006402002400000000ECA1000808B5054B60
:100470001BB105490548AFF30080BDE80840FFF710
:10048000CFBF00BF0000000068020024ECA10008FC
:10049000F6EE007A60EE277A10EE103A074AA2EBE9
:1004A000630307EE103A67EE277A67EE277AB7EE16
:1004B000080A30EE670A27EE000A7047DF59375FF7
:1004C00010B52DED068B0446B0EE409AF0EE609A22
:1004D000B0EE418AF0EE618AB0EE42AAF0EE62AA76
:1004E000F5EE401AF1EE10FA14BF01230023B5EE29
:1004F000402AF1EE10FA18BF43F001032BB9F5EED4
:10050000402AF1EE10FA00F0938068EEA87A2AEE05
:100510000A7A77EE877A2AEEAA0A37EE800AFFF780
:10052000B7FF68EE808A2AEE00AA6AEE80AA94EDF0
:10053000017AD4ED036A27EE266AD4ED007AD4ED71
:10054000025A27EEA55A36EE456A27EE277A66EE5E
:10055000A55A37EE257A67EEA77AF6EE005A77EEBF
:10056000E57A66EEA66A77EEA67A6AEE276A6AEE02
:10057000875A76EEE56A6AEE86AA68EEA77A7AEE80
:10058000E7AA68EE878A2AEE06AA78EECA8A624B44
:10059000D3ED007AF5EEC07AF1EE10FA40F3B380B5
:1005A000D3ED007A67EEA67A9FED5C7A67EE877AE4
:1005B0005B4991ED006A76EE277AC1ED007AD3EDC2
:1005C000007A67EEAA7A67EE877A564A92ED006A59
:1005D00076EE277AC2ED007AD3ED007A67EEA87A3C
:1005E00067EE877A504B93ED007A77EE277AC3ED6A
:1005F000007AD1ED007A39EE279AD2ED007A79EEC1
:10060000A79AD3ED007A38EE278A484BD3ED007ACB
:1006100067EEA67A39EE279AD3ED007A67EEAA7ACA
:1006200079EEA79AD3ED007A67EEA87A38EE278A9A
:10063000DFED3F7A29EE270A69EEA70A28EE271A8E
:10064000D4ED006A94ED017AD4ED027A27EE409A57
:1006500020EEA76A39EE469AD4ED039A29EE816A14
:1006600039EE469A39EE269A84ED009A60EE268A93
:1006700021EE276A78EE868A29EEA06A78EEC68A8D
:1006800078EE878AC4ED018A20EEA68A21EE076AF9
:1006900038EE468A29EE806A38EE068A38EE278AD6
:1006A00084ED028A21EE261A60EE870A31EE201AC6
:1006B00020EE270A31EE401A79EE819AC4ED039AB2
:1006C00069EE097A28EEA87A77EE877A28EE087A1A
:1006D00077EE877A29EEA90A37EE800AFFF7D8FE6F
:1006E00029EE009A84ED009A68EE808AC4ED018AB2
:1006F00028EE008A84ED028A69EE809AC4ED039A9E
:10070000BDEC068B10BD0023054A1360054A13603B
:10071000054A136079E700BF8C0200246F12833A08
:1007200088020024840200248002002400000024A7
:100730006F12033A7047704710B44FF0E0235C69C2
:10074000C0EB00104FEA401C9B69002104E0E01A56
:1007500002441144614509D21A464FF0E0239B69D7
:100760009A42FAD0F3D9D21A1144F3E75DF8044B58
:10077000704710B504E04FF47A70FFF7DDFF2046B4
:10078000431E9CB20028F6D110BD000008B500221F
:100790000121024801F0B2FC08BD00BF0008025868
:1007A00008B501221146024801F0A8FC08BD00BFAF
:1007B0000008025808B500220821024801F09EFCFA
:1007C00008BD00BF0008025808B5012208210248F0
:1007D00001F094FC08BD00BF0008025800B587B0C6
:1007E0008DF80F004FF47A73009301230DF1170277
:1007F0000DF10F01034804F0EBF99DF8170007B065
:100800005DF804FBD86B002410B50C46FFF7E6FF3B
:100810002046FFF7E3FF10BD10B50C4640F0800006
:10082000FFF7DCFF5520FFF7D9FF207010BD38B56A
:100830000D46144640F08000FFF7D0FF06E055203B
:10084000FFF7CCFF05F8010B013CE4B2002CF6D118
:1008500038BD000070B5FFF799FF8020FFF7BEFF9D
:100860005520FFF7BBFF5520FFF7B8FFFFF798FFB4
:100870009620FFF761FFFFF789FF8020FFF7AEFFAB
:100880005520FFF7ABFF5520FFF7A8FFFFF788FFC4
:100890009620FFF751FFFFF779FFB6217E20FFF783
:1008A000B3FFFFF77DFF5020FFF763FFFFF76EFFF9
:1008B0008020FFF793FF5520FFF790FF5520FFF7AB
:1008C0008DFFFFF76DFF9620FFF736FFFFF75EFF06
:1008D0008020FFF783FF5520FFF780FF5520FFF7AB
:1008E0007DFF0446FFF75CFF9620FFF725FF1E2CD7
:1008F00032D10024052C2DD8FFF748FF174A04EB0E
:100900004403D1184E78D55C31462846FFF77CFF6A
:10091000FFF746FF9620FFF70FFFFFF737FF45F081
:100920008000FFF75BFF5520FFF758FF5520FFF7CA
:1009300055FF0546FFF734FF9620FFF7FDFEAE4258
:1009400002D10134E4B2D5E704EB4404034B234461
:10095000987800E0002070BDFF20FCE7A4A200080A
:1009600070B582B000248DF80740FFF723FF0DF12A
:1009700007012046FFF750FFFFF726FF9620FFF7FD
:10098000DBFEFFF717FF0DF107012046FFF744FFDD
:10099000FFF71AFF9620FFF7CFFEFFF70BFFB621F8
:1009A0001420FFF731FFFFF70FFF5020FFF7E1FEA4
:1009B000FFF700FF0DF107012046FFF72DFFFFF7BE
:1009C00003FF9620FFF7B8FEFFF7F4FE0DF10701D5
:1009D0002046FFF721FFFFF7F7FE9620FFF7ACFE5A
:1009E0009DF807300F2B2ED1052C29D8FFF7E2FEFA
:1009F000164A04EB4403D1184D78D65C294630469C
:100A0000FFF702FFFFF7E0FE9620FFF795FEFFF7E6
:100A1000D1FE0DF107013046FFF7FEFEFFF7D4FED1
:100A20009620FFF789FE9DF807309D4202D10134E0
:100A3000E4B2D9E704EB4404044B2344987800E083
:100A4000002002B070BDFF20FBE700BF90A20008AD
:100A500010B5FFF76FFEFFF76EFEFFF7FBFE0446D3
:100A6000FFF77EFF2043C0B210BD0000F0B583B099
:100A700006460D461446002700970197FFF786FEAD
:100A80009220FFF7ABFE062269461220FFF7CFFE49
:100A9000FFF786FE9DF801301B021BB29DF8002077
:100AA000134307EE903AF8EEE77A474A92ED007A60
:100AB00067EE877AC5ED007A9DF803301B021BB202
:100AC0009DF802100B4307EE903A92ED007AF8EE93
:100AD000E77A67EE877AC5ED017A9DF805301B024B
:100AE0001BB29DF80420134307EE903AF8EEE77A24
:100AF00067EE877AC5ED027AFFF75CFE0822694649
:100B00003846FFF794FEFFF75FFE9DF800300F2B8D
:100B100027D0FFF73BFEA220FFF760FE02226946C6
:100B20002220FFF784FEFFF73BFE9DF800209DF892
:100B300001305B0943EAC203B3F5806F01DBA3F523
:100B4000006307EE903AF8EEE77AB4EE007A67EECB
:100B5000877AB3EE077A77EE877AC4ED007A03B02E
:100B6000F0BD9DF803301B021BB29DF80220134319
:100B700007EE903AF8EEE77A144A92ED007A67EEC3
:100B8000877AC6ED007A9DF805301B021BB29DF8EE
:100B900004100B4307EE903A92ED007AF8EEE77AF4
:100BA00067EE877AC6ED017A9DF807301B021BB20B
:100BB0009DF80620134307EE903AF8EEE77A67EEC9
:100BC000877AC6ED027AA4E7080000240400002416
:100BD00010B588B000238DF807300EE04FF0600CA0
:100BE00014E04FF0600C1EE04FF0600CC3F11704EE
:100BF00020346C4404F818CC0133072B21DC41FA73
:100C000003F414F0010FE9D04FF0780CC3F107049E
:100C100020346C4404F818CC40FA03F414F0010FAB
:100C2000DFD04FF0780CC3F10F0420346C4404F88B
:100C300018CC42FA03F414F0010FD5D04FF0780C21
:100C4000D4E74FF6FF7300220DF107010F4803F0C0
:100C50005FFE0E4B93F88130DBB2012BF9D14FF6DA
:100C6000FF73182202A9094803F052FE002408E08D
:100C70004FF6FF7301220DF10701044803F048FE0F
:100C80000134632CF4DD08B010BD00BF506B0024AC
:100C900010B5344B1B68052B13D8DFE803F0034372
:100CA00023135333304C002211462078FFF790FF76
:100CB00023780133DBB22370C72B02D9294B0322DF
:100CC0001A6010BD284C002211462078FFF780FFE3
:100CD0002378013BDBB22370032BF2D8214B022295
:100CE0001A60EEE7204C002221781046FFF770FFD3
:100CF00023780133DBB22370C72BE2D9194B0522CD
:100D00001A60DEE7184C002221781046FFF760FFDA
:100D10002378013BDBB22370032BD2D8114B012285
:100D20001A60CEE7104C227800210846FFF750FFEA
:100D300023780133DBB22370C72BC2D9094B0422BD
:100D40001A60BEE7084C227800210846FFF740FFF2
:100D50002378013BDBB22370032BB2D8014B002276
:100D60001A60AEE7940200249002002401380328A0
:100D70002CD8DFE800F0020C1621DFED157A20EE0A
:100D8000270ABCEEC00A134B83ED0F0A7047DFED54
:100D9000107A20EE270ABCEEC00A0E4B83ED0D0A36
:100DA0007047DFED0B7A20EE270ABCEEC00A4FF049
:100DB000804383ED0F0A7047DFED057A20EE270AA6
:100DC000BCEEC00A4FF0804383ED0D0A704700BFB0
:100DD000007EBB460000014008B53D4C0021204686
:100DE00004F064FE0821204604F060FE394C002126
:100DF000204604F05BFE0821204604F057FE34E054
:100E0000354A5178937843EA012307EE903AF8EE99
:100E1000677A9FED327AC7EE876A314BC3ED006A7D
:100E2000D178137943EA012307EE903AF8EE677A16
:100E3000C7EE876A2B4BC3ED006A1FE0C3ED007A53
:100E4000284B93ED007ADFED287AB4EEE77AF1EEE5
:100E500010FA01DBC3ED007A224B93ED000A022069
:100E6000FFF784FF012006F0FCFD1B4B1F4A1068B2
:100E7000186012791A711B78FF2BC1D0184B93EDB3
:100E8000007ADFED1B7AB4EEE77AF1EE10FA01D8C2
:100E9000C3ED007A124B93ED007ADFED137AB4EED6
:100EA000E77AF1EE10FA01DBC3ED007A0C4B93ED1B
:100EB000000A0120FFF75AFF0A4B93ED007ADFED9D
:100EC0000C7AB4EEE77AF1EE10FAB9D8B6E700BFC3
:100ED000446D0024F86C00249802002400401C4655
:100EE000100000240C0000247B14AE3D0CBF002435
:100EF000B81E853D274AD2ED007A274BC3ED007A14
:100F0000264B93ED007A82ED007A30EE600A83ED95
:100F1000000A20EE011A224B83ED001A77EE006AD8
:100F200077EEA67A67EEA17A1E4BC3ED007AF4EE57
:100F3000E27AF1EE10FA01DDC3ED002A30EE470A45
:100F400020EE020A184B83ED000A164BD3ED007A0F
:100F500031EE271A30EE010A144B83ED000AB4EE8D
:100F6000C30AF1EE10FA01DD83ED003A0F4BD3ED29
:100F7000007AF5EEC07AF1EE10FA08D40B4BD3EDFF
:100F8000007AFCEEE77A17EE903A98B270470022AA
:100F90001A60F3E7B4020024B0020024B80200246F
:100FA000AC020024A8020024A4020024A002002411
:100FB0004FF07E530360002343608360C36070473B
:100FC00008B5D2ED022A92ED012AD2ED001A91ED78
:100FD000021AD1ED010A91ED000AFFF771FA08BD7E
:100FE000F8B52DED028B04460F4616461D46D0ED92
:100FF000000A90ED030A20EE800AD0ED017A90ED10
:10100000027A27EE877A30EE070A60EEA00A67EED2
:10101000A77A70EEA70A70EEA00AB7EE008A70EE0B
:10102000C80A30EE000A08F053FE87ED000AD4ED3E
:10103000017A94ED037A67EE877A94ED007AD4ED25
:10104000026A27EE267A77EEC77AB8EE000A27EE14
:10105000800A08F011FE86ED000AD4ED000A94ED36
:10106000010A20EE800A94ED027AD4ED037A27EE8D
:10107000277A30EE070A60EEA00A67EEA77A70EED4
:10108000A70A70EEA00A70EEC80A30EE000A08F057
:101090001FFE85ED000ABDEC028BF8BD80B50A206D
:1010A00006F0DFFC0C211D4804F000FD02E0642086
:1010B00006F0D7FCFFF7CCFC0028F8D11848FFF762
:1010C00077FF184C184F194E224639463046FFF725
:1010D000CDFC134D3A4631462846FFF771FF144BBD
:1010E0001A1FA3F108012846FFF77AFFDFED111A56
:1010F0009FED113AF0EE612AB2EE042A9FED0F1A2D
:10110000D4ED000AB3EE0E0AFFF7F4FE034B1B68A2
:101110001864012006F0A5FCD3E700BFAC6C0024E6
:10112000C8020024D8020024DC020024E8020024C3
:10113000C40200240000C8420000FA4500009643A3
:1011400008B54348FC2303704249D1ED007A9FED76
:10115000427A67EE877AFDEEE77A17EE903A3F4AD9
:10116000C2ED007A43704FEA232C80F802C04FEAA8
:10117000234C80F803C01B160371D1ED017A67EE92
:10118000877AFDEEE77A17EE903AC2ED007A437166
:101190004FEA232C80F806C04FEA234C80F807C0A2
:1011A0001B160372D1ED027A67EE877AFDEEE77ABD
:1011B00017EE903AC2ED007A437219128172191437
:1011C000C1721B1603732649D1ED007A67EE877A48
:1011D000FDEEE77A17EE903AC2ED007A43734FEADC
:1011E000232C80F80EC04FEA234C80F80FC01B164A
:1011F0000374D1ED017A67EE877AFDEEE77A17EE98
:10120000903AC2ED007A43744FEA232C80F812C062
:101210004FEA234C80F813C01B160375D1ED027AF8
:1012200067EE877AFDEEE77A17EE903AC2ED007A24
:1012300043751A1282751A14C2751B16037619218A
:1012400008F032FAFFF724FD012006F00AFC78E7E7
:10125000F4020024DC02002400007A44100300247D
:10126000BC02002408B508F0C3F9012006F0F9FB20
:10127000FBE708B5012006F0F4FBFBE7034B036036
:10128000034B0B6080231360704700BF700900247C
:1012900070070024034B0360034B0B604FF4807313
:1012A00013607047140700241403002410B5A4B081
:1012B0002D4C0DF1740CA646BEE80F00ACE80F00F3
:1012C0009EE807008CE8070000211DA806F096FBA9
:1012D000264B18600DF1580C04F11C0EBEE80F00EF
:1012E000ACE80F009EE807008CE80700002116A874
:1012F00006F084FB1E4B18600DF13C0C04F1380E17
:10130000BEE80F00ACE80F009EE807008CE807007D
:1013100000210FA806F072FB164B18600DF1200C8F
:1013200004F1540EBEE80F00ACE80F009EE8070081
:101330008CE80700002108A806F060FB0E4B18603F
:101340000DF1040E04F1700CBCE80F00AEE80F00C4
:101350009CE807008EE80700002101A806F04EFB7C
:10136000064B186024B010BD04A200084C6B00248A
:10137000486B0024E84A0024883A0024282A0024E4
:1013800070B58AB0002405940694079408940994D3
:10139000354BD3F8E02042F00402C3F8E020D3F844
:1013A000E02002F004020092009AD3F8E02042F01C
:1013B0008002C3F8E020D3F8E02002F0800201921E
:1013C000019AD3F8E02042F00102C3F8E020D3F8FC
:1013D000E02002F001020292029AD3F8E02042F0EB
:1013E0000202C3F8E020D3F8E02002F002020392E8
:1013F000039AD3F8E02042F01002C3F8E020D3F8BB
:10140000E03003F010030493049B184D01224FF4C5
:101410006041284600F072FE22460921284600F06D
:101420006DFE4FF4604305930126069607940894D9
:1014300005A9284600F058FD092305930696079450
:101440000323089305A9284600F04EFD4FF480734E
:1014500005930223069307940894099405A9044868
:1014600000F042FD0AB070BD004402580008025866
:101470000000025808B50268034B9A4200D008BD2C
:1014800000F0A6FCFBE700BF00E0004072B6FEE7FC
:1014900000B59DB04C22002109A808F005FB2022D0
:1014A000002101A808F000FB022001F09DFC0023B0
:1014B0000093254B9A6922F440429A619B6903F498
:1014C00040430093009B204B9B6913F4005FFAD0CC
:1014D000232309934FF480330A9301220C92402373
:1014E0000D930F92022312931393149314211591C9
:1014F0001692179318930C23199300231A931B9396
:1015000009A801F0A3FCD0B93F2301930321029164
:101510000023039304934023059306934FF48062C2
:101520000792089301A802F0D1F850B94FF4802235
:101530000021084601F07CFF1DB05DF804FBFFF7B9
:10154000A5FFFFF7A3FF00BF0048025808B500F051
:1015500011FCFFF79DFFFFF713FF00F00DF800F0FF
:1015600085FB00F039F800F09BFA00F01FFBFFF755
:101570009DFE06F03EFAFEE708B51548154B0360E0
:101580004FF480034360002383600722C2604FF062
:10159000007202614FF0807242614FF0806282619E
:1015A0004FF08042C261036243628362C36242635E
:1015B0008363C363036443648364C36403654365F3
:1015C000836503F0DDF800B908BDFFF75FFFFBE7B7
:1015D000D86B00240038004008B51648164B03604D
:1015E0004FF4800343604FF4003383600723C360EC
:1015F000002303614FF0807242614FF0806282618C
:101600004FF08052C261036243628362C3624FF053
:10161000804242638363C363036443648364C3643B
:1016200003654365836503F0ABF800B908BDFFF7B8
:101630002DFFFBE7506B002400140058F0B5BBB041
:101640000446002135913691379138913991B8226D
:1016500006A808F029FA2368514A934204D0514A57
:1016600093424DD03BB0F0BD4FF480520023CDE902
:10167000062306A802F0DAFA00283ED14A4BD3F836
:10168000E82042F48042C3F8E820D3F8E82002F4CE
:1016900080420092009AD3F8E02042F00402C3F89E
:1016A000E020D3F8E02002F004020192019AD3F87E
:1016B000E02042F00202C3F8E020D3F8E03003F06B
:1016C00002030293029B06233593022736970026D6
:1016D0003796032538950524399435A9334800F009
:1016E00003FC4FF400533593369737963895399469
:1016F00035A92F4800F0F8FBB4E7FFF7C7FEBDE7B8
:101700004FF480420023CDE906234FF0A0433193EC
:1017100006A802F08BFA00283ED1234BD3F8F42020
:1017200042F02002C3F8F420D3F8F42002F02002A3
:101730000392039AD3F8E02042F00102C3F8E020BC
:10174000D3F8E02002F001020492049AD3F8E020DA
:1017500042F00402C3F8E020D3F8E03003F00403C1
:101760000593059B802335930225369500243794F5
:1017700038940823399335A90E4800F0B5FB4FF48F
:10178000805335933695379438940523399335A98A
:10179000064800F0A9FB65E7FFF778FEBDE700BF4C
:1017A0000038004000140058004402580008025855
:1017B000000402580000025800B583B00A4BD3F869
:1017C000F42042F00202C3F8F420D3F8F43003F01E
:1017D00002030193019B00220F216FF0010000F032
:1017E0006FFB03B05DF804FB004402580F2801D9D9
:1017F0000120704710B58AB0044600220146A1209E
:1018000000F05EFBA12000F06BFB174B1C60174B38
:10181000D3F8EC2042F08072C3F8EC20D3F8EC301F
:1018200003F080730093009B01A902A802F0CCF89A
:1018300002F0B8F843000E4AA2FB03239B0C013BC5
:101840000C480D4A026040F2E732C2604360002358
:101850000361836003F02AFF10B101200AB010BDBC
:10186000044803F079FDF9E7200000240044025801
:1018700083DE1B43606C002400E00040FEE7FEE7CF
:10188000FEE7FEE7FEE7704708B5024800F06BFF91
:1018900008BD00BF34C3002408B5024803F0B1FD01
:1018A00008BD00BF606C0024224AD2F8883043F49F
:1018B0007003C2F88830204B1B6803F00F03062B1F
:1018C00006D81D4A136823F00F0343F00703136083
:1018D0001A4B1A6842F001021A6000221A61196854
:1018E000174A0A401A60144B1B6813F0080F06D001
:1018F000114A136823F00F0343F0070313600F4BE3
:1019000000229A61DA611A620E4999620E49D9621F
:101910000E4919635A639963DA6319645A64196842
:1019200021F4802119601A66094B43F2D2021A6031
:10193000704700BF00ED00E0002000520044025854
:101940007FEDF6EA000202020000FF0180020101C1
:101950000040005284B003681A4A934207D0B3F1A2
:10196000804F12D0184A93421DD004B07047174BD5
:10197000D3F8F02042F00102C3F8F020D3F8F030A1
:1019800003F001030193019BEFE7104BD3F8E8202C
:1019900042F00102C3F8E820D3F8E83003F0010375
:1019A0000293029BE1E7094BD3F8E82042F00202E0
:1019B000C3F8E820D3F8E83003F002030393039B55
:1019C000D3E700BF0000014000040040004402587B
:1019D00000B589B0002303930493059306930793FE
:1019E0000368294A934208D0B3F1804F1ED0274A9A
:1019F000934233D009B05DF804FB254BD3F8E020C7
:101A000042F01002C3F8E020D3F8E03003F01003F6
:101A10000093009B4FF40853039302230493012384
:101A2000079303A91B4800F05FFAE3E7184BD3F8CC
:101A3000E02042F00102C3F8E020D3F8E03003F0E8
:101A400001030193019B05230393022304930123C4
:101A5000079303A9104800F047FACBE70C4BD3F8E3
:101A6000E02042F00202C3F8E020D3F8E03003F0B7
:101A700002030293029B022303930493079303A997
:101A8000064800F031FAB5E70000014000040040CC
:101A90000044025800100258000002580004025886
:101AA00010B59CB00024189419941A941B941594A2
:101AB000169417940E940F941094119412941394F6
:101AC00014943422214601A807F0EEFF3548364B26
:101AD0000360C7234360846045F6BF53C36004615D
:101AE00044618023836103F0E1FD002845D14FF478
:101AF0008053189318A92B4803F02CFF00283FD1DE
:101B0000284803F003FE00283DD1002315931693C7
:101B1000179315A9234804F089F8002836D16023CB
:101B20000E9300220F92109211921292139214921D
:101B30000EA91C4803F064FE58BB08220EA91948E0
:101B400003F05EFE40BB00230193029303930493D2
:101B500005934FF400520692079309934FF00072D9
:101B60000A920B930D9301A90E4804F0B7F8B0B98F
:101B70000C48FFF72DFF1CB010BDFFF787FCB6E740
:101B8000FFF784FCBCE7FFF781FCBEE7FFF77EFCB4
:101B9000C5E7FFF77BFCD0E7FFF778FCD3E7FFF75B
:101BA00075FCE5E7446D00240000014000B58FB0EE
:101BB00000230A930B930C930D93079308930993B7
:101BC000009301930293039304930593069326488D
:101BD0004FF080420260C7224260836045F6BF52E8
:101BE000C26003618023836103F060FD50BB4FF44A
:101BF00080530A930AA91C4803F0ACFE28BB1A487C
:101C000003F084FD20BB00230793099307A916481E
:101C100004F00CF8F8B960230093002201920292BC
:101C200004926946104803F0EBFDB8B908226946F2
:101C30000D4803F0E5FDA0B90B48FFF7C9FE0FB052
:101C40005DF804FBFFF722FCD1E7FFF71FFCD6E7A6
:101C5000FFF71CFCD7E7FFF719FCDCE7FFF716FCE2
:101C6000E4E7FFF713FCE7E7F86C002400B58FB05A
:101C700000230A930B930C930D93079308930993F6
:101C800000930193029303930493059306932248D0
:101C9000224A026017224260836042F20F72C260E1
:101CA00003618023836103F001FD28BB4FF480535F
:101CB0000A930AA9184803F04DFE00BB164803F02A
:101CC00025FDF8B900230793099307A9124803F0EB
:101CD000ADFFD0B9602300930023019302930493D6
:101CE0000C2269460C4803F08BFD88B90A48FFF7BF
:101CF0006FFE0FB05DF804FBFFF7C8FBD6E7FFF7F8
:101D0000C5FBDBE7FFF7C2FBDCE7FFF7BFFBE1E763
:101D1000FFF7BCFBEAE700BFAC6C00240004004006
:101D2000DFF834D0FFF7C0FD0C480D490D4A002301
:101D300002E0D458C4500433C4188C42F9D30A4A80
:101D40000A4C002301E013600432A242FBD307F0E7
:101D500003FFFFF7FBFB7047000005240000002491
:101D600064020024B0A3000864020024E8CA00242E
:101D7000FEE7000010B5032000F090F801F0AAFB88
:101D80000F498B69C3F303230E4AD35C03F01F038F
:101D9000D8408B6903F00F03D35C03F01F0320FAD4
:101DA00003F3094A1360094B18600F20FFF71EFD6B
:101DB00010B10124204610BD0446FFF7FDFCF9E7F1
:101DC0000044025854A30008140000241800002402
:101DD000034B1B78034A11680B441360704700BF24
:101DE0001C000024906D0024014B1868704700BF50
:101DF000906D002438B50446FFF7F6FF0546B4F1B0
:101E0000FF3F02D0044B1B781C44FFF7EDFF401B43
:101E1000A042FAD338BD00BF1C000024002807DB15
:101E200000F01F02400901239340024A42F820308B
:101E3000704700BF00E100E0002804DB0901C9B2DF
:101E4000044B1954704700F00F000901C9B2024B4E
:101E50001954704700E400E014ED00E000B500F014
:101E60000700C0F1070CBCF1040F28BF4FF0040CB1
:101E7000031D062B0FD9C31E4FF0FF3E0EFA0CF0C8
:101E800021EA000199400EFA03FE22EA0E0241EA1D
:101E900002005DF804FB0023EEE700000649CB6872
:101EA00023F4E0631B041B0C000200F4E060034316
:101EB000024A1A43CA60704700ED00E00000FA05CC
:101EC00010B50446054BD868C0F30220FFF7C6FFE3
:101ED00001462046FFF7B0FF10BD00BF00ED00E057
:101EE00008B5FFF79BFF08BDF0B583B000236BE09A
:101EF00085685E000324B44025EA0405CC68B4403C
:101F00002C438460456825EA0C054C68C4F3001432
:101F10009C402C43446069E0DD08083550F82540BA
:101F200003F0070C4FEA8C0C4FF00F0E0EFA0CFE6C
:101F300024EA0E0E0C6904FA0CF444EA0E0440F88C
:101F400025406BE0092400E0002404FA0EF42C4341
:101F50000CF1020C664D45F82C404FF0B04425685A
:101F6000D44325EA02064F6817F4801F01D042EAE5
:101F700005064FF0B0452E606D6804EA05064F680F
:101F800017F4001F01D042EA05064FF0B0456E601D
:101F9000D5F8845004EA05064F6817F4003F01D0D5
:101FA00042EA05064FF0B045C5F88460D5F8805088
:101FB0002C404E6816F4803F01D042EA05044FF0F1
:101FC000B042C2F8804001330A6832FA03F400F0EC
:101FD0008C804FF0010C0CFA03FC1CEA0202F2D0D8
:101FE0004C6804F00304013C012C81D94C6804F0D6
:101FF0000304032C0CD0C4685D004FF0030C0CFAF2
:1020000005FC24EA0C0C8C68AC4044EA0C04C46067
:102010004C6804F00304022C3FF47EAF04684FEADE
:10202000430E4FF0030C0CFA0EFC24EA0C0C4C6827
:1020300004F0030404FA0EF444EA0C0404604C684F
:1020400014F4403FBFD02B4CD4F8F45045F00205B7
:10205000C4F8F450D4F8F44004F002040194019C54
:102060004FEA930C0CF10205214C54F8255003F073
:10207000030E4FEA8E0E0F2404FA0EF425EA04052F
:102080001D4CA0423FF460AF04F58064A0421ED016
:1020900004F58064A0421CD004F58064A0421AD0EC
:1020A00004F58064A04218D004F58064A04216D0E4
:1020B00004F58064A04214D004F58064A04212D0DC
:1020C00004F50064A0423FF43DAF0A243DE701243B
:1020D0003BE7022439E7032437E7042435E70524E6
:1020E00033E7062431E707242FE703B0F0BD00BF34
:1020F0000004005800440258000002580AB18161EF
:1021000070470904816170472DE9F04383B0D0F82E
:10211000008001EBC10300EB83039A6A5B6A9A4279
:1021200054D807460C469B1A01EBC10200EB820211
:10213000D2699A4200D31A4602F103094FEA99097B
:1021400015E006F103094FEA9909BB7904EBC405D0
:1021500007EB8505296A0093B3B2E2B2404604F06A
:1021600048F92B6A33442B62AB6A3344AB6208EB09
:10217000441303F510639B699BB24B4512D304EBE8
:10218000C40307EB83039A6A5B6A9A420AD24BB193
:102190009B1A04EBC40207EB8202D6699E42D0D39D
:1021A0001E46CEE704EBC40307EB83077A6ABB6ADB
:1021B0009A420FD804F00F040122A240D8F8343814
:1021C00023EA0203C8F83438002000E0012003B0FD
:1021D000BDE8F0830020FAE730B583B000287AD05C
:1021E000044690F89534ABB1032384F89534206805
:1021F00003F0B6FE237C8DF80030231D0ECB206843
:1022000003F0E4FD58B1022384F8953401252846F3
:1022100003B030BD80F8943407F0F6FAE4E700210B
:10222000206804F0F6FA024608B9034617E00223D4
:1022300084F895340125EAE703EBC30104EB81013F
:10224000012048750B75CB8500200876C8610862AF
:1022500003EBC30104EB810148620133DBB2207957
:102260009842E9D816E002EBC20304EB8303002195
:1022700083F8551283F8542283F85812C3F85C127D
:10228000C3F8601202EBC20304EB8303C3F86412C9
:102290000132D2B29042E6D8237C8DF80030231D63
:1022A0000ECB206803F0B2FE054658B900236374D4
:1022B000012384F89534237B012B08D0206804F097
:1022C00067FAA4E7022384F8953401259FE72046A6
:1022D00000F074FDF2E7012599E7036890F8942473
:1022E000012A1AD010B50446012280F89424DA6835
:1022F00012F0400F02D0427B012A09D0206803F07F
:1023000029FE206804F036FA002084F8940410BDF9
:102310009A6B42F480329A63F0E702207047000023
:1023200070B504460D460068066C00EB411303F5DA
:1023300030639A68A179012911D038498E4256D06C
:102340003DB905EBC50304EB8303D3F86432002BDE
:102350005ED0E9B2204607F099FA002070BD12F075
:10236000080F09D02E498E42F7D912F4004FF4D04D
:102370004FF400429A60F0E712F0200F02D02022C2
:102380009A60EAE712F0280FE7D125498E4206D974
:1023900012F4004F03D04FF400429A60DDE705EBE2
:1023A000C50204EB8202D2F874121B69C3F3120354
:1023B000CB1AC2F868327DB905EBC50204EB820284
:1023C000D2F864226AB105EBC50204EB8202D2F8AE
:1023D00060121944C2F86012E9B2204607F056FABA
:1023E000BBE704F29C42012104F052FAF4E712F434
:1023F000004F03D04FF400429A60AEE712F0200F76
:1024000001D020229A60E9B2204607F03FFAA4E703
:1024100004F29C42002104F03BFA9AE70A31544F3F
:102420000A30544F38B5044603681D6C03EB411362
:10243000D3F8081B0E4A954207D903F5306311F40F
:10244000004F02D04FF400429A60204607F016FA7F
:10245000074B9D4202D9A379012B01D0002038BD42
:1024600004F29C420121206804F012FAF6E700BF52
:102470000A30544F90F89434012B0CD010B5044618
:10248000012380F894344174006804F063F900205B
:1024900084F8940410BD0220704738B505468C4678
:1024A00011F0800F29D101F00F0E0EEBCE04A40025
:1024B00004F514740444211D0EEBCE0E00EB8E0EB9
:1024C00000208EF855020CF00F0C81F800C08A60D5
:1024D0000B714A780AB1A1F81AC0022B1CD095F8EA
:1024E0009434012B1BD0012385F89434286803F021
:1024F00065FE002085F8940438BD01F00F0000EB64
:10250000C001890010312944043100EBC00005EB03
:10251000800001244475D6E700234B71DFE70220D9
:10252000EAE710B504460A4611F0800F20D101F009
:102530000F0000EBC0039B0003F514732344191D27
:1025400000EBC00004EB8000002380F8553202F05D
:102550000F020A7094F89434012B18D0012384F8E8
:102560009434206803F076FE002084F8940410BDB3
:1025700001F00F0000EBC0039B0010332344191D32
:1025800000EBC00004EB800001234375DFE702206D
:10259000EDE710B5144601F00F0C0CEBCC018900EF
:1025A00001F51471014404310CEBCC0E00EB8E0EDE
:1025B000CEF86022CEF864320023CEF868328EF86E
:1025C00055328EF854C28279012A04D0006803F093
:1025D00027FF002010BDCEF87042F7E701F00F0191
:1025E00001EBC10100EB8100D0F86802704710B523
:1025F000144601F00F0C0CEBCC01890010310144A2
:1026000004310CEBCC0E00EB8E0ECEF82020CEF871
:1026100024300023CEF8283001238EF815308EF8B0
:1026200014C082799A4204D0006803F0F9FE0020B9
:1026300010BDCEF83040F7E738B501F00F0502794C
:10264000AA4238D304460B4611F0800F1FD101EB8C
:10265000C101890001F514710144043103EBC30386
:1026600000EB8303002283F8552201238B700D7049
:1026700094F89434012B20D0012384F894342068FA
:1026800004F00DF885B1002084F8940438BD05EB02
:10269000C501890010310144043105EBC50300EB8D
:1026A000830301225A75E0E704F29C42A179206875
:1026B00004F0EEF8E7E70120E8E70220E6E701F0A2
:1026C0000F0302799A4230D310B5044611F0800FFF
:1026D0001ED103EBC301890001F5147101440431DB
:1026E00003EBC30200EB8202002082F855020022B5
:1026F0008A700B7094F89434012B18D0012384F85D
:102700009434206803F0F8FF002084F8940410BD8E
:1027100003EBC301890010310144043103EBC30210
:1027200000EB820201205075E1E701207047022092
:10273000EDE708B511F0800F0CD101F00F0101EBAE
:10274000C101890001F5147101440431006803F0EE
:10275000F1FD08BD01F00F0101EBC101890010314D
:1027600001440431F2E72DE9F04F83B004460568D7
:10277000284604F04AF810B103B0BDE8F08F0646D1
:10278000206804F013F80028F6D005F50067BB6850
:10279000C3F30D23C4F8D434206804F007F810F014
:1027A000020F04D02268536903F0020353612068CA
:1027B00003F0FCFF10F0100F16D02268936923F08D
:1027C00010039361D5F8208008F00F0908F4F01386
:1027D000B3F5802F6AD0B3F5402F00F08D802268CA
:1027E000936943F010039361206803F0DFFF10F456
:1027F000002F40F09380206803F0D8FF10F4802F62
:1028000040F0FC80206803F0D1FF0028C0F27D81F9
:10281000206803F0CBFF10F4006F09D0BB6813F001
:10282000010F40F08A812268536903F40063536109
:10283000206803F0BBFF10F0006F15D022685369C9
:1028400003F00063536194F8CC34002B40F079819D
:10285000012184F8CC1423685B6DC3F38303C4F8AF
:10286000D034204600F0BEFA206803F09FFF10F439
:10287000805F40F06A81206803F098FF10F4005FE9
:1028800040F0B681206803F091FF10F0080F40F08F
:10289000C781206803F08AFF10F0800F00F0DA8112
:1028A000AB6923F08003AB610126C3E147F6F07307
:1028B00018EA030F93D04FEA181A4FEAC90301939D
:1028C00009EBC90B04EB8B0BC8F30A12DBF860129F
:1028D000284603F0C1FEDBF86032CAF30A0A53440B
:1028E000CBF86032DBF86832019A4A4404EB82028A
:1028F0005344C2F8683272E7082204F29C41284629
:1029000003F0AAFE09EBC90304EB8303D3F86822A2
:10291000C8F30A184244C3F8682260E7206803F04D
:1029200049FF8046B14635E005EB49130122C3F863
:10293000082B49462046FFF7F3FC3CE005EB491322
:102940000822C3F8082B49462046FFF76BFD35E007
:1029500009EBC90304EB830393F85732012B41D0F1
:1029600005EB49130222C3F8082B1AF0200F04D0FC
:1029700005EB49132022C3F8082B1AF4005F05D099
:1029800005EB49134FF40052C3F8082B09F1010974
:102990004FEA5808B8F1000F3FF42DAF18F0010FBF
:1029A000F4D05FFA89FB5946206803F013FF824692
:1029B00010F0010FB8D11AF0080FBFD11AF0100FA4
:1029C00004D005EB49131022C3F8082B1AF0020FAC
:1029D000CBD06B6913F0800FBAD07B6843F480636F
:1029E0007B60B5E709EBC90304EB8303002283F89E
:1029F00057225946204606F099FFB1E7206803F0B8
:102A0000E1FE8046B14625E05946204606F04AFFE1
:102A10001AF0080F04D005EB49130822C3F808295F
:102A20001AF0100F04D005EB49131022C3F808293F
:102A30001AF0400F04D005EB49134022C3F80829CF
:102A40001AF0020F40D11AF0800F59D109F1010993
:102A50004FEA5808B8F1000F3FF4D4AE18F0010F58
:102A6000F4D05FFA89FB5946206803F0BCFE824629
:102A700010F0010FCCD009F00F02012101FA02F28F
:102A80007B6B23EA02037B6305EB4913C3F8081948
:102A9000A3798B42B8D109EBC90304EB83031A6A0B
:102AA000D9690A441A62B9F1000FADD109EBC90323
:102AB00004EB83035B6A002BA6D104F29C42012144
:102AC000206803F0E5FE9FE74946284603F04EFAEA
:102AD00009EBC90304EB8303DB7D012B05D005EB78
:102AE00049130222C3F80829ADE709EBC90304EB37
:102AF00083030022DA755946204606F01DFFEEE7F3
:102B000049462046FFF700FBA0E77B6823F001035E
:102B10007B6094F8CC34012B08D0204606F000FFEF
:102B20002268536903F00043536171E6002184F881
:102B3000CC14204600F056F9F2E7204606F0D8FE05
:102B400071E6204606F0D4FE8EE67B6823F0010392
:102B50007B601021206803F009FA1AE005EB4613A8
:102B60004FF67F31C3F80819D3F8002922F4001278
:102B7000C3F80029C3F8081BD3F8002B22F4001275
:102B8000C3F8002BD3F8002B42F00062C3F8002BEF
:102B900001362379B342E1D8FB6943F00113FB61AD
:102BA000E37BDBB1D7F8843043F00B03C7F8843004
:102BB0007B6C43F00B037B64D5F8003823F4FE6391
:102BC000C5F8003804F29C42A179206803F060FE49
:102BD0002268536903F4805353614CE67A6942F2E8
:102BE0002B0313437B613B6943F00B033B61E3E73A
:102BF000206803F03FFE206803F0CEFAE0712668FB
:102C000000F0AEFE0146E279304603F031F920468D
:102C100006F059FE2268536903F40053536131E60C
:102C2000204606F04AFE2268536903F00803536108
:102C30002FE601362379B3420CD906EBC60304EB29
:102C4000830393F85732012BF3D1F1B22046FFF7FB
:102C500070FDEEE7206803F0A9FD10F4801F25D178
:102C6000206803F0A3FD10F4001F59D0012326E0D3
:102C700001362379B3421BD905EB4613D3F800295B
:102C800006EBC60304EB83031B7E012BF0D1002A65
:102C9000EEDA06EBC60304EB83030122DA7566F075
:102CA0007F01C9B22046FFF744FDE1E70126E0E7D6
:102CB0002268536903F480135361D1E70133227909
:102CC0009A4228D905EB4312D2F8001B03EBC3024A
:102CD00004EB820292F85822012AEFD10029EDDAA2
:102CE00001F48031D4F8D42402F001029142E5D1FC
:102CF00003EBC30204EB8202012182F85712AA6996
:102D000042F08002AA616A6912F0800FD6D17B6816
:102D100043F400737B602268536903F4001353612A
:102D2000206803F043FD10F0804F10D1206803F0BD
:102D30003DFD10F0040F3FF41FAD23685D6815F0F2
:102D4000040F0DD1226853682B43536014E52046CD
:102D500006F0F8FD2268536903F080435361E5E70C
:102D6000204606F0F5FDEDE710B40468606A31B95D
:102D700040EA0240A06200205DF8044B70478C4698
:102D8000A36A00EB1340002308E003F1400104EBC9
:102D90008101496800EB11400133DBB20CF1FF31D6
:102DA0008B42F2D340EA02400CF13F0104EB810474
:102DB0006060E0E7036859620020704703460268DC
:102DC0000121C0F8D814002083F8CC04936943F0A3
:102DD00000639361516D024B0B435365704700BF15
:102DE0000300001070470000134BDB6813F0040F62
:102DF00007D1114BDB6803F0070383421AD001208F
:102E0000704710B50C4AD36823F007030343D3601F
:102E1000FEF7EAFF0446084B5B6813F4005F07D136
:102E2000FEF7E2FF001BB0F57A7FF4D9012000E045
:102E3000002010BD0020704700480258024AD368A5
:102E400043F08073D360704700480258002800F0B8
:102E5000D58238B50446036813F0010F25D0A04A87
:102E6000136903F03803926A102B15D0182B0FD07A
:102E70006368B3F5803F3FD0002B53D1984B1A685D
:102E800022F480321A601A6822F480221A6038E034
:102E900002F00302022AEBD1914B1B6813F4003FAE
:102EA00003D06368002B00F0AB82236813F0020F9D
:102EB00000F088808A4A1369926A13F038035AD066
:102EC000182B55D0E368002B00F0A98084490A68CC
:102ED00022F0190213430B60FEF786FF0546804B74
:102EE0001B6813F0040F40F09180FEF77DFF401B3C
:102EF0000228F4D903208AE2794A136843F4803324
:102F0000136063682BB3FEF76FFF0546744B1B68B5
:102F100013F4003FC9D1FEF767FF401B6428F5D9C1
:102F2000032074E2B3F5A02F09D06D4B1A6822F488
:102F300080321A601A6822F480221A60E1E7684B36
:102F40001A6842F480221A601A6842F480321A60C9
:102F5000D7E7FEF749FF0546614B1B6813F4003FB6
:102F6000A3D0FEF741FF401B6428F5D903204EE2B1
:102F700012F0030FA6D15A4B1B6813F0040F03D0B5
:102F8000E368002B00F03E82554A136823F01903D2
:102F9000E1680B431360FEF727FF0546504B1B68A3
:102FA00013F0040F06D1FEF71FFF401B0228F5D9CE
:102FB00003202CE24A4A536823F0FE43216943EA86
:102FC00001635360236813F0100F51D0444A136912
:102FD00003F03803926A082B39D0182B33D0E369F9
:102FE000002B69D03E4A136843F080031360FEF75C
:102FF000FBFE05463A4B1B6813F4807F53D1FEF766
:10300000F3FE401B0228F5D9032000E2344A53683E
:1030100023F0FE43216943EA01635360D2E7304A5B
:10302000136823F001031360FEF7DEFE05462C4B08
:103030001B6813F0040FC5D0FEF7D6FE401B022814
:10304000F5D90320E3E102F00302012AC7D1244BA2
:103050001B6813F4807F03D0E369802B40F0D48198
:103060001F4AD36823F07C53216A43EA0163D3608B
:10307000236813F0080F49D06369002B32D0184A37
:10308000536F43F001035367FEF7AEFE0546144B42
:103090005B6F13F0020F39D1FEF7A6FE401B02282A
:1030A000F5D90320B3E10E4AD36823F07C53216A9B
:1030B00043EA0163D360DBE7094A136823F0800326
:1030C0001360FEF791FE0546054B1B6813F4807FE5
:1030D000CED0FEF789FE401B0228F5D9032096E1E9
:1030E000004402589D4A536F23F001035367FEF7D3
:1030F0007BFE0546994B5B6F13F0020F06D0FEF77F
:1031000073FE401B0228F5D9032080E1236813F0E9
:10311000200F29D0A3699BB1904A136843F48053D0
:103120001360FEF761FE05468C4B1B6813F4005FCD
:103130001AD1FEF759FE401B0228F5D9032066E19B
:10314000864A136823F480531360FEF74DFE05464C
:10315000824B1B6813F4005F06D0FEF745FE401B50
:103160000228F5D9032052E1236813F0040F21D17E
:10317000636A002B00F04A81784A126902F0380233
:10318000182A00F0F180022B75D0744A136823F0DE
:1031900080731360FEF728FE0446704B1B6813F023
:1031A000007F00F0D880FEF71FFE001B0228F4D934
:1031B00003202CE16A4A136843F480731360FEF71E
:1031C00013FE0546664B1B6813F4807F06D1FEF79D
:1031D0000BFE401B6428F5D9032018E1A368012BDE
:1031E0000AD00BBB5D4B1A6F22F001021A671A6FEF
:1031F00022F004021A6704E0584A136F43F00103F7
:103200001367A36833B3FEF7EFFD0546534B1B6FFF
:1032100013F0020FACD1FEF7E7FD401B41F28833FB
:103220009842F3D90320F2E0052B09D04B4B1A6FDB
:1032300022F001021A671A6F22F004021A67E0E70F
:10324000464B1A6F42F004021A671A6F42F00102ED
:103250001A67D6E7FEF7C8FD0546404B1B6F13F013
:10326000020F85D0FEF7C0FD401B41F28833984223
:10327000F3D90320CBE0394A136823F0807313603D
:10328000FEF7B2FD0546354B1B6813F0007F06D0F4
:10329000FEF7AAFD401B0228F5D90320B7E02F4B0B
:1032A000996A304A0A40A16AE06A41EA00110A4379
:1032B0009A62226B013AC2F30802616B013949023A
:1032C00089B20A43A16B0139090401F4FE010A43E2
:1032D000E16B0139090601F0FE410A431A63DA6A1B
:1032E00022F00102DA625A6B6FF3CF02A16C42EA5C
:1032F000C1025A63DA6A22F00C02216C0A43DA62D4
:10330000DA6A22F00202616C0A43DA62DA6A42F493
:103310008032DA62DA6A42F40032DA62DA6A42F45D
:103320008022DA62DA6A42F00102DA621A6842F056
:1033300080721A60FEF758FD0446084B1B6813F0B4
:10334000007F06D1FEF750FD001B0228F5D90320AF
:103350005DE000205BE0002059E000BF004402581F
:10336000004802580CFCFFFF30498A6A086B012BA9
:103370004ED002F00303A16A8B424BD1C2F3051277
:10338000E36A9A4248D1C0F30802236B013B9A4298
:1033900044D1C0F34622636B013B9A4240D1C0F353
:1033A0000642A36B013B9A423CD1C0F30660E36B3B
:1033B000013B984238D11D4B5B6BC3F3CC03A26C2D
:1033C0009A4201D1002022E0184AD36A23F0010377
:1033D000D362FEF709FD0546FEF706FDA842FBD0C5
:1033E000124A536B6FF3CF03A16C43EAC1035363DB
:1033F000D36A43F00103D362002008E00120704744
:10340000012004E0012002E0012000E0002038BD9E
:103410000120FCE70120FAE70120F8E70120F6E7A8
:103420000120F4E70120F2E70120F0E70044025810
:1034300070B588B00C46154610BB234ED6F8E03068
:1034400043F00103C6F8E030D6F8E03003F00103A2
:103450000193019B4FF4807303930223049303238E
:10346000069300230593079303A91848FEF73CFD34
:10347000336923F0FE7325431D43356108B070BDE9
:10348000114ED6F8E03043F00403C6F8E030D6F829
:10349000E03003F004030293029B4FF400730393A4
:1034A000022304930323069300230593079303A9A0
:1034B0000748FEF719FD336923F07E4344EAC5143B
:1034C0001C433461DAE700BF004402580000025890
:1034D00000080258754B1B6903F03803102B00F0ED
:1034E000DE80182B0FD0002B40F0DB806F4B1B6869
:1034F00013F0200F00F0D7806C4B1B68C3F3C1039F
:103500006B48D840704710B4684B9A6A02F00302C7
:103510009C6AC4F30510D96A01F001015B6BC3F327
:10352000CC0301FB03F307EE903AF8EE677A14F44C
:103530007C7F77D0012A4AD0022A76D0002A40F038
:1035400091805A4B1B6813F0200F23D057490A680B
:10355000C2F3C102564BD34007EE103AF8EE476A69
:1035600007EE100AB8EE476A86EE867A0B6BC3F355
:10357000080306EE903AF8EE666A9FED4E6A67EE33
:10358000867A76EEA77AF7EE006A77EEA67A27EECD
:10359000277A38E007EE100AF8EE476A9FED466A90
:1035A00086EE267A414B1B6BC3F3080306EE903A76
:1035B000F8EE666A9FED3F6A67EE867A76EEA77A46
:1035C000F7EE006A77EEA67A27EE277A1BE007EE81
:1035D000100AF8EE476A9FED396A86EE267A334B79
:1035E0001B6BC3F3080306EE903AF8EE666A9FED94
:1035F000316A67EE867A76EEA77AF7EE006A77EEA2
:10360000A67A27EE277A294B1B6BC3F34623013397
:1036100007EE903AF8EE677AC7EE276AFCEEE67A94
:1036200017EE900A5DF8044B704707EE100AF8EEAB
:10363000476A9FED236A86EE267A1C4B1B6BC3F309
:10364000080306EE903AF8EE666A9FED1A6A67EE96
:10365000867A76EEA77AF7EE006A77EEA67A27EEFC
:10366000277AD0E707EE100AF8EE476A9FED136A53
:1036700086EE267A0D4B1B6BC3F3080306EE903AD9
:10368000F8EE666A9FED0B6A67EE867A76EEA77AA9
:10369000F7EE006A77EEA67A27EE277AB3E70948B5
:1036A0007047094870470248704700BF00440258FD
:1036B0000090D003000000390024744C0024744AA8
:1036C000001BB74B00366E0100093D00002800F0DA
:1036D000328170B50D4604469B4B1B6803F00F0307
:1036E0008B420BD2984A136823F00F030B431360ED
:1036F000136803F00F038B4240F01F81236813F01F
:10370000040F0CD02269914B9B6903F070039A421D
:1037100005D98E498B6923F070031A438A612368A7
:1037200013F0080F0CD06269884BDB6903F070035B
:103730009A4205D98549CB6923F070031A43CA61BF
:10374000236813F0100F0CD0A269804BDB6903F4DF
:10375000E0639A4205D97D49CB6923F4E0631A43BB
:10376000CA61236813F0200F0CD0E269774B1B6A03
:1037700003F070039A4205D974490B6A23F0700371
:103780001A430A62236813F0020F0CD0E2686F4BF1
:103790009B6903F00F039A4205D96C498B6923F0AA
:1037A0000F031A438A61236813F0010F41D0674A5F
:1037B000936923F47063A1680B4393616368022BE0
:1037C0000AD0032B27D0012B2CD0604A126812F0AC
:1037D000040F06D10120ADE0126812F4003F00F0A2
:1037E000AE805A490A6922F0070213430B61FEF7C3
:1037F000FBFA0646554B1B6903F038036268B3EBCE
:10380000C20F16D0FEF7F0FA801B41F288339842BF
:10381000F0D903208EE04D4A126812F0007FE0D10B
:10382000012087E0494A126812F4807FD9D1012033
:1038300080E0236813F0020F0CD0E268434B9B69D1
:1038400003F00F039A4205D240498B6923F00F031E
:103850001A438A613C4B1B6803F00F03AB420AD941
:10386000394A136823F00F032B431360136803F0E6
:103870000F03AB4265D1236813F0040F0CD022690B
:10388000324B9B6903F070039A4205D22F498B6932
:1038900023F070031A438A61236813F0080F0CD0D9
:1038A00062692A4BDB6903F070039A4205D227490B
:1038B000CB6923F070031A43CA61236813F0100F19
:1038C0000CD0A269214BDB6903F4E0639A4205D274
:1038D0001E49CB6923F4E0631A43CA61236813F0DD
:1038E000200F0CD0E269194B1B6A03F070039A4257
:1038F00005D216490B6A23F070031A430A62FFF7D8
:10390000E9FD12498B69C3F30323114AD35C03F029
:103910001F03D8408B6903F00F03D35C03F01F0330
:1039200020FA03F30B4A13600B4B18600B4B18681B
:10393000FDF75CFF70BD012070470120FAE7012010
:10394000F8E70120F6E700BF0020005200440258CB
:1039500054A30008140000241800002420000024B0
:1039600008B5FFF7B7FD0B4A9369C3F303230A4970
:10397000CB5C03F01F0320FA03F3926902F00F02FD
:10398000885C00F01F0023FA00F0044A1060044A2B
:10399000136008BD0044025854A30008140000241A
:1039A0001800002408B5FFF7DBFF054BDB69C3F304
:1039B0000223044AD35C03F01F03D84008BD00BFB4
:1039C0000044025854A300083F230360114B1A69B6
:1039D00002F0070242609A6902F4706282609A699A
:1039E00002F00F02C2609A6902F070020261DA69A5
:1039F00002F070024261DA6902F4E06282611B6ADD
:103A000003F07003C361044B1B6803F00F030B60EA
:103A1000704700BF0044025800200052404B9B6A90
:103A200003F00303032B79D070B505460E463C4ADC
:103A3000136823F080631360FEF7D6F90446384B11
:103A40001B6813F0006F06D0FEF7CEF9031B022BA4
:103A5000F5D9032070BD324B9A6A22F47C32296872
:103A600042EA01329A626A68013AC2F30802A9681E
:103A70000139490289B20A43E9680139090401F4AC
:103A8000FE010A4329690139090601F0FE410A4392
:103A90009A63DA6A22F0C00269690A43DA62DA6A72
:103AA00022F02002A9690A43DA62DA6A22F01002DF
:103AB000DA62DA6B6FF3CF02E96942EAC102DA63D4
:103AC000DA6A42F01002DA62C6B91A46DB6A43F4D7
:103AD0000023D362124A136843F080631360FEF739
:103AE00083F904460E4B1B6813F0006F14D1FEF7E8
:103AF0007BF9001B0228F5D90320ABE7012E05D086
:103B0000074AD36A43F40013D362E3E7044AD36A53
:103B100043F48013D362DDE700209BE70120704768
:103B200000440258404B9B6A03F00303032B79D0F7
:103B300070B505460E463C4A136823F08053136067
:103B4000FEF752F90446384B1B6813F0005F06D0AD
:103B5000FEF74AF9031B022BF5D9032070BD324B47
:103B60009A6A22F07C72296842EA01529A626A6873
:103B7000013AC2F30802A9680139490289B20A432D
:103B8000E9680139090401F4FE010A432969013990
:103B9000090601F0FE410A431A64DA6A22F440621F
:103BA00069690A43DA62DA6A22F40072A9690A438F
:103BB000DA62DA6A22F48072DA625A6C6FF3CF0248
:103BC000E96942EAC1025A64DA6A42F48072DA624E
:103BD000C6B91A46DB6A43F48003D362124A1368FB
:103BE00043F080531360FEF7FFF804460E4B1B684A
:103BF00013F0005F14D1FEF7F7F8001B0228F5D987
:103C00000320ABE7012E05D0074AD36A43F0807347
:103C1000D362E3E7044AD36A43F40003D362DDE7E7
:103C200000209BE70120704700440258F8B5044685
:103C3000036813F0006F2FD0436EB3F5001F25D03B
:103C400015D8E3B1B3F5801F0ED102210830FFF77C
:103C5000E5FE054675BB934A136D23F44013616E70
:103C60000B431365002619E00126354616E0B3F52F
:103C7000401F01D10025EEE7012635460EE0894AB6
:103C8000D36A43F40033D3620025E4E702212830ED
:103C9000FFF748FF0546DDE700263546236813F4A5
:103CA000807F29D0A36D042B22D8DFE803F0051311
:103CB0001A0A0A002E46F1E77A4AD36A43F400331F
:103CC000D362C5B9774A136D23F00703A16D0B4387
:103CD000136511E0002104F10800FFF79FFE05467F
:103CE000EFE7002104F12800FFF71CFF0546E8E795
:103CF0000126354600E02E46236813F4806F2DD050
:103D0000D4F8A430B3F5800F3DD00DD8C3B1B3F5CE
:103D1000001F06D1002104F10800FFF77FFE0546D1
:103D200013E00126354619E0B3F5000F0DD0B3F5C9
:103D3000200F0AD0B3F5C00F07D0012635460DE09D
:103D4000584AD36A43F40033D3621DBB554A936D7E
:103D500023F46003D4F8A4100B439365236813F491
:103D6000006F37D0D4F8A830B3F1007F5ED016D8FA
:103D70000BB3B3F1807F0FD1002104F10800FFF7EE
:103D80004DFE05461CE0002104F12800FFF7CAFEA5
:103D90000546DAE72E46E1E7012635461AE0B3F19B
:103DA000806F0DD0B3F1A06F0AD0B3F1407F07D080
:103DB000012635460EE03B4AD36A43F40033D36212
:103DC000002D3AD1374A936D23F0E063D4F8A81060
:103DD0000B439365236813F0007F13D0E36C202B13
:103DE00035D02FD833B1102B29D12E4AD36A43F4C2
:103DF0000033D36295BB2B4AD36C23F03003E16CC4
:103E00000B43D364236813F4805F4ED0E36DB3F5A6
:103E1000005F3FD027D87BB3B3F5805F20D100216E
:103E200004F10800FFF7FAFD05462AE0002104F13D
:103E30002800FFF777FE0546C2E72E46CAE70126AF
:103E40003546DFE7302BD5D001263546DAE70221AB
:103E500004F10800FFF7E2FD0546CBE72E46D1E767
:103E60000126354621E0B3F5405F0AD0B3F5804F17
:103E700007D00126354618E00A4AD36A43F40033D6
:103E8000D3628DB9074A136D23F4E043E16D0B4310
:103E900013650AE0002104F12800FFF743FE054600
:103EA000EFE700BF004402582E46236813F4005F7A
:103EB00017D0236EB3F5003F4FD042D843B1B3F5CE
:103EC000803F3BD1012104F10800FFF7A7FD054623
:103ED000002D49D1924A136D23F4E023216E0B4348
:103EE0001365236813F4804F19D0D4F8AC30B3F1C4
:103EF000005F4AD03DD843B1B3F1805F36D1012194
:103F000004F10800FFF78AFD0546002D44D1844ADC
:103F1000936D23F0E043D4F8AC100B439365236812
:103F200013F4004F47D0E36EB3F1805F36D0B3F1A6
:103F3000005F4BD0BBB3012635463CE00126354639
:103F4000CFE7B3F5802FC3D0B3F5A02FC0D0B3F522
:103F5000403FBDD001263546C3E7012104F12800CA
:103F6000FFF7E0FD0546B3E72E46BAE701263546E2
:103F7000D5E7B3F1804FC8D0B3F1A04FC5D0B3F1AE
:103F8000405FC2D001263546C9E7012104F128006F
:103F9000FFF7C8FD0546B8E72E46C0E7604AD36A7A
:103FA00043F40033D362C5B95D4A136D23F0405327
:103FB000E16E0B431365236813F0807F1CD0A36C64
:103FC000032B44D8DFE803F0100B3C10012104F16F
:103FD0000800FFF723FD0546E5E72E46EBE7504ACC
:103FE000D36A43F40033D362A5BB4D4AD36C23F0AC
:103FF0000303A16C0B43D364236813F4800F2BD10C
:10400000236813F0010F00F0A980A36F282B00F2A2
:10401000A380DFE803F091A1A1A1A1A1A1A18BA19F
:10402000A1A1A1A1A1A19AA1A1A1A1A1A1A191A197
:10403000A1A1A1A1A1A191A1A1A1A1A1A1A1910031
:10404000022104F10800FFF7E9FC0546CCE7012650
:104050003546D1E72E46CFE7324A136843F48073E2
:104060001360FDF7C1FE07462E4B1B6813F4807FDB
:1040700005D1FDF7B9FEC01B6428F5D90325002D35
:104080004AD1274B1B6FD4F8B020534013F4407F24
:104090000CD0234B1A6F22F44072196F41F4803117
:1040A0001967196F21F4803119671A67D4F8B03095
:1040B000B3F5807F15D08DBBD4F8B03003F44072D7
:1040C000B2F5407F1ED0164A136923F47C53136166
:1040D00013490B6FD4F8B020C2F30B0213430B67E4
:1040E0008EE7FDF781FE07460D4B1B6F13F0020FA5
:1040F000E1D1FDF779FEC01B41F288339842F3D934
:104100000325D8E70648026922F47C52064901EAF1
:10411000131313430361DBE72E4671E72E466FE767
:104120000044025800480258CFFFFF00012104F16B
:104130000800FFF773FC0546E5B9B14A536D23F05B
:104140003803A16F0B43536508E0012104F12800F7
:10415000FFF7E8FC0546EFE701263546236813F034
:10416000020F17D0636F052B29D8DFE803F00B058A
:10417000210B0B0B2E46F1E7012104F10800FFF79C
:104180004DFC0546F5B99E4A536D23F00703616F58
:104190000B435365236813F0040F26D0D4F89030F6
:1041A000052B00F2D680DFE803F0150FCD151515AD
:1041B000012104F12800FFF7B5FC0546E2E70126DE
:1041C0003546E7E72E46E5E7012104F10800FFF751
:1041D00025FC0546002D40F0BF80894A936D23F0F1
:1041E0000703D4F890100B439365236813F0200F56
:1041F0001DD0D4F88C30B3F1005F00F0C18000F224
:10420000B0804BB1B3F1805F40F0A880002104F191
:104210000800FFF703FC0546002D40F0B880784AFF
:10422000536D23F0E043D4F88C100B43536523689F
:1042300013F0400F1DD0D4F89830B3F5006F00F0A4
:10424000BA8000F2A9804BB1B3F5806F40F0A18035
:10425000002104F10800FFF7E1FB0546002D40F0C6
:10426000B180674A936D23F4E053D4F898100B4360
:104270009365236813F0800F1DD0D4F89C30B3F5FC
:10428000804F00F0B38000F2A2804BB1B3F5005F25
:1042900040F09A80002104F10800FFF7BFFB0546BB
:1042A000002D40F0AA80564A936D23F46043D4F861
:1042B0009C100B439365236813F0080F0DD0D4F8BE
:1042C0008030B3F5805F00F09D804D4A536D23F43C
:1042D0004053D4F880100B435365236813F0100F3C
:1042E0000DD0D4F89430B3F5807F00F09580444A27
:1042F000936D23F44073D4F894100B4393652368B3
:1043000013F4002F00F09D80D4F8A030B3F5803F67
:1043100000F08C80B3F5003F08D0002B40F08D807A
:10432000002104F10800FFF779FB0546002D40F05D
:104330008780334A936D23F44033D4F8A0100B43A5
:1043400093657EE0012104F12800FFF7EBFB0546B1
:1043500040E70126354648E72E4646E70126354622
:1043600065E7B3F1804F3FF457AFB3F1A04F3FF48F
:1043700053AFB3F1405F3FF44FAF0126354656E7E8
:10438000022104F12800FFF7CDFB054644E72E4645
:104390004DE7012635466CE7B3F5805F3FF45EAF2D
:1043A000B3F5A05F3FF45AAFB3F5406F3FF456AF9B
:1043B000012635465DE7022104F12800FFF7B2FB34
:1043C00005464BE72E4654E70126354673E7B3F51D
:1043D000004F3FF465AFB3F5204F3FF461AFB3F545
:1043E000C04F3FF45DAF0126354664E7022104F17A
:1043F0002800FFF797FB054652E72E465BE700BF14
:1044000000440258022104F12800FFF78BFB00282A
:104410003FF45BAF012658E7022104F12800FFF7C3
:1044200081FB00283FF463AF012660E7022104F11D
:104430002800FFF777FB054678E70126354600E0C0
:104440002E46236813F4802F24D0D4F88430B3F59B
:10445000001F14D0B3F5401F07D0B3F5801F15D14E
:104460007C4AD36A43F40033D36295B9794A536DD9
:1044700023F44013D4F884100B4353650AE0012160
:1044800004F12800FFF74EFB0546EEE7012635460E
:1044900000E02E46236813F4803F06D0236DCBB195
:1044A000B3F5803F24D001263546236813F0005F22
:1044B00027D1236813F4003F3DD0E36FB3F5807F2D
:1044C0002BD027D9B3F5007F2CD0B3F5407F29D06E
:1044D000012630E05F4AD36A43F40033D36275B9F2
:1044E0005C4AD36C23F48033216D0B43D364DCE747
:1044F000022104F10800FFF791FA0546EFE72E4686
:10450000D3E7022104F12800FFF70CFB0028D0D0EC
:104510000126CEE733B101260DE04E4AD36A43F4BB
:104520000033D362002D5CD14A4A536D23F44073AB
:10453000E16F0B435365236813F4801F06D0454A8F
:10454000136D23F00043216F0B431365236813F4AD
:10455000001F06D03F4A136D23F08073A16E0B43FA
:104560001365236813F0804F09D03A4B1A6922F47F
:1045700000421A611A69D4F8B4100A431A61236818
:10458000002B06DA334AD36C23F04053616D0B43A2
:10459000D364236813F4000F07D02E4A536D23F41D
:1045A0004003D4F888100B435365636813F0010F80
:1045B00019D1636813F0020F1ED1636813F0040F62
:1045C00023D1636813F0080F28D1636813F0100F2C
:1045D0002DD1636813F0200F32D106B10126304689
:1045E000F8BD2E46A7E7002104F10800FFF716FAF0
:1045F0000028DED00646DCE7012104F10800FFF7C1
:104600000DFA0028D9D00646D7E7022104F10800A8
:10461000FFF704FA0028D4D00646D2E7002104F1BF
:104620002800FFF77FFA0028CFD00646CDE701210A
:1046300004F12800FFF776FA0028CAD00646C8E73A
:10464000022104F12800FFF76DFA0028C5D00126E9
:10465000C5E700BF0044025810B40268536991696D
:1046600041F00801916101688A6942F010028A6193
:1046700001680A6822F001020A6001680C69294A8F
:1046800022400A6101688A6822F440428A6090F8F8
:104690008120D2B2042A0DD013F0200F0AD0D0F816
:1046A000842042F08002C0F8842001688A6942F0C8
:1046B00020028A6190F88120D2B2032A0DD013F033
:1046C000400F0AD0D0F8842042F00402C0F88420C1
:1046D00001688A6942F040028A6113F4007F0AD0BF
:1046E000D0F8842042F00102C0F8842001688A6971
:1046F00042F400728A6113F4807F0AD0D0F88430CB
:1047000043F00803C0F884300268936943F480736F
:1047100093610023A0F86230A0F86A305DF8044B82
:10472000704700BF90FCFFFFC36B5B09C068083097
:10473000C00803FB000070472DE9F84380460F4690
:1047400016461D46DDF8209000E0BDB1D8F80030D7
:104750005C6937EA04040CBF01230023B3420AD189
:10476000FDF742FBA0EB0900A842EED3B5F1FF3FF5
:10477000EBD0032000E00020BDE8F8830320FBE736
:10478000002800F0B78070B50446002383620568F6
:104790005C4B5D4E9D4218BFB54214BF01260026FA
:1047A00007D0A3F574439D4203D0C3680F2B00F2DA
:1047B000A3802046FFF7B8FF2EB1544B9D4202D094
:1047C000082800F29B804F4A4F4B9D4218BF9542EC
:1047D00003D003F580639D4202D1102800F290803F
:1047E00094F88130F3B1022384F881302268136891
:1047F00023F00103136023689A6802F4F812A16998
:10480000B1F1806F14D0636813F4800F23D0E36894
:10481000062B20D921680B6823F48073206D034395
:104820000B601DE084F880302046FCF707FFDAE7D4
:104830006168B1F5800F06D00029E4D1A16BB1F118
:10484000805FE0D102E0A06B0028F5D1196841F447
:1048500080511960D7E721680B6823F480730B60DF
:10486000E369A16A0B431343E26B1343E1682268D7
:104870000B439360636B626A1343A26B1343A26999
:1048800013432269134362691343226A1343626824
:104890001343E26C1343A2681343A26C1343A16D4C
:1048A00022680B43D36063686BB92268936823F472
:1048B000C05343F4006393602268936823F4C06399
:1048C00043F4806393602268136D23F00103136542
:1048D000636813F4800F06D02268D36823F0004386
:1048E000616D0B43D3600020C4F88400012384F879
:1048F000813070BD012070470120FAE70120F8E700
:104900000120F6E70030014000380040003C004044
:104910002DE9F04782B004468A4691461D46D0F8FC
:104920000080FDF761FA94F88160F6B2012E40F044
:1049300048810746B9F1000F18BFBAF1000F00F027
:10494000418194F88030012B00F04081012384F8EC
:104950008030032384F881300023C4F88430C4F805
:104960005CA0A4F86090A4F862906366A4F8683034
:10497000A4F86A3063672367A368B3F5C02F1CD01F
:104980002268D36823F4C02343F40033D360226841
:1049900053686FF30F0349EA0303536022681368F7
:1049A00043F0010313606368B3F5800F0BD0E36835
:1049B0000F2B1BD8072B4DD8ACE02268136843F4AB
:1049C00000631360E3E72268136843F40073136025
:1049D000EDE7E26D12681A62E36D0433E365B4F843
:1049E000622092B2013A92B2A4F86220B4F8623026
:1049F0009BB2002B00F0C98023685A6912F0020FA5
:104A0000E7D1FDF7F1F9C01BA84202D3B5F1FF3F92
:104A100001D1002DEAD12046FFF71EFED4F88430E4
:104A200043F48073C4F88430012384F88130002378
:104A300084F880300326C5E0E36D1B88A8F8203099
:104A4000E36D0233E365B4F862309BB2013B9BB285
:104A5000A4F86230B4F862309BB2002B00F095806D
:104A60002268536913F0020F15D0B4F862309BB27C
:104A7000012BE1D9E36B002BDED0E36D1B681362E1
:104A8000E36D0433E365B4F862309BB2023B9BB242
:104A9000A4F86230DEE7FDF7A7F9C01BA84202D3F5
:104AA000B5F1FF3F01D1002DD4D12046FFF7D4FD51
:104AB000D4F8843043F48073C4F88430012384F83C
:104AC0008130002384F8803003267BE0B4F8623024
:104AD0009BB2012B10D9E36B73B1E36D1B88A8F86F
:104AE0002030E36D0233E365B4F862309BB2023BE1
:104AF0009BB2A4F862300DE0E36D1B7882F82030A1
:104B0000E36D0133E365B4F862309BB2013B9BB2C5
:104B1000A4F86230B4F862309BB2002B35D0226822
:104B2000536913F0020F15D0B4F862309BB2032B17
:104B3000CCD9E36B402BC9D9E36D1B681362E36DDD
:104B40000433E365B4F862309BB2043B9BB2A4F833
:104B50006230DFE7FDF748F9C01BA84202D3B5F188
:104B6000FF3F01D1002DD5D12046FFF775FDD4F8C8
:104B7000843043F48073C4F88430012384F8813096
:104B8000002384F8803003261CE000972B46002287
:104B900008212046FFF7D0FD28B1D4F8843043F037
:104BA0002003C4F884302046FFF756FD012384F823
:104BB0008130002384F88030D4F8843013B9002683
:104BC00000E00226304602B0BDE8F0870226F9E791
:104BD0002DE9F04F83B004468A4691461D46D0F831
:104BE00000B0C66BC6F34F16FDF7FEF894F881705F
:104BF000FFB2012F40F02D820136B6B28046B9F1E6
:104C0000000F18BFBAF1000F00F02482002D00F051
:104C1000218294F88030012B00F02082012384F857
:104C20008030052384F881300023C4F88430C4F830
:104C30006490A4F86A50A4F86850C4F85CA0A4F882
:104C40006250A4F86050236763672268D36823F436
:104C5000C023D36022689C499C4B9A4218BF8A4269
:104C600009D003F580639A4202D04FF0080904E0AE
:104C70004FF0100901E04FF0100953686FF30F0374
:104C80002B4353602268136843F001031360636889
:104C9000B3F5800F06D0E3680F2B7AD94FEA990B52
:104CA000A9461FE02268136843F400731360F2E71B
:104CB00023685A69B9F1000F14D0596911F0010F36
:104CC00032D0626E1B6B1360636E04336366B4F89C
:104CD0006A309BB2013B9BB2A4F86A30B4F86A9088
:104CE0001FFA89F945EA09039BB2002B00F0948171
:104CF00023685A6912F0020FDAD0002DD8D005EBE4
:104D00000B029145D4D2E26D12681A62E36D04334E
:104D1000E365B4F862309BB2013B9BB2A4F8623009
:104D2000B4F86250ADB2C3E7B14514D212F4004FEB
:104D300011D0626E1B6B1360636E04336366B4F84C
:104D40006A309BB2013B9BB2A4F86A30B4F86A9017
:104D50001FFA89F9C6E7FDF747F8A0EB08000C9B9E
:104D6000984202D3B3F1FF3F02D10C9B002BB9D183
:104D70002046FFF771FCD4F8843043F48073C4F804
:104D80008430012384F88130002384F880300327A5
:104D900060E1072B40F23E814FEA59039A46A9464B
:104DA0001AE023685A69B9F1000F15D05B6913F056
:104DB000010F34D0636EBBF830201A80636E02336B
:104DC0006366B4F86A309BB2013B9BB2A4F86A30C8
:104DD000B4F86A901FFA89F945EA09039BB2002BDF
:104DE00000F01A8123685B6913F0020FD9D0002DFF
:104DF000D7D05346EB189945D3D2E36D1B88ABF857
:104E00002030E36D0233E365B4F862309BB2013BBE
:104E10009BB2A4F86230B4F86250ADB2C1E7B145BC
:104E20001BD212F4004F18D0636EBBF830201A80EA
:104E3000636E9A1C6266BBF830205A80636E023340
:104E40006366B4F86A309BB2023B9BB2A4F86A3046
:104E5000B4F86A901FFA89F9BEE7B9F1010F15D1CC
:104E600012F4005F12D0636EBBF830201A80636EBC
:104E700002336366B4F86A309BB2013B9BB2A4F87C
:104E80006A30B4F86A901FFA89F9A5E7FCF7ACFF1D
:104E9000A0EB08000C9B984202D3B3F1FF3F02D174
:104EA0000C9B002B98D12046FFF7D6FBD4F884301A
:104EB00043F48073C4F88430012384F881300023E4
:104EC00084F880300327C5E00030014000380040FE
:104ED00023685A69BBF1000F15D0596911F0010F11
:104EE00034D0626E93F830301370636E01336366B2
:104EF000B4F86A309BB2013B9BB2A4F86A30B4F8B4
:104F00006AB01FFA8BFB45EA0B039BB2002B00F043
:104F1000838023685A6912F0020FD9D0002DD7D0B0
:104F200005EB09029345D3D2E26D127883F8202075
:104F3000E36D0133E365B4F862309BB2013B9BB291
:104F4000A4F86230B4F86250ADB2C1E7B3452AD2DA
:104F500012F4004F27D0626E93F830301370636EF6
:104F60005A1C6266226892F830205A70636E5A1C8E
:104F70006266226892F830205A70636E5A1C62662C
:104F8000226892F830205A70636E01336366B4F879
:104F90006A309BB2043B9BB2A4F86A30B4F86AB0A2
:104FA0001FFA8BFBAFE7BBF1030F15D812F4C04F0C
:104FB00012D0626E93F830301370636E0133636603
:104FC000B4F86A309BB2013B9BB2A4F86A30B4F8E3
:104FD0006AB01FFA8BFB96E7FCF706FFA0EB080010
:104FE0000C9B984202D3B3F1FF3F02D10C9B002BE4
:104FF00089D12046FFF730FBD4F8843043F4807326
:10500000C4F88430012384F88130002384F8803090
:1050100003271FE0AB4676E7CDF800800C9B00220B
:1050200008212046FFF788FB28B1D4F8843043F0EC
:105030002003C4F884302046FFF70EFB012384F8D8
:105040008130002384F88030D4F8843013B90027ED
:1050500000E00227384603B0BDE8F08F0227F9E7E9
:10506000F0B4026A036A23F00103036246688469AC
:105070001E4B23400D681D4322F002028B68134330
:105080001B4A1C4CA04218BF90420CBF01220022B8
:105090000CD004F58044A04214BF00240124164F14
:1050A000B84203D014B9154CA04205D123F008032F
:1050B000CC68234323F004035AB9114A904214BF29
:1050C000002201220C4CA04203D012B90B4A90429C
:1050D00005D126F440764A6932438E69164346600C
:1050E00085614A6842630362F0BC70478CFFFEFF33
:1050F0000000014000040140004001400048014020
:105100000044014070B4036A026A22F480720262B1
:105110004568C4691A4A22400E68164323F4007396
:105120008A6843EA0223174A174CA04218BF9042EC
:105130000CBF0122002206D123F40063CC6843EAAD
:10514000042323F480635AB9104A904214BF00220A
:1051500001220F4CA04203D012B90E4A904207D14F
:1051600025F440524C6942EA04128C6942EA041563
:105170004560C6614A68C263036270BC704700BF85
:105180008CFFFEFF0000014000040140004401408C
:10519000004001400048014070B4036A026A22F4F2
:1051A000805202624468C569144A2A400D6842EA86
:1051B000052223F400538D6843EA0533104E114D48
:1051C000A84218BFB0420DD005F58045A84214BFD3
:1051D0000025012506F58046B04203D015B90A4DD9
:1051E000A84204D124F480444D6944EA8514446003
:1051F000C2614A680264036270BC7047FF8CFFFEA4
:1052000000000140000401400048014070B4036AFE
:10521000026A22F4803202624268456D144E2E40CA
:105220000D682E4323F400338C6843EA0443114D88
:10523000114CA04218BFA8420DD004F58044A042F2
:1052400014BF0024012405F58045A84203D014B9F9
:105250000A4CA04204D122F480324C6942EA042272
:10526000426046654A688265036270BC704700BF51
:105270008FFFFEFF00000140000401400048014094
:1052800070B4036A026A22F4801202624468456DB7
:10529000144A2A400D6842EA052223F400138D685F
:1052A00043EA0553104E114DA84218BFB0420DD02D
:1052B00005F58045A84214BF0025012506F5804666
:1052C000B04203D015B90A4DA84204D124F4802479
:1052D0004D6944EA8524446042654A68C2650362B8
:1052E00070BC7047FF8FFFFE0000014000040140CA
:1052F0000048014010B4036A046A24F00104046207
:10530000846924F0F00C4CEA021223F00A030B43E8
:10531000826103625DF8044B704710B4036A046A4B
:1053200024F010040462846924F4704C4CEA0232C4
:1053300023F0A00343EA0113826103625DF8044B8A
:10534000704700008268034B13400B4343F0070390
:10535000836070478FFFCFFF90F83D30DBB2012BA9
:1053600042D1022380F83D300268D36843F0010344
:10537000D36003681E4AB3F1804F18BF934225D013
:10538000A2F57C42934221D002F5806293421DD067
:1053900002F58062934219D002F57842934215D00B
:1053A000A2F56C42934211D002F5943293420DD093
:1053B000A2F5C042934209D002F58062934205D023
:1053C0001A6842F001021A60002070479968094A81
:1053D0000A40062A18BFB2F5803F07D01A6842F08B
:1053E00001021A60002070470120704700207047BA
:1053F0000000014007000100704770477047704788
:10540000704770B504460368DE681D6915F0020F29
:1054100010D016F0020F0DD06FF002021A610123B6
:10542000037703689B6913F0030F64D0FFF7E6FF6F
:105430000023237715F0040F12D016F0040F0FD0BD
:1054400023686FF004021A610223237723689B69A3
:1054500013F4407F55D02046FFF7D0FF0023237779
:1054600015F0080F12D016F0080F0FD023686FF058
:1054700008021A61042323772368DB6913F0030F02
:1054800046D02046FFF7BAFF0023237715F0100F10
:1054900012D016F0100F0FD023686FF010021A61AF
:1054A000082323772368DB6913F4407F37D0204635
:1054B000FFF7A4FF0023237715F0010F02D016F0A9
:1054C000010F33D115F4025F02D016F0800F35D1F1
:1054D00015F4807F02D016F0800F37D115F0400F01
:1054E00002D016F0400F39D115F0200F02D016F07F
:1054F000200F3BD170BDFFF780FF2046FFF77FFFF5
:1055000096E72046FFF779FF2046FFF778FFA5E7EB
:105510002046FFF772FF2046FFF771FFB4E72046F1
:10552000FFF76BFF2046FFF76AFFC3E723686FF0C2
:1055300001021A612046FBF79DFFC3E723686FF461
:1055400002521A61204600F01AFCC1E723686FF48A
:1055500080721A61204600F013FCBFE723686FF0E9
:1055600040021A612046FFF74BFFBDE723686FF04A
:1055700020021A61204600F001FCBBE730B5036849
:10558000424A904214BF4FF0000E4FF0010EB0F1AE
:10559000804F14BF72464EF00102AAB93C4CA042A3
:1055A00014BF002401243B4DA8420DD064B904F17E
:1055B000804404F58234A04214BF0024012405F580
:1055C0000065A84200D01CB123F070034C6823434F
:1055D00062BB2F4A904214BF002201222D4CA042F0
:1055E00024D01ABB02F1804202F58232904214BFED
:1055F0000022012204F50064A04217D0B2B9264A65
:10560000904214BF0022012204F59A34A0420DD02A
:1056100062B9224A904214BF0022012204F50064BC
:10562000A04203D012B91E4A904204D123F4407C18
:10563000CB6843EA0C0323F080034A6913430360F9
:105640008A68C2620A688262164A904214BF734630
:105650004EF0010363B9104B984214BF002301239D
:1056600002F57052904203D013B90F4B984201D10A
:105670000B69036301234361036913F0010F03D036
:10568000036923F00103036130BD00BF0000014046
:1056900000080040000400400044014000E00040D9
:1056A00000E40040000401400048014060B310B530
:1056B000044690F83D3013B3022384F83D30214670
:1056C00051F8040BFFF75AFF012384F8483084F89F
:1056D0003E3084F83F3084F8403084F8413084F81C
:1056E000423084F8433084F8443084F8453084F8FC
:1056F000463084F8473084F83D30002010BD80F8F3
:105700003C30FCF727F9D7E70120704760B310B5AC
:10571000044690F83D3013B3022384F83D3021460F
:1057200051F8040BFFF72AFF012384F8483084F86E
:105730003E3084F83F3084F8403084F8413084F8BB
:10574000423084F8433084F8443084F8453084F89B
:10575000463084F8473084F83D30002010BD80F892
:105760003C30FFF749FED7E70120704770B4036A69
:10577000026A22F010020262456884691A4E2640CD
:105780000C6846EA042623F020038A6843EA0213E1
:10579000164A174CA04218BF90420CBF01220022AB
:1057A00006D123F08003CC6843EA041323F04003BE
:1057B0005AB9104A904214BF002201220E4CA04256
:1057C00003D012B90D4A904207D125F4406C4A69C2
:1057D0004CEA820C8A694CEA8205456086614A6817
:1057E0008263036270BC7047FF8CFFFE00000140C3
:1057F00000040140004401400040014000480140D5
:1058000038B590F83C30012B00F0958004460D46E9
:10581000012380F83C30142A00F28880DFE802F08F
:105820000B8686861F86868634868686488686868A
:105830005D86868671000068FFF712FC2268936916
:1058400043F0080393612268936923F00403936192
:105850002268936929690B439361002067E000681F
:10586000FFF784FF2268936943F400639361226821
:10587000936923F48063936122689369296943EAF9
:1058800001239361002052E00068FFF73BFC22688F
:10589000D36943F00803D3612268D36923F004037A
:1058A000D3612268D36929690B43D36100203EE0AC
:1058B0000068FFF771FC2268D36943F40063D36189
:1058C0002268D36923F48063D3612268D36929698C
:1058D00043EA0123D361002029E00068FFF796FC2A
:1058E0002268536D43F0080353652268536D23F01B
:1058F000040353652268536D29690B4353650020E7
:1059000015E00068FFF7BCFC2268536D43F40063A8
:1059100053652268536D23F4806353652268536D89
:10592000296943EA01235365002000E00120002398
:1059300084F83C3038BD0220FCE710B4846824F4BD
:105940007F4C42EA03220A4342EA0C0282605DF87D
:10595000044B704790F83C30012B00F08F8010B55D
:105960000446012380F83C30022380F83D30026871
:105970009068434B034093600B68702B55D031D82F
:10598000502B6CD01FD8402B0AD1CA6849682068B8
:10599000FFF7B0FC40212068FFF7D4FC002029E08D
:1059A00068D8202B03D00AD80BB1102B05D119468B
:1059B0002068FFF7C7FC00201CE001201AE0302B14
:1059C000F5D0012016E0602B0AD1CA68496820682A
:1059D000FFF7A3FC60212068FFF7B4FC002009E07A
:1059E000012007E0B3F5005F2CD00AD8B3F5805F43
:1059F00042D10020012384F83D30002384F83C305C
:105A000010BD204A9342D2D007D8B3F5801FCED024
:105A1000B3F1101FCBD00120ECE71B4A9342C6D054
:105A200010329342C3D00120E4E7CB684A6889680A
:105A30002068FFF782FF2268936843F07703936042
:105A40000020D7E7CB684A6889682068FFF775FFB0
:105A50002268936843F4804393600020CAE7CA68D1
:105A600049682068FFF746FC50212068FFF76AFC70
:105A70000020BFE70120BDE70120BBE702207047FF
:105A80008800CEFF200010003000100001F01F0140
:105A90004FF0010C0CFA01FC036A23EA0C030362C9
:105AA000036A8A40134303627047000010B504463E
:105AB00010293DD8DFE801F0093C3C3C203C3C3C4F
:105AC000273C3C3C2E3C3C3C350090F83E30DBB261
:105AD000013B18BF0123002B40F09E80102900F2EB
