:020000040800F2
:1000000000000524B9220008E51D0008E71D0008CE
:10001000E91D0008EB1D0008ED1D000800000000B0
:10002000000000000000000000000000B18D00088A
:10003000EF1D000800000000518E0008B58E00087A
:1000400009230008092300080923000809230008E0
:1000500009230008092300080923000809230008D0
:1000600009230008092300080923000809230008C0
:1000700009230008092300080923000809230008B0
:10008000092300080923000809230008F11D0008BE
:10009000011E00080923000809230008092300089D
:1000A0000923000809230008092300080923000880
:1000B0000923000809230008092300080923000870
:1000C0000923000809230008092300080923000860
:1000D0000923000809230008092300080923000850
:1000E0000923000809230008000000000923000874
:1000F0000923000809230008092300080923000830
:10010000092300080923000809230008092300081F
:10011000092300080923000809230008092300080F
:1001200009230008092300080923000809230008FF
:1001300009230008092300080923000809230008EF
:1001400000000000000000000000000000000000AF
:1001500009230008092300080923000809230008CF
:1001600009230008092300080923000809230008BF
:1001700009230008111E00080923000800000000E0
:10018000092300080923000809230008092300089F
:10019000092300080923000809230008092300088F
:1001A00009230008092300080923000800000000B3
:1001B000092300080923000809230008092300086F
:1001C00009230008092300080000000000000000C7
:1001D00000000000000000000923000800000000EB
:1001E000000000000000000000000000000000000F
:1001F0000000000000000000092300080923000897
:100200000923000809230008000000000923000852
:10021000092300080923000809230008092300080E
:100220000923000800000000092300080000000066
:100230000923000809230008000000000923000822
:1002400009230008092300080923000809230008DE
:1002500009230008092300080923000809230008CE
:1002600009230008092300080923000809230008BE
:1002700009230008092300080923000800000000E2
:10028000092300080923000809230008092300089E
:1002900000000000092300080923000800000000F6
:1002A00000000000092300080923000809230008B2
:1002B000092300080923000809230008211E00085B
:0C02C00009230008311E00080923000873
:1002D000844641EA000313F003036DD1403A41D351
:1002E00051F8043B40F8043B51F8043B40F8043B10
:1002F00051F8043B40F8043B51F8043B40F8043B00
:1003000051F8043B40F8043B51F8043B40F8043BEF
:1003100051F8043B40F8043B51F8043B40F8043BDF
:1003200051F8043B40F8043B51F8043B40F8043BCF
:1003300051F8043B40F8043B51F8043B40F8043BBF
:1003400051F8043B40F8043B51F8043B40F8043BAF
:1003500051F8043B40F8043B51F8043B40F8043B9F
:10036000403ABDD2303211D351F8043B40F8043B3F
:1003700051F8043B40F8043B51F8043B40F8043B7F
:1003800051F8043B40F8043B103AEDD20C3205D34F
:1003900051F8043B40F8043B043AF9D2043208D047
:1003A000D2071CBF11F8013B00F8013B01D30B88B9
:1003B00003806046704700BF082A13D38B078DD097
:1003C00010F003038AD0C3F10403D21ADB071CBF69
:1003D00011F8013B00F8013B80D331F8023B20F8D3
:1003E000023B7BE7043AD9D3013A11F8013B00F80C
:1003F000013BF9D20B7803704B7843708B78837094
:10040000604670470348044B834202D0034B03B15C
:1004100018477047640200246402002400000000B2
:100420000548064B1B1AD90F01EBA301491002D056
:10043000034B03B118477047640200246402002490
:100440000000000010B5064C237843B9FFF7DAFF2F
:10045000044B13B10448AFF300800123237010BD97
:100460006402002400000000ECB3000808B5054B4E
:100470001BB105490548AFF30080BDE80840FFF710
:10048000CFBF00BF0000000068020024ECB30008EA
:10049000F6EE007A60EE277A10EE103A074AA2EBE9
:1004A000630307EE103A67EE277A67EE277AB7EE16
:1004B000080A30EE670A27EE000A7047DF59375FF7
:1004C00010B52DED068B0446B0EE409AF0EE609A22
:1004D000B0EE418AF0EE618AB0EE42AAF0EE62AA76
:1004E000F5EE401AF1EE10FA14BF01230023B5EE29
:1004F000402AF1EE10FA18BF43F001032BB9F5EED4
:10050000402AF1EE10FA00F0938068EEA87A2AEE05
:100510000A7A77EE877A2AEEAA0A37EE800AFFF780
:10052000B7FF68EE808A2AEE00AA6AEE80AA94EDF0
:10053000017AD4ED036A27EE266AD4ED007AD4ED71
:10054000025A27EEA55A36EE456A27EE277A66EE5E
:10055000A55A37EE257A67EEA77AF6EE005A77EEBF
:10056000E57A66EEA66A77EEA67A6AEE276A6AEE02
:10057000875A76EEE56A6AEE86AA68EEA77A7AEE80
:10058000E7AA68EE878A2AEE06AA78EECA8A624B44
:10059000D3ED007AF5EEC07AF1EE10FA40F3B380B5
:1005A000D3ED007A67EEA67A9FED5C7A67EE877AE4
:1005B0005B4991ED006A76EE277AC1ED007AD3EDC2
:1005C000007A67EEAA7A67EE877A564A92ED006A59
:1005D00076EE277AC2ED007AD3ED007A67EEA87A3C
:1005E00067EE877A504B93ED007A77EE277AC3ED6A
:1005F000007AD1ED007A39EE279AD2ED007A79EEC1
:10060000A79AD3ED007A38EE278A484BD3ED007ACB
:1006100067EEA67A39EE279AD3ED007A67EEAA7ACA
:1006200079EEA79AD3ED007A67EEA87A38EE278A9A
:10063000DFED3F7A29EE270A69EEA70A28EE271A8E
:10064000D4ED006A94ED017AD4ED027A27EE409A57
:1006500020EEA76A39EE469AD4ED039A29EE816A14
:1006600039EE469A39EE269A84ED009A60EE268A93
:1006700021EE276A78EE868A29EEA06A78EEC68A8D
:1006800078EE878AC4ED018A20EEA68A21EE076AF9
:1006900038EE468A29EE806A38EE068A38EE278AD6
:1006A00084ED028A21EE261A60EE870A31EE201AC6
:1006B00020EE270A31EE401A79EE819AC4ED039AB2
:1006C00069EE097A28EEA87A77EE877A28EE087A1A
:1006D00077EE877A29EEA90A37EE800AFFF7D8FE6F
:1006E00029EE009A84ED009A68EE808AC4ED018AB2
:1006F00028EE008A84ED028A69EE809AC4ED039A9E
:10070000BDEC068B10BD0023054A1360054A13603B
:10071000054A136079E700BF8C0200246F12833A08
:1007200088020024840200248002002400000024A7
:100730006F12033A7047704710B44FF0E0235C69C2
:10074000C0EB00104FEA401C9B69002104E0E01A56
:1007500002441144614509D21A464FF0E0239B69D7
:100760009A42FAD0F3D9D21A1144F3E75DF8044B58
:10077000704710B504E04FF47A70FFF7DDFF2046B4
:10078000431E9CB20028F6D110BD000008B500221F
:100790000121024802F0B6FD08BD00BF0008025862
:1007A00008B501221146024802F0ACFD08BD00BFA9
:1007B0000008025808B500220821024802F0A2FDF4
:1007C00008BD00BF0008025808B5012208210248F0
:1007D00002F098FD08BD00BF0008025800B587B0C0
:1007E0008DF80F004FF47A73009301230DF1170277
:1007F0000DF10F01034805F0EFFA9DF8170007B05F
:100800005DF804FB146E002410B50C46FFF7E6FFFC
:100810002046FFF7E3FF10BD10B50C4640F0800006
:10082000FFF7DCFF5520FFF7D9FF207010BD38B56A
:100830000D46144640F08000FFF7D0FF06E055203B
:10084000FFF7CCFF05F8010B013CE4B2002CF6D118
:1008500038BD000070B5FFF799FF8020FFF7BEFF9D
:100860005520FFF7BBFF5520FFF7B8FFFFF798FFB4
:100870009620FFF761FFFFF789FF8020FFF7AEFFAB
:100880005520FFF7ABFF5520FFF7A8FFFFF788FFC4
:100890009620FFF751FFFFF779FFB6217E20FFF783
:1008A000B3FFFFF77DFF5020FFF763FFFFF76EFFF9
:1008B0008020FFF793FF5520FFF790FF5520FFF7AB
:1008C0008DFFFFF76DFF9620FFF736FFFFF75EFF06
:1008D0008020FFF783FF5520FFF780FF5520FFF7AB
:1008E0007DFF0446FFF75CFF9620FFF725FF1E2CD7
:1008F00032D10024052C2DD8FFF748FF174A04EB0E
:100900004403D1184E78D55C31462846FFF77CFF6A
:10091000FFF746FF9620FFF70FFFFFF737FF45F081
:100920008000FFF75BFF5520FFF758FF5520FFF7CA
:1009300055FF0546FFF734FF9620FFF7FDFEAE4258
:1009400002D10134E4B2D5E704EB4404034B234461
:10095000987800E0002070BDFF20FCE7F0B40008AC
:1009600070B582B000248DF80740FFF723FF0DF12A
:1009700007012046FFF750FFFFF726FF9620FFF7FD
:10098000DBFEFFF717FF0DF107012046FFF744FFDD
:10099000FFF71AFF9620FFF7CFFEFFF70BFFB621F8
:1009A0001420FFF731FFFFF70FFF5020FFF7E1FEA4
:1009B000FFF700FF0DF107012046FFF72DFFFFF7BE
:1009C00003FF9620FFF7B8FEFFF7F4FE0DF10701D5
:1009D0002046FFF721FFFFF7F7FE9620FFF7ACFE5A
:1009E0009DF807300F2B2ED1052C29D8FFF7E2FEFA
:1009F000164A04EB4403D1184D78D65C294630469C
:100A0000FFF702FFFFF7E0FE9620FFF795FEFFF7E6
:100A1000D1FE0DF107013046FFF7FEFEFFF7D4FED1
:100A20009620FFF789FE9DF807309D4202D10134E0
:100A3000E4B2D9E704EB4404044B2344987800E083
:100A4000002002B070BDFF20FBE700BFDCB400084F
:100A500010B5FFF76FFEFFF76EFEFFF7FBFE0446D3
:100A6000FFF77EFF2043C0B210BD0000F0B583B099
:100A700006460D461446002700970197FFF786FEAD
:100A80009220FFF7ABFE062269461220FFF7CFFE49
:100A9000FFF786FE9DF801301B021BB29DF8002077
:100AA000134307EE903AF8EEE77A474A92ED007A60
:100AB00067EE877AC5ED007A9DF803301B021BB202
:100AC0009DF802100B4307EE903A92ED007AF8EE93
:100AD000E77A67EE877AC5ED017A9DF805301B024B
:100AE0001BB29DF80420134307EE903AF8EEE77A24
:100AF00067EE877AC5ED027AFFF75CFE0822694649
:100B00003846FFF794FEFFF75FFE9DF800300F2B8D
:100B100027D0FFF73BFEA220FFF760FE02226946C6
:100B20002220FFF784FEFFF73BFE9DF800209DF892
:100B300001305B0943EAC203B3F5806F01DBA3F523
:100B4000006307EE903AF8EEE77AB4EE007A67EECB
:100B5000877AB3EE077A77EE877AC4ED007A03B02E
:100B6000F0BD9DF803301B021BB29DF80220134319
:100B700007EE903AF8EEE77A144A92ED007A67EEC3
:100B8000877AC6ED007A9DF805301B021BB29DF8EE
:100B900004100B4307EE903A92ED007AF8EEE77AF4
:100BA00067EE877AC6ED017A9DF807301B021BB20B
:100BB0009DF80620134307EE903AF8EEE77A67EEC9
:100BC000877AC6ED027AA4E7080000240400002416
:100BD000F0B58BB0002402940394022604960125FC
:100BE0000595069407941A4F02A9384601F0C2FEF3
:100BF0000094234632463146384601F000FF2A462B
:100C00002946384601F016FF124F02A9384601F076
:100C1000B1FE0094234632463146384601F0EFFEDD
:100C20002A462946384601F005FF0B4F02A93846EF
:100C300001F0A0FE0094234632463146384601F0CA
:100C4000DEFE2A462946384601F0F4FE0BB0F0BD20
:100C5000B0040024100400247003002470B5FFF7D2
:100C6000B7FF0E4E304601F014FF0D4D284601F03F
:100C700010FF0C4C204601F00CFF002201213046F1
:100C800002F04EF800220121284602F049F8002225
:100C90000121204602F044F870BD00BFB0040024DA
:100CA000100400247003002411F0010F00D17047DC
:100CB00000B58DB06B4602AA402101F03FFF029BB8
:100CC000A3F20122062A29D8013BDBB2154A137090
:100CD000154903EB830201EB420031F912C0A0F881
:100CE00008C09DF800E09DF801C04CEA0E2C21F8E8
:100CF00012C09DF80220120212B29DF803C042EA0F
:100D00000C0242809DF80420120212B29DF805C028
:100D100042EA0C0282809DF8062082710DB05DF8D7
:100D200004FB00BF90020024A402002400B58BB095
:100D300001910021029103911B04049305910691F6
:100D400007910891099101A901F0BDFE10B90BB0FE
:100D50005DF804FB0120FAE708B594460B4A4FEA18
:100D6000202E82F800E0507008129070D1704FEA87
:100D70002C21117182F805C019129171D3710823C9
:100D800040F2FF110248FFF7D1FF08BD9C0200248A
:100D90001004002408B594460B4A4FEA202E82F82E
:100DA00000E0507008129070D1704FEA2C21117140
:100DB00082F805C019129171D37108234FF40071A4
:100DC0000248FFF7B3FF08BD94020024B0040024DA
:100DD00010B588B000238DF807300EE04FF0600C9E
:100DE00014E04FF0600C1EE04FF0600CC3F11704EC
:100DF00020346C4404F818CC0133072B21DC41FA71
:100E000003F414F0010FE9D04FF0780CC3F107049C
:100E100020346C4404F818CC40FA03F414F0010FA9
:100E2000DFD04FF0780CC3F10F0420346C4404F889
:100E300018CC42FA03F414F0010FD5D04FF0780C1F
:100E4000D4E74FF6FF7300220DF107010F4804F0BD
:100E500063FE0E4B93F88130DBB2012BF9D14FF6D4
:100E6000FF73182202A9094804F056FE002408E086
:100E70004FF6FF7301220DF10701044804F04CFE08
:100E80000134632CF4DD08B010BD00BF8C6D00246C
:100E900010B5344B1B68052B13D8DFE803F0034370
:100EA00023135333304C002211462078FFF790FF74
:100EB00023780133DBB22370C72B02D9294B0322DD
:100EC0001A6010BD284C002211462078FFF780FFE1
:100ED0002378013BDBB22370032BF2D8214B022293
:100EE0001A60EEE7204C002221781046FFF770FFD1
:100EF00023780133DBB22370C72BE2D9194B0522CB
:100F00001A60DEE7184C002221781046FFF760FFD8
:100F10002378013BDBB22370032BD2D8114B012283
:100F20001A60CEE7104C227800210846FFF750FFE8
:100F300023780133DBB22370C72BC2D9094B0422BB
:100F40001A60BEE7084C227800210846FFF740FFF0
:100F50002378013BDBB22370032BB2D8014B002274
:100F60001A60AEE7EC020024EA02002401380328EC
:100F70002CD8DFE800F0020C1621DFED157A20EE08
:100F8000270ABCEEC00A134B83ED0F0A7047DFED52
:100F9000107A20EE270ABCEEC00A0E4B83ED0D0A34
:100FA0007047DFED0B7A20EE270ABCEEC00A4FF047
:100FB000804383ED0F0A7047DFED057A20EE270AA4
:100FC000BCEEC00A4FF0804383ED0D0A704700BFAE
:100FD000007EBB460000014008B53D4C0021204684
:100FE00005F068FE0821204605F064FE394C00211A
:100FF000204605F05FFE0821204605F05BFE34E048
:10100000354A5178937843EA012307EE903AF8EE97
:10101000677A9FED327AC7EE876A314BC3ED006A7B
:10102000D178137943EA012307EE903AF8EE677A14
:10103000C7EE876A2B4BC3ED006A1FE0C3ED007A51
:10104000284B93ED007ADFED287AB4EEE77AF1EEE3
:1010500010FA01DBC3ED007A224B93ED000A022067
:10106000FFF784FF012007F000FE1B4B1F4A1068AA
:10107000186012791A711B78FF2BC1D0184B93EDB1
:10108000007ADFED1B7AB4EEE77AF1EE10FA01D8C0
:10109000C3ED007A124B93ED007ADFED137AB4EED4
:1010A000E77AF1EE10FA01DBC3ED007A0C4B93ED19
:1010B000000A0120FFF75AFF0A4B93ED007ADFED9B
:1010C0000C7AB4EEE77AF1EE10FAB9D8B6E700BFC1
:1010D000806F0024346F0024F002002400401C467E
:1010E000100000240C0000247B14AE3D48C10024F5
:1010F000B81E853D274AD2ED007A274BC3ED007A12
:10110000264B93ED007A82ED007A30EE600A83ED93
:10111000000A20EE011A224B83ED001A77EE006AD6
:1011200077EEA67A67EEA17A1E4BC3ED007AF4EE55
:10113000E27AF1EE10FA01DDC3ED002A30EE470A43
:1011400020EE020A184B83ED000A164BD3ED007A0D
:1011500031EE271A30EE010A144B83ED000AB4EE8B
:10116000C30AF1EE10FA01DD83ED003A0F4BD3ED27
:10117000007AF5EEC07AF1EE10FA08D40B4BD3EDFD
:10118000007AFCEEE77A17EE903A98B270470022A8
:101190001A60F3E70C030024080300241003002462
:1011A0000403002400030024FC020024F8020024AD
:1011B0004FF07E530360002343608360C360704739
:1011C00008B5D2ED022A92ED012AD2ED001A91ED76
:1011D000021AD1ED010A91ED000AFFF771F908BD7D
:1011E000F8B52DED028B04460F4616461D46D0ED90
:1011F000000A90ED030A20EE800AD0ED017A90ED0E
:10120000027A27EE877A30EE070A60EEA00A67EED0
:10121000A77A70EEA70A70EEA00AB7EE008A70EE09
:10122000C80A30EE000A09F053FE87ED000AD4ED3B
:10123000017A94ED037A67EE877A94ED007AD4ED23
:10124000026A27EE267A77EEC77AB8EE000A27EE12
:10125000800A09F011FE86ED000AD4ED000A94ED33
:10126000010A20EE800A94ED027AD4ED037A27EE8B
:10127000277A30EE070A60EEA00A67EEA77A70EED2
:10128000A70A70EEA00A70EEC80A30EE000A09F054
:101290001FFE85ED000ABDEC028BF8BD80B50A206B
:1012A00007F0E3FC0C211D4805F004FD02E064207A
:1012B00007F0DBFCFFF7CCFB0028F8D11848FFF75C
:1012C00077FF184C184F194E224639463046FFF723
:1012D000CDFB134D3A4631462846FFF771FF144BBC
:1012E0001A1FA3F108012846FFF77AFFDFED111A54
:1012F0009FED113AF0EE612AB2EE042A9FED0F1A2B
:10130000D4ED000AB3EE0E0AFFF7F4FE034B1B68A0
:101310001864012007F0A9FCD3E700BFE86E0024A1
:10132000200300243003002434030024400300245D
:101330001C0300240000C8420000FA450000964348
:1013400008B5FFF78BFC41F270731A461946184630
:10135000FFF720FD41F270731A4619461846FFF751
:10136000FBFC012007F081FCEDE7000008B54348D5
:10137000FC2303704249D1ED007A9FED427A67EE7B
:10138000877AFDEEE77A17EE903A3F4AC2ED007A8F
:1013900043704FEA232C80F802C04FEA234C80F8B8
:1013A00003C01B160371D1ED017A67EE877AFDEE5B
:1013B000E77A17EE903AC2ED007A43714FEA232C98
:1013C00080F806C04FEA234C80F807C01B16037252
:1013D000D1ED027A67EE877AFDEEE77A17EE903A62
:1013E000C2ED007A4372191281721914C1721B1670
:1013F00003732649D1ED007A67EE877AFDEEE77A2E
:1014000017EE903AC2ED007A43734FEA232C80F82E
:101410000EC04FEA234C80F80FC01B160374D1EDA9
:10142000017A67EE877AFDEEE77A17EE903AC2ED21
:10143000007A43744FEA232C80F812C04FEA234C01
:1014400080F813C01B160375D1ED027A67EE877A18
:10145000FDEEE77A17EE903AC2ED007A43751A1264
:1014600082751A14C2751B160376192109F01CFA2D
:10147000FFF70EFD012007F0F8FB78E74C0300248E
:101480003403002400007A44680300241403002479
:1014900010B51548154B036000238360C3600374C7
:1014A00043748374032141610A2282611D24C46153
:1014B000026241628262C462026343630122826308
:1014C000C3630164042242648364C26403654265A9
:1014D0008365C36501664366826601F001F900B960
:1014E00010BD00F081FAFBE7B004002400A000402A
:1014F00010B51648164B036000238360C360037465
:1015000043748374032141610A2282611D24C461F2
:10151000026241628262C462026340F20642426336
:1015200001228263C3630164042242648364C2644F
:10153000036542658365C36501664366826601F0A3
:10154000CFF800B910BD00F04FFAFBE710040024FB
:1015500000A4004010B51648164B036000238360BA
:10156000C360037443748374032141610A2282615E
:101570001D24C461026241628262C462026340F659
:101580001202426301228263C36301640422426443
:101590008364C264036542658365C365016643660F
:1015A000826601F09DF800B910BD00F01DFAFBE75E
:1015B0007003002400D4004030B5BBB004460021C5
:1015C00035913691379138913991B82206A809F0B2
:1015D0006BFB23686F4A934208D06F4A93424BD00B
:1015E0006E4A934200F08E803BB030BD4FF4004213
:1015F0000023CDE906234FF08053219306A803F082
:1016000019FC40BB664A136801331360012B25D0D7
:10161000644BD3F8E02042F00802C3F8E020D3F88E
:10162000E03003F008030193019B03233593022369
:1016300036930024379438940923399335A95A48AE
:1016400001F056FD22460521132000F005FF13206E
:1016500000F012FFC8E700F0C7F9D3E7514BD3F809
:10166000EC2042F48072C3F8EC20D3F8EC3003F4A1
:1016700080730093009BCBE74FF400420023CDE939
:1016800006234FF08053219306A803F0D3FB40BB01
:10169000434A136801331360012B25D0414BD3F823
:1016A000E02042F00202C3F8E020D3F8E03003F07B
:1016B00002030393039B6023359302233693002494
:1016C000379438940923399335A9384801F010FD2F
:1016D00022460521142000F0BFFE142000F0CCFEAD
:1016E00082E700F081F9D3E72E4BD3F8EC2042F4E7
:1016F0008072C3F8EC20D3F8EC3003F480730293CB
:10170000029BCBE74FF400420023CDE906234FF0C4
:101710008053219306A803F08DFB48BB204A136831
:1017200001331360012B26D01E4BD3F8E02042F08A
:101730000802C3F8E020D3F8E03003F00803059373
:10174000059B4FF44053359302233693002437947E
:1017500038940525399535A9134801F0C9FC22466E
:1017600029469F2000F078FE9F2000F085FE3BE791
:1017700000F03AF9D2E70B4BD3F8EC2042F4807238
:10178000C3F8EC20D3F8EC3003F480730493049B8B
:10179000CAE700BF00A0004000A4004000D4004001
:1017A0006C03002400440258000C02580004025844
:1017B00008B509F01DF8012007F057FAFBE7000013
:1017C000034B0360034B0B6080231360704700BF23
:1017D000AC0B0024AC090024034B0360034B0B60EB
:1017E0004FF48073136070475009002450050024A3
:1017F00010B5A4B02D4C0DF1740CA646BEE80F0038
:10180000ACE80F009EE807008CE8070000211DA847
:1018100007F0F8F9264B18600DF1580C04F11C0E76
:10182000BEE80F00ACE80F009EE807008CE8070058
:10183000002116A807F0E6F91E4B18600DF13C0CCC
:1018400004F1380EBEE80F00ACE80F009EE8070078
:101850008CE8070000210FA807F0D4F9164B186098
:101860000DF1200C04F1540EBEE80F00ACE80F009F
:101870009EE807008CE80700002108A807F0C2F9DD
:101880000E4B18600DF1040E04F1700CBCE80F0053
:10189000AEE80F009CE807008EE80700002101A8D1
:1018A00007F0B0F9064B186024B010BD04B400086E
:1018B000886D0024846D0024244D0024C43C002441
:1018C000642C002470B58CB000240794089409940B
:1018D0000A940B943B4BD3F8E02042F00402C3F887
:1018E000E020D3F8E02002F004020192019AD3F83C
:1018F000E02042F08002C3F8E020D3F8E02002F0BC
:1019000080020292029AD3F8E02042F00102C3F86A
:10191000E020D3F8E02002F001020392039AD3F80A
:10192000E02042F00202C3F8E020D3F8E02002F009
:1019300002020492049AD3F8E02042F01002C3F8A5
:10194000E020D3F8E02002F010020592059AD3F8C7
:10195000E02042F00802C3F8E020D3F8E03003F0C2
:1019600008030693069B184D01224FF46041284658
:1019700001F0C8FC22460921284601F0C3FC4FF4BF
:10198000604307930126089609940A9407A92846FC
:1019900001F0AEFB092307930896099403230A93E9
:1019A00007A9284601F0A4FB4FF480730793022394
:1019B000089309940A940B9407A9044801F098FB32
:1019C0000CB070BD004402580008025800000258D4
:1019D00008B50268034B9A4200D008BD00F0C4FC71
:1019E000FBE700BF00E0004072B6FEE700B59DB027
:1019F0004C22002109A809F057F92022002101A852
:101A000009F052F9022002F0F3FA00230093254B6B
:101A10009A6922F440429A619B6903F4404300931F
:101A2000009B204B9B6913F4005FFAD0232309939A
:101A30004FF480330A9301220C9240230D930F92AE
:101A40000223129313931493142115911692179352
:101A500018930C23199300231A931B9309A802F0DF
:101A6000F9FAD0B93F230193032102910023039394
:101A700004934023059306934FF4806207920893E2
:101A800001A802F027FF50B94FF480220021084638
:101A900002F0D2FD1DB05DF804FBFFF7A5FFFFF7D4
:101AA000A3FF00BF0048025808B500F02FFCFFF765
:101AB0009DFFFFF707FF00F013F800F0A3FB00F015
:101AC0003FF800F0B9FA00F03DFBFFF7E1FCFFF74B
:101AD0000FFDFFF73FFDFFF78BFE07F08EF8FEE7E7
:101AE00008B51548154B03604FF48003436000238D
:101AF00083600722C2604FF0007202614FF0807273
:101B000042614FF0806282614FF08042C2610362A5
:101B100043628362C36242638363C3630364436457
:101B20008364C36403654365836503F02DFF00B9D7
:101B300008BDFFF759FFFBE7146E00240038004092
:101B400008B51648164B03604FF4800343604FF40A
:101B5000003383600723C360002303614FF080726A
:101B600042614FF0806282614FF08052C261036235
:101B700043628362C3624FF0804242638363C36304
:101B8000036443648364C36403654365836503F04E
:101B9000FBFE00B908BDFFF727FFFBE78C6D0024B3
:101BA00000140058F0B5BBB00446002135913691C1
:101BB000379138913991B82206A809F075F8236851
:101BC000514A934204D0514A93424DD03BB0F0BDAC
:101BD0004FF480520023CDE9062306A803F02AF92A
:101BE00000283ED14A4BD3F8E82042F48042C3F8A3
:101BF000E820D3F8E82002F480420092009AD3F85B
:101C0000E02042F00402C3F8E020D3F8E02002F024
:101C100004020192019AD3F8E02042F00202C3F8D4
:101C2000E020D3F8E03003F002030293029B062386
:101C300035930227369700263796032538950524D5
:101C4000399435A9334801F053FA4FF400533593D2
:101C5000369737963895399435A92F4801F048FAC8
:101C6000B4E7FFF7C1FEBDE74FF480420023CDE9A2
:101C700006234FF0A043319306A803F0DBF80028B9
:101C80003ED1234BD3F8F42042F02002C3F8F420D5
:101C9000D3F8F42002F020020392039AD3F8E02054
:101CA00042F00102C3F8E020D3F8E02002F0010284
:101CB0000492049AD3F8E02042F00402C3F8E02032
:101CC000D3F8E03003F004030593059B802335939C
:101CD000022536950024379438940823399335A982
:101CE0000E4801F005FA4FF480533593369537943A
:101CF00038940523399335A9064801F0F9F965E7C9
:101D0000FFF772FEBDE700BF003800400014005826
:101D1000004402580008025800040258000002580B
:101D200000B583B00A4BD3F8F42042F00202C3F8A6
:101D3000F420D3F8F43003F002030193019B002256
:101D40000F216FF0010000F087FB03B05DF804FB8A
:101D5000004402580F2801D90120704710B58AB0FD
:101D6000044600220146A12000F076FBA12000F0ED
:101D700083FB174B1C60174BD3F8EC2042F08072AA
:101D8000C3F8EC20D3F8EC3003F080730093009B91
:101D900001A902A802F01CFF02F008FF43000E4A4E
:101DA000A2FB03239B0C013B0C480D4A026040F24E
:101DB000E732C260436000230361836004F07AFD70
:101DC00010B101200AB010BD044804F0C9FBF9E7C6
:101DD000200000240044025883DE1B439C6E002434
:101DE00000E00040FEE7FEE7FEE7FEE7FEE77047A3
:101DF00008B5024800F0ECFF08BD00BFB0040024A5
:101E000008B5024800F0E4FF08BD00BF100400243C
:101E100008B5024801F0ABFD08BD00BF70C5002445
:101E200008B5024800F0D4FF08BD00BF70030024CD
:101E300008B5024804F0E9FB08BD00BF9C6E002411
:101E4000224AD2F8883043F47003C2F88830204B1D
:101E50001B6803F00F03062B06D81D4A136823F0F6
:101E60000F0343F0070313601A4B1A6842F0010294
:101E70001A6000221A611968174A0A401A60144B46
:101E80001B6813F0080F06D0114A136823F00F03E4
:101E900043F0070313600F4B00229A61DA611A6264
:101EA0000E4999620E49D9620E4919635A639963C2
:101EB000DA6319645A64196821F4802119601A667A
:101EC000094B43F2D2021A60704700BF00ED00E0F8
:101ED00000200052004402587FEDF6EA00020202A0
:101EE0000000FF01800201010040005284B003683D
:101EF0001A4A934207D0B3F1804F12D0184A934246
:101F00001DD004B07047174BD3F8F02042F0010207
:101F1000C3F8F020D3F8F03003F001030193019BE4
:101F2000EFE7104BD3F8E82042F00102C3F8E820B5
:101F3000D3F8E83003F001030293029BE1E7094B79
:101F4000D3F8E82042F00202C3F8E820D3F8E830E2
:101F500003F002030393039BD3E700BF000001409B
:101F6000000400400044025800B589B000230393E8
:101F700004930593069307930368294A934208D074
:101F8000B3F1804F1ED0274A934233D009B05DF899
:101F900004FB254BD3F8E02042F01002C3F8E02008
:101FA000D3F8E03003F010030093009B4FF4085384
:101FB0000393022304930123079303A91B4801F011
:101FC00097F8E3E7184BD3F8E02042F00102C3F89A
:101FD000E020D3F8E03003F001030193019B0523D7
:101FE0000393022304930123079303A9104801F0EC
:101FF0007FF8CBE70C4BD3F8E02042F00202C3F8A5
:10200000E020D3F8E03003F002030293029B0223A6
:1020100003930493079303A9064801F069F8B5E711
:102020000000014000040040004402580010025823
:10203000000002580004025810B59CB00024189407
:1020400019941A941B941594169417940E940F9443
:10205000109411941294139414943422214601A8DC
:1020600008F022FE3548364B0360C7234360846086
:1020700045F6BF53C360046144618023836104F06B
:1020800019FC002845D14FF48053189318A92B4808
:1020900004F064FD00283FD1284804F03BFC0028F0
:1020A0003DD1002315931693179315A9234804F0E7
:1020B000C1FE002836D160230E9300220F921092A9
:1020C00011921292139214920EA91C4804F09CFCD7
:1020D00058BB08220EA9194804F096FC40BB002307
:1020E000019302930393049305934FF400520692D5
:1020F000079309934FF000720A920B930D9301A975
:102100000E4804F0EFFEB0B90C48FFF72DFF1CB0ED
:1021100010BDFFF769FCB6E7FFF766FCBCE7FFF709
:1021200063FCBEE7FFF760FCC5E7FFF75DFCD0E7A7
:10213000FFF75AFCD3E7FFF757FCE5E7806F002471
:102140000000014000B58FB000230A930B930C935D
:102150000D930793089309930093019302930393BC
:1021600004930593069326484FF080420260C722ED
:102170004260836045F6BF52C26003618023836181
:1021800004F098FB50BB4FF480530A930AA91C48F3
:1021900004F0E4FC28BB1A4804F0BCFB20BB00237D
:1021A0000793099307A9164804F044FEF8B9602381
:1021B000009300220192029204926946104804F0B2
:1021C00023FCB8B9082269460D4804F01DFCA0B9EB
:1021D0000B48FFF7C9FE0FB05DF804FBFFF704FCE6
:1021E000D1E7FFF701FCD6E7FFF7FEFBD7E7FFF7E4
:1021F000FBFBDCE7FFF7F8FBE4E7FFF7F5FBE7E7BE
:10220000346F002400B58FB000230A930B930C9316
:102210000D930793089309930093019302930393FB
:102220000493059306932248224A026017224260D3
:10223000836042F20F72C26003618023836104F005
:1022400039FB28BB4FF480530A930AA9184804F0BD
:1022500085FC00BB164804F05DFBF8B9002307932A
:10226000099307A9124804F0E5FDD0B96023009353
:1022700000230193029304930C2269460C4804F056
:10228000C3FB88B90A48FFF76FFE0FB05DF804FB87
:10229000FFF7AAFBD6E7FFF7A7FBDBE7FFF7A4FBF7
:1022A000DCE7FFF7A1FBE1E7FFF79EFBEAE700BFF2
:1022B000E86E002400040040DFF834D0FFF7C0FDD2
:1022C0000C480D490D4A002302E0D458C450043391
:1022D000C4188C42F9D30A4A0A4C002301E0136067
:1022E0000432A242FBD308F037FDFFF7DDFB704755
:1022F0000000052400000024640200240CB600083D
:102300006402002424CD0024FEE7000010B5032061
:1023100000F090F802F0E2F90F498B69C3F3032350
:102320000E4AD35C03F01F03D8408B6903F00F0300
:10233000D35C03F01F0320FA03F3094A1360094B2F
:1023400018600F20FFF706FD10B10124204610BDD4
:102350000446FFF7E5FCF9E700440258A0B5000881
:102360001400002418000024034B1B78034A116852
:102370000B441360704700BF1C000024CC6F002486
:10238000014B1868704700BFCC6F002438B5044675
:10239000FFF7F6FF0546B4F1FF3F02D0044B1B7870
:1023A0001C44FFF7EDFF401BA042FAD338BD00BF2D
:1023B0001C000024002807DB00F01F024009012355
:1023C0009340024A42F82030704700BF00E100E02D
:1023D000002804DB0901C9B2044B1954704700F00E
:1023E0000F000901C9B2024B1954704700E400E024
:1023F00014ED00E000B500F00700C0F1070CBCF1DF
:10240000040F28BF4FF0040C031D062B0FD9C31E69
:102410004FF0FF3E0EFA0CF021EA000199400EFA4F
:1024200003FE22EA0E0241EA02005DF804FB0023EB
:10243000EEE700000649CB6823F4E0631B041B0CA5
:10244000000200F4E0600343024A1A43CA60704786
:1024500000ED00E00000FA0510B50446054BD86811
:10246000C0F30220FFF7C6FF01462046FFF7B0FF8A
:1024700010BD00BF00ED00E008B5FFF79BFF08BDF1
:1024800030B4416B0468D4F884306F4A134043EA97
:102490008103C4F884300468D4F8843023F47F03C3
:1024A000856B43EA0543C4F88430836B0B440468AE
:1024B000D4F88810114041EA8301C4F888100468F8
:1024C000D4F8881021F4FE01C56B41EA0541C4F837
:1024D0008810C16B03EB41030468D4F8A0101140CD
:1024E00041EA8301C4F8A0100468D4F8A01021F4D4
:1024F000FE01056C41EA0541C4F8A010016C446C72
:1025000004FB01330468D4F8B010114041EA8301A0
:10251000C4F8B0100468D4F8B01021F4FE01856C42
:1025200041EA0541C4F8B010816CC46C04FB01336E
:102530000468D4F8AC10114041EA8301C4F8AC102F
:10254000016D446D04FB01330468D4F8F0101140B0
:1025500041EA8301C4F8F0100468D4F8F01021F4C3
:102560007C11856D41EA0541C4F8F010816D03EBE3
:1025700041030468D4F8C0100A4042EA8303C4F857
:10258000C0300268D2F8C03023F47C13C16D43EA36
:102590000143C2F8C0300268D2F8C03023F07C5347
:1025A000016E43EA0163C2F8C030436B274A1A4404
:1025B0009200C266836B02EB83030367C16B03EB7C
:1025C000C1034367016C446C04FB01F103EB81031D
:1025D0008367816CC46C04FB01F103EB8103C36767
:1025E000016D446D04FB01F103EB8103C0F8803001
:1025F000816D03EBC103C0F88430816EC46D01FBB3
:1026000004FC03EB8C03C0F88830046E04FB01F17A
:1026100003EB8103C0F890300D498B420DD9D0F8FF
:102620009C3043F02003C0F89C30032380F898309E
:10263000012007E0002342F8043BD0F89030934299
:10264000F8D8002030BC70470300FFFF002B0010BB
:10265000FCD3004070B54C68FCB90D698C6825430B
:102660000C6845EA84450E6ACC6944EA06648E69C2
:1026700034434E693443CE6844EA0644D0F884605B
:10268000806E00FB03F306EB830E46F82350CEF872
:1026900004400EF1080E002019E00C698D682543F6
:1026A0000C68254345F08045DDE702EB000C9CF803
:1026B00003409CF802301B0443EA04639CF8014089
:1026C00043EA0423145C23434EF8043B0430CB68F4
:1026D000024CE35C8342E8D870BD00BFB0B500088F
:1026E00030B595B004464C22A04901A8FDF7F0FD95
:1026F000002C00F0388123689D4A934220D094F842
:1027000098300BB32268936923F010039361FFF7AD
:1027100037FE054623689A6912F0080F1AD0FFF7B2
:102720002FFE431B0A2BF5D9D4F89C3043F001034C
:10273000C4F89C30032384F89830012015B030BDD4
:1027400003F580736360DAE784F899302046FEF77A
:1027500033FFD7E79A6942F001029A61FFF710FE52
:10276000054623689A6912F0010F0FD1FFF708FEA2
:10277000401B0A28F5D9D4F89C3043F00103C4F873
:102780009C30032384F898300120D7E79A6942F0FF
:1027900002029A61237C012B40D02268936943F0A6
:1027A00040039361637C012B3ED02268936923F43C
:1027B00080439361A37C012B3CD02268936943F44E
:1027C000805393612268936923F44073A1680B439B
:1027D00093612268936923F0A403936122681369CB
:1027E00023F010031361E368012B29D0002B2CD0B8
:1027F000022B00F09B802268936943F08003936171
:102800002268136943F010031361E368032B1CD1A2
:102810002268936943F02003936116E0226893696C
:1028200023F040039361BDE72268936943F480433A
:102830009361BFE72268936923F480539361C1E7F2
:102840002268936943F004039361A3695A1EE36904
:10285000013B1B0243EA4263226A013A1343626965
:10286000013A216843EA0243CB61A368B3F5407F94
:1028700062D0236E33B12268D2F8C030616E0B4350
:10288000C2F8C030E36D226ED3420DD02168D1F87A
:10289000C83023F00703A26E14A800EB820252F89E
:1028A0004C2C1343C1F8C830236C6BB12168D1F8AC
:1028B000BC3023F00703626C14A800EB820252F8CC
:1028C0004C2C1343C1F8BC30A36C73B12168D1F810
:1028D000BC3023F07003E26C14A800EB820252F8C3
:1028E0004C2C43EA0213C1F8BC30236D73B121684C
:1028F000D1F8BC3023F4E063626D14A800EB8202CF
:1029000052F84C2C43EA0223C1F8BC302268184B21
:102910009A4222D00023C4F89430C4F89C3001239A
:1029200084F898302046FFF7ABFD07E722689369EB
:1029300043F02003936188E7A36A013BE26A013A0E
:1029400043EA0223226B013A43EA0213626A013A24
:10295000216843EA0243CB608BE76268936823F007
:1029600003039360D6E70120E8E600BF90B40008B7
:1029700000A0004090F89830013BDBB2012B07D952
:10298000D0F89C3043F00203C0F89C30012070471F
:102990000B68DBB9CB68072B0ED08A68DB0643EAED
:1029A00082730A6943EA02434A691343C26E496863
:1029B00042F82130002070470A69CB691B0243EAC4
:1029C00002438A69134343F06053EFE710B4CA68C7
:1029D0000B6943EA4273072A0FD04A698C6842EABE
:1029E0008472006F496800EBC10C40F83130CCF8BC
:1029F000042000205DF8044B70478A69F1E790F8E5
:102A000098C05FFA8CFCBCF1010F07D0D0F89C3065
:102A100043F00403C0F89C3001207047920042EA62
:102A2000011242EA43030168009A1A43C1F8802068
:102A30000020704790F89830DBB2012B07D0D0F817
:102A40009C3043F00403C0F89C300120704751B91A
:102A50000168D1F8F03023F07C5343EA0263C1F8F7
:102A6000F03000207047012909D00168D1F8B0305A
:102A700023F0FE4343EA0263C1F8B030F1E7016896
:102A8000D1F8A03023F0FE4343EA0263C1F8A0303E
:102A9000E7E790F89830DBB2012B07D0D0F89C30F4
:102AA00043F00403C0F89C3001207047022380F8F3
:102AB00098300268936923F0010393610023C0F802
:102AC0009C301846704738B5044690F89830DBB211
:102AD000022B2BD10368D3F8C00010F07C5F0CD020
:102AE000D3F8C40010F4001F0FD0D4F89C3043F486
:102AF0000073C4F89C3001201FE0D4F89C3043F0F0
:102B00002003C4F89C30012017E0D3F8C450C5F36B
:102B100004452B462046FFF79DFD22680123AB406C
:102B2000C2F8D030C4F89430002006E0D0F89C30D1
:102B300043F00803C0F89C30012038BD90F898C0DD
:102B40005FFA8CFCBCF1020F40F0DF8070B54029C9
:102B50000CD041293DD0046D8C426DD8D0F89C300A
:102B600043F02003C0F89C300120C1E00468D4F891
:102B7000A05015F4FE0F0CD0D4F8A45015F07F0F20
:102B80000FD1D0F89C3043F48073C0F89C30012002
:102B9000AEE0D0F89C3043F02003C0F89C30012018
:102BA000A6E0D4F8A46016F0807604D0D4F8A05043
:102BB000002D0CDB0026D4F8A440C4F305242644E1
:102BC000456F446C06FB04F405EB840E3BE00126E4
:102BD000F1E70468D4F8B05015F4FE0F0CD0D4F827
:102BE000B45015F07F0F0FD1D0F89C3043F48073B0
:102BF000C0F89C3001207BE0D0F89C3043F02003EB
:102C0000C0F89C30012073E0D4F8B46016F08076F0
:102C100004D0D4F8B050002D0CDB0026D4F8B4401A
:102C2000C4F305242644856FC46C06FB04F405EB4D
:102C3000840E08E00126F1E7C56F446D01FB04F442
:102C400005EB840E0026DEF8004004F0804454605A
:102C500064BBDEF80040C4F38A441460DEF8004030
:102C600004F000549460DEF8004004F00044146165
:102C7000BEF80440D461BEF8064004F00F04D460EE
:102C8000DEF8044004F480145461DEF8044004F4D7
:102C9000001494619EF8074004F07F041462DEF88B
:102CA0000440E40F54624FF0000C0CE0DEF80040EA
:102CB00024F060441460D1E70EEB0C04247A03F88E
:102CC0000C400CF1010CD468144D2C5D6445F3D814
:102CD000402909D041290CD01F290ED802680123B0
:102CE0008B40C2F8983002E00368C3F8A860002067
:102CF00070BD0368C3F8B860F9E701F01F0102680E
:102D000001238B40C2F89C30F1E7D0F89C3043F0AF
:102D10000803C0F89C300120704700BFB0B5000820
:102D200090F89830013BDBB2012B07D9D0F89C30EA
:102D300043F00203C0F89C300120704710B40368D0
:102D40009C6D0C4224D1DC6D44F00104DC6511F46F
:102D5000007F05D00468D4F8E0301343C4F8E030B5
:102D600011F4806F05D00468D4F8E4301343C4F83C
:102D7000E4300068436D0C4A0A40134343650B4A34
:102D8000536943EA9173536100205DF8044B704727
:102D90009C6D31EA040402D00324DC65D7E7DC6DC6
:102DA00044F00204DC65D2E7FFFFCF3F00A80040FB
:102DB000704770477047704770477047704770475B
:102DC000704770477047704770477047704770474B
:102DD0002DE9F04F83B00446904B1A695B691340AC
:102DE00001939B07009303681A6D02F4704A5A6DB1
:102DF0000AEA020A1A6D02F00F095A6D09EA02097D
:102E00001A6D02F0F0085A6D08EA02081E6D06F00D
:102E100071565A6D16401F6D07F060775A6D174056
:102E20005D6DD3F850B015F4807F02D01BF4807F25
:102E300064D115F4806F02D01BF4806F67D1009BC2
:102E4000002B74D1BAF1000F7ED1B9F1000F40F020
:102E50008780B8F1000F40F08F8015F4006F03D029
:102E60001BF4006F40F0948015F4007F03D01BF436
:102E7000007F40F0988015F4002F03D01BF4002F42
:102E800040F0A18015F4803F03D01BF4803F40F058
:102E9000A58015F4802F03D01BF4802F40F0A9806B
:102EA00015F4003F0FD01BF4003F0CD023684FF403
:102EB00000321A65594B00221A61D4F89C3043F055
:102EC0008003C4F89C30002F40F09E804EB12368F0
:102ED0001E65B20F514B1A61D4F89C303343C4F8CD
:102EE0009C3022684E4B9A4200F09C80D4F89C3073
:102EF000002B40F0F98003B0BDE8F08F4FF48072F2
:102F00001A65464B00221A61FFF75BFF91E72368C1
:102F1000D3F8DC10D3F8E4204FF4806018653F4B01
:102F20000020186111402046FFF747FF87E723681C
:102F300000221A65019B03F00303384A13610099CC
:102F40002046FFF735FF7DE72368C3F850A04FEA1E
:102F50009A72324B1A6151462046FFF72AFF74E7F6
:102F60002368C3F850904FEA99722C4B1A61494676
:102F70002046FDF799FE6CE72368C3F850804FEABE
:102F80009872264B1A6141462046FFF713FF64E70B
:102F900023684FF400621A65204B00221A61204614
:102FA000FFF709FF60E72368D3F8D810D3F8E020D3
:102FB0004FF400701865194B00201861114020462D
:102FC000FFF7FAFE57E723684FF400221A65134B08
:102FD00000221A612046FFF7F1FE53E723684FF401
:102FE00080321A650D4B00221A612046FFF7E7FE7A
:102FF0004FE723684FF480221A65084B00221A61BC
:103000002046FFF7DDFE4BE723681F65BA0F034B31
:103010001A6139462046FFF7D6FE57E700A8004060
:1030200000A0004063689A6812F0030F3FF45EAF9F
:10303000196A01F00F015A6A186A00F03008586ADC
:1030400008EA00081F6A07F4C077586A07401E6A3A
:1030500006F4FC46586A06401D6A05F4F025586AD5
:103060000540D3F82490D3F820A011401CD1B8F12A
:10307000000F1ED119F0400F02D01AF0400F20D1DE
:103080005FBB36B163681E62D4F89C303343C4F82A
:103090009C30002D3FF42AAF63681D62D4F89C3049
:1030A0002B43C4F89C3021E719622046FFF78CFEC1
:1030B000DDE76368C3F8208041462046FFF785FEC0
:1030C000D8E76368D96BDA6B4020186202F03F02E0
:1030D000090C2046FFF77AFED2E763681F62394683
:1030E0002046FFF774FECCE72046FFF76BFE02E7B1
:1030F000F0B583B000236BE085685E000324B44024
:1031000025EA0405CC68B4402C438460456825EA70
:103110000C054C68C4F300149C402C43446069E0E7
:10312000DD08083550F8254003F0070C4FEA8C0CF9
:103130004FF00F0E0EFA0CFE24EA0E0E0C6904FA84
:103140000CF444EA0E0440F825406BE0092400E04A
:10315000002404FA0EF42C430CF1020C664D45F8E1
:103160002C404FF0B0442568D44325EA02064F684E
:1031700017F4801F01D042EA05064FF0B0452E60DB
:103180006D6804EA05064F6817F4001F01D042EA93
:1031900005064FF0B0456E60D5F8845004EA050688
:1031A0004F6817F4003F01D042EA05064FF0B045E2
:1031B000C5F88460D5F880502C404E6816F4803FE6
:1031C00001D042EA05044FF0B042C2F8804001331A
:1031D0000A6832FA03F400F08C804FF0010C0CFA0C
:1031E00003FC1CEA0202F2D04C6804F00304013C28
:1031F000012C81D94C6804F00304032C0CD0C46862
:103200005D004FF0030C0CFA05FC24EA0C0C8C68F2
:10321000AC4044EA0C04C4604C6804F00304022C83
:103220003FF47EAF04684FEA430E4FF0030C0CFAF4
:103230000EFC24EA0C0C4C6804F0030404FA0EF4AF
:1032400044EA0C0404604C6814F4403FBFD02B4C9B
:10325000D4F8F45045F00205C4F8F450D4F8F44022
:1032600004F002040194019C4FEA930C0CF1020556
:10327000214C54F8255003F0030E4FEA8E0E0F2414
:1032800004FA0EF425EA04051D4CA0423FF460AF99
:1032900004F58064A0421ED004F58064A0421CD0D6
:1032A00004F58064A0421AD004F58064A04218D0CE
:1032B00004F58064A04216D004F58064A04214D0C6
:1032C00004F58064A04212D004F50064A0423FF4EB
:1032D0003DAF0A243DE701243BE7022439E70324FC
:1032E00037E7042435E7052433E7062431E70724CC
:1032F0002FE703B0F0BD00BF00040058004402589F
:10330000000002580AB18161704709048161704769
:103310002DE9F04383B0D0F8008001EBC10300EB4E
:1033200083039A6A5B6A9A4254D807460C469B1AF2
:1033300001EBC10200EB8202D2699A4200D31A4625
:1033400002F103094FEA990915E006F103094FEA72
:103350009909BB7904EBC40507EB8505296A00933D
:10336000B3B2E2B2404604F048F92B6A33442B6210
:10337000AB6A3344AB6208EB441303F510639B69FB
:103380009BB24B4512D304EBC40307EB83039A6A49
:103390005B6A9A420AD24BB19B1A04EBC40207EB58
:1033A0008202D6699E42D0D31E46CEE704EBC40308
:1033B00007EB83077A6ABB6A9A420FD804F00F04BE
:1033C0000122A240D8F8343823EA0203C8F834387E
:1033D000002000E0012003B0BDE8F0830020FAE700
:1033E00030B583B000287AD0044690F89534ABB15C
:1033F000032384F89534206803F0B6FE237C8DF80F
:103400000030231D0ECB206803F0E4FD58B10223E9
:1034100084F895340125284603B030BD80F89434F3
:1034200007F0F2FAE4E70021206804F0F6FA024619
:1034300008B9034617E0022384F895340125EAE72A
:1034400003EBC30104EB8101012048750B75CB85AB
:1034500000200876C861086203EBC30104EB810118
:1034600048620133DBB220799842E9D816E002EBDA
:10347000C20304EB8303002183F8551283F854221E
:1034800083F85812C3F85C12C3F8601202EBC2034F
:1034900004EB8303C3F864120132D2B29042E6D83F
:1034A000237C8DF80030231D0ECB206803F0B2FE84
:1034B000054658B900236374012384F89534237BAF
:1034C000012B08D0206804F067FAA4E7022384F8EF
:1034D000953401259FE7204600F074FDF2E70125B1
:1034E00099E7036890F89424012A1AD010B504468D
:1034F000012280F89424DA6812F0400F02D0427B57
:10350000012A09D0206803F029FE206804F036FA69
:10351000002084F8940410BD9A6B42F480329A63C0
:10352000F0E702207047000070B504460D460068C1
:10353000066C00EB411303F530639A68A179012909
:1035400011D038498E4256D03DB905EBC50304EB86
:103550008303D3F86432002B5ED0E9B2204607F033
:1035600095FA002070BD12F0080F09D02E498E4246
:10357000F7D912F4004FF4D04FF400429A60F0E70C
:1035800012F0200F02D020229A60EAE712F0280FF2
:10359000E7D125498E4206D912F4004F03D04FF4EB
:1035A00000429A60DDE705EBC50204EB8202D2F827
:1035B00074121B69C3F31203CB1AC2F868327DB9C7
:1035C00005EBC50204EB8202D2F864226AB105EB76
:1035D000C50204EB8202D2F860121944C2F86012EC
:1035E000E9B2204607F052FABBE704F29C420121FF
:1035F00004F052FAF4E712F4004F03D04FF4004203
:103600009A60AEE712F0200F01D020229A60E9B252
:10361000204607F03BFAA4E704F29C42002104F0A4
:103620003BFA9AE70A31544F0A30544F38B50446F2
:1036300003681D6C03EB4113D3F8081B0E4A954237
:1036400007D903F5306311F4004F02D04FF4004264
:103650009A60204607F012FA074B9D4202D9A379DF
:10366000012B01D0002038BD04F29C4201212068CA
:1036700004F012FAF6E700BF0A30544F90F8943481
:10368000012B0CD010B50446012380F8943441740A
:10369000006804F063F9002084F8940410BD02204F
:1036A000704738B505468C4611F0800F29D101F0DE
:1036B0000F0E0EEBCE04A40004F514740444211D77
:1036C0000EEBCE0E00EB8E0E00208EF855020CF0A5
:1036D0000F0C81F800C08A600B714A780AB1A1F81A
:1036E0001AC0022B1CD095F89434012B1BD0012357
:1036F00085F89434286803F065FE002085F894046A
:1037000038BD01F00F0000EBC001890010312944E1
:10371000043100EBC00005EB800001244475D6E7BE
:1037200000234B71DFE70220EAE710B504460A46A2
:1037300011F0800F20D101F00F0000EBC0039B00BF
:1037400003F514732344191D00EBC00004EB800043
:10375000002380F8553202F00F020A7094F8943476
:10376000012B18D0012384F89434206803F076FEEE
:10377000002084F8940410BD01F00F0000EBC0039A
:103780009B0010332344191D00EBC00004EB8000A4
:1037900001234375DFE70220EDE710B5144601F081
:1037A0000F0C0CEBCC01890001F5147101440431BC
:1037B0000CEBCC0E00EB8E0ECEF86022CEF864320D
:1037C0000023CEF868328EF855328EF854C28279D2
:1037D000012A04D0006803F027FF002010BDCEF8B6
:1037E0007042F7E701F00F0101EBC10100EB81002E
:1037F000D0F86802704710B5144601F00F0C0CEBBE
:10380000CC0189001031014404310CEBCC0E00EBEB
:103810008E0ECEF82020CEF824300023CEF82830AB
:1038200001238EF815308EF814C082799A4204D0A4
:10383000006803F0F9FE002010BDCEF83040F7E735
:1038400038B501F00F050279AA4238D304460B4679
:1038500011F0800F1FD101EBC101890001F5147136
:103860000144043103EBC30300EB8303002283F81C
:10387000552201238B700D7094F89434012B20D0C5
:10388000012384F89434206804F00DF885B10020F9
:1038900084F8940438BD05EBC5018900103101445A
:1038A000043105EBC50300EB830301225A75E0E701
:1038B00004F29C42A179206804F0EEF8E7E70120C9
:1038C000E8E70220E6E701F00F0302799A4230D3DD
:1038D00010B5044611F0800F1ED103EBC30189001F
:1038E00001F514710144043103EBC30200EB8202C1
:1038F000002082F8550200228A700B7094F89434EC
:10390000012B18D0012384F89434206803F0F8FFC9
:10391000002084F8940410BD03EBC301890010312A
:103920000144043103EBC30200EB82020120507515
:10393000E1E7012070470220EDE708B511F0800FA4
:103940000CD101F00F0101EBC101890001F51471E7
:1039500001440431006803F0F1FD08BD01F00F01DE
:1039600001EBC1018900103101440431F2E72DE976
:10397000F04F83B004460568284604F04AF810B1B9
:1039800003B0BDE8F08F0646206804F013F8002865
:10399000F6D005F50067BB68C3F30D23C4F8D43433
:1039A000206804F007F810F0020F04D02268536971
:1039B00003F002035361206803F0FCFF10F0100FC6
:1039C00016D02268936923F010039361D5F8208004
:1039D00008F00F0908F4F013B3F5802F6AD0B3F59F
:1039E000402F00F08D802268936943F010039361AB
:1039F000206803F0DFFF10F4002F40F09380206870
:103A000003F0D8FF10F4802F40F0FC80206803F012
:103A1000D1FF0028C0F27D81206803F0CBFF10F4B5
:103A2000006F09D0BB6813F0010F40F08A81226853
:103A3000536903F400635361206803F0BBFF10F087
:103A4000006F15D02268536903F00063536194F846
:103A5000CC34002B40F07981012184F8CC14236808
:103A60005B6DC3F38303C4F8D034204600F0BEFA84
:103A7000206803F09FFF10F4805F40F06A812068A7
:103A800003F098FF10F4005F40F0B681206803F067
:103A900091FF10F0080F40F0C781206803F08AFF03
:103AA00010F0800F00F0DA81AB6923F08003AB6186
:103AB0000126C3E147F6F07318EA030F93D04FEAEB
:103AC000181A4FEAC903019309EBC90B04EB8B0BDE
:103AD000C8F30A12DBF86012284603F0C1FEDBF8D7
:103AE0006032CAF30A0A5344CBF86032DBF868321A
:103AF000019A4A4404EB82025344C2F8683272E7E6
:103B0000082204F29C41284603F0AAFE09EBC903EF
:103B100004EB8303D3F86822C8F30A184244C3F8BD
:103B2000682260E7206803F049FF8046B14635E02F
:103B300005EB49130122C3F8082B49462046FFF73D
:103B4000F3FC3CE005EB49130822C3F8082B494677
:103B50002046FFF76BFD35E009EBC90304EB830357
:103B600093F85732012B41D005EB49130222C3F8D9
:103B7000082B1AF0200F04D005EB49132022C3F8BC
:103B8000082B1AF4005F05D005EB49134FF40052DF
:103B9000C3F8082B09F101094FEA5808B8F1000FE2
:103BA0003FF42DAF18F0010FF4D05FFA89FB5946AE
:103BB000206803F013FF824610F0010FB8D11AF00D
:103BC000080FBFD11AF0100F04D005EB49131022D3
:103BD000C3F8082B1AF0020FCBD06B6913F0800FDB
:103BE000BAD07B6843F480637B60B5E709EBC90317
:103BF00004EB8303002283F857225946204606F03F
:103C000095FFB1E7206803F0E1FE8046B14625E06C
:103C10005946204606F046FF1AF0080F04D005EB7F
:103C200049130822C3F808291AF0100F04D005EB35
:103C300049131022C3F808291AF0400F04D005EBED
:103C400049134022C3F808291AF0020F40D11AF094
:103C5000800F59D109F101094FEA5808B8F1000F56
:103C60003FF4D4AE18F0010FF4D05FFA89FB594647
:103C7000206803F0BCFE824610F0010FCCD009F0A2
:103C80000F02012101FA02F27B6B23EA02037B633C
:103C900005EB4913C3F80819A3798B42B8D109EB96
:103CA000C90304EB83031A6AD9690A441A62B9F199
:103CB000000FADD109EBC90304EB83035B6A002B52
:103CC000A6D104F29C420121206803F0E5FE9FE7A3
:103CD0004946284603F04EFA09EBC90304EB830377
:103CE000DB7D012B05D005EB49130222C3F808291F
:103CF000ADE709EBC90304EB83030022DA755946EB
:103D0000204606F019FFEEE749462046FFF700FB84
:103D1000A0E77B6823F001037B6094F8CC34012B8F
:103D200008D0204606F0FCFE2268536903F00043E9
:103D3000536171E6002184F8CC14204600F056F956
:103D4000F2E7204606F0D4FE71E6204606F0D0FEEB
:103D50008EE67B6823F001037B601021206803F06E
:103D600009FA1AE005EB46134FF67F31C3F808193C
:103D7000D3F8002922F40012C3F80029C3F8081B65
:103D8000D3F8002B22F40012C3F8002BD3F8002B39
:103D900042F00062C3F8002B01362379B342E1D828
:103DA000FB6943F00113FB61E37BDBB1D7F884309F
:103DB00043F00B03C7F884307B6C43F00B037B6448
:103DC000D5F8003823F4FE63C5F8003804F29C42AD
:103DD000A179206803F060FE2268536903F48053E0
:103DE00053614CE67A6942F22B0313437B613B69D2
:103DF00043F00B033B61E3E7206803F03FFE2068DC
:103E000003F0CEFAE071266800F0AEFE0146E279DA
:103E1000304603F031F9204606F055FE226853691A
:103E200003F40053536131E6204606F046FE226853
:103E3000536903F0080353612FE601362379B34237
:103E40000CD906EBC60304EB830393F85732012B1E
:103E5000F3D1F1B22046FFF770FDEEE7206803F0E2
:103E6000A9FD10F4801F25D1206803F0A3FD10F4F4
:103E7000001F59D0012326E001362379B3421BD914
:103E800005EB4613D3F8002906EBC60304EB8303C6
:103E90001B7E012BF0D1002AEEDA06EBC60304EB01
:103EA00083030122DA7566F07F01C9B22046FFF76D
:103EB00044FDE1E70126E0E72268536903F480133B
:103EC0005361D1E7013322799A4228D905EB431295
:103ED000D2F8001B03EBC30204EB820292F85822D3
:103EE000012AEFD10029EDDA01F48031D4F8D4248D
:103EF00002F001029142E5D103EBC30204EB82021E
:103F0000012182F85712AA6942F08002AA616A6907
:103F100012F0800FD6D17B6843F400737B60226877
:103F2000536903F400135361206803F043FD10F05C
:103F3000804F10D1206803F03DFD10F0040F3FF4D6
:103F40001FAD23685D6815F0040F0DD1226853681A
:103F50002B43536014E5204606F0F4FD22685369B4
:103F600003F080435361E5E7204606F0F1FDEDE7FD
:103F700010B40468606A31B940EA0240A0620020CF
:103F80005DF8044B70478C46A36A00EB1340002396
:103F900008E003F1400104EB8101496800EB1140A6
:103FA0000133DBB20CF1FF318B42F2D340EA024025
:103FB0000CF13F0104EB81046060E0E703685962A3
:103FC00000207047034602680121C0F8D814002081
:103FD00083F8CC04936943F000639361516D024B05
:103FE0000B435365704700BF03000010704700008B
:103FF000134BDB6813F0040F07D1114BDB6803F0A0
:10400000070383421AD00120704710B50C4AD368C9
:1040100023F007030343D360FEF7B2F90446084BCD
:104020005B6813F4005F07D1FEF7AAF9001BB0F537
:104030007A7FF4D9012000E0002010BD00207047F5
:1040400000480258024AD36843F08073D360704737
:1040500000480258002800F0D58238B504460368AD
:1040600013F0010F25D0A04A136903F03803926AB8
:10407000102B15D0182B0FD06368B3F5803F3FD0BD
:10408000002B53D1984B1A6822F480321A601A68B8
:1040900022F480221A6038E002F00302022AEBD1F7
:1040A000914B1B6813F4003F03D06368002B00F0B2
:1040B000AB82236813F0020F00F088808A4A1369EC
:1040C000926A13F038035AD0182B55D0E368002BAE
:1040D00000F0A98084490A6822F0190213430B609A
:1040E000FEF74EF90546804B1B6813F0040F40F0B5
:1040F0009180FEF745F9401B0228F4D903208AE29B
:10410000794A136843F48033136063682BB3FEF776
:1041100037F90546744B1B6813F4003FC9D1FEF70D
:104120002FF9401B6428F5D9032074E2B3F5A02FC2
:1041300009D06D4B1A6822F480321A601A6822F492
:1041400080221A60E1E7684B1A6842F480221A6004
:104150001A6842F480321A60D7E7FEF711F9054673
:10416000614B1B6813F4003FA3D0FEF709F9401B15
:104170006428F5D903204EE212F0030FA6D15A4B62
:104180001B6813F0040F03D0E368002B00F03E829D
:10419000554A136823F01903E1680B431360FEF7D7
:1041A000EFF80546504B1B6813F0040F06D1FEF7DD
:1041B000E7F8401B0228F5D903202CE24A4A53684D
:1041C00023F0FE43216943EA01635360236813F03F
:1041D000100F51D0444A136903F03803926A082B38
:1041E00039D0182B33D0E369002B69D03E4A1368CD
:1041F00043F080031360FEF7C3F805463A4B1B6893
:1042000013F4807F53D1FEF7BBF8401B0228F5D989
:10421000032000E2344A536823F0FE43216943EA55
:1042200001635360D2E7304A136823F0010313603F
:10423000FEF7A6F805462C4B1B6813F0040FC5D0FB
:10424000FEF79EF8401B0228F5D90320E3E102F0B7
:104250000302012AC7D1244B1B6813F4807F03D0CB
:10426000E369802B40F0D4811F4AD36823F07C534C
:10427000216A43EA0163D360236813F0080F49D031
:104280006369002B32D0184A536F43F00103536720
:10429000FEF776F80546144B5B6F13F0020F39D129
:1042A000FEF76EF8401B0228F5D90320B3E10E4A51
:1042B000D36823F07C53216A43EA0163D360DBE7D0
:1042C000094A136823F080031360FEF759F8054686
:1042D000054B1B6813F4807FCED0FEF751F8401BCE
:1042E0000228F5D9032096E1004402589D4A536FF5
:1042F00023F001035367FEF743F80546994B5B6FC4
:1043000013F0020F06D0FEF73BF8401B0228F5D948
:10431000032080E1236813F0200F29D0A3699BB10B
:10432000904A136843F480531360FEF729F805465A
:104330008C4B1B6813F4005F1AD1FEF721F8401B69
:104340000228F5D9032066E1864A136823F48053D6
:104350001360FEF715F80546824B1B6813F4005FE7
:1043600006D0FEF70DF8401B0228F5D9032052E1D4
:10437000236813F0040F21D1636A002B00F04A81F7
:10438000784A126902F03802182A00F0F180022BF4
:1043900075D0744A136823F080731360FDF7F0FF43
:1043A0000446704B1B6813F0007F00F0D880FDF7C7
:1043B000E7FF001B0228F4D903202CE16A4A1368A6
:1043C00043F480731360FDF7DBFF0546664B1B6803
:1043D00013F4807F06D1FDF7D3FF401B6428F5D985
:1043E000032018E1A368012B0AD00BBB5D4B1A6FA9
:1043F00022F001021A671A6F22F004021A6704E021
:10440000584A136F43F001031367A36833B3FDF7F2
:10441000B7FF0546534B1B6F13F0020FACD1FDF7EE
:10442000AFFF401B41F288339842F3D90320F2E0FA
:10443000052B09D04B4B1A6F22F001021A671A6F35
:1044400022F004021A67E0E7464B1A6F42F00402BA
:104450001A671A6F42F001021A67D6E7FDF790FF5C
:104460000546404B1B6F13F0020F85D0FDF788FF08
:10447000401B41F288339842F3D90320CBE0394AFC
:10448000136823F080731360FDF77AFF0546354B00
:104490001B6813F0007F06D0FDF772FF401B022857
:1044A000F5D90320B7E02F4B996A304A0A40A16A38
:1044B000E06A41EA00110A439A62226B013AC2F3B0
:1044C0000802616B0139490289B20A43A16B0139C3
:1044D000090401F4FE010A43E16B0139090601F008
:1044E000FE410A431A63DA6A22F00102DA625A6B69
:1044F0006FF3CF02A16C42EAC1025A63DA6A22F07A
:104500000C02216C0A43DA62DA6A22F00202616C60
:104510000A43DA62DA6A42F48032DA62DA6A42F430
:104520000032DA62DA6A42F48022DA62DA6A42F04F
:104530000102DA621A6842F080721A60FDF720FF09
:104540000446084B1B6813F0007F06D1FDF718FFE7
:10455000001B0228F5D903205DE000205BE000206D
:1045600059E000BF00440258004802580CFCFFFF0D
:1045700030498A6A086B012B4ED002F00303A16A0E
:104580008B424BD1C2F30512E36A9A4248D1C0F381
:104590000802236B013B9A4244D1C0F34622636B6D
:1045A000013B9A4240D1C0F30642A36B013B9A42C1
:1045B0003CD1C0F30660E36B013B984238D11D4B00
:1045C0005B6BC3F3CC03A26C9A4201D1002022E0C2
:1045D000184AD36A23F00103D362FDF7D1FE0546E2
:1045E000FDF7CEFEA842FBD0124A536B6FF3CF0308
:1045F000A16C43EAC1035363D36A43F00103D3625E
:10460000002008E001207047012004E0012002E0C2
:10461000012000E0002038BD0120FCE70120FAE77E
:104620000120F8E70120F6E70120F4E70120F2E796
:104630000120F0E70044025870B588B00C461546DA
:1046400010BB234ED6F8E03043F00103C6F8E0304B
:10465000D6F8E03003F001030193019B4FF480731F
:1046600003930223049303230693002305930793E4
:1046700003A91848FEF73CFD336923F0FE73254378
:104680001D43356108B070BD114ED6F8E03043F0DF
:104690000403C6F8E030D6F8E03003F004030293D8
:1046A000029B4FF4007303930223049303230693A6
:1046B00000230593079303A90748FEF719FD336903
:1046C00023F07E4344EAC5141C433461DAE700BF9B
:1046D000004402580000025800080258754B1B693C
:1046E00003F03803102B00F0DE80182B0FD0002BC6
:1046F00040F0DB806F4B1B6813F0200F00F0D78079
:104700006C4B1B68C3F3C1036B48D840704710B4AF
:10471000684B9A6A02F003029C6AC4F30510D96AD6
:1047200001F001015B6BC3F3CC0301FB03F307EE64
:10473000903AF8EE677A14F47C7F77D0012A4AD059
:10474000022A76D0002A40F091805A4B1B6813F061
:10475000200F23D057490A68C2F3C102564BD340F9
:1047600007EE103AF8EE476A07EE100AB8EE476A0D
:1047700086EE867A0B6BC3F3080306EE903AF8EEEA
:10478000666A9FED4E6A67EE867A76EEA77AF7EE56
:10479000006A77EEA67A27EE277A38E007EE100A4D
:1047A000F8EE476A9FED466A86EE267A414B1B6B10
:1047B000C3F3080306EE903AF8EE666A9FED3F6A8F
:1047C00067EE867A76EEA77AF7EE006A77EEA67A3B
:1047D00027EE277A1BE007EE100AF8EE476A9FEDF6
:1047E000396A86EE267A334B1B6BC3F3080306EE59
:1047F000903AF8EE666A9FED316A67EE867A76EE59
:10480000A77AF7EE006A77EEA67A27EE277A294B89
:104810001B6BC3F34623013307EE903AF8EE677A39
:10482000C7EE276AFCEEE67A17EE900A5DF8044BB5
:10483000704707EE100AF8EE476A9FED236A86EE8E
:10484000267A1C4B1B6BC3F3080306EE903AF8EE76
:10485000666A9FED1A6A67EE867A76EEA77AF7EEB9
:10486000006A77EEA67A27EE277AD0E707EE100ADD
:10487000F8EE476A9FED136A86EE267A0D4B1B6BA6
:10488000C3F3080306EE903AF8EE666A9FED0B6AF2
:1048900067EE867A76EEA77AF7EE006A77EEA67A6A
:1048A00027EE277AB3E7094870470948704702485E
:1048B000704700BF004402580090D0030000003948
:1048C0000024744C0024744A001BB74B00366E0160
:1048D00000093D00002800F0328170B50D46044605
:1048E0009B4B1B6803F00F038B420BD2984A136853
:1048F00023F00F030B431360136803F00F038B4285
:1049000040F01F81236813F0040F0CD02269914BF3
:104910009B6903F070039A4205D98E498B6923F095
:1049200070031A438A61236813F0080F0CD0626980
:10493000884BDB6903F070039A4205D98549CB693E
:1049400023F070031A43CA61236813F0100F0CD0D0
:10495000A269804BDB6903F4E0639A4205D97D4983
:10496000CB6923F4E0631A43CA61236813F0200F74
:104970000CD0E269774B1B6A03F070039A4205D9A9
:1049800074490B6A23F070031A430A62236813F018
:10499000020F0CD0E2686F4B9B6903F00F039A4241
:1049A00005D96C498B6923F00F031A438A61236888
:1049B00013F0010F41D0674A936923F47063A16833
:1049C0000B4393616368022B0AD0032B27D0012B82
:1049D0002CD0604A126812F0040F06D10120ADE01D
:1049E000126812F4003F00F0AE805A490A6922F0C2
:1049F000070213430B61FDF7C3FC0646554B1B69C9
:104A000003F038036268B3EBC20F16D0FDF7B8FCB1
:104A1000801B41F288339842F0D903208EE04D4A42
:104A2000126812F0007FE0D1012087E0494A126845
:104A300012F4807FD9D1012080E0236813F0020FA7
:104A40000CD0E268434B9B6903F00F039A4205D2F6
:104A500040498B6923F00F031A438A613C4B1B6862
:104A600003F00F03AB420AD9394A136823F00F034E
:104A70002B431360136803F00F03AB4265D1236827
:104A800013F0040F0CD02269324B9B6903F07003C2
:104A90009A4205D22F498B6923F070031A438A6129
:104AA000236813F0080F0CD062692A4BDB6903F00E
:104AB00070039A4205D22749CB6923F070031A4349
:104AC000CA61236813F0100F0CD0A269214BDB6977
:104AD00003F4E0639A4205D21E49CB6923F4E063F4
:104AE0001A43CA61236813F0200F0CD0E269194BF6
:104AF0001B6A03F070039A4205D216490B6A23F031
:104B000070031A430A62FFF7E9FD12498B69C3F388
:104B10000323114AD35C03F01F03D8408B6903F0D1
:104B20000F03D35C03F01F0320FA03F30B4A136057
:104B30000B4B18600B4B1868FDF70CF970BD01208A
:104B400070470120FAE70120F8E70120F6E700BFEF
:104B50000020005200440258A0B5000814000024B0
:104B6000180000242000002408B5FFF7B7FD0B4A09
:104B70009369C3F303230A49CB5C03F01F0320FAB4
:104B800003F3926902F00F02885C00F01F0023FA21
:104B900000F0044A1060044A136008BD0044025843
:104BA000A0B50008140000241800002408B5FFF781
:104BB000DBFF054BDB69C3F30223044AD35C03F03C
:104BC0001F03D84008BD00BF00440258A0B500082C
:104BD0003F230360114B1A6902F0070242609A6991
:104BE00002F4706282609A6902F00F02C2609A69F0
:104BF00002F070020261DA6902F070024261DA6961
:104C000002F4E06282611B6A03F07003C361044B2B
:104C10001B6803F00F030B60704700BF004402588D
:104C200000200052404B9B6A03F00303032B79D012
:104C300070B505460E463C4A136823F08063136046
:104C4000FDF79EFB0446384B1B6813F0006F06D03F
:104C5000FDF796FB031B022BF5D9032070BD324BE9
:104C60009A6A22F47C32296842EA01329A626A68BE
:104C7000013AC2F30802A9680139490289B20A431C
:104C8000E9680139090401F4FE010A43296901397F
:104C9000090601F0FE410A439A63DA6A22F0C00273
:104CA00069690A43DA62DA6A22F02002A9690A43D2
:104CB000DA62DA6A22F01002DA62DA6B6FF3CF029C
:104CC000E96942EAC102DA63DA6A42F01002DA62A2
:104CD000C6B91A46DB6A43F40023D362124A13684A
:104CE00043F080631360FDF74BFB04460E4B1B68DB
:104CF00013F0006F14D1FDF743FB001B0228F5D918
:104D00000320ABE7012E05D0074AD36A43F4001312
:104D1000D362E3E7044AD36A43F48013D362DDE746
:104D200000209BE70120704700440258404B9B6ADB
:104D300003F00303032B79D070B505460E463C4AB9
:104D4000136823F080531360FDF71AFB0446384BB9
:104D50001B6813F0005F06D0FDF712FB031B022B4C
:104D6000F5D9032070BD324B9A6A22F07C72296813
:104D700042EA01529A626A68013AC2F30802A968DB
:104D80000139490289B20A43E9680139090401F489
:104D9000FE010A4329690139090601F0FE410A436F
:104DA0001A64DA6A22F4406269690A43DA62DA6AEA
:104DB00022F40072A9690A43DA62DA6A22F4807284
:104DC000DA625A6C6FF3CF02E96942EAC1025A64AF
:104DD000DA6A42F48072DA62C6B91A46DB6A43F4D0
:104DE0008003D362124A136843F080531360FDF7C7
:104DF000C7FA04460E4B1B6813F0005F14D1FDF791
:104E0000BFFA001B0228F5D90320ABE7012E05D01D
:104E1000074AD36A43F08073D362E3E7044AD36A54
:104E200043F40003D362DDE700209BE701207047D5
:104E300000440258F8B50446036813F0006F2FD001
:104E4000436EB3F5001F25D015D8E3B1B3F5801F2D
:104E50000ED102210830FFF7E5FE054675BB934AE7
:104E6000136D23F44013616E0B431365002619E0A4
:104E70000126354616E0B3F5401F01D10025EEE7C7
:104E8000012635460EE0894AD36A43F40033D362E3
:104E90000025E4E702212830FFF748FF0546DDE75B
:104EA00000263546236813F4807F29D0A36D042B98
:104EB00022D8DFE803F005131A0A0A002E46F1E7AC
:104EC0007A4AD36A43F40033D362C5B9774A136D83
:104ED00023F00703A16D0B43136511E0002104F1DA
:104EE0000800FFF79FFE0546EFE7002104F12800C8
:104EF000FFF71CFF0546E8E70126354600E02E4691
:104F0000236813F4806F2DD0D4F8A430B3F5800F4C
:104F10003DD00DD8C3B1B3F5001F06D1002104F177
:104F20000800FFF77FFE054613E00126354619E02D
:104F3000B3F5000F0DD0B3F5200F0AD0B3F5C00FB5
:104F400007D0012635460DE0584AD36A43F40033B2
:104F5000D3621DBB554A936D23F46003D4F8A410AB
:104F60000B439365236813F4006F37D0D4F8A8304F
:104F7000B3F1007F5ED016D80BB3B3F1807F0FD1B1
:104F8000002104F10800FFF74DFE05461CE000215A
:104F900004F12800FFF7CAFE0546DAE72E46E1E7EE
:104FA000012635461AE0B3F1806F0DD0B3F1A06F42
:104FB0000AD0B3F1407F07D0012635460EE03B4AC8
:104FC000D36A43F40033D362002D3AD1374A936D4C
:104FD00023F0E063D4F8A8100B439365236813F023
:104FE000007F13D0E36C202B35D02FD833B1102B9A
:104FF00029D12E4AD36A43F40033D36295BB2B4A9E
:10500000D36C23F03003E16C0B43D364236813F4B7
:10501000805F4ED0E36DB3F5005F3FD027D87BB300
:10502000B3F5805F20D1002104F10800FFF7FAFDFD
:1050300005462AE0002104F12800FFF777FE054627
:10504000C2E72E46CAE701263546DFE7302BD5D02A
:1050500001263546DAE7022104F10800FFF7E2FDF8
:105060000546CBE72E46D1E70126354621E0B3F5CC
:10507000405F0AD0B3F5804F07D00126354618E0CF
:105080000A4AD36A43F40033D3628DB9074A136DD9
:1050900023F4E043E16D0B4313650AE0002104F1C2
:1050A0002800FFF743FE0546EFE700BF0044025823
:1050B0002E46236813F4005F17D0236EB3F5003F2C
:1050C0004FD042D843B1B3F5803F3BD1012104F129
:1050D0000800FFF7A7FD0546002D49D1924A136D40
:1050E00023F4E023216E0B431365236813F4804FF0
:1050F00019D0D4F8AC30B3F1005F4AD03DD843B1F9
:10510000B3F1805F36D1012104F10800FFF78AFD79
:105110000546002D44D1844A936D23F0E043D4F832
:10512000AC100B439365236813F4004F47D0E36E34
:10513000B3F1805F36D0B3F1005F4BD0BBB3012633
:1051400035463CE001263546CFE7B3F5802FC3D086
:10515000B3F5A02FC0D0B3F5403FBDD001263546F2
:10516000C3E7012104F12800FFF7E0FD0546B3E79E
:105170002E46BAE701263546D5E7B3F1804FC8D0B1
:10518000B3F1A04FC5D0B3F1405FC2D00126354680
:10519000C9E7012104F12800FFF7C8FD0546B8E77B
:1051A0002E46C0E7604AD36A43F40033D362C5B9E0
:1051B0005D4A136D23F04053E16E0B431365236882
:1051C00013F0807F1CD0A36C032B44D8DFE803F0DE
:1051D000100B3C10012104F10800FFF723FD0546E8
:1051E000E5E72E46EBE7504AD36A43F40033D36237
:1051F000A5BB4D4AD36C23F00303A16C0B43D364CE
:10520000236813F4800F2BD1236813F0010F00F0F3
:10521000A980A36F282B00F2A380DFE803F091A1FF
:10522000A1A1A1A1A1A18BA1A1A1A1A1A1A19AA18B
:10523000A1A1A1A1A1A191A1A1A1A1A1A1A191A17E
:10524000A1A1A1A1A1A19100022104F10800FFF7F1
:10525000E9FC0546CCE701263546D1E72E46CFE7E7
:10526000324A136843F480731360FDF789F80746E8
:105270002E4B1B6813F4807F05D1FDF781F8C01B0E
:105280006428F5D90325002D4AD1274B1B6FD4F88C
:10529000B020534013F4407F0CD0234B1A6F22F4FC
:1052A0004072196F41F480311967196F21F4803110
:1052B00019671A67D4F8B030B3F5807F15D08DBB6D
:1052C000D4F8B03003F44072B2F5407F1ED0164AD5
:1052D000136923F47C53136113490B6FD4F8B02086
:1052E000C2F30B0213430B678EE7FDF749F807463D
:1052F0000D4B1B6F13F0020FE1D1FDF741F8C01BFE
:1053000041F288339842F3D90325D8E70648026969
:1053100022F47C52064901EA131313430361DBE7CD
:105320002E4671E72E466FE70044025800480258A7
:10533000CFFFFF00012104F10800FFF773FC0546D1
:10534000E5B9B14A536D23F03803A16F0B435365A0
:1053500008E0012104F12800FFF7E8FC0546EFE72B
:1053600001263546236813F0020F17D0636F052B13
:1053700029D8DFE803F00B05210B0B0B2E46F1E7D4
:10538000012104F10800FFF74DFC0546F5B99E4ADE
:10539000536D23F00703616F0B435365236813F0CC
:1053A000040F26D0D4F89030052B00F2D680DFE829
:1053B00003F0150FCD151515012104F12800FFF795
:1053C000B5FC0546E2E701263546E7E72E46E5E768
:1053D000012104F10800FFF725FC0546002D40F0EF
:1053E000BF80894A936D23F00703D4F890100B43D4
:1053F0009365236813F0200F1DD0D4F88C30B3F1DF
:10540000005F00F0C18000F2B0804BB1B3F1805F6B
:1054100040F0A880002104F10800FFF703FC0546D6
:10542000002D40F0B880784A536D23F0E043D4F863
:105430008C100B435365236813F0400F1DD0D4F834
:105440009830B3F5006F00F0BA8000F2A9804BB13C
:10545000B3F5806F40F0A180002104F10800FFF750
:10546000E1FB0546002D40F0B180674A936D23F4BF
:10547000E053D4F898100B439365236813F0800F22
:105480001DD0D4F89C30B3F5804F00F0B38000F20B
:10549000A2804BB1B3F5005F40F09A80002104F187
:1054A0000800FFF7BFFB0546002D40F0AA80564AD2
:1054B000936D23F46043D4F89C100B4393652368E9
:1054C00013F0080F0DD0D4F88030B3F5805F00F0F2
:1054D0009D804D4A536D23F44053D4F880100B4304
:1054E0005365236813F0100F0DD0D4F89430B3F542
:1054F000807F00F09580444A936D23F44073D4F884
:1055000094100B439365236813F4002F00F09D80E3
:10551000D4F8A030B3F5803F00F08C80B3F5003FA5
:1055200008D0002B40F08D80002104F10800FFF727
:1055300079FB0546002D40F08780334A936D23F4B4
:105540004033D4F8A0100B4393657EE0012104F1B1
:105550002800FFF7EBFB054640E70126354648E704
:105560002E4646E70126354665E7B3F1804F3FF406
:1055700057AFB3F1A04F3FF453AFB3F1405F3FF4E7
:105580004FAF0126354656E7022104F12800FFF708
:10559000CDFB054644E72E464DE7012635466CE730
:1055A000B3F5805F3FF45EAFB3F5A05F3FF45AAF51
:1055B000B3F5406F3FF456AF012635465DE7022153
:1055C00004F12800FFF7B2FB05464BE72E4654E7EF
:1055D0000126354673E7B3F5004F3FF465AFB3F5E9
:1055E000204F3FF461AFB3F5C04F3FF45DAF0126EC
:1055F000354664E7022104F12800FFF797FB0546D2
:1056000052E72E465BE700BF00440258022104F136
:105610002800FFF78BFB00283FF45BAF012658E71B
:10562000022104F12800FFF781FB00283FF463AF5B
:10563000012660E7022104F12800FFF777FB054609
:1056400078E70126354600E02E46236813F4802FC4
:1056500024D0D4F88430B3F5001F14D0B3F5401F24
:1056600007D0B3F5801F15D17C4AD36A43F40033C9
:10567000D36295B9794A536D23F44013D4F884105A
:105680000B4353650AE0012104F12800FFF74EFBAC
:105690000546EEE70126354600E02E46236813F462
:1056A000803F06D0236DCBB1B3F5803F24D00126D7
:1056B0003546236813F0005F27D1236813F4003FB9
:1056C0003DD0E36FB3F5807F2BD027D9B3F5007FB2
:1056D0002CD0B3F5407F29D0012630E05F4AD36A51
:1056E00043F40033D36275B95C4AD36C23F480333E
:1056F000216D0B43D364DCE7022104F10800FFF7BE
:1057000091FA0546EFE72E46D3E7022104F128007F
:10571000FFF70CFB0028D0D00126CEE733B10126DD
:105720000DE04E4AD36A43F40033D362002D5CD1BE
:105730004A4A536D23F44073E16F0B43536523686A
:1057400013F4801F06D0454A136D23F00043216FE8
:105750000B431365236813F4001F06D03F4A136DF3
:1057600023F08073A16E0B431365236813F0804F01
:1057700009D03A4B1A6922F400421A611A69D4F826
:10578000B4100A431A612368002B06DA334AD36C3B
:1057900023F04053616D0B43D364236813F4000F6F
:1057A00007D02E4A536D23F44003D4F888100B43DE
:1057B0005365636813F0010F19D1636813F0020F8A
:1057C0001ED1636813F0040F23D1636813F0080F30
:1057D00028D1636813F0100F2DD1636813F0200FE8
:1057E00032D106B101263046F8BD2E46A7E700218A
:1057F00004F10800FFF716FA0028DED00646DCE7C1
:10580000012104F10800FFF70DFA0028D9D006465F
:10581000D7E7022104F10800FFF704FA0028D4D0EA
:105820000646D2E7002104F12800FFF77FFA00289E
:10583000CFD00646CDE7012104F12800FFF776FA24
:105840000028CAD00646C8E7022104F12800FFF765
:105850006DFA0028C5D00126C5E700BF00440258F4
:1058600010B402685369916941F0080191610168BF
:105870008A6942F010028A6101680A6822F0010216
:105880000A6001680C69294A22400A6101688A6835
:1058900022F440428A6090F88120D2B2042A0DD0CE
:1058A00013F0200F0AD0D0F8842042F08002C0F814
:1058B000842001688A6942F020028A6190F8812080
:1058C000D2B2032A0DD013F0400F0AD0D0F88420B2
:1058D00042F00402C0F8842001688A6942F0400264
:1058E0008A6113F4007F0AD0D0F8842042F00102CC
:1058F000C0F8842001688A6942F400728A6113F456
:10590000807F0AD0D0F8843043F00803C0F8843098
:105910000268936943F4807393610023A0F86230B6
:10592000A0F86A305DF8044B704700BF90FCFFFFA1
:10593000C36B5B09C0680830C00803FB00007047F8
:105940002DE9F84380460F4616461D46DDF82090A7
:1059500000E0BDB1D8F800305C6937EA04040CBF40
:1059600001230023B3420AD1FCF70AFDA0EB090092
:10597000A842EED3B5F1FF3FEBD0032000E00020BA
:10598000BDE8F8830320FBE7002800F0B78070B57E
:1059900004460023836205685C4B5D4E9D4218BF40
:1059A000B54214BF0126002607D0A3F574439D42DB
:1059B00003D0C3680F2B00F2A3802046FFF7B8FF87
:1059C0002EB1544B9D4202D0082800F29B804F4AD2
:1059D0004F4B9D4218BF954203D003F580639D4213
:1059E00002D1102800F2908094F88130F3B10223A4
:1059F00084F881302268136823F001031360236860
:105A00009A6802F4F812A169B1F1806F14D063684A
:105A100013F4800F23D0E368062B20D921680B688C
:105A200023F48073206D03430B601DE084F8803005
:105A30002046FCF7B7F8DAE76168B1F5800F06D0C9
:105A40000029E4D1A16BB1F1805FE0D102E0A06B4D
:105A50000028F5D1196841F480511960D7E7216811
:105A60000B6823F480730B60E369A16A0B43134353
:105A7000E26B1343E16822680B439360636B626AD5
:105A80001343A26B1343A269134322691343626950
:105A90001343226A134362681343E26C1343A26800
:105AA0001343A26C1343A16D22680B43D360636858
:105AB0006BB92268936823F4C05343F40063936086
:105AC0002268936823F4C06343F480639360226880
:105AD000136D23F001031365636813F4800F06D080
