:020000040800F2
:1000000000000524A91300080D0C0008F9130008CE
:100010000F0C0008110C0008130C00080000000071
:10002000000000000000000000000000E17900086E
:10003000150C000800000000817A0008E57A00082D
:10004000F9130008F9130008F9130008F913000860
:10005000F9130008F9130008F9130008F913000850
:10006000F9130008F9130008F9130008F913000840
:10007000F9130008F9130008F9130008F913000830
:10008000F9130008F9130008F9130008F913000820
:10009000F9130008F9130008F9130008F913000810
:1000A000F9130008F9130008F9130008F913000800
:1000B000F9130008F9130008F9130008F9130008F0
:1000C000F9130008F9130008F9130008F9130008E0
:1000D000F9130008F9130008F9130008F9130008D0
:1000E000F9130008F913000800000000F9130008D4
:1000F000F9130008F9130008F9130008F9130008B0
:10010000F9130008F9130008F9130008F91300089F
:10011000F9130008F9130008F9130008F91300088F
:10012000F9130008F9130008F9130008F91300087F
:10013000F9130008F9130008F9130008F91300086F
:1001400000000000000000000000000000000000AF
:10015000F9130008F9130008F9130008F91300084F
:10016000F9130008F9130008F9130008F91300083F
:10017000F9130008190C0008F9130008000000002A
:10018000F9130008F9130008F9130008F91300081F
:10019000F9130008F9130008F9130008F91300080F
:1001A000F9130008F9130008F91300080000000013
:1001B000F9130008F9130008F9130008F9130008EF
:1001C000F9130008F9130008000000000000000007
:1001D0000000000000000000F9130008000000000B
:1001E000000000000000000000000000000000000F
:1001F0000000000000000000F9130008F9130008D7
:10020000F9130008F913000800000000F9130008B2
:10021000F9130008F9130008F9130008F91300088E
:10022000F913000800000000F913000800000000A6
:10023000F9130008F913000800000000F913000882
:10024000F9130008F9130008F9130008F91300085E
:10025000F9130008F9130008F9130008F91300084E
:10026000F9130008F9130008F9130008F91300083E
:10027000F9130008F9130008F91300080000000042
:10028000F9130008F9130008F9130008F91300081E
:1002900000000000F9130008F91300080000000036
:1002A00000000000F9130008F9130008F913000812
:1002B000F9130008F9130008F9130008F9130008EE
:0C02C000F9130008F9130008F9130008F6
:1002D00053B94AB9002908BF00281CBF4FF0FF31AD
:1002E0004FF0FF3000F00CB8ADF1080C6DE904CE12
:1002F00008F012FCDDF804E0DDE9022304B07047E9
:10030000704700BF844641EA000313F003036DD138
:10031000403A41D351F8043B40F8043B51F8043BC8
:1003200040F8043B51F8043B40F8043B51F8043BCF
:1003300040F8043B51F8043B40F8043B51F8043BBF
:1003400040F8043B51F8043B40F8043B51F8043BAF
:1003500040F8043B51F8043B40F8043B51F8043B9F
:1003600040F8043B51F8043B40F8043B51F8043B8F
:1003700040F8043B51F8043B40F8043B51F8043B7F
:1003800040F8043B51F8043B40F8043B51F8043B6F
:1003900040F8043B403ABDD2303211D351F8043B0F
:1003A00040F8043B51F8043B40F8043B51F8043B4F
:1003B00040F8043B51F8043B40F8043B103AEDD2BE
:1003C0000C3205D351F8043B40F8043B043AF9D20F
:1003D000043208D0D2071CBF11F8013B00F8013BE2
:1003E00001D30B8803806046704700BF082A13D3EF
:1003F0008B078DD010F003038AD0C3F10403D21A07
:10040000DB071CBF11F8013B00F8013B80D331F83A
:10041000023B20F8023B7BE7043AD9D3013A11F8BA
:10042000013B00F8013BF9D20B7803704B78437025
:100430008B788370604670470348044B834202D038
:10044000034B03B118477047600600246006002480
:10045000000000000548064B1B1AD90F01EBA30151
:10046000491002D0034B03B11847704760060024BF
:10047000600600240000000010B5064C237843B944
:10048000FFF7DAFF044B13B10448AFF300800123F8
:10049000237010BD600600240000000018930008BF
:1004A00008B5054B1BB105490548AFF30080BDE811
:1004B0000840FFF7CFBF00BF000000006406002423
:1004C0001893000808B51548154B03600023836096
:1004D000C3600374437483741822426101228261F1
:1004E0000221C161016242628262C26202634363AD
:1004F0008263C36320210164042242648364C26472
:10050000036542658365C36501664366826601F0E3
:100510000DF900B908BD00F0FFF9FBE7C0070024A2
:1005200000A0004008B51648164B03600023836006
:10053000C360037443748374182242610122826190
:100540000221C161016242628262C262026340F2C0
:10055000064141638263C363202101640422426433
:100560008364C264036542658365C365016643664F
:10057000826601F0DBF800B908BD00F0CDF9FBE7B9
:100580002007002400A4004008B51648164B03605D
:1005900000238360C3600374437483741822426130
:1005A000012282610221C161016242628262C262F1
:1005B000026340F6120141638263C3632021016438
:1005C000042242648364C264036542658365C36533
:1005D00001664366826601F0A9F800B908BD00F023
:1005E0009BF9FBE78006002400D4004010B5BAB0A8
:1005F0000446002135913691379138913991B822CE
:1006000006A808F0E7FB2368634A934207D0634AD1
:10061000934242D0624A93427ED03AB010BD4FF42A
:1006200000420023CDE906234FF08053219306A812
:1006300003F07AF800BB5B4A136801331360012BA7
:100640001DD0594BD3F8E02042F00802C3F8E02057
:10065000D3F8E03003F008030193019B03233593A3
:10066000022336930023379338930923399335A90E
:100670004E4801F0A5F9D0E700F04EF9DBE74A4B10
:10068000D3F8EC2042F48072C3F8EC20D3F8EC30BD
:1006900003F480730093009BD3E74FF400420023E0
:1006A000CDE906234FF08053219306A803F03CF8D0
:1006B00008BB3C4A136801331360012B1ED03A4B30
:1006C000D3F8E02042F00202C3F8E020D3F8E03093
:1006D00003F002030393039B4FF4825335930223E9
:1006E00036930023379338930923399335A930483B
:1006F00001F066F991E700F00FF9DAE72A4BD3F839
:10070000EC2042F48072C3F8EC20D3F8EC3003F410
:1007100080730293029BD2E74FF400420023CDE99D
:1007200006234FF08053219306A802F0FDFF08BB7B
:100730001C4A136801331360012B1ED01A4BD3F8E7
:10074000E02042F00802C3F8E020D3F8E03003F0E4
:1007500008030593059B4FF44053359302233693CA
:100760000023379338930523399335A90F4801F0B7
:1007700027F952E700F0D0F8DAE70B4BD3F8EC207A
:1007800042F48072C3F8EC20D3F8EC3003F48073A9
:100790000493049BD2E700BF00A0004000A40040E7
:1007A00000D400407C06002400440258000C02588B
:1007B0000004025808B507F06FFF012007F06DF83C
:1007C000FBE70000034B0360034B0B6080231360C7
:1007D000704700BF600A00246008002410B588B08C
:1007E0000DF1040C074C0FCCACE80F0094E80700A7
:1007F0008CE80700002101A807F01CF8024B1860E4
:1008000008B010BD30930008F80B002470B58CB010
:1008100000240794089409940A940B943B4BD3F852
:10082000E02042F01002C3F8E020D3F8E02002F00C
:1008300010020192019AD3F8E02042F00402C3F8BA
:10084000E020D3F8E02002F004020292029AD3F8EA
:10085000E02042F08002C3F8E020D3F8E02002F06C
:1008600080020392039AD3F8E02042F00202C3F818
:10087000E020D3F8E02002F002020492049AD3F8B8
:10088000E02042F00802C3F8E020D3F8E02002F0B4
:1008900008020592059AD3F8E02042F00102C3F85D
:1008A000E020D3F8E03003F001030693069B184DD7
:1008B00001224EF20101284601F08CF9224608215E
:1008C000284601F087F94FF4604307930126089604
:1008D00009940A9407A9284601F072F8092307939E
:1008E0000896099403230A9307A9284601F068F89B
:1008F0004FF4807307930223089309940A940B948E
:1009000007A9044801F05CF80CB070BD004402581F
:10091000000802580000025872B6FEE700B59DB00C
:100920004C22002109A808F055FA2022002101A834
:1009300008F050FA022001F0C3FF00230093264B79
:100940009A6922F440429A619B6903F44043009300
:10095000009B214B9B6913F4005FFAD0232309937A
:100960004FF480330A9301220C9240230D930F928F
:1009700002231293139314932821159116920422A3
:10098000179218930C23199300231A931B9309A809
:1009900001F0C8FFD8B93F2301930321029100233E
:1009A0000393082304934023059306934FF4806236
:1009B0000792089301A802F0F5FB50B94FF480228A
:1009C0000021084602F0A0FA1DB05DF804FBFFF715
:1009D000A3FFFFF7A1FF00BF0048025808B500F0D1
:1009E0000DFDFFF79BFFFFF711FF00F055FB00F037
:1009F00015F800F08FFA00F009FA00F0E5FAFFF7B9
:100A000061FDFFF78FFDFFF7BFFD00F011FB00F068
:100A100077FBFFF7E3FE06F008FFFEE708B5154891
:100A2000154B03604FF4800343600023836007226B
:100A3000C2604FF0007202614FF0807242614FF06D
:100A4000806282614FF08042C261036243628362CE
:100A5000C36242638363C363036443648364C364A4
:100A600003654365836503F08FFD00B908BDFFF79B
:100A700053FFFBE7FC0B00240038004070B5B8B012
:100A80000446002133913491359136913791B82243
:100A900004A808F09FF92268274B9A4201D038B089
:100AA00070BD4FF480520023CDE9042304A802F066
:100AB0003BFE00283DD1214BD3F8E82042F4804290
:100AC000C3F8E820D3F8E82002F480420192019AAA
:100AD000D3F8E02042F00402C3F8E020D3F8E0208D
:100AE00002F004020292029AD3F8E02042F00202DD
:100AF000C3F8E020D3F8E03003F002030393039B34
:100B00000623339302263496002435943694052523
:100B1000379533A90A4800F053FF4FF480633393AD
:100B2000349635943694379533A9064800F048FF3B
:100B3000B5E7FFF7F1FEBEE7003800400044025879
:100B4000000802580004025800B583B00A4BD3F8DD
:100B5000F42042F00202C3F8F420D3F8F43003F09A
:100B600002030193019B00220F216FF0010000F0AE
:100B7000DFFC03B05DF804FB004402580F2801D9E4
:100B80000120704710B58AB0044600220146A1201A
:100B900000F0CEFCA12000F0DBFC174B1C60174BD3
:100BA000D3F8EC2042F08072C3F8EC20D3F8EC309C
:100BB00003F080730093009B01A902A802F082FC5D
:100BC00002F06EFC43000E4AA2FB03239B0C013B88
:100BD0000C480D4A026040F2E732C26043600023D5
:100BE0000361836003F0FEFF10B101200AB010BD65
:100BF000044803F00DFFF9E70C00002400440258FC
:100C000083DE1B43840C002400E00040FEE7FEE787
:100C1000FEE7FEE77047000008B5024801F00FFB51
:100C200008BD00BF1464002410B503460C4A0D49EA
:100C30000D48006840B10C4800680344521A9342C2
:100C400006D8094A136010BD0748084C0460F2E753
:100C500008F048F90C2303604FF0FF30F3E700BFC2
:100C60000000052400080000D00C0024006C0024C3
:100C7000224AD2F8883043F47003C2F88830204BFF
:100C80001B6803F00F03062B06D81D4A136823F0D8
:100C90000F0343F0070313601A4B1A6842F0010276
:100CA0001A6000221A611968174A0A401A60144B28
:100CB0001B6813F0080F06D0114A136823F00F03C6
:100CC00043F0070313600F4B00229A61DA611A6246
:100CD0000E4999620E49D9620E4919635A639963A4
:100CE000DA6319645A64196821F4802119601A665C
:100CF000094B43F2D2021A60704700BF00ED00E0DA
:100D000000200052004402587FEDF6EA0002020281
:100D10000000FF01800201010040005282B0036820
:100D2000114A934204D0114A93420FD002B0704747
:100D30000F4BD3F8F02042F00102C3F8F020D3F8B3
:100D4000F03003F001030093009BEFE7084BD3F86A
:100D5000E82042F00202C3F8E820D3F8E83003F0BC
:100D600002030193019BE1E7000001400004004001
:100D70000044025800B589B00023039304930593FF
:100D80000693079303681C4A934205D01B4A93427B
:100D90001BD009B05DF804FB194BD3F8E02042F0FA
:100DA0001002C3F8E020D3F8E03003F01003019301
:100DB000019B4FF4085303930223049301230793E9
:100DC00003A9104800F0FCFDE3E70D4BD3F8E02049
:100DD00042F00202C3F8E020D3F8E03003F002034F
:100DE0000293029B022303930493079303A90648EB
:100DF00000F0E6FDCDE700BF000001400004004028
:100E000000440258001002580004025810B59CB06B
:100E10000024189419941A941B94159416941794FA
:100E20000E940F94109411941294139414943422E9
:100E3000214601A807F0CEFF3448354B03604460DB
:100E400084604FF6FF73C36004614461846103F002
:100E5000C9FE002845D14FF48053189318A92B4898
:100E600004F014F800283FD1284803F0EBFE0028D6
:100E70003DD1002315931693179315A9234804F029
:100E8000A1F8002836D160230E9300220F92109211
:100E900011921292139214920EA91C4803F04CFF67
:100EA00058BB08220EA9194803F046FF40BB002397
:100EB000019302930393049305934FF40052069217
:100EC000079309934FF000720A920B930D9301A9B7
:100ED0000E4804F0CFF8B0B90C48FFF74BFF1CB038
:100EE00010BDFFF719FDB6E7FFF716FDBCE7FFF7EA
:100EF00013FDBEE7FFF710FDC5E7FFF70DFDD0E7D7
:100F0000FFF70AFDD3E7FFF707FDE5E7200D002413
:100F10000000014000B58FB000230A930B930C939F
:100F20000D930793089309930093019302930393FE
:100F30000493059306932248224A026017224260D6
:100F4000836042F20F72C26003618023836103F009
:100F500049FE28BB4FF480530A930AA9184803F0AE
:100F600095FF00BB164803F06DFEF8B90023079308
:100F7000099307A9124804F025F8D0B9602300931B
:100F800000230193029304930C2269460C4803F05A
:100F9000D3FE88B90A48FFF7EDFE0FB05DF804FBF9
:100FA000FFF7BAFCD6E7FFF7B7FCDBE7FFF7B4FCC7
:100FB000DCE7FFF7B1FCE1E7FFF7AEFCEAE700BFD3
:100FC000D40C00240004004008B51748174B0360F8
:100FD0004FF4E133436000238360C36003610C225C
:100FE00042618361C36103624362836204F03DFD39
:100FF00070B900210C4804F0B0FD60B900210A4826
:1010000004F0D0FD50B9084804F088FD48B908BD87
:10101000FFF782FCEDE7FFF77FFCEFE7FFF77CFCD3
:10102000F1E7FFF779FCF2E7280F002400500040B9
:1010300008B51748174B03604FF4E13343600023B2
:101040008360C36003610C2242618361C3610362F8
:101050004362836204F009FD70B900210C4804F07A
:101060007CFD60B900210A4804F09CFD50B9084895
:1010700004F054FD48B908BDFFF74EFCEDE7FFF75B
:101080004BFCEFE7FFF748FCF1E7FFF745FCF2E721
:10109000940E00240078004008B51748174B0360F1
:1010A0004FF4E133436000238360C36003610C228B
:1010B00042618361C36103624362836204F0D5FCD1
:1010C00070B900210C4804F048FD60B900210A48BD
:1010D00004F068FD50B9084804F020FD48B908BD87
:1010E000FFF71AFCEDE7FFF717FCEFE7FFF714FC3B
:1010F000F1E7FFF711FCF2E7000E002400100140B9
:1011000008B51748174B03604FF4E13343600023E1
:101110008360C36003610C2242618361C361036227
:101120004362836204F0A1FC70B900210C4804F012
:1011300014FD60B900210A4804F034FD50B9084894
:1011400004F0ECFC48B908BDFFF7E6FBEDE7FFF75C
:10115000E3FBEFE7FFF7E0FBF1E7FFF7DDFBF2E78B
:101160006C0D0024001C014070B5BEB00446002187
:1011700039913A913B913C913D91B8220AA807F0F0
:1011800029FE23687F4A93420CD07F4A934254D071
:101190007E4A934200F084807D4A934200F0B380FF
:1011A0003EB070BD02220023CDE90A230AA802F056
:1011B000BBFA00283ED1774BD3F8E82042F48012E6
:1011C000C3F8E820D3F8E82002F480120192019AD3
:1011D000D3F8E02042F00202C3F8E020D3F8E02088
:1011E00002F002020292029AD3F8E02042F00802D2
:1011F000C3F8E020D3F8E03003F008030393039B27
:101200004FF40053399302253A9500243B943C94C3
:101210000E233D9339A9604800F0D2FB0423399393
:101220003A953B943C9408233D9339A95B4800F0E0
:10123000C7FBB5E7FFF770FBBDE702220023CDE94E
:101240000A230AA802F070FA38BB524BD3F8E82000
:1012500042F08042C3F8E820D3F8E82002F0804250
:101260000492049AD3F8E02042F01002C3F8E02080
:10127000D3F8E03003F010030593059B4FF4C073DF
:10128000399302233A9300233B933C9307233D93E6
:1012900039A9434800F094FB82E7FFF73DFBD4E710
:1012A00001220023CDE90A230AA802F03DFA38BB47
:1012B000384BD3F8F02042F01002C3F8F020D3F8F6
:1012C000F02002F010020692069AD3F8E02042F0D5
:1012D0000102C3F8E020D3F8E03003F001030793E4
:1012E000079B4FF4C063399302233A9300233B9347
:1012F0003C9307233D9339A92A4800F061FB4FE74F
:10130000FFF70AFBD4E701220023CDE90A230AA84C
:1013100002F00AFA002831D11E4BD3F8F02042F037
:101320008002C3F8F020D3F8F02002F08002089287
:10133000089AD3F8E02042F01002C3F8E020D3F876
:10134000E03003F010030993099B0423399302262C
:101350003A9600243B943C943D93114D39A928467C
:1013600000F02EFB082339933A963B943C940B23D0
:101370003D9339A9284600F023FB11E7FFF7CCFA8B
:10138000CAE700BF00500040007800400010014054
:10139000001C01400044025800040258000C02588E
:1013A0000010025800000258DFF834D0FFF760FC4C
:1013B0000C480D490D4A002302E0D458C4500433B0
:1013C000C4188C42F9D30A4A0A4C002301E0136086
:1013D0000432A242FBD307F08BFDFFF7FFFA704700
:1013E000000005240000002460060024409400084A
:1013F00060060024FC6B0024FEE7000010B503200B
:1014000000F084F801F0D2FD0F498B69C3F3032388
:101410000E4AD35C03F01F03D8408B6903F00F031F
:10142000D35C03F01F0320FA03F3094A1360094B4E
:1014300018600F20FFF7A2FB10B10124204610BD59
:101440000446FFF781FBF9E700440258F4930008D3
:101450000000002404000024014B1868704700BFFE
:10146000BC0F002438B50446FFF7F6FF0546B4F17B
:10147000FF3F02D0044B1B781C44FFF7EDFF401BDD
:10148000A042FAD338BD00BF08000024002807DBC3
:1014900000F01F02400901239340024A42F8203025
:1014A000704700BF00E100E0002804DB0901C9B279
:1014B000044B1954704700F00F000901C9B2024BE8
:1014C0001954704700E400E014ED00E000B500F0AE
:1014D0000700C0F1070CBCF1040F28BF4FF0040C4B
:1014E000031D062B0FD9C31E4FF0FF3E0EFA0CF062
:1014F00021EA000199400EFA03FE22EA0E0241EAB7
:1015000002005DF804FB0023EEE700000649CB680B
:1015100023F4E0631B041B0C000200F4E0600343AF
:10152000024A1A43CA60704700ED00E00000FA0565
:1015300010B50446054BD868C0F30220FFF7C6FF7C
:1015400001462046FFF7B0FF10BD00BF00ED00E0F0
:1015500008B5FFF79BFF08BD30B4416B0468D4F8B1
:1015600084306F4A134043EA8103C4F8843004682E
:10157000D4F8843023F47F03856B43EA0543C4F831
:101580008430836B0B440468D4F88810114041EA1E
:101590008301C4F888100468D4F8881021F4FE018F
:1015A000C56B41EA0541C4F88810C16B03EB4103E8
:1015B0000468D4F8A010114041EA8301C4F8A010D7
:1015C0000468D4F8A01021F4FE01056C41EA05413D
:1015D000C4F8A010016C446C04FB01330468D4F817
:1015E000B010114041EA8301C4F8B0100468D4F887
:1015F000B01021F4FE01856C41EA0541C4F8B01039
:10160000816CC46C04FB01330468D4F8AC10114045
:1016100041EA8301C4F8AC10016D446D04FB013351
:101620000468D4F8F010114041EA8301C4F8F010C6
:101630000468D4F8F01021F47C11856D41EA05416D
:10164000C4F8F010816D03EB41030468D4F8C010B6
:101650000A4042EA8303C4F8C0300268D2F8C030BE
:1016600023F47C13C16D43EA0143C2F8C030026821
:10167000D2F8C03023F07C53016E43EA0163C2F814
:10168000C030436B274A1A449200C266836B02EB58
:1016900083030367C16B03EBC1034367016C446CB5
:1016A00004FB01F103EB81038367816CC46C04FBD1
:1016B00001F103EB8103C367016D446D04FB01F18C
:1016C00003EB8103C0F88030816D03EBC103C0F8E8
:1016D0008430816EC46D01FB04FC03EB8C03C0F805
:1016E0008830046E04FB01F103EB8103C0F89030F5
:1016F0000D498B420DD9D0F89C3043F02003C0F83F
:101700009C30032380F89830012007E0002342F842
:10171000043BD0F890309342F8D8002030BC70479A
:101720000300FFFF002B0010FCD3004030B595B044
:1017300004464C22A04901A8FEF7E4FD002C00F06D
:10174000388123689D4A934220D094F898300BB397
:101750002268936923F010039361FFF77DFE05462D
:1017600023689A6912F0080F1AD0FFF775FE431B21
:101770000A2BF5D9D4F89C3043F00103C4F89C300F
:10178000032384F89830012015B030BD03F5807331
:101790006360DAE784F899302046FEF727FFD7E741
:1017A0009A6942F001029A61FFF756FE05462368E6
:1017B0009A6912F0010F0FD1FFF74EFE401B0A2865
:1017C000F5D9D4F89C3043F00103C4F89C300323CE
:1017D00084F898300120D7E79A6942F002029A61B2
:1017E000237C012B40D02268936943F0400393612E
:1017F000637C012B3ED02268936923F4804393617C
:10180000A37C012B3CD02268936943F480539361FD
:101810002268936923F44073A1680B4393612268A3
:10182000936923F0A40393612268136923F01003E2
:101830001361E368012B29D0002B2CD0022B00F080
:101840009B802268936943F0800393612268136947
:1018500043F010031361E368032B1CD122689369E2
:1018600043F02003936116E02268936923F040035C
:101870009361BDE72268936943F480439361BFE7B6
:101880002268936923F480539361C1E722689369C6
:1018900043F004039361A3695A1EE369013B1B02F1
:1018A00043EA4263226A013A13436269013A2168BA
:1018B00043EA0243CB61A368B3F5407F62D0236E55
:1018C00033B12268D2F8C030616E0B43C2F8C03029
:1018D000E36D226ED3420DD02168D1F8C83023F0D9
:1018E0000703A26E14A800EB820252F84C2C13439B
:1018F000C1F8C830236C6BB12168D1F8BC3023F03B
:101900000703626C14A800EB820252F84C2C1343BC
:10191000C1F8BC30A36C73B12168D1F8BC3023F09E
:101920007003E26C14A800EB820252F84C2C43EADC
:101930000213C1F8BC30236D73B12168D1F8BC30FB
:1019400023F4E063626D14A800EB820252F84C2C81
:1019500043EA0223C1F8BC302268184B9A4222D0D5
:101960000023C4F89430C4F89C30012384F89830E4
:101970002046FFF7F1FD07E72268936943F0200353
:10198000936188E7A36A013BE26A013A43EA0223D2
:10199000226B013A43EA0213626A013A216843EA80
:1019A0000243CB608BE76268936823F00303936084
:1019B000D6E70120E8E600BF4C93000800A00040F5
:1019C000F0B583B000236BE085685E000324B4406B
:1019D00025EA0405CC68B4402C438460456825EAB8
:1019E0000C054C68C4F300149C402C43446069E02F
:1019F000DD08083550F8254003F0070C4FEA8C0C41
:101A00004FF00F0E0EFA0CFE24EA0E0E0C6904FACB
:101A10000CF444EA0E0440F825406BE0092400E091
:101A2000002404FA0EF42C430CF1020C664D45F828
:101A30002C404FF0B0442568D44325EA02064F6895
:101A400017F4801F01D042EA05064FF0B0452E6022
:101A50006D6804EA05064F6817F4001F01D042EADA
:101A600005064FF0B0456E60D5F8845004EA0506CF
:101A70004F6817F4003F01D042EA05064FF0B04529
:101A8000C5F88460D5F880502C404E6816F4803F2D
:101A900001D042EA05044FF0B042C2F88040013361
:101AA0000A6832FA03F400F08C804FF0010C0CFA53
:101AB00003FC1CEA0202F2D04C6804F00304013C6F
:101AC000012C81D94C6804F00304032C0CD0C468A9
:101AD0005D004FF0030C0CFA05FC24EA0C0C8C683A
:101AE000AC4044EA0C04C4604C6804F00304022CCB
:101AF0003FF47EAF04684FEA430E4FF0030C0CFA3C
:101B00000EFC24EA0C0C4C6804F0030404FA0EF4F6
:101B100044EA0C0404604C6814F4403FBFD02B4CE2
:101B2000D4F8F45045F00205C4F8F450D4F8F44069
:101B300004F002040194019C4FEA930C0CF102059D
:101B4000214C54F8255003F0030E4FEA8E0E0F245B
:101B500004FA0EF425EA04051D4CA0423FF460AFE0
:101B600004F58064A0421ED004F58064A0421CD01D
:101B700004F58064A0421AD004F58064A04218D015
:101B800004F58064A04216D004F58064A04214D00D
:101B900004F58064A04212D004F50064A0423FF432
:101BA0003DAF0A243DE701243BE7022439E7032443
:101BB00037E7042435E7052433E7062431E7072413
:101BC0002FE703B0F0BD00BF0004005800440258E6
:101BD000000002580AB181617047090481617047B1
:101BE0002DE9F04383B0D0F8008001EBC10300EB96
:101BF00083039A6A5B6A9A4254D807460C469B1A3A
:101C000001EBC10200EB8202D2699A4200D31A466C
:101C100002F103094FEA990915E006F103094FEAB9
:101C20009909BB7904EBC40507EB8505296A009384
:101C3000B3B2E2B2404604F012FB2B6A33442B628B
:101C4000AB6A3344AB6208EB441303F510639B6942
:101C50009BB24B4512D304EBC40307EB83039A6A90
:101C60005B6A9A420AD24BB19B1A04EBC40207EB9F
:101C70008202D6699E42D0D31E46CEE704EBC4034F
:101C800007EB83077A6ABB6A9A420FD804F00F0405
:101C90000122A240D8F8343823EA0203C8F83438C5
:101CA000002000E0012003B0BDE8F0830020FAE747
:101CB00030B583B000287AD0044690F89534ABB1A3
:101CC000032384F89534206804F080F8237C8DF891
:101CD0000030231D0ECB206803F0AEFF58B1022365
:101CE00084F895340125284603B030BD80F894343B
:101CF00006F0C0FDE4E70021206804F0C0FC0246C5
:101D000008B9034617E0022384F895340125EAE771
:101D100003EBC30104EB8101012048750B75CB85F2
:101D200000200876C861086203EBC30104EB81015F
:101D300048620133DBB220799842E9D816E002EB21
:101D4000C20304EB8303002183F8551283F8542265
:101D500083F85812C3F85C12C3F8601202EBC20396
:101D600004EB8303C3F864120132D2B29042E6D886
:101D7000237C8DF80030231D0ECB206804F07CF806
:101D8000054658B900236374012384F89534237BF6
:101D9000012B08D0206804F031FCA4E7022384F86A
:101DA000953401259FE7204600F074FDF2E70125F8
:101DB00099E7036890F89424012A1AD010B50446D4
:101DC000012280F89424DA6812F0400F02D0427B9E
:101DD000012A09D0206803F0F3FF206804F000FC1A
:101DE000002084F8940410BD9A6B42F480329A6308
:101DF000F0E702207047000070B504460D46006809
:101E0000066C00EB411303F530639A68A179012950
:101E100011D038498E4256D03DB905EBC50304EBCD
:101E20008303D3F86432002B5ED0E9B2204606F07B
:101E300063FD002070BD12F0080F09D02E498E42BC
:101E4000F7D912F4004FF4D04FF400429A60F0E753
:101E500012F0200F02D020229A60EAE712F0280F39
:101E6000E7D125498E4206D912F4004F03D04FF432
:101E700000429A60DDE705EBC50204EB8202D2F86E
:101E800074121B69C3F31203CB1AC2F868327DB90E
:101E900005EBC50204EB8202D2F864226AB105EBBD
:101EA000C50204EB8202D2F860121944C2F8601233
:101EB000E9B2204606F020FDBBE704F29C42012176
:101EC00004F01CFCF4E712F4004F03D04FF400427E
:101ED0009A60AEE712F0200F01D020229A60E9B29A
:101EE000204606F009FDA4E704F29C42002104F01C
:101EF00005FC9AE70A31544F0A30544F38B504466E
:101F000003681D6C03EB4113D3F8081B0E4A95427E
:101F100007D903F5306311F4004F02D04FF40042AB
:101F20009A60204606F0E0FC074B9D4202D9A37957
:101F3000012B01D0002038BD04F29C420121206811
:101F400004F0DCFBF6E700BF0A30544F90F89434FD
:101F5000012B0CD010B50446012380F89434417451
:101F6000006804F02DFB002084F8940410BD0220CA
:101F7000704738B505468C4611F0800F29D101F025
:101F80000F0E0EEBCE04A40004F514740444211DBE
:101F90000EEBCE0E00EB8E0E00208EF855020CF0EC
:101FA0000F0C81F800C08A600B714A780AB1A1F861
:101FB0001AC0022B1CD095F89434012B1BD001239E
:101FC00085F89434286804F02FF8002085F89404EC
:101FD00038BD01F00F0000EBC00189001031294429
:101FE000043100EBC00005EB800001244475D6E706
:101FF00000234B71DFE70220EAE710B504460A46EA
:1020000011F0800F20D101F00F0000EBC0039B0006
:1020100003F514732344191D00EBC00004EB80008A
:10202000002380F8553202F00F020A7094F89434BD
:10203000012B18D0012384F89434206804F040F870
:10204000002084F8940410BD01F00F0000EBC003E1
:102050009B0010332344191D00EBC00004EB8000EB
:1020600001234375DFE70220EDE710B5144601F0C8
:102070000F0C0CEBCC01890001F514710144043103
:102080000CEBCC0E00EB8E0ECEF86022CEF8643254
:102090000023CEF868328EF855328EF854C2827919
:1020A000012A04D0006804F0F1F8002010BDCEF839
:1020B0007042F7E701F00F0101EBC10100EB810075
:1020C000D0F86802704710B5144601F00F0C0CEB05
:1020D000CC0189001031014404310CEBCC0E00EB33
:1020E0008E0ECEF82020CEF824300023CEF82830F3
:1020F00001238EF815308EF814C082799A4204D0EC
:10210000006804F0C3F8002010BDCEF83040F7E7B7
:1021100038B501F00F050279AA4238D304460B46C0
:1021200011F0800F1FD101EBC101890001F514717D
:102130000144043103EBC30300EB8303002283F863
:10214000552201238B700D7094F89434012B20D00C
:10215000012384F89434206804F0D7F985B1002075
:1021600084F8940438BD05EBC501890010310144A1
:10217000043105EBC50300EB830301225A75E0E748
:1021800004F29C42A179206804F0B8FAE7E7012044
:10219000E8E70220E6E701F00F0302799A4230D324
:1021A00010B5044611F0800F1ED103EBC301890066
:1021B00001F514710144043103EBC30200EB820208
:1021C000002082F8550200228A700B7094F8943433
:1021D000012B18D0012384F89434206804F0C2F94C
:1021E000002084F8940410BD03EBC3018900103172
:1021F0000144043103EBC30200EB8202012050755D
:10220000E1E7012070470220EDE708B511F0800FEB
:102210000CD101F00F0101EBC101890001F514712E
:1022200001440431006803F0BBFF08BD01F00F0159
:1022300001EBC1018900103101440431F2E72DE9BD
:10224000F04F83B004460568284604F014FA10B134
:1022500003B0BDE8F08F0646206804F0DDF90028E1
:10226000F6D005F50067BB68C3F30D23C4F8D4347A
:10227000206804F0D1F910F0020F04D022685369ED
:1022800003F002035361206804F0C6F910F0100F48
:1022900016D02268936923F010039361D5F820804B
:1022A00008F00F0908F4F013B3F5802F6AD0B3F5E6
:1022B000402F00F08D802268936943F010039361F2
:1022C000206804F0A9F910F4002F40F093802068F2
:1022D00004F0A2F910F4802F40F0FC80206804F094
:1022E0009BF90028C0F27D81206804F095F910F474
:1022F000006F09D0BB6813F0010F40F08A8122689B
:10230000536903F400635361206804F085F910F009
:10231000006F15D02268536903F00063536194F88D
:10232000CC34002B40F07981012184F8CC1423684F
:102330005B6DC3F38303C4F8D034204600F0BEFACB
:10234000206804F069F910F4805F40F06A81206829
:1023500004F062F910F4005F40F0B681206804F0E8
:102360005BF910F0080F40F0C781206804F054F9C1
:1023700010F0800F00F0DA81AB6923F08003AB61CD
:102380000126C3E147F6F07318EA030F93D04FEA32
:10239000181A4FEAC903019309EBC90B04EB8B0B25
:1023A000C8F30A12DBF86012284604F08BF8DBF859
:1023B0006032CAF30A0A5344CBF86032DBF8683261
:1023C000019A4A4404EB82025344C2F8683272E72D
:1023D000082204F29C41284604F074F809EBC90372
:1023E00004EB8303D3F86822C8F30A184244C3F805
:1023F000682260E7206804F013F98046B14635E0B2
:1024000005EB49130122C3F8082B49462046FFF784
:10241000F3FC3CE005EB49130822C3F8082B4946BE
:102420002046FFF76BFD35E009EBC90304EB83039E
:1024300093F85732012B41D005EB49130222C3F820
:10244000082B1AF0200F04D005EB49132022C3F803
:10245000082B1AF4005F05D005EB49134FF4005226
:10246000C3F8082B09F101094FEA5808B8F1000F29
:102470003FF42DAF18F0010FF4D05FFA89FB5946F5
:10248000206804F0DDF8824610F0010FB8D11AF090
:10249000080FBFD11AF0100F04D005EB491310221A
:1024A000C3F8082B1AF0020FCBD06B6913F0800F22
:1024B000BAD07B6843F480637B60B5E709EBC9035E
:1024C00004EB8303002283F857225946204606F086
:1024D00063FAB1E7206804F0ABF88046B14625E026
:1024E0005946204606F014FA1AF0080F04D005EBFE
:1024F00049130822C3F808291AF0100F04D005EB7D
:1025000049131022C3F808291AF0400F04D005EB34
:1025100049134022C3F808291AF0020F40D11AF0DB
:10252000800F59D109F101094FEA5808B8F1000F9D
:102530003FF4D4AE18F0010FF4D05FFA89FB59468E
:10254000206804F086F8824610F0010FCCD009F024
:102550000F02012101FA02F27B6B23EA02037B6383
:1025600005EB4913C3F80819A3798B42B8D109EBDD
:10257000C90304EB83031A6AD9690A441A62B9F1E0
:10258000000FADD109EBC90304EB83035B6A002B99
:10259000A6D104F29C420121206804F0AFF89FE725
:1025A0004946284603F018FC09EBC90304EB8303F2
:1025B000DB7D012B05D005EB49130222C3F8082966
:1025C000ADE709EBC90304EB83030022DA75594632
:1025D000204606F0E7F9EEE749462046FFF700FB04
:1025E000A0E77B6823F001037B6094F8CC34012BD7
:1025F00008D0204606F0CAF92268536903F0004368
:10260000536171E6002184F8CC14204600F056F99D
:10261000F2E7204606F0A2F971E6204606F09EF9A0
:102620008EE67B6823F001037B601021206803F0B5
:10263000D3FB1AE005EB46134FF67F31C3F80819B8
:10264000D3F8002922F40012C3F80029C3F8081BAC
:10265000D3F8002B22F40012C3F8002BD3F8002B80
:1026600042F00062C3F8002B01362379B342E1D86F
:10267000FB6943F00113FB61E37BDBB1D7F88430E6
:1026800043F00B03C7F884307B6C43F00B037B648F
:10269000D5F8003823F4FE63C5F8003804F29C42F4
:1026A000A179206804F02AF82268536903F4805362
:1026B00053614CE67A6942F22B0313437B613B6919
:1026C00043F00B033B61E3E7206804F009F820685E
:1026D00003F098FCE071266800F0AEFE0146E27956
:1026E000304603F0FBFA204606F023F922685369CE
:1026F00003F40053536131E6204606F014F92268D2
:10270000536903F0080353612FE601362379B3427E
:102710000CD906EBC60304EB830393F85732012B65
:10272000F3D1F1B22046FFF770FDEEE7206803F029
:1027300073FF10F4801F25D1206803F06DFF10F4A3
:10274000001F59D0012326E001362379B3421BD95B
:1027500005EB4613D3F8002906EBC60304EB83030D
:102760001B7E012BF0D1002AEEDA06EBC60304EB48
:1027700083030122DA7566F07F01C9B22046FFF7B4
:1027800044FDE1E70126E0E72268536903F4801382
:102790005361D1E7013322799A4228D905EB4312DC
:1027A000D2F8001B03EBC30204EB820292F858221A
:1027B000012AEFD10029EDDA01F48031D4F8D424D4
:1027C00002F001029142E5D103EBC30204EB820265
:1027D000012182F85712AA6942F08002AA616A694F
:1027E00012F0800FD6D17B6843F400737B602268BF
:1027F000536903F400135361206803F00DFF10F0D8
:10280000804F10D1206803F007FF10F0040F3FF451
:102810001FAD23685D6815F0040F0DD12268536861
:102820002B43536014E5204606F0C2F82268536932
:1028300003F080435361E5E7204606F0BFF8EDE77B
:1028400010B40468606A31B940EA0240A062002016
:102850005DF8044B70478C46A36A00EB13400023DD
:1028600008E003F1400104EB8101496800EB1140ED
:102870000133DBB20CF1FF318B42F2D340EA02406C
:102880000CF13F0104EB81046060E0E703685962EA
:1028900000207047034602680121C0F8D8140020C8
:1028A00083F8CC04936943F000639361516D024B4C
:1028B0000B435365704700BF0300001070470000D2
:1028C000134BDB6813F0040F07D1114BDB6803F0E7
:1028D000070383421AD00120704710B50C4AD36811
:1028E00023F007030343D360FEF7B6FD0446084B0D
:1028F0005B6813F4005F07D1FEF7AEFD001BB0F577
:102900007A7FF4D9012000E0002010BD002070473C
:1029100000480258024AD36843F08073D36070477E
:1029200000480258002800F0D58238B504460368F4
:1029300013F0010F25D0A04A136903F03803926AFF
:10294000102B15D0182B0FD06368B3F5803F3FD004
:10295000002B53D1984B1A6822F480321A601A68FF
:1029600022F480221A6038E002F00302022AEBD13E
:10297000914B1B6813F4003F03D06368002B00F0F9
:10298000AB82236813F0020F00F088808A4A136933
:10299000926A13F038035AD0182B55D0E368002BF5
:1029A00000F0A98084490A6822F0190213430B60E1
:1029B000FEF752FD0546804B1B6813F0040F40F0F4
:1029C0009180FEF749FD401B0228F4D903208AE2DA
:1029D000794A136843F48033136063682BB3FEF7BE
:1029E0003BFD0546744B1B6813F4003FC9D1FEF74D
:1029F00033FD401B6428F5D9032074E2B3F5A02F02
:102A000009D06D4B1A6822F480321A601A6822F4D9
:102A100080221A60E1E7684B1A6842F480221A604B
:102A20001A6842F480321A60D7E7FEF715FD0546B2
:102A3000614B1B6813F4003FA3D0FEF70DFD401B54
:102A40006428F5D903204EE212F0030FA6D15A4BA9
:102A50001B6813F0040F03D0E368002B00F03E82E4
:102A6000554A136823F01903E1680B431360FEF71E
:102A7000F3FC0546504B1B6813F0040F06D1FEF71C
:102A8000EBFC401B0228F5D903202CE24A4A53688C
:102A900023F0FE43216943EA01635360236813F086
:102AA000100F51D0444A136903F03803926A082B7F
:102AB00039D0182B33D0E369002B69D03E4A136814
:102AC00043F080031360FEF7C7FC05463A4B1B68D2
:102AD00013F4807F53D1FEF7BFFC401B0228F5D9C9
:102AE000032000E2344A536823F0FE43216943EA9D
:102AF00001635360D2E7304A136823F00103136087
:102B0000FEF7AAFC05462C4B1B6813F0040FC5D03A
:102B1000FEF7A2FC401B0228F5D90320E3E102F0F6
:102B20000302012AC7D1244B1B6813F4807F03D012
:102B3000E369802B40F0D4811F4AD36823F07C5393
:102B4000216A43EA0163D360236813F0080F49D078
:102B50006369002B32D0184A536F43F00103536767
:102B6000FEF77AFC0546144B5B6F13F0020F39D168
:102B7000FEF772FC401B0228F5D90320B3E10E4A90
:102B8000D36823F07C53216A43EA0163D360DBE717
:102B9000094A136823F080031360FEF75DFC0546C5
:102BA000054B1B6813F4807FCED0FEF755FC401B0D
:102BB0000228F5D9032096E1004402589D4A536F3C
:102BC00023F001035367FEF747FC0546994B5B6F03
:102BD00013F0020F06D0FEF73FFC401B0228F5D988
:102BE000032080E1236813F0200F29D0A3699BB153
:102BF000904A136843F480531360FEF72DFC05469A
:102C00008C4B1B6813F4005F1AD1FEF725FC401BA8
:102C10000228F5D9032066E1864A136823F480531D
:102C20001360FEF719FC0546824B1B6813F4005F26
:102C300006D0FEF711FC401B0228F5D9032052E113
:102C4000236813F0040F21D1636A002B00F04A813E
:102C5000784A126902F03802182A00F0F180022B3B
:102C600075D0744A136823F080731360FEF7F4FB89
:102C70000446704B1B6813F0007F00F0D880FEF70D
:102C8000EBFB001B0228F4D903202CE16A4A1368ED
:102C900043F480731360FEF7DFFB0546664B1B6849
:102CA00013F4807F06D1FEF7D7FB401B6428F5D9CB
:102CB000032018E1A368012B0AD00BBB5D4B1A6FF0
:102CC00022F001021A671A6F22F004021A6704E068
:102CD000584A136F43F001031367A36833B3FEF739
:102CE000BBFB0546534B1B6F13F0020FACD1FEF735
:102CF000B3FB401B41F288339842F3D90320F2E042
:102D0000052B09D04B4B1A6F22F001021A671A6F7C
:102D100022F004021A67E0E7464B1A6F42F0040201
:102D20001A671A6F42F001021A67D6E7FEF794FBA2
:102D30000546404B1B6F13F0020F85D0FEF78CFB4E
:102D4000401B41F288339842F3D90320CBE0394A43
:102D5000136823F080731360FEF77EFB0546354B46
:102D60001B6813F0007F06D0FEF776FB401B02289D
:102D7000F5D90320B7E02F4B996A304A0A40A16A7F
:102D8000E06A41EA00110A439A62226B013AC2F3F7
:102D90000802616B0139490289B20A43A16B01390A
:102DA000090401F4FE010A43E16B0139090601F04F
:102DB000FE410A431A63DA6A22F00102DA625A6BB0
:102DC0006FF3CF02A16C42EAC1025A63DA6A22F0C1
:102DD0000C02216C0A43DA62DA6A22F00202616CA8
:102DE0000A43DA62DA6A42F48032DA62DA6A42F478
:102DF0000032DA62DA6A42F48022DA62DA6A42F097
:102E00000102DA621A6842F080721A60FEF724FB4F
:102E10000446084B1B6813F0007F06D1FEF71CFB2D
:102E2000001B0228F5D903205DE000205BE00020B4
:102E300059E000BF00440258004802580CFCFFFF54
:102E400030498A6A086B012B4ED002F00303A16A55
:102E50008B424BD1C2F30512E36A9A4248D1C0F3C8
:102E60000802236B013B9A4244D1C0F34622636BB4
:102E7000013B9A4240D1C0F30642A36B013B9A4208
:102E80003CD1C0F30660E36B013B984238D11D4B47
:102E90005B6BC3F3CC03A26C9A4201D1002022E009
:102EA000184AD36A23F00103D362FEF7D5FA054628
:102EB000FEF7D2FAA842FBD0124A536B6FF3CF034E
:102EC000A16C43EAC1035363D36A43F00103D362A5
:102ED000002008E001207047012004E0012002E00A
:102EE000012000E0002038BD0120FCE70120FAE7C6
:102EF0000120F8E70120F6E70120F4E70120F2E7DE
:102F00000120F0E70044025870B588B00C46154621
:102F100010BB234ED6F8E03043F00103C6F8E03092
:102F2000D6F8E03003F001030193019B4FF4807366
:102F3000039302230493032306930023059307932B
:102F400003A91848FEF73CFD336923F0FE732543BF
:102F50001D43356108B070BD114ED6F8E03043F026
:102F60000403C6F8E030D6F8E03003F0040302931F
:102F7000029B4FF4007303930223049303230693ED
:102F800000230593079303A90748FEF719FD33694A
:102F900023F07E4344EAC5141C433461DAE700BFE2
:102FA000004402580000025800080258754B1B6983
:102FB00003F03803102B00F0DE80182B0FD0002B0D
:102FC00040F0DB806F4B1B6813F0200F00F0D780C0
:102FD0006C4B1B68C3F3C1036B48D840704710B4F7
:102FE000684B9A6A02F003029C6AC4F30510D96A1E
:102FF00001F001015B6BC3F3CC0301FB03F307EEAC
:10300000903AF8EE677A14F47C7F77D0012A4AD0A0
:10301000022A76D0002A40F091805A4B1B6813F0A8
:10302000200F23D057490A68C2F3C102564BD34040
:1030300007EE103AF8EE476A07EE100AB8EE476A54
:1030400086EE867A0B6BC3F3080306EE903AF8EE31
:10305000666A9FED4E6A67EE867A76EEA77AF7EE9D
:10306000006A77EEA67A27EE277A38E007EE100A94
:10307000F8EE476A9FED466A86EE267A414B1B6B57
:10308000C3F3080306EE903AF8EE666A9FED3F6AD6
:1030900067EE867A76EEA77AF7EE006A77EEA67A82
:1030A00027EE277A1BE007EE100AF8EE476A9FED3D
:1030B000396A86EE267A334B1B6BC3F3080306EEA0
:1030C000903AF8EE666A9FED316A67EE867A76EEA0
:1030D000A77AF7EE006A77EEA67A27EE277A294BD1
:1030E0001B6BC3F34623013307EE903AF8EE677A81
:1030F000C7EE276AFCEEE67A17EE900A5DF8044BFD
:10310000704707EE100AF8EE476A9FED236A86EED5
:10311000267A1C4B1B6BC3F3080306EE903AF8EEBD
:10312000666A9FED1A6A67EE867A76EEA77AF7EE00
:10313000006A77EEA67A27EE277AD0E707EE100A24
:10314000F8EE476A9FED136A86EE267A0D4B1B6BED
:10315000C3F3080306EE903AF8EE666A9FED0B6A39
:1031600067EE867A76EEA77AF7EE006A77EEA67AB1
:1031700027EE277AB3E709487047094870470248A5
:10318000704700BF004402580090D003000000398F
:103190000024744C0024744A001BB74B00366E01A7
:1031A00000093D00002800F0328170B50D4604464C
:1031B0009B4B1B6803F00F038B420BD2984A13689A
:1031C00023F00F030B431360136803F00F038B42CC
:1031D00040F01F81236813F0040F0CD02269914B3B
:1031E0009B6903F070039A4205D98E498B6923F0DD
:1031F00070031A438A61236813F0080F0CD06269C8
:10320000884BDB6903F070039A4205D98549CB6985
:1032100023F070031A43CA61236813F0100F0CD017
:10322000A269804BDB6903F4E0639A4205D97D49CA
:10323000CB6923F4E0631A43CA61236813F0200FBB
:103240000CD0E269774B1B6A03F070039A4205D9F0
:1032500074490B6A23F070031A430A62236813F05F
:10326000020F0CD0E2686F4B9B6903F00F039A4288
:1032700005D96C498B6923F00F031A438A612368CF
:1032800013F0010F41D0674A936923F47063A1687A
:103290000B4393616368022B0AD0032B27D0012BC9
:1032A0002CD0604A126812F0040F06D10120ADE064
:1032B000126812F4003F00F0AE805A490A6922F009
:1032C000070213430B61FEF7C7F80646554B1B690F
:1032D00003F038036268B3EBC20F16D0FEF7BCF8F8
:1032E000801B41F288339842F0D903208EE04D4A8A
:1032F000126812F0007FE0D1012087E0494A12688D
:1033000012F4807FD9D1012080E0236813F0020FEE
:103310000CD0E268434B9B6903F00F039A4205D23D
:1033200040498B6923F00F031A438A613C4B1B68A9
:1033300003F00F03AB420AD9394A136823F00F0395
:103340002B431360136803F00F03AB4265D123686E
:1033500013F0040F0CD02269324B9B6903F0700309
:103360009A4205D22F498B6923F070031A438A6170
:10337000236813F0080F0CD062692A4BDB6903F055
:1033800070039A4205D22749CB6923F070031A4390
:10339000CA61236813F0100F0CD0A269214BDB69BE
:1033A00003F4E0639A4205D21E49CB6923F4E0633B
:1033B0001A43CA61236813F0200F0CD0E269194B3D
:1033C0001B6A03F070039A4205D216490B6A23F078
:1033D00070031A430A62FFF7E9FD12498B69C3F3D0
:1033E0000323114AD35C03F01F03D8408B6903F019
:1033F0000F03D35C03F01F0320FA03F30B4A13609F
:103400000B4B18600B4B1868FDF7B8FB70BD012023
:1034100070470120FAE70120F8E70120F6E700BF36
:103420000020005200440258F493000800000024D9
:10343000040000240C00002408B5FFF7B7FD0B4A78
:103440009369C3F303230A49CB5C03F01F0320FAFB
:1034500003F3926902F00F02885C00F01F0023FA68
:1034600000F0044A1060044A136008BD004402588A
:10347000F4930008000000240400002408B5FFF7BE
:10348000DBFF054BDB69C3F30213044AD35C03F093
:103490001F03D84008BD00BF00440258F493000841
:1034A00008B5FFF7C9FF054BDB69C3F30223044AE4
:1034B000D35C03F01F03D84008BD00BF004402588E
:1034C000F49300083F230360114B1A6902F00702CE
:1034D00042609A6902F4706282609A6902F00F0297
:1034E000C2609A6902F070020261DA6902F0700249
:1034F0004261DA6902F4E06282611B6A03F07003E0
:10350000C361044B1B6803F00F030B60704700BFDF
:103510000044025800200052404B9B6A03F0030312
:10352000032B79D070B505460E463C4A136823F04C
:1035300080631360FDF790FF0446384B1B6813F05F
:10354000006F06D0FDF788FF031B022BF5D903207F
:1035500070BD324B9A6A22F47C32296842EA013209
:103560009A626A68013AC2F30802A96801394902FD
:1035700089B20A43E9680139090401F4FE010A43EA
:1035800029690139090601F0FE410A439A63DA6AA2
:1035900022F0C00269690A43DA62DA6A22F0200284
:1035A000A9690A43DA62DA6A22F01002DA62DA6B97
:1035B0006FF3CF02E96942EAC102DA63DA6A42F0E4
:1035C0001002DA62C6B91A46DB6A43F40023D362FA
:1035D000124A136843F080631360FDF73DFF044611
:1035E0000E4B1B6813F0006F14D1FDF735FF001B65
:1035F0000228F5D90320ABE7012E05D0074AD36A8C
:1036000043F40013D362E3E7044AD36A43F480131C
:10361000D362DDE700209BE7012070470044025899
:10362000404B9B6A03F00303032B79D070B505462A
:103630000E463C4A136823F080531360FDF70CFFDD
:103640000446384B1B6813F0005F06D0FDF704FFFB
:10365000031B022BF5D9032070BD324B9A6A22F06E
:103660007C72296842EA01529A626A68013AC2F39E
:103670000802A9680139490289B20A43E968013997
:10368000090401F4FE010A4329690139090601F020
:10369000FE410A431A64DA6A22F4406269690A4305
:1036A000DA62DA6A22F40072A9690A43DA62DA6A33
:1036B00022F48072DA625A6C6FF3CF02E96942EA4F
:1036C000C1025A64DA6A42F48072DA62C6B91A46F2
:1036D000DB6A43F48003D362124A136843F08053D9
:1036E0001360FDF7B9FE04460E4B1B6813F0005F34
:1036F00014D1FDF7B1FE001B0228F5D90320ABE77A
:10370000012E05D0074AD36A43F08073D362E3E702
:10371000044AD36A43F40003D362DDE700209BE749
:103720000120704700440258F8B50446036813F0BE
:10373000006F2FD0436EB3F5001F25D015D8E3B12D
:10374000B3F5801F0ED102210830FFF7E5FE0546D4
:1037500075BB934A136D23F44013616E0B431365DD
:10376000002619E00126354616E0B3F5401F01D1C9
:103770000025EEE7012635460EE0894AD36A43F478
:103780000033D3620025E4E702212830FFF748FF29
:103790000546DDE700263546236813F4807F29D0EF
:1037A000A36D042B22D8DFE803F005131A0A0A00E0
:1037B0002E46F1E77A4AD36A43F40033D362C5B99F
:1037C000774A136D23F00703A16D0B43136511E0D6
:1037D000002104F10800FFF79FFE0546EFE70021F6
:1037E00004F12800FFF71CFF0546E8E701263546EF
:1037F00000E02E46236813F4806F2DD0D4F8A43057
:10380000B3F5800F3DD00DD8C3B1B3F5001F06D17D
:10381000002104F10800FFF77FFE054613E00126B2
:10382000354619E0B3F5000F0DD0B3F5200F0AD0DF
:10383000B3F5C00F07D0012635460DE0584AD36ACC
:1038400043F40033D3621DBB554A936D23F46003E8
:10385000D4F8A4100B439365236813F4006F37D09A
:10386000D4F8A830B3F1007F5ED016D80BB3B3F113
:10387000807F0FD1002104F10800FFF74DFE0546BF
:103880001CE0002104F12800FFF7CAFE0546DAE734
:103890002E46E1E7012635461AE0B3F1806F0DD0E0
:1038A000B3F1A06F0AD0B3F1407F07D001263546AF
:1038B0000EE03B4AD36A43F40033D362002D3AD181
:1038C000374A936D23F0E063D4F8A8100B43936557
:1038D000236813F0007F13D0E36C202B35D02FD852
:1038E00033B1102B29D12E4AD36A43F40033D3626B
:1038F00095BB2B4AD36C23F03003E16C0B43D364AC
:10390000236813F4805F4ED0E36DB3F5005F3FD0C2
:1039100027D87BB3B3F5805F20D1002104F10800E4
:10392000FFF7FAFD05462AE0002104F12800FFF721
:1039300077FE0546C2E72E46CAE701263546DFE791
:10394000302BD5D001263546DAE7022104F10800F4
:10395000FFF7E2FD0546CBE72E46D1E701263546C7
:1039600021E0B3F5405F0AD0B3F5804F07D00126C0
:10397000354618E00A4AD36A43F40033D3628DB95E
:10398000074A136D23F4E043E16D0B4313650AE02E
:10399000002104F12800FFF743FE0546EFE700BFD2
:1039A000004402582E46236813F4005F17D0236E9C
:1039B000B3F5003F4FD042D843B1B3F5803F3BD180
:1039C000012104F10800FFF7A7FD0546002D49D1AC
:1039D000924A136D23F4E023216E0B431365236891
:1039E00013F4804F19D0D4F8AC30B3F1005F4AD053
:1039F0003DD843B1B3F1805F36D1012104F1080015
:103A0000FFF78AFD0546002D44D1844A936D23F0CB
:103A1000E043D4F8AC100B439365236813F4004FD4
:103A200047D0E36EB3F1805F36D0B3F1005F4BD087
:103A3000BBB3012635463CE001263546CFE7B3F55A
:103A4000802FC3D0B3F5A02FC0D0B3F5403FBDD079
:103A500001263546C3E7012104F12800FFF7E0FD08
:103A60000546B3E72E46BAE701263546D5E7B3F15A
:103A7000804FC8D0B3F1A04FC5D0B3F1405FC2D0E2
:103A800001263546C9E7012104F12800FFF7C8FDEA
:103A90000546B8E72E46C0E7604AD36A43F40033D0
:103AA000D362C5B95D4A136D23F04053E16E0B43F9
:103AB0001365236813F0807F1CD0A36C032B44D8BC
:103AC000DFE803F0100B3C10012104F10800FFF7C0
:103AD00023FD0546E5E72E46EBE7504AD36A43F45B
:103AE0000033D362A5BB4D4AD36C23F00303A16C12
:103AF0000B43D364236813F4800F2BD1236813F096
:103B0000010F00F0A980A36F282B00F2A380DFE84B
:103B100003F091A1A1A1A1A1A1A18BA1A1A1A1A10A
:103B2000A1A19AA1A1A1A1A1A1A191A1A1A1A1A19C
:103B3000A1A191A1A1A1A1A1A1A19100022104F1A2
:103B40000800FFF7E9FC0546CCE701263546D1E73A
:103B50002E46CFE7324A136843F480731360FDF7B3
:103B60007BFC07462E4B1B6813F4807F05D1FDF7C5
:103B700073FCC01B6428F5D90325002D4AD1274BBF
:103B80001B6FD4F8B020534013F4407F0CD0234B6C
:103B90001A6F22F44072196F41F480311967196F5E
:103BA00021F4803119671A67D4F8B030B3F5807FFB
:103BB00015D08DBBD4F8B03003F44072B2F5407F1D
:103BC0001ED0164A136923F47C53136113490B6FFB
:103BD000D4F8B020C2F30B0213430B678EE7FDF756
:103BE0003BFC07460D4B1B6F13F0020FE1D1FDF7B5
:103BF00033FCC01B41F288339842F3D90325D8E740
:103C00000648026922F47C52064901EA1313134361
:103C10000361DBE72E4671E72E466FE7004402584A
:103C200000480258CFFFFF00012104F10800FFF710
:103C300073FC0546E5B9B14A536D23F03803A16F13
:103C40000B43536508E0012104F12800FFF7E8FC6D
:103C50000546EFE701263546236813F0020F17D01B
:103C6000636F052B29D8DFE803F00B05210B0B0B45
:103C70002E46F1E7012104F10800FFF74DFC05464F
:103C8000F5B99E4A536D23F00703616F0B435365EB
:103C9000236813F0040F26D0D4F89030052B00F2DF
:103CA000D680DFE803F0150FCD151515012104F1BD
:103CB0002800FFF7B5FC0546E2E701263546E7E7B1
:103CC0002E46E5E7012104F10800FFF725FC054633
:103CD000002D40F0BF80894A936D23F00703D4F88C
:103CE00090100B439365236813F0200F1DD0D4F878
:103CF0008C30B3F1005F00F0C18000F2B0804BB1B6
:103D0000B3F1805F40F0A880002104F10800FFF7C4
:103D100003FC0546002D40F0B880784A536D23F02F
:103D2000E043D4F88C100B435365236813F0400F25
:103D30001DD0D4F89830B3F5006F00F0BA8000F2CF
:103D4000A9804BB1B3F5806F40F0A180002104F150
:103D50000800FFF7E1FB0546002D40F0B180674AFF
:103D6000936D23F4E053D4F898100B4393652368C4
:103D700013F0800F1DD0D4F89C30B3F5804F00F0C5
:103D8000B38000F2A2804BB1B3F5005F40F09A809F
:103D9000002104F10800FFF7BFFB0546002D40F0AD
:103DA000AA80564A936D23F46043D4F89C100B43C9
:103DB0009365236813F0080F0DD0D4F88030B3F565
:103DC000805F00F09D804D4A536D23F44053D4F83A
:103DD00080100B435365236813F0100F0DD0D4F8F7
:103DE0009430B3F5807F00F09580444A936D23F4BE
:103DF0004073D4F894100B439365236813F4002F99
:103E000000F09D80D4F8A030B3F5803F00F08C80A6
:103E1000B3F5003F08D0002B40F08D80002104F165
:103E20000800FFF779FB0546002D40F08780334AF4
:103E3000936D23F44033D4F8A0100B4393657EE0D8
:103E4000012104F12800FFF7EBFB054640E70126BE
:103E5000354648E72E4646E70126354665E7B3F185
:103E6000804F3FF457AFB3F1A04F3FF453AFB3F1DE
:103E7000405F3FF44FAF0126354656E7022104F17B
:103E80002800FFF7CDFB054644E72E464DE7012607
:103E900035466CE7B3F5805F3FF45EAFB3F5A05FE6
:103EA0003FF45AAFB3F5406F3FF456AF01263546A5
:103EB0005DE7022104F12800FFF7B2FB05464BE75E
:103EC0002E4654E70126354673E7B3F5004F3FF41D
:103ED00065AFB3F5204F3FF461AFB3F5C04F3FF48A
:103EE0005DAF0126354664E7022104F12800FFF7A3
:103EF00097FB054652E72E465BE700BF0044025899
:103F0000022104F12800FFF78BFB00283FF45BAF90
:103F1000012658E7022104F12800FFF781FB002861
:103F20003FF463AF012660E7022104F12800FFF7A8
:103F300077FB054678E70126354600E02E462368E4
:103F400013F4802F24D0D4F88430B3F5001F14D09C
:103F5000B3F5401F07D0B3F5801F15D17C4AD36A53
:103F600043F40033D36295B9794A536D23F4401377
:103F7000D4F884100B4353650AE0012104F12800B2
:103F8000FFF74EFB0546EEE70126354600E02E46DC
:103F9000236813F4803F06D0236DCBB1B3F5803F87
:103FA00024D001263546236813F0005F27D123680B
:103FB00013F4003F3DD0E36FB3F5807F2BD027D9BA
:103FC000B3F5007F2CD0B3F5407F29D0012630E037
:103FD0005F4AD36A43F40033D36275B95C4AD36C49
:103FE00023F48033216D0B43D364DCE7022104F119
:103FF0000800FFF791FA0546EFE72E46D3E70221C6
:1040000004F12800FFF70CFB0028D0D00126CEE7F2
:1040100033B101260DE04E4AD36A43F40033D36234
:10402000002D5CD14A4A536D23F44073E16F0B437A
:104030005365236813F4801F06D0454A136D23F09F
:104040000043216F0B431365236813F4001F06D050
:104050003F4A136D23F08073A16E0B4313652368F1
:1040600013F0804F09D03A4B1A6922F400421A61CA
:104070001A69D4F8B4100A431A612368002B06DACF
:10408000334AD36C23F04053616D0B43D3642368F0
:1040900013F4000F07D02E4A536D23F44003D4F8D5
:1040A00088100B435365636813F0010F19D16368DF
:1040B00013F0020F1ED1636813F0040F23D163685D
:1040C00013F0080F28D1636813F0100F2DD1636827
:1040D00013F0200F32D106B101263046F8BD2E462E
:1040E000A7E7002104F10800FFF716FA0028DED048
:1040F0000646DCE7012104F10800FFF70DFA00286D
:10410000D9D00646D7E7022104F10800FFF704FAE8
:104110000028D4D00646D2E7002104F12800FFF79A
:104120007FFA0028CFD00646CDE7012104F1280010
:10413000FFF776FA0028CAD00646C8E7022104F144
:104140002800FFF76DFA0028C5D00126C5E700BF9B
:104150000044025808B5FFF76FF9054B1B6AC3F31B
:104160000213044AD35C03F01F03D84008BD00BF0C
:1041700000440258F493000810B4794B9A6A9C6A80
:10418000C4F3053CD96AC1F30011DB6BC3F3CC0364
:1041900001FB03F314F47C3F00F0DD8002F0030226
:1041A00007EE903AF8EE677A012A4BD0022A00F027
:1041B0009880002A40F0B280694B1B6813F0200FF2
:1041C00023D067490A68C2F3C102664BD34007EEA9
:1041D000103AF8EE476A07EE10CAB8EE476A86EE64
:1041E000867A8B6BC3F3080306EE903AF8EE666AA4
:1041F0009FED5D6A67EE867A76EEA77AF7EE006A43
:1042000077EEA67A27EE277A38E007EE10CAF8EEA6
:10421000476A9FED566A86EE267A514B9B6BC3F335
:10422000080306EE903AF8EE666A9FED4F6A67EE75
:10423000867A76EEA77AF7EE006A77EEA67A27EE10
:10424000277A1BE007EE10CAF8EE476A9FED486A2E
:1042500086EE267A424B9B6BC3F3080306EE903A38
:10426000F8EE666A9FED406A67EE867A76EEA77A88
:10427000F7EE006A77EEA67A27EE277A384A936B34
:10428000C3F3462307EE903AF8EE677AF7EE006A3A
:1042900077EEA67A87EE276ABCEEC66A80ED006AE2
:1042A000936BC3F3064307EE903AF8EE677A77EE26
:1042B000A67A87EE276ABCEEC66A80ED016A936B28
:1042C000C3F3066307EE903AF8EE677A77EEA67AC4
:1042D000C7EE276AFCEEE66AC0ED026A5DF8044BA1
:1042E000704707EE10CAF8EE476A9FED226A86EE25
:1042F000267A1B4B9B6BC3F3080306EE903AF8EE4D
:10430000666A9FED196A67EE867A76EEA77AF7EE0F
:10431000006A77EEA67A27EE277AAFE707EE10CA93
:10432000F8EE476A9FED126A86EE267A0C4B9B6B7D
:10433000C3F3080306EE903AF8EE666A9FED0A6A48
:1043400067EE867A76EEA77AF7EE006A77EEA67ABF
:1043500027EE277A92E70023036043608360BDE77E
:10436000004402580090D003000000390024744C2F
:104370000024744A001BB74B10B4794B9A6A9C6AAC
:10438000C4F3055CD96AC1F300215B6CC3F3CC03B1
:1043900001FB03F314F07C7F00F0DD8002F00302E8
:1043A00007EE903AF8EE677A012A4BD0022A00F025
:1043B0009880002A40F0B280694B1B6813F0200FF0
:1043C00023D067490A68C2F3C102664BD34007EEA7
:1043D000103AF8EE476A07EE10CAB8EE476A86EE62
:1043E000867A0B6CC3F3080306EE903AF8EE666A21
:1043F0009FED5D6A67EE867A76EEA77AF7EE006A41
:1044000077EEA67A27EE277A38E007EE10CAF8EEA4
:10441000476A9FED566A86EE267A514B1B6CC3F3B2
:10442000080306EE903AF8EE666A9FED4F6A67EE73
:10443000867A76EEA77AF7EE006A77EEA67A27EE0E
:10444000277A1BE007EE10CAF8EE476A9FED486A2C
:1044500086EE267A424B1B6CC3F3080306EE903AB5
:10446000F8EE666A9FED406A67EE867A76EEA77A86
:10447000F7EE006A77EEA67A27EE277A384A136CB1
:10448000C3F3462307EE903AF8EE677AF7EE006A38
:1044900077EEA67A87EE276ABCEEC66A80ED006AE0
:1044A000136CC3F3064307EE903AF8EE677A77EEA3
:1044B000A67A87EE276ABCEEC66A80ED016A136CA5
:1044C000C3F3066307EE903AF8EE677A77EEA67AC2
:1044D000C7EE276AFCEEE66AC0ED026A5DF8044B9F
:1044E000704707EE10CAF8EE476A9FED226A86EE23
:1044F000267A1B4B1B6CC3F3080306EE903AF8EECA
:10450000666A9FED196A67EE867A76EEA77AF7EE0D
:10451000006A77EEA67A27EE277AAFE707EE10CA91
:10452000F8EE476A9FED126A86EE267A0C4B1B6CFA
:10453000C3F3080306EE903AF8EE666A9FED0A6A46
:1045400067EE867A76EEA77AF7EE006A77EEA67ABD
:1045500027EE277A92E70023036043608360BDE77C
:10456000004402580090D003000000390024744C2D
:104570000024744A001BB74BC36B5B09C06808304A
:10458000C00803FB00007047002800F0B78070B53A
:1045900004460023836205685C4B5D4E9D4218BF54
:1045A000B54214BF0126002607D0A3F574439D42EF
:1045B00003D0C3680F2B00F2A3802046FFF7DCFF77
:1045C0002EB1544B9D4202D0082800F29B804F4AE6
:1045D0004F4B9D4218BF954203D003F580639D4227
:1045E00002D1102800F2908094F88130F3B10223B8
:1045F00084F881302268136823F001031360236874
:104600009A6802F4F812A169B1F1806F14D063685E
:1046100013F4800F23D0E368062B20D921680B68A0
:1046200023F48073206D03430B601DE084F8803019
:104630002046FCF723FADAE76168B1F5800F06D06F
:104640000029E4D1A16BB1F1805FE0D102E0A06B61
:104650000028F5D1196841F480511960D7E7216825
:104660000B6823F480730B60E369A16A0B43134367
:10467000E26B1343E16822680B439360636B626AE9
:104680001343A26B1343A269134322691343626964
:104690001343226A134362681343E26C1343A26814
:1046A0001343A26C1343A16D22680B43D36063686C
:1046B0006BB92268936823F4C05343F4006393609A
:1046C0002268936823F4C06343F480639360226894
:1046D000136D23F001031365636813F4800F06D094
:1046E0002268D36823F00043616D0B43D360002040
:1046F000C4F88400012384F8813070BD0120704724
:104700000120FAE70120F8E70120F6E70030014038
:1047100000380040003C0040F0B4026A036A23F015
:1047200001030362466884691E4B23400D681D43E4
:1047300022F002028B6813431B4A1C4CA04218BF94
:1047400090420CBF012200220CD004F58044A0420C
:1047500014BF00240124164FB84203D014B9154CDD
:10476000A04205D123F00803CC68234323F00403BF
:104770005AB9114A904214BF002201220C4CA042A7
:1047800003D012B90B4A904205D126F440764A690B
:1047900032438E691643466085614A68426303620C
:1047A000F0BC70478CFFFEFF000001400004014098
:1047B00000400140004801400044014070B4036AD9
:1047C000026A22F4807202624568C4691A4A224071
:1047D0000E68164323F400738A6843EA0223174ADB
:1047E000174CA04218BF90420CBF0122002206D1F4
:1047F00023F40063CC6843EA042323F480635AB9AA
:10480000104A904214BF002201220F4CA04203D054
:1048100012B90E4A904207D125F440524C6942EA3F
:1048200004128C6942EA04154560C6614A68C26395
:10483000036270BC704700BF8CFFFEFF00000140A8
:104840000004014000440140004001400048014094
:1048500070B4036A026A22F4805202624468C56935
:10486000144A2A400D6842EA052223F400538D6859
:1048700043EA0533104E114DA84218BFB0420DD087
:1048800005F58045A84214BF0025012506F58046A0
:10489000B04203D015B90A4DA84204D124F4804493
:1048A0004D6944EA85144460C2614A680264036247
:1048B00070BC7047FF8CFFFE000001400004014007
:1048C0000048014070B4036A026A22F48032026236
:1048D0004268456D144E2E400D682E4323F400337C
:1048E0008C6843EA0443114D114CA04218BFA84202
:1048F0000DD004F58044A04214BF0024012405F526
:104900008045A84203D014B90A4CA04204D122F435
:1049100080324C6942EA0422426046654A688265F8
:10492000036270BC704700BF8FFFFEFF00000140B4
:10493000000401400048014070B4036A026A22F496
:10494000801202624468456D144A2A400D6842EAAA
:10495000052223F400138D6843EA0553104E114DD0
:10496000A84218BFB0420DD005F58045A84214BF3B
:104970000025012506F58046B04203D015B90A4D41
:10498000A84204D124F480244D6944EA852444607B
:1049900042654A68C265036270BC7047FF8FFFFEC4
:1049A00000000140000401400048014010B4036AC7
:1049B000046A24F001040462846924F0F00C4CEAD7
:1049C000021223F00A030B43826103625DF8044B79
:1049D000704710B4036A046A24F010040462846906
:1049E00024F4704C4CEA023223F0A00343EA011392
:1049F000826103625DF8044B704700008268034BDC
:104A000013400B4343F00703836070478FFFCFFFD2
:104A100090F83D30DBB2012B42D1022380F83D30CB
:104A20000268D36843F00103D36003681E4AB3F100
:104A3000804F18BF934225D0A2F57C42934221D0EB
:104A400002F5806293421DD002F58062934219D034
:104A500002F57842934215D0A2F56C42934211D0F0
:104A600002F5943293420DD0A2F5C042934209D090
:104A700002F58062934205D01A6842F001021A6082
:104A8000002070479968094A0A40062A18BFB2F503
:104A9000803F07D01A6842F001021A600020704778
:104AA000012070470020704700000140070001000E
:104AB0007047000030B50368424A904214BF4FF07F
:104AC000000E4FF0010EB0F1804F14BF72464EF051
:104AD0000102AAB93C4CA04214BF002401243B4D62
:104AE000A8420DD064B904F1804404F58234A04298
:104AF00014BF0024012405F50065A84200D01CB1B4
:104B000023F070034C68234362BB2F4A904214BFCA
:104B1000002201222D4CA04224D01ABB02F1804277
:104B200002F58232904214BF0022012204F5006493
:104B3000A04217D0B2B9264A904214BF00220122E7
:104B400004F59A34A0420DD062B9224A904214BFB3
:104B50000022012204F50064A04203D012B91E4ACB
:104B6000904204D123F4407CCB6843EA0C0323F049
:104B700080034A69134303608A68C2620A688262DA
:104B8000164A904214BF73464EF0010363B9104BAE
:104B9000984214BF0023012302F57052904203D0C3
:104BA00013B90F4B984201D10B6903630123436191
:104BB000036913F0010F03D0036923F001030361BC
:104BC00030BD00BF0000014000080040000400406C
:104BD0000044014000E0004000E4004000040140C7
:104BE0000048014060B310B5044690F83D3013B35F
:104BF000022384F83D30214651F8040BFFF75AFF99
:104C0000012384F8483084F83E3084F83F3084F83B
:104C1000403084F8413084F8423084F8433084F8DE
:104C2000443084F8453084F8463084F8473084F8BE
:104C30003D30002010BD80F83C30FCF76FF8D7E71E
:104C40000120704760B310B5044690F83D3013B3AF
:104C5000022384F83D30214651F8040BFFF72AFF68
:104C6000012384F8483084F83E3084F83F3084F8DB
:104C7000403084F8413084F8423084F8433084F87E
:104C8000443084F8453084F8463084F8473084F85E
:104C90003D30002010BD80F83C30FFF709FFD7E71A
:104CA0000120704770B4036A026A22F010020262A7
:104CB000456884691A4E26400C6846EA042623F0AB
:104CC00020038A6843EA0213164A174CA04218BF11
:104CD00090420CBF0122002206D123F08003CC6851
:104CE00043EA041323F040035AB9104A904214BF18
:104CF000002201220E4CA04203D012B90D4A90426C
:104D000007D125F4406C4A694CEA820C8A694CEA66
:104D10008205456086614A688263036270BC7047A1
:104D2000FF8CFFFE000001400004014000440140F0
:104D3000004001400048014038B590F83C30012B5C
:104D400000F0958004460D46012380F83C30142A7B
:104D500000F28880DFE802F00B8686861F86868652
:104D600034868686488686865D86868671000068DB
:104D7000FFF7D2FC2268936943F00803936122682D
:104D8000936923F0040393612268936929690B43B3
:104D90009361002067E00068FFF784FF2268936951
:104DA00043F4006393612268936923F48063936101
:104DB00022689369296943EA01239361002052E044
:104DC0000068FFF7FBFC2268D36943F00803D36156
:104DD0002268D36923F00403D3612268D369296967
:104DE0000B43D36100203EE00068FFF731FD2268ED
:104DF000D36943F40063D3612268D36923F48063E9
:104E0000D3612268D369296943EA0123D361002071
:104E100029E00068FFF756FD2268536D43F0080350
:104E200053652268536D23F0040353652268536D64
:104E300029690B435365002015E00068FFF77CFDEE
:104E40002268536D43F4006353652268536D23F465
:104E5000806353652268536D296943EA01235365D2
:104E6000002000E00120002384F83C3038BD0220FF
:104E7000FCE710B4846824F47F4C42EA03220A431E
:104E800042EA0C0282605DF8044B704790F83C30B7
:104E9000012B00F08F8010B50446012380F83C30D0
:104EA000022380F83D3002689068434B03409360D2
:104EB0000B68702B55D031D8502B6CD01FD8402B9D
:104EC0000AD1CA6849682068FFF770FD4021206850
:104ED000FFF794FD002029E068D8202B03D00AD8E2
:104EE0000BB1102B05D119462068FFF787FD002074
:104EF0001CE001201AE0302BF5D0012016E0602BD9
:104F00000AD1CA6849682068FFF763FD60212068FC
:104F1000FFF774FD002009E0012007E0B3F5005F12
:104F20002CD00AD8B3F5805F42D10020012384F849
:104F30003D30002384F83C3010BD204A9342D2D04B
:104F400007D8B3F5801FCED0B3F1101FCBD001200E
:104F5000ECE71B4A9342C6D010329342C3D00120E3
:104F6000E4E7CB684A6889682068FFF782FF226817
:104F7000936843F0770393600020D7E7CB684A68D3
:104F800089682068FFF775FF2268936843F48043BF
:104F900093600020CAE7CA6849682068FFF706FDE9
:104FA00050212068FFF72AFD0020BFE70120BDE760
:104FB0000120BBE7022070478800CEFF20001000D0
:104FC0003000100090F83C20012A4DD070B4034608
:104FD000012280F83C20022280F83D2002685068BF
:104FE0009468224E224DAA4218BFB24203D120F447
:104FF00070004D68284320F070000D682843506011
:105000001A681A48B2F1804F18BF82421FD0A0F52B
:105010007C4082421BD000F58060824217D000F5B0
:105020008060824213D000F5784082420FD0A0F514
:105030006C4082420BD000F59430824207D0A0F53C
:10504000C040824203D000F58060824204D124F047
:105050008004896821439160012283F83D2000206B
:1050600083F83C0070BC704702207047000001408C
:105070000004014090F83C30012B44D030B402468B
:10508000012380F83C30CB6823F4407388680343E5
:1050900023F480634868034323F4006308680343F0
:1050A00023F480530869034323F4005348690343FE
:1050B00023F48043086B034323F47023886943EA95
:1050C000004323F08053C869034310680F4D104C10
:1050D000A04218BFA84210D123F470038C6A43EA9F
:1050E000045323F080730C6A234323F000734C6A4B
:1050F000234323F00053C96A0B434364002082F822
:105100003C0030BC70470220704700BF00000140E7
:1051100000040140026852E8003F23F4907342E823
:1051200000310029F6D1026802F1080353E8001F9C
:105130000D4B0B40083242E800310029F3D1C36E19
:10514000012B06D02023C0F88C300023C3664367B0
:105150007047026852E8003F23F0100342E8003134
:105160000029F6D1EEE700BFFEFFFFEF70B586B075
:10517000044683680269134342691343C2691343B7
:1051800001680868904A02401A430A60226853681E
:1051900023F44053E1680B435360A16922688B4BB1
:1051A0009A4201D0236A19439068894B03400B430C
:1051B00093602268D36A23F00F03616A0B43D362C2
:1051C0002368844A934229D0834A934200F0948012
:1051D000824A934200F0AA80814A934200F0C08044
:1051E000804A934200F0D6807F4A934200F00881C3
:1051F0007E4A934200F02D817D4A934200F0408127
:105200007C4A934200F053817B4A934200F07881BC
:105210006E4A934200F09D81802233E0774A526DBE
:1052200002F03802282A65D8DFE812F0290064006D
:10523000640064006400640064006400AB01640006
:105240006400640064006400640064002B00640077
:105250006400640064006400640064005E00640034
:105260006400640064006400640064006000640022
:105270006400640064006400640064006200012251
:1052800000E0082251498B4200F09481E069B0F5BA
:10529000004F00F00A82202A00F26182202A00F2E8
:1052A000AE82DFE812F063027D02AC02AC02800243
:1052B000AC02AC02AC028502AC02AC02AC02AC02A5
:1052C000AC02AC02AC028A02AC02AC02AC02AC0290
:1052D000AC02AC02AC02AC02AC02AC02AC02AC025E
:1052E000AC02AC02AC0296021022CBE72022C9E746
:1052F0004022C7E78022C5E7404A526D02F007020C
:10530000052A11D8DFE812F006003F0108000A0064
:105310000C000E000022B5E70822B3E71022B1E727
:105320002022AFE74022ADE78022ABE7334A526D3F
:1053300002F00702052A11D8DFE812F00600270163
:1053400008000A000C000E0000229BE7082299E7E3
:10535000102297E7202295E7402293E7802291E7E9
:10536000264A526D02F00702052A11D8DFE812F032
:1053700006000F0108000A000C000E00002281E761
:1053800008227FE710227DE720227BE7402279E791
:10539000802277E7194A526D02F00702052A11D8D8
:1053A000DFE812F00600F70008000A000C000E000B
:1053B000002267E7082265E7102263E7202261E701
:1053C00040225FE780225DE7F369FFCF000C0058C1
:1053D000FFF4FF110010014000440040004800406D
:1053E000004C004000500040001401400078004094
:1053F000007C004000180140001C0140004402589D
:10540000694A526D02F03802282A20D8DFE802F0FB
:10541000151F1F1F1F1F1F1FC31F1F1F1F1F1F1F02
:10542000171F1F1F1F1F1F1F191F1F1F1F1F1F1F9A
:105430001B1F1F1F1F1F1F1F1D00012222E7082205
:1054400020E710221EE720221CE740221AE78022D4
:1054500018E7554A526D02F00702052A0ED8DFE818
:1054600002F0039C0507090B00220BE7082209E75D
:10547000102207E7202205E7402203E7802201E708
:10548000494A526D02F00702052A0ED8DFE802F001
:1054900003870507090B0022F4E60822F2E6102232
:1054A000F0E62022EEE64022ECE68022EAE63E4AE2
:1054B000526D02F03802282A20D8DFE802F0151FCA
:1054C0001F1F1F1F1F1F721F1F1F1F1F1F1F171FA1
:1054D0001F1F1F1F1F1F191F1F1F1F1F1F1F1B1FE6
:1054E0001F1F1F1F1F1F1D000122CBE60822C9E638
:1054F0001022C7E62022C5E64022C3E68022C1E68C
:10550000294A526D02F03802282A20D8DFE802F03A
:10551000151F1F1F1F1F1F1F4E1F1F1F1F1F1F1F76
:10552000171F1F1F1F1F1F1F191F1F1F1F1F1F1F99
:105530001B1F1F1F1F1F1F1F1D000122A2E6082285
:10554000A0E610229EE620229CE640229AE68022D7
:1055500098E602F50E32926D02F00702052A0ED887
:10556000DFE802F003260507090B02228AE608227B
:1055700088E6102286E6202284E6402282E6802207
:1055800080E604227EE604227CE604227AE60422F7
:1055900078E6042276E6042274E6042272E6042207
:1055A00070E604226EE600BF00440258042269E659
:1055B000042267E6202A27D8022AC0F00E81023A88
:1055C0001E2A00F20C81DFE812F026000A015600C4
:1055D0000A010A010A015B000A010A010A010A0123
:1055E0000A010A010A0160000A010A010A010A010E
:1055F0000A010A010A010A010A010A010A010A0153
:105600000A010A010A016C00402A02D14FF400404D
:1056100006E00120F4E0FEF79DFD002800F0E180A7
:10562000626A7E4B33F81220B0FBF2F3656805EB3B
:105630004501994200F2D780B3EB053F00F2D580D7
:10564000002633463146FAF743FE090241EA10616B
:1056500000026B08C0182A46334641F10001FAF7F0
:1056600037FEA0F540726E4B9A4200F2C08023686C
:10567000D8603046C4E003A8FEF77EFD0498CCE76E
:105680006846FEF779FE0198C7E7664B1B6813F082
:10569000200F08D0634B1B68C3F3C1036248D84096
:1056A000BEE76248BCE76048BAE7202A15D8202A3E
:1056B00000F29F80DFE802F015369D9D399D9D9D8B
:1056C0003E9D9D9D9D9D9D9D439D9D9D9D9D9D9DC3
:1056D0009D9D9D9D9D9D9D9D4F00402A06D0012032
:1056E0008EE0FDF7CBFE002800F08580626A4B4B10
:1056F00033F81230B0FBF3F06268530803EB400359
:10570000B3FBF2F3A3F110014FF6EF72914274D89C
:105710009AB222F00F02C3F3420313432268D3600C
:1057200000206DE0FDF7BCFEDDE703A8FEF724FDD9
:105730000498D8E76846FEF71FFE0198D3E7394B77
:105740001B6813F0200F08D0364B1B68C3F3C1034E
:105750003548D840CAE73548C8E73348C6E7402A45
:1057600002D14FF4004005E0012049E0FDF786FE3C
:1057700000284FD0626A294B33F81230B0FBF3F0A7
:10578000636800EB5300B0FBF3F0A0F110024FF69A
:10579000EF739A4240D8236880B2D86000202FE08F
:1057A000FDF77EFEE4E703A8FEF7E6FC0498DFE7DA
:1057B0006846FEF7E1FD0198DAE71A4B1B6813F023
:1057C000200F08D0174B1B68C3F3C1031648D840FD
:1057D000D0E71648CEE71448CCE7012010E00120BE
:1057E0000EE000200CE001200AE0012008E001208A
:1057F00006E0012004E0002002E0012000E001209A
:105800000123A4F86A30A4F8683000236367A36713
:1058100006B070BD0020F3E70120F1E70494000812
:10582000FFFC0F00004402580090D00300093D0027
:10583000836A13F0080F06D00268536823F400430C
:10584000816B0B435360836A13F0010F06D002682B
:10585000536823F40033C16A0B435360836A13F027
:10586000020F06D00268536823F48033016B0B43A8
:105870005360836A13F0040F06D00268536823F460
:105880008023416B0B435360836A13F0100F06D0E3
:105890000268936823F48053C16B0B439360836A5F
:1058A00013F0200F06D00268936823F40053016CB4
:1058B0000B439360836A13F0400F0AD00268536869
:1058C00023F48013416C0B435360436CB3F5801F8A
:1058D0000BD0836A13F0800F06D00268536823F45C
:1058E0000023C16C0B43536070470268536823F474
:1058F000C003816C0B435360EBE72DE9F843054689
:105900000E4617469946DDF820802B68DC6936EA9A
:1059100004040CBF01240024BC423AD1B8F1FF3F7B
:10592000F3D0FBF799FDA0EB0900404534D8B8F15E
:10593000000F33D02B681A6812F0040FE5D0B6F1CF
:10594000400218BF0122802EDFD0002ADDD0DA69A4
:1059500012F0080F11D1DA6912F4006FD5D04FF4AC
:1059600000621A622846FFF7D5FB2023C5F8903065
:10597000002385F8843003200CE008241C622846AC
:10598000FFF7C8FBC5F89040002385F8843001205C
:1059900000E00020BDE8F8830320FBE70320F9E7DF
:1059A00030B583B004460023C0F89030FBF754FDB7
:1059B00005462268126812F0080F10D123681B6890
:1059C00013F0040F28D12023C4F88830C4F88C3099
:1059D0000020E066206784F8840003B030BD6FF0DB
:1059E0007E430093034600224FF400112046FFF748
:1059F00084FF0028E2D0226852E8003F23F08003B1
:105A000042E800310029F6D12023C4F88830002371
:105A100084F884300320E0E76FF07E4300932B4648
:105A200000224FF480012046FFF767FF0028CAD00C
:105A3000226852E8003F23F4907342E800310029C5
:105A4000F6D1226802F1080353E8003F23F0010376
:105A5000083242E800310029F3D12023C4F88C3009
:105A6000002384F884300320B7E778B310B50446E8
:105A7000D0F888300BB32423C4F888302268136828
:105A800023F001031360A36AE3B92046FFF76EFB1E
:105A9000012811D02268536823F490435360226890
:105AA000936823F02A0393602268136843F001038C
:105AB00013602046FFF774FF10BD80F88430FBF7B9
:105AC00053FBD8E72046FFF7B3FEDEE7012070471F
:105AD000436E2BB90123A0F86A30A0F868307047F4
