:020000040800F2
:100000000000052465280008C1230008C323000858
:10001000C5230008C7230008C9230008000000000A
:10002000000000000000000000000000F186000851
:10003000CB2300080000000091870008F587000826
:10004000B5280008B5280008B5280008B52800081C
:10005000B5280008B5280008B5280008B52800080C
:10006000B5280008B5280008B5280008B5280008FC
:10007000B5280008B5280008B5280008B5280008EC
:10008000B5280008B5280008B5280008B5280008DC
:10009000B5280008B5280008B5280008B5280008CC
:1000A000B5280008B5280008B5280008B5280008BC
:1000B000B5280008B5280008B5280008B5280008AC
:1000C000B5280008B5280008B5280008B52800089C
:1000D000B5280008B5280008B5280008B52800088C
:1000E000B5280008B528000800000000B528000861
:1000F000B5280008B5280008B5280008B52800086C
:10010000B5280008B5280008B5280008B52800085B
:10011000B5280008B5280008B5280008B52800084B
:10012000B5280008B5280008B5280008B52800083B
:10013000B5280008B5280008B5280008B52800082B
:1001400000000000000000000000000000000000AF
:10015000B5280008B5280008B5280008B52800080B
:10016000B5280008B5280008B5280008B5280008FB
:10017000B5280008CD230008B528000800000000BD
:10018000B5280008B5280008B5280008B5280008DB
:10019000B5280008B5280008B5280008B5280008CB
:1001A000B5280008B5280008B528000800000000A0
:1001B000B5280008B5280008B5280008B5280008AB
:1001C000B5280008B5280008000000000000000065
:1001D0000000000000000000B5280008000000003A
:1001E000000000000000000000000000000000000F
:1001F0000000000000000000B5280008B528000835
:10020000B5280008B528000800000000B52800083F
:10021000B5280008B5280008B5280008B52800084A
:10022000B528000800000000B52800080000000004
:10023000B5280008B528000800000000B52800080F
:10024000B5280008B5280008B5280008B52800081A
:10025000B5280008B5280008B5280008B52800080A
:10026000B5280008B5280008B5280008B5280008FA
:10027000B5280008B5280008B528000800000000CF
:10028000B5280008B5280008B5280008B5280008DA
:1002900000000000B5280008B52800080000000094
:1002A00000000000B5280008B5280008B52800089F
:1002B000B5280008B5280008B5280008B5280008AA
:0C02C000B5280008DD230008B528000860
:1002D00081F0004102E000BF83F0004330B54FEAF7
:1002E00041044FEA430594EA050F08BF90EA020F64
:1002F0001FBF54EA000C55EA020C7FEA645C7FEAF7
:10030000655C00F0E2804FEA5454D4EB5555B8BF19
:100310006D420CDD2C4480EA020281EA030382EA8A
:10032000000083EA010180EA020281EA0303362D1C
:1003300088BF30BD11F0004F4FEA01314FF4801CEF
:100340004CEA113102D0404261EB410113F0004F01
:100350004FEA03334CEA133302D0524263EB4303B8
:1003600094EA050F00F0A780A4F10104D5F1200E56
:100370000DDB02FA0EFC22FA05F2801841F10001B1
:1003800003FA0EF2801843FA05F359410EE0A5F185
:1003900020050EF1200E012A03FA0EFC28BF4CF0B6
:1003A000020C43FA05F3C01851EBE37101F000456C
:1003B00007D54FF0000EDCF1000C7EEB00006EEB79
:1003C0000101B1F5801F1BD3B1F5001F0CD3490803
:1003D0005FEA30004FEA3C0C04F101044FEA44525A
:1003E00012F5800F80F09A80BCF1004F08BF5FEAE1
:1003F000500C50F1000041EB045141EA050130BDC1
:100400005FEA4C0C404141EB0101013C28BFB1F5D2
:10041000801FE9D291F0000F04BF01460020B1FA1D
:1004200081F308BF2033A3F10B03B3F120020CDAF0
:100430000C3208DD02F1140CC2F10C0201FA0CF0CE
:1004400021FA02F10CE002F11402D8BFC2F1200C33
:1004500001FA02F120FA0CFCDCBF41EA0C019040E9
:10046000E41AA2BF01EB0451294330BD6FEA040432
:100470001F3C1CDA0C340EDC04F11404C4F120021D
:1004800020FA04F001FA02F340EA030021FA04F32F
:1004900045EA030130BDC4F10C04C4F1200220FA86
:1004A00002F001FA04F340EA0300294630BD21FAC4
:1004B00004F0294630BD94F0000F83F4801306BF8A
:1004C00081F480110134013D4EE77FEA645C18BF7E
:1004D0007FEA655C29D094EA050F08BF90EA020F15
:1004E00005D054EA000C04BF1946104630BD91EA0D
:1004F000030F1EBF0021002030BD5FEA545C05D110
:100500004000494128BF41F0004130BD14F580044E
:100510003CBF01F5801130BD01F0004545F0FE41C2
:1005200041F470014FF0000030BD7FEA645C1ABFF7
:10053000194610467FEA655C1CBF0B46024650EA2E
:10054000013406BF52EA033591EA030F41F400215A
:1005500030BD00BF90F0000F04BF0021704730B5E0
:100560004FF4806404F132044FF000054FF00001B5
:1005700050E700BF90F0000F04BF0021704730B576
:100580004FF4806404F1320410F0004548BF40424B
:100590004FF000013EE700BF42004FEAE2014FEAA0
:1005A00031014FEA02701FBF12F07F4393F07F4F7B
:1005B00081F06051704732F07F4208BF704793F07E
:1005C0007F4F04BF41F40021704730B54FF4607491
:1005D00001F0004521F000411CE700BF50EA010294
:1005E00008BF704730B54FF000050AE050EA01023D
:1005F00008BF704730B511F0004502D5404261EBAD
:1006000041014FF4806404F132045FEA915C3FF4ED
:10061000D8AE4FF003025FEADC0C18BF03325FEA8A
:10062000DC0C18BF033202EBDC02C2F1200300FA3B
:1006300003FC20FA02F001FA03FE40EA0E0021FA60
:1006400002F11444BDE600BF4FF0FF3C06E000BFDE
:100650004FF0010C02E000BF4FF0010C4DF804CD4B
:100660004FEA410C7FEA6C5C4FEA430C18BF7FEA0B
:100670006C5C1BD001B050EA410C0CBF52EA430C39
:1006800091EA030F02BF90EA020F0020704710F1B9
:10069000000F91EA030F58BF994208BF90422CBF48
:1006A000D8176FEAE37040F0010070474FEA410C41
:1006B0007FEA6C5C02D150EA013C07D14FEA430C5F
:1006C0007FEA6C5CD6D152EA033CD3D05DF8040BD0
:1006D000704700BF8446104662468C461946634602
:1006E00000E000BF01B5FFF7B7FF002848BF10F1D9
:1006F000000F01BD4DF808EDFFF7F4FF0CBF01201E
:1007000000205DF808FB00BF4DF808EDFFF7EAFF99
:1007100034BF012000205DF808FB00BF4DF808ED54
:10072000FFF7E0FF94BF012000205DF808FB00BF49
:100730004DF808EDFFF7CEFF94BF012000205DF8D3
:1007400008FB00BF4DF808EDFFF7C4FF34BF0120E0
:1007500000205DF808FB00BF4A0011D212F500121C
:1007600011D20DD56FF47873B3EB62520ED44FEA09
:10077000C12343F0004343EA505323FA02F0704789
:100780004FF00000704750EA013002D14FF0FF30C7
:1007900070474FF0000070474FEA4102B2F1E0436A
:1007A00024BFB3F5001CDCF1FE5C0DD901F0004C58
:1007B0004FEAC0024CEA5070B2F1004F40EB8300A8
:1007C00008BF20F00100704711F0804F21D113F1D4
:1007D0003872BCBF01F00040704741F480114FEA0D
:1007E0005252C2F11802C2F1200C10FA0CF320FA96
:1007F00002F018BF40F001004FEAC1234FEAD323B3
:1008000003FA0CFC40EA0C0023FA02F34FEA43031C
:10081000CCE77FEA625307D150EA01331EBF4FF0A5
:10082000FE4040F44000704701F0004040F0FE40C0
:1008300040F40000704700BF844641EA000313F013
:1008400003036DD1403A41D351F8043B40F8043BD7
:1008500051F8043B40F8043B51F8043B40F8043B9A
:1008600051F8043B40F8043B51F8043B40F8043B8A
:1008700051F8043B40F8043B51F8043B40F8043B7A
:1008800051F8043B40F8043B51F8043B40F8043B6A
:1008900051F8043B40F8043B51F8043B40F8043B5A
:1008A00051F8043B40F8043B51F8043B40F8043B4A
:1008B00051F8043B40F8043B51F8043B40F8043B3A
:1008C00051F8043B40F8043B403ABDD2303211D3DA
:1008D00051F8043B40F8043B51F8043B40F8043B1A
:1008E00051F8043B40F8043B51F8043B40F8043B0A
:1008F000103AEDD20C3205D351F8043B40F8043BDA
:10090000043AF9D2043208D0D2071CBF11F8013BD7
:1009100000F8013B01D30B8803806046704700BF9D
:10092000082A13D38B078DD010F003038AD0C3F1AC
:100930000403D21ADB071CBF11F8013B00F8013B8E
:1009400080D331F8023B20F8023B7BE7043AD9D34D
:10095000013A11F8013B00F8013BF9D20B78037022
:100960004B7843708B7883706046704770B54FF05A
:10097000FF0C4CF4E06C1CEA11541DBF1CEA13552B
:1009800094EA0C0F95EA0C0F00F0DEF82C4481EA93
:10099000030621EA4C5123EA4C5350EA013518BFB3
:1009A00052EA033541F4801143F4801338D0A0FBA0
:1009B00002CE4FF00005E1FB02E506F00042E0FB4D
:1009C00003E54FF00006E1FB03569CF0000F18BF53
:1009D0004EF0010EA4F1FF04B6F5007F64F54074FB
:1009E00004D25FEA4E0E6D4146EB060642EAC6218E
:1009F00041EA55514FEAC52040EA5E504FEACE2EFB
:100A0000B4F1FD0C88BFBCF5E06F1ED8BEF1004FFD
:100A100008BF5FEA500E50F1000041EB045170BD79
:100A200006F0004646EA010140EA020081EA0301BD
:100A3000B4EB5C04C2BFD4EB0C0541EA045170BDB9
:100A400041F480114FF0000E013C00F3AB8014F133
:100A5000360FDEBF002001F0004170BDC4F100047C
:100A6000203C35DA0C341BDC04F11404C4F12005FD
:100A700000FA05F320FA04F001FA05F240EA020058
:100A800001F0004221F0004110EBD37021FA04F68E
:100A900042EB06015EEA430E08BF20EAD37070BD48
:100AA000C4F10C04C4F1200500FA04F320FA05F0A7
:100AB00001FA04F240EA020001F0004110EBD370A9
:100AC00041F100015EEA430E08BF20EAD37070BD19
:100AD000C4F1200500FA05F24EEA020E20FA04F3F2
:100AE00001FA05F243EA020321FA04F001F00041A1
:100AF00021FA04F220EA020000EBD3705EEA430E12
:100B000008BF20EAD37070BD94F0000F0FD101F040
:100B10000046400041EB010111F4801F08BF013C79
:100B2000F7D041EA060195F0000F18BF704703F0B7
:100B30000046520043EB030313F4801F08BF013D3E
:100B4000F7D043EA0603704794EA0C0F0CEA1355FA
:100B500018BF95EA0C0F0CD050EA410618BF52EAB4
:100B60004306D1D181EA030101F000414FF00000BA
:100B700070BD50EA410606BF1046194652EA4306C8
:100B800019D094EA0C0F02D150EA013613D195EA3C
:100B90000C0F05D152EA03361CBF104619460AD184
:100BA00081EA030101F0004141F0FE4141F470018E
:100BB0004FF0000070BD41F0FE4141F4780170BD7E
:100BC00070B54FF0FF0C4CF4E06C1CEA11541DBFE3
:100BD0001CEA135594EA0C0F95EA0C0F00F0A7F8E5
:100BE000A4EB050481EA030E52EA03354FEA013112
:100BF00000F088804FEA03334FF0805545EA131325
:100C000043EA12634FEA022245EA111545EA1065EC
:100C10004FEA00260EF000419D4208BF964244F183
:100C2000FD0404F5407402D25B084FEA3202B61AA2
:100C300065EB03055B084FEA32024FF480104FF476
:100C4000002CB6EB020E75EB030E22BFB61A7546EA
:100C500040EA0C005B084FEA3202B6EB020E75EB7D
:100C6000030E22BFB61A754640EA5C005B084FEAE5
:100C70003202B6EB020E75EB030E22BFB61A7546B2
:100C800040EA9C005B084FEA3202B6EB020E75EBBD
:100C9000030E22BFB61A754640EADC0055EA060E7E
:100CA00018D04FEA051545EA16754FEA06164FEAC1
:100CB000C30343EA52734FEAC2025FEA1C1CC0D16D
:100CC00011F4801F0BD141EA00014FF000004FF0FA
:100CD000004CB6E711F4801F04BF01430020B4F1BB
:100CE000FD0C88BFBCF5E06F3FF6AFAEB5EB030C73
:100CF00004BFB6EB020C5FEA500C50F1000041EB70
:100D0000045170BD0EF0004E4EEA113114EB5C043C
:100D1000C2BFD4EB0C0541EA045170BD41F480110F
:100D20004FF0000E013C90E645EA060E8DE60CEA17
:100D3000135594EA0C0F08BF95EA0C0F3FF43BAF34
:100D400094EA0C0F0AD150EA01347FF434AF95EAEB
:100D50000C0F7FF425AF104619462CE795EA0C0FCF
:100D600006D152EA03353FF4FDAE1046194622E79C
:100D700050EA410618BF52EA43067FF4C5AE50EA76
:100D800041047FF40DAF52EA43057FF4EBAE12E766
:100D90004FEA410212F5001215D211D56FF47873A3
:100DA000B3EB625212D94FEAC12343F0004343EA46
:100DB000505311F0004F23FA02F018BF4042704721
:100DC0004FF00000704750EA013005D111F00040AB
:100DD00008BF6FF0004070474FF00000704700BF41
:100DE0000348044B834202D0034B03B118477047BA
:100DF0006402002464020024000000000548064B41
:100E00001B1AD90F01EBA301491002D0034B03B108
:100E100018477047640200246402002400000000A8
:100E200010B5064C237843B9FFF7DAFF044B13B132
:100E30000448AFF300800123237010BD6402002436
:100E40000000000000C1000808B5054B1BB10549B2
:100E50000548AFF30080BDE80840FFF7CFBF00BFF3
:100E6000000000006802002400C10008F6EE007ACD
:100E700060EE277A10EE103A074AA2EB630307EE02
:100E8000103A67EE277A67EE277AB7EE080A30EE57
:100E9000670A27EE000A7047DF59375F10B52DED5E
:100EA000068B0446B0EE409AF0EE609AB0EE418AAE
:100EB000F0EE618AB0EE42AAF0EE62AAF5EE401AB8
:100EC000F1EE10FA14BF01230023B5EE402AF1EE33
:100ED00010FA18BF43F001032BB9F5EE402AF1EEEA
:100EE00010FA00F0938068EEA87A2AEE0A7A77EE7C
:100EF000877A2AEEAA0A37EE800AFFF7B7FF68EE74
:100F0000808A2AEE00AA6AEE80AA94ED017AD4EDD6
:100F1000036A27EE266AD4ED007AD4ED025A27EE52
:100F2000A55A36EE456A27EE277A66EEA55A37EEC1
:100F3000257A67EEA77AF6EE005A77EEE57A66EE46
:100F4000A66A77EEA67A6AEE276A6AEE875A76EE86
:100F5000E56A6AEE86AA68EEA77A7AEEE7AA68EEF4
:100F6000878A2AEE06AA78EECA8A624BD3ED007A07
:100F7000F5EEC07AF1EE10FA40F3B380D3ED007ACB
:100F800067EEA67A9FED5C7A67EE877A5B4991ED12
:100F9000006A76EE277AC1ED007AD3ED007A67EE2B
:100FA000AA7A67EE877A564A92ED006A76EE277A39
:100FB000C2ED007AD3ED007A67EEA87A67EE877A01
:100FC000504B93ED007A77EE277AC3ED007AD1ED9E
:100FD000007A39EE279AD2ED007A79EEA79AD3ED0E
:100FE000007A38EE278A484BD3ED007A67EEA67A6E
:100FF00039EE279AD3ED007A67EEAA7A79EEA79AAE
:10100000D3ED007A67EEA87A38EE278ADFED3F7AD3
:1010100029EE270A69EEA70A28EE271AD4ED006AFE
:1010200094ED017AD4ED027A27EE409A20EEA76A79
:1010300039EE469AD4ED039A29EE816A39EE469A42
:1010400039EE269A84ED009A60EE268A21EE276A10
:1010500078EE868A29EEA06A78EEC68A78EE878ACC
:10106000C4ED018A20EEA68A21EE076A38EE468A90
:1010700029EE806A38EE068A38EE278A84ED028AE5
:1010800021EE261A60EE870A31EE201A20EE270A9A
:1010900031EE401A79EE819AC4ED039A69EE097A2D
:1010A00028EEA87A77EE877A28EE087A77EE877AA4
:1010B00029EEA90A37EE800AFFF7D8FE29EE009A3A
:1010C00084ED009A68EE808AC4ED018A28EE008AD9
:1010D00084ED028A69EE809AC4ED039ABDEC068B1A
:1010E00010BD0023054A1360054A1360054A1360CA
:1010F00079E700BF8C0200246F12833A8802002433
:101100008402002480020024000000246F12033AAD
:101110007047704710B44FF0E0235C69C0EB0010DB
:101120004FEA401C9B69002104E0E01A024411448C
:10113000614509D21A464FF0E0239B699A42FAD0E2
:10114000F3D9D21A1144F3E75DF8044B704710B598
:1011500004E04FF47A70FFF7DDFF2046431E9CB297
:101160000028F6D110BD000008B500220121024878
:1011700001F070FD08BD00BF0008025808B501224B
:101180001146024801F066FD08BD00BF0008025884
:1011900008B500220821024801F05CFD08BD00BF2F
:1011A0000008025808B501220821024801F052FD4A
:1011B00008BD00BF0008025800B587B08DF80F00C9
:1011C0004FF47A73009301230DF117020DF10F0113
:1011D000034804F0AFFA9DF8170007B05DF804FB70
:1011E000183B002410B50C46FFF7E6FF2046FFF73A
:1011F000E3FF10BD10B50C4640F08000FFF7DCFFA8
:101200005520FFF7D9FF207010BD38B50D461446A4
:1012100040F08000FFF7D0FF06E05520FFF7CCFF3D
:1012200005F8010B013CE4B2002CF6D138BD0000FA
:1012300070B5FFF799FF8020FFF7BEFF5520FFF73D
:10124000BBFF5520FFF7B8FFFFF798FF9620FFF789
:1012500061FFFFF789FF8020FFF7AEFF5520FFF702
:10126000ABFF5520FFF7A8FFFFF788FF9620FFF799
:1012700051FFFFF779FFB6217E20FFF7B3FFFFF79D
:101280007DFF5020FFF763FFFFF76EFF8020FFF721
:1012900093FF5520FFF790FF5520FFF78DFFFFF7D5
:1012A0006DFF9620FFF736FFFFF75EFF8020FFF708
:1012B00083FF5520FFF780FF5520FFF77DFF044691
:1012C000FFF75CFF9620FFF725FF1E2C32D100248C
:1012D000052C2DD8FFF748FF174A04EB4403D1181B
:1012E0004E78D55C31462846FFF77CFFFFF746FF76
:1012F0009620FFF70FFFFFF737FF45F08000FFF75D
:101300005BFF5520FFF758FF5520FFF755FF0546B7
:10131000FFF734FF9620FFF7FDFEAE4202D1013405
:10132000E4B2D5E704EB4404034B2344987800E08F
:10133000002070BDFF20FCE780C1000870B582B0BE
:1013400000248DF80740FFF723FF0DF1070529461C
:101350002046FFF74FFFFFF725FF9620FFF7DAFE45
:10136000FFF716FF29462046FFF744FFFFF71AFF55
:101370009620FFF7CFFEFFF70BFFB6211420FFF7F3
:1013800031FFFFF70FFF5020FFF7E1FEFFF700FFEF
:1013900029462046FFF72EFFFFF704FF9620FFF7B0
:1013A000B9FEFFF7F5FE29462046FFF723FFFFF7BA
:1013B000F9FE9620FFF7AEFE9DF807300F2B2ED1D9
:1013C000052C29D8FFF7E4FE164A04EB4403D11894
:1013D0004D78D65C29463046FFF704FFFFF7E2FE62
:1013E0009620FFF797FEFFF7D3FE0DF10701304679
:1013F000FFF700FFFFF7D6FE9620FFF78BFE9DF864
:1014000007309D4202D10134E4B2D9E704EB440431
:10141000044B2344987800E0002002B070BDFF2008
:10142000FBE700BF6CC1000810B5FFF771FEFFF7C6
:1014300070FEFFF7FDFE0446FFF780FF2043C0B2B9
:1014400010BD00002DE9F04182B006460C4615465D
:10145000002700970197FFF787FE9220FFF7ACFE69
:10146000062269461220FFF7D0FEFFF787FE9DF89F
:1014700001301B021BB29DF80020134307EE903A87
:10148000F8EEE77A474A92ED007A67EE877AC4ED84
:10149000007A9DF803301B021BB29DF802100B432B
:1014A00007EE903A92ED007AF8EEE77A67EE877AE7
:1014B000C4ED017A9DF805301B021BB29DF8042093
:1014C000134307EE903AF8EEE77A67EE877AC4EDB9
:1014D000027AFFF75DFE082269463846FFF795FE5F
:1014E000FFF760FE9DF800300F2B28D0FFF73CFE81
:1014F000A220FFF761FE022269462220FFF785FE47
:10150000FFF73CFE9DF800209DF801305B0943EA9F
:10151000C203B3F5806F01DBA3F5006307EE903AD9
:10152000F8EEE77AB4EE007A67EE877AB3EE077AE0
:1015300077EE877AC5ED007A02B0BDE8F0819DF8BC
:1015400003301B021BB29DF80220134307EE903AB2
:10155000F8EEE77A144A92ED007A67EE877AC6EDE4
:10156000007A9DF805301B021BB29DF804100B4356
:1015700007EE903A92ED007AF8EEE77A67EE877A16
:10158000C6ED017A9DF807301B021BB29DF80620BC
:10159000134307EE903AF8EEE77A67EE877AC6EDE6
:1015A000027AA3E7080000240400002410B588B0E4
:1015B00000238DF807300EE04FF0600C14E04FF080
:1015C000600C1EE04FF0600CC3F1170420346C4433
:1015D00004F818CC0133072B21DC41FA03F414F092
:1015E000010FE9D04FF0780CC3F1070420346C44AC
:1015F00004F818CC40FA03F414F0010FDFD04FF0D8
:10160000780CC3F10F0420346C4404F818CC42FA6F
:1016100003F414F0010FD5D04FF0780CD4E74FF657
:10162000FF7300220DF107010E4803F023FF0D4B5D
:1016300093F88130012BFAD14FF6FF73182202A9DB
:10164000084803F017FF002408E04FF6FF7301225B
:101650000DF10701034803F00DFF0134632CF4DDA5
:1016600008B010BD903A002410B5344B1B68052B10
:1016700013D8DFE803F0034323135333304C002225
:1016800011462078FFF792FF23780133DBB22370F5
:10169000C72B02D9294B03221A6010BD284C002207
:1016A00011462078FFF782FF2378013BDBB22370DD
:1016B000032BF2D8214B02221A60EEE7204C0022C5
:1016C00021781046FFF772FF23780133DBB22370D5
:1016D000C72BE2D9194B05221A60DEE7184C00220D
:1016E00021781046FFF762FF2378013BDBB22370BD
:1016F000032BD2D8114B01221A60CEE7104C22786E
:1017000000210846FFF752FF23780133DBB2237034
:10171000C72BC2D9094B04221A60BEE7084C2278B5
:1017200000210846FFF742FF2378013BDBB223701C
:10173000032BB2D8014B00221A60AEE794020024BA
:101740009002002400000000F8B52DED028B10EE91
:10175000100A10EE904AFEF71FFF47A3D3E90023BB
:10176000FEF7BAFD46A3D3E90023FFF7FFF8484E82
:10177000FEF7F2FF30702046FEF70EFF3EA3D3E9DE
:101780000023FEF7A9FD3EA3D3E90023FFF7EEF8FF
:10179000404DFEF7E1FF28703F4F97ED008AF1EED4
:1017A000087A68EE277A17EE900AFEF7F5FE41EC0C
:1017B000100B08F0FDFF51EC100B0022374BFFF728
:1017C000D5F80022354BFEF789FDFEF7C5FFC4B200
:1017D000347078EE087A17EE900AFEF7DDFE41ECE1
:1017E000100B09F029F851EC100B00222B4BFFF7DE
:1017F000BDF80022294BFEF771FDFEF7ADFFC6B222
:101800002E70F0EE087A68EE277A17EE900AFEF74F
:10181000C3FE41EC100B09F00FF851EC100B002245
:101820001E4BFFF7A3F800221C4BFEF757FDFEF7F7
:1018300093FFC5B21A4B1D7018EE100AFEF7ACFEEE
:1018400011A3D3E90023FEF749FDFEF7A5FF386099
:10185000324629462046FFF7A9FE97ED007ADFEDD4
:10186000117AB4EEE77AF1EE10FA02DB4FF07E5215
:101870003A60BDEC028BF8BDA4703D0AD7A3B03F1F
:10188000000000000088C340FA7E6ABC7493583F91
:101890009E0200249C02002498020024000049407B
:1018A0009D02002400007A44013803282CD8DFE888
:1018B00000F0020C1621DFED157A20EE270ABCEEAF
:1018C000C00A134B83ED0F0A7047DFED107A20EE4C
:1018D000270ABCEEC00A0E4B83ED0D0A7047DFED00
:1018E0000B7A20EE270ABCEEC00A4FF0804383ED4E
:1018F0000F0A7047DFED057A20EE270ABCEEC00A1A
:101900004FF0804383ED0D0A704700BF007EBB4659
:10191000000001400000000008B5474C00212046AF
:1019200004F072FE0821204604F06EFE434C0021B4
:10193000204604F069FE0821204604F065FE3AE0E6
:101940003F4A5178937843EA012307EE903AF8EE44
:10195000677A9FED3C7AC7EE876A3B4BC3ED006A1E
:10196000D178137943EA012307EE903AF8EE677ACB
:10197000C7EE876A354BC3ED006A25E0334B186824
:10198000FEF70AFE28A3D3E90023FEF7D1FE10B12B
:101990002E4B2F4A1A602D4C94ED000A0220FFF7BF
:1019A00083FFD4ED000A284B93ED000AFFF7CCFE2D
:1019B000012006F0FCFD224B264A106818601279BF
:1019C0001A711B78FF2BBBD01F4B1868FEF7E4FD84
:1019D00017A3D3E90023FEF7A1FE10B11A4B1E4A4C
:1019E0001A60194B1868FEF7D7FD0FA3D3E900233F
:1019F000FEF79EFE10B1144B154A1A60124B93ED80
:101A0000000A0120FFF750FF104B1868FEF7C4FDD5
:101A100007A3D3E90023FEF781FE0028AED00B4BCD
:101A20000D4A1A60AAE700BFC3F5285C8FC2B53F14
:101A3000A4703D0AD7A3B03F843C0024383C002466
:101A4000A002002400401C46100000240C000024CA
:101A50007B14AE3D4C8E0024B81E853D00B58646F5
:101A60004FF0000C4FF6FF7010E040080133DBB27E
:101A7000072B07D810F0010FF7D04AF2010282EAD3
:101A80005000F3E70CF1010C1FFA8CFC8C4504D2DA
:101A90001EF80C3058400023EAE75DF804FB000014
:101AA00010B5454CFC232370012363701823A370E9
:101AB0004249D1ED007A9FED427A67EE877AFDEEDA
:101AC000E77A17EE903A3F4AC2ED007AE370C3F32B
:101AD00007202071C3F3074060711B0EA371D1ED85
:101AE000017A67EE877AFDEEE77A17EE903AC2ED5B
:101AF000007AE371C3F307202072C3F307406072DA
:101B00001B0EA372D1ED027A67EE877AFDEEE77ABB
:101B100017EE903AC2ED007AE372C3F30721217306
:101B2000C3F3074161731B0EA3732749D1ED007AFC
:101B300067EE877AFDEEE77A17EE903AC2ED007A0B
:101B4000E373C3F307202074C3F3074060741B0ED4
:101B5000A374D1ED017A67EE877AFDEEE77A17EE8E
:101B6000903AC2ED007AE374C3F307202075C3F303
:101B7000074060751B0EA375D1ED027A67EE877A78
:101B8000FDEEE77A17EE903AC2ED007AE375C3F303
:101B900007222276C3F3074262761B0EA3761A2130
:101BA000601CFFF75BFFE076C0F3072020771D2164
:101BB000204608F019FB10BDA8020024FC020024F6
:101BC00000007A44C8020024DC0200244FF07E5357
:101BD0000360002343608360C360704708B5D2EDA3
:101BE000022A92ED012AD2ED001A91ED021AD1EDEE
:101BF000010A91ED000AFFF751F908BDF8B52DED86
:101C0000028B04460F4616461D46D0ED000A90EDA5
:101C1000030A20EE800AD0ED017A90ED027A27EED9
:101C2000877A30EE070A60EEA00A67EEA77A70EEB8
:101C3000A70A70EEA00AB7EE008A70EEC80A30EE6E
:101C4000000A08F06DFE87ED000AD4ED017A94EDEC
:101C5000037A67EE877A94ED007AD4ED026A27EE74
:101C6000267A77EEC77AB8EE000A27EE800A08F0E7
:101C70002BFE86ED000AD4ED000A94ED010A20EE59
:101C8000800A94ED027AD4ED037A27EE277A30EEBB
:101C9000070A60EEA00A67EEA77A70EEA70A70EE58
:101CA000A00A70EEC80A30EE000A08F039FE85ED91
:101CB000000ABDEC028BF8BD80B50A2006F077FC67
:101CC0000C213B4804F0A0FC02E0642006F06FFC0D
:101CD000FFF7AAFB0028F8D13648FFF777FF1BE093
:101CE000354BD3ED007AF5EEC07AF1EE10FA01D55E
:101CF00000221A602E4B1A682F4BD3ED007AFCEEAF
:101D0000E77A17EE903A9BB21364FFF7C9FEFFF72C
:101D1000ABFC012006F04BFC284C294F294E2246F3
:101D200039463046FFF78EFB224D3A46314628466B
:101D3000FFF754FF244B1A1FA3F108012846FFF7B1
:101D40005DFF224AD2ED006A214BC3ED006A214BB0
:101D500093ED006A82ED006A94ED007ADFED1E7A61
:101D600077EEC77AC3ED007A9FED1C7A27EE877A6B
:101D700076EE275A76EEA56ADFED195A66EEA56A69
:101D800037EE267A77EEC67AF2EE046A67EEA67A26
:101D900077EE277A084BC3ED007A9FED127AF4EEC6
:101DA000C77AF1EE10FA9BDD83ED007A98E700BF69
:101DB000EC3B0024E8020024D8020024F8020024AE
:101DC000FC02002408030024E4020024D0020024C2
:101DD000CC020024D4020024000020420000C842AB
:101DE000000048420000FA4308B508F0A1F90120BC
:101DF00006F0DDFBFBE70000034B0360034B0B60C9
:101E000080231360704700BF70090024700700240E
:101E1000034B0360034B0B604FF4807313607047F8
:101E2000140700241403002410B596B01B4C0DF1C8
:101E30003C0CA646BEE80F00ACE80F009EE8070089
:101E40008CE8070000210FA806F07EFB144B1860F9
:101E50000DF1200C04F11C0EBEE80F00ACE80F00E1
:101E60009EE807008CE80700002108A806F06CFB3C
:101E70000C4B18600DF1040E04F1380CBCE80F0097
:101E8000AEE80F009CE807008EE80700002101A8DB
:101E900006F05AFB044B186016B010BD18C10008BC
:101EA0008C3A0024883A0024281A0024F0B58BB01C
:101EB00005AD002405940694079408940994384BC2
:101EC000D3F8E02042F00402C3F8E020D3F8E02089
:101ED00002F004020092009AD3F8E02042F080025F
:101EE000C3F8E020D3F8E02002F080020192019ACA
:101EF000D3F8E02042F00102C3F8E020D3F8E0205C
:101F000002F001020292029AD3F8E02042F00202AB
:101F1000C3F8E020D3F8E02002F002020392039A13
:101F2000D3F8E02042F01002C3F8E020D3F8E0300C
:101F300003F010030493049B1A4E01224FF46041F6
:101F4000304600F087FE22460921304600F082FE2E
:101F50004FF4604305930127069707940894294698
:101F6000304600F06DFD092305930697079403237F
:101F700008932946304600F063FD4FF480730593C3
:101F8000022306930794089409942946064800F012
:101F900057FD21464FF0006000F0E2FC0BB0F0BDB1
:101FA00000440258000802580000025808B50268B0
:101FB000034B9A4200D008BD00F0ACFCFBE700BF29
:101FC00000E0004072B6FEE700B59DB04C22002153
:101FD00009A808F009FB2022002101A808F004FB51
:101FE000022001F0AFFC00230093254B9A6922F4F4
:101FF00040429A619B6903F440430093009B204B4D
:102000009B6913F4005FFAD0232309934FF48033C4
:102010000A9301220C9240230D930F9202231293F4
:1020200013931493142115911692179318930C235C
:10203000199300231A931B9309A801F0B5FCD0B99A
:102040003F23019303210291002303930493402330
:10205000059306934FF480620792089301A802F05B
:10206000E3F850B94FF480220021084601F08EFFBA
:102070001DB05DF804FBFFF7A5FFFFF7A3FF00BF4E
:102080000048025808B500F017FCFFF79DFFFFF766
:102090000DFF00F00DF800F08BFB00F039F800F0B8
:1020A000A1FA00F025FBFFF7BFFE06F048FAFEE7B5
:1020B00008B51548154B03604FF4800343600023B7
:1020C00083600722C2604FF0007202614FF080729D
:1020D00042614FF0806282614FF08042C2610362D0
:1020E00043628362C36242638363C3630364436482
:1020F0008364C36403654365836503F0F3F800B943
:1021000008BDFFF75FFFFBE7183B002400380040E5
:1021100008B51648164B03604FF4800343604FF434
:10212000003383600723C360002303614FF0807294
:1021300042614FF0806282614FF08052C26103625F
:1021400043628362C3624FF0804242638363C3632E
:10215000036443648364C36403654365836503F078
:10216000C1F800B908BDFFF72DFFFBE7903A002446
:10217000001400582DE9F041BAB004460021359111
:102180003691379138913991B82206A808F02CFA87
:102190002368544A934205D0534A934252D03AB0EE
:1021A000BDE8F0814FF480520023CDE9062306A854
:1021B00002F0EAFA002842D14C4BD3F8E82042F46E
:1021C0008042C3F8E820D3F8E82002F4804200926D
:1021D000009AD3F8E02042F00402C3F8E020D3F8DC
:1021E000E02002F004020192019AD3F8E02042F0CC
:1021F0000202C3F8E020D3F8E03003F002030293B8
:10220000029B062335934FF00208CDF8D8800027B3
:102210003797032638960525399535AC214634483D
:1022200000F00EFC4FF400533593CDF8D88037976B
:102230003896399521462F4800F002FCAFE7FFF7AA
:10224000C1FEB9E74FF480420023CDE906234FF0E9
:10225000A043319306A802F097FA00283FD1234B00
:10226000D3F8F42042F02002C3F8F420D3F8F4208D
:1022700002F020020392039AD3F8E02042F0010218
:10228000C3F8E020D3F8E02002F001020492049A9F
:10229000D3F8E02042F00402C3F8E020D3F8E030A5
:1022A00003F004030593059B80233593022636969D
:1022B0000024379438940823399335AD29460E48C5
:1022C00000F0BEFB4FF48053359336963794389424
:1022D000052339932946064800F0B2FB5FE7FFF774
:1022E00071FEBCE70038004000140058004402585A
:1022F00000080258000402580000025800B583B0DC
:102300000A4BD3F8F42042F00202C3F8F420D3F8C9
:10231000F43003F002030193019B00220F216FF0C0
:10232000010000F079FB03B05DF804FB00440258A3
:102330000F2801D90120704710B58AB00446002249
:102340000146A12000F068FBA12000F075FB174BAF
:102350001C60174BD3F8EC2042F08072C3F8EC20DD
:10236000D3F8EC3003F080730093009B01A902A81E
:1023700002F0D8F802F0C4F843000E4AA2FB03238F
:102380009B0C013B0C480D4A026040F2E732C260F0
:10239000436000230361836003F036FF10B1012026
:1023A0000AB010BD044803F08DFDF9E720000024B9
:1023B0000044025883DE1B43A03B002400E00040A1
:1023C000FEE7FEE7FEE7FEE7FEE7704708B50248D6
:1023D00000F077FF08BD00BF7492002408B50248E2
:1023E00003F0C5FD08BD00BFA03B0024224AD2F87F
:1023F000883043F47003C2F88830204B1B6803F028
:102400000F03062B06D81D4A136823F00F0343F071
:10241000070313601A4B1A6842F001021A60002287
:102420001A611968174A0A401A60144B1B6813F0A6
:10243000080F06D0114A136823F00F0343F0070377
:1024400013600F4B00229A61DA611A620E49996299
:102450000E49D9620E4919635A639963DA631964A4
:102460005A64196821F4802119601A66094B43F2F5
:10247000D2021A60704700BF00ED00E00020005259
:10248000004402587FEDF6EA000202020000FF015C
:10249000800201010040005284B003681A4A93424E
:1024A00007D0B3F1804F12D0184A93421DD004B028
:1024B0007047174BD3F8F02042F00102C3F8F02028
:1024C000D3F8F03003F001030193019BEFE7104BC9
:1024D000D3F8E82042F00102C3F8E820D3F8E8304E
:1024E00003F001030293029BE1E7094BD3F8E820D4
:1024F00042F00202C3F8E820D3F8E83003F0020308
:102500000393039BD3E700BF000001400004004099
:102510000044025800B589B0002303930493059347
:10252000069307930368294A934208D0B3F1804F7A
:102530001ED0274A934233D009B05DF804FB254BE7
:10254000D3F8E02042F01002C3F8E020D3F8E030E6
:1025500003F010030093009B4FF4085303930223EE
:1025600004930123079303A91B4800F069FAE3E7EA
:10257000184BD3F8E02042F00102C3F8E020D3F872
:10258000E03003F001030193019B05230393022331
:1025900004930123079303A9104800F051FACBE7F5
:1025A0000C4BD3F8E02042F00202C3F8E020D3F84D
:1025B000E03003F002030293029B0223039304938F
:1025C000079303A9064800F03BFAB5E70000014075
:1025D0000004004000440258001002580000025855
:1025E0000004025810B59CB00024189419941A9451
:1025F0001B941594169417940E940F9410941194A0
:102600001294139414943422214601A807F0ECFF8D
:102610003548364B0360C7234360846045F6BF539B
:10262000C360046144618023836103F0EDFD0028F1
:1026300045D14FF48053189318A92B4803F038FF65
:1026400000283FD1284803F00FFE00283DD1002389
:1026500015931693179315A9234804F08DF80028B5
:1026600036D160230E9300220F9210921192129293
:10267000139214920EA91C4803F070FE58BB082256
:102680000EA9194803F06AFE40BB00230193029390
:102690000393049305934FF4005206920793099312
:1026A0004FF000720A920B930D9301A90E4804F0AB
:1026B000BBF8B0B90C48FFF72DFF1CB010BDFFF7F9
:1026C00081FCB6E7FFF77EFCBCE7FFF77BFCBEE7CB
:1026D000FFF778FCC5E7FFF775FCD0E7FFF772FC62
:1026E000D3E7FFF76FFCE5E7843C002400000140DE
:1026F00000B58FB000230A930B930C930D930793AF
:102700000893099300930193029303930493059311
:10271000069326484FF080420260C72242608360E1
:1027200045F6BF52C26003618023836103F06CFDF4
:1027300050BB4FF480530A930AA91C4803F0B8FE1B
:1027400028BB1A4803F090FD20BB00230793099390
:1027500007A9164804F010F8F8B960230093002286
:102760000192029204926946104803F0F7FDB8B94D
:10277000082269460D4803F0F1FDA0B90B48FFF7A8
:10278000C9FE0FB05DF804FBFFF71CFCD1E7FFF7B3
:1027900019FCD6E7FFF716FCD7E7FFF713FCDCE7D9
:1027A000FFF710FCE4E7FFF70DFCE7E7383C0024F7
:1027B00000B58FB000230A930B930C930D930793EE
:1027C0000893099300930193029303930493059351
:1027D00006932248224A026017224260836042F236
:1027E0000F72C26003618023836103F00DFD28BB7B
:1027F0004FF480530A930AA9184803F059FE00BB0E
:10280000164803F031FDF8B900230793099307A98F
:10281000124803F0B1FFD0B9602300930023019365
:10282000029304930C2269460C4803F097FD88B983
:102830000A48FFF76FFE0FB05DF804FBFFF7C2FB1D
:10284000D6E7FFF7BFFBDBE7FFF7BCFBDCE7FFF7F3
:10285000B9FBE1E7FFF7B6FBEAE700BFEC3B00247A
:1028600000040040DFF834D0FFF7C0FD0C480D49EC
:102870000D4A002302E0D458C4500433C4188C42DB
:10288000F9D30A4A0A4C002301E013600432A24241
:10289000FBD307F0FDFEFFF7F5FB704700000524B2
:1028A00000000024640200244CC4000864020024D8
:1028B000289A0024FEE7000010B5032000F09AF8E3
:1028C00001F0B6FB0F498B69C3F303230E4AD35CB7
:1028D00003F01F03D8408B6903F00F03D35C03F0B0
:1028E0001F0320FA03F3094A1360094B18600F20F5
:1028F000FFF71EFD10B10124204610BD0446FFF76E
:10290000FDFCF9E70044025818C200081400002436
:1029100018000024034B1B78034A11680B44136012
:10292000704700BF1C000024D03C0024014B1868F5
:10293000704700BFD03C002438B50446FFF7F6FFCF
:102940000546B4F1FF3F02D0044B1B781C44FFF74F
:10295000EDFF401BA042FAD338BD00BF1C0000248D
:10296000034A536823EA00030B435360704700BFD8
:1029700000040058002807DB00F01F024009012373
:102980009340024A42F82030704700BF00E100E067
:10299000002804DB0901C9B2044B1954704700F048
:1029A0000F000901C9B2024B1954704700E400E05E
:1029B00014ED00E000B500F00700C0F1070CBCF119
:1029C000040F28BF4FF0040C031D062B0FD9C31EA4
:1029D0004FF0FF3E0EFA0CF021EA000199400EFA8A
:1029E00003FE22EA0E0241EA02005DF804FB002326
:1029F000EEE700000649CB6823F4E0631B041B0CE0
:102A0000000200F4E0600343024A1A43CA607047C0
:102A100000ED00E00000FA0510B50446054BD8684B
:102A2000C0F30220FFF7C6FF01462046FFF7B0FFC4
:102A300010BD00BF00ED00E008B5FFF79BFF08BD2B
:102A4000F0B583B000236BE085685E000324B440DA
:102A500025EA0405CC68B4402C438460456825EA27
:102A60000C054C68C4F300149C402C43446069E09E
:102A7000DD08083550F8254003F0070C4FEA8C0CB0
:102A80004FF00F0E0EFA0CFE24EA0E0E0C6904FA3B
:102A90000CF444EA0E0440F825406BE0092400E001
:102AA000002404FA0EF42C430CF1020C664D45F898
:102AB0002C404FF0B0442568D44325EA02064F6805
:102AC00017F4801F01D042EA05064FF0B0452E6092
:102AD0006D6804EA05064F6817F4001F01D042EA4A
:102AE00005064FF0B0456E60D5F8845004EA05063F
:102AF0004F6817F4003F01D042EA05064FF0B04599
:102B0000C5F88460D5F880502C404E6816F4803F9C
:102B100001D042EA05044FF0B042C2F880400133D0
:102B20000A6832FA03F400F08C804FF0010C0CFAC2
:102B300003FC1CEA0202F2D04C6804F00304013CDE
:102B4000012C81D94C6804F00304032C0CD0C46818
:102B50005D004FF0030C0CFA05FC24EA0C0C8C68A9
:102B6000AC4044EA0C04C4604C6804F00304022C3A
:102B70003FF47EAF04684FEA430E4FF0030C0CFAAB
:102B80000EFC24EA0C0C4C6804F0030404FA0EF466
:102B900044EA0C0404604C6814F4403FBFD02B4C52
:102BA000D4F8F45045F00205C4F8F450D4F8F440D9
:102BB00004F002040194019C4FEA930C0CF102050D
:102BC000214C54F8255003F0030E4FEA8E0E0F24CB
:102BD00004FA0EF425EA04051D4CA0423FF460AF50
:102BE00004F58064A0421ED004F58064A0421CD08D
:102BF00004F58064A0421AD004F58064A04218D085
:102C000004F58064A04216D004F58064A04214D07C
:102C100004F58064A04212D004F50064A0423FF4A1
:102C20003DAF0A243DE701243BE7022439E70324B2
:102C300037E7042435E7052433E7062431E7072482
:102C40002FE703B0F0BD00BF000400580044025855
:102C5000000002580AB18161704709048161704720
:102C60002DE9F04383B0D0F8008001EBC10300EB05
:102C700083039A6A5B6A9A4254D807460C469B1AA9
:102C800001EBC10200EB8202D2699A4200D31A46DC
:102C900002F103094FEA990915E006F103094FEA29
:102CA0009909BB7904EBC40507EB8505296A0093F4
:102CB000B3B2E2B2404604F044F92B6A33442B62CB
:102CC000AB6A3344AB6208EB441303F510639B69B2
:102CD0009BB24B4512D304EBC40307EB83039A6A00
:102CE0005B6A9A420AD24BB19B1A04EBC40207EB0F
:102CF0008202D6699E42D0D31E46CEE704EBC403BF
:102D000007EB83077A6ABB6A9A420FD804F00F0474
:102D10000122A240D8F8343823EA0203C8F8343834
:102D2000002000E0012003B0BDE8F0830020FAE7B6
:102D300030B583B000287AD0044690F89534ABB112
:102D4000032384F89534206803F0B0FE237C8DF8CB
:102D50000030231D0ECB206803F0DEFD58B10223A6
:102D600084F895340125284603B030BD80F89434AA
:102D700007F0EAFAE4E70021206804F0F8FA0246D6
:102D8000B8B903462079984218D903EBC30104EB84
:102D90008101012048750B75CB8500200876C8613C
:102DA000086203EBC30104EB810148620133DBB22B
:102DB000E8E7022384F895340125D4E7904217D937
:102DC00002EBC20304EB8303002183F8551283F85E
:102DD000542283F85812C3F85C12C3F8601202EB55
:102DE000C20304EB8303C3F864120132D2B2E5E7F5
:102DF000237C8DF80030231D0ECB206803F0ACFE41
:102E0000054658B900236374012384F89534237B65
:102E1000012B08D0206804F069FAA4E7022384F8A3
:102E2000953401259FE7204600F076FDF2E7012565
:102E300099E7036890F89424012A1AD010B5044643
:102E4000012280F89424DA6812F0400F02D0427B0D
:102E5000012A09D0206803F023FE206804F038FA24
:102E6000002084F8940410BD9A6B42F480329A6377
:102E7000F0E702207047000070B504460D46006878
:102E8000066C00EB411303F530639A68A1790129C0
:102E900011D038498E4256D03DB905EBC50304EB3D
:102EA0008303D3F86432002B5ED0E9B2204607F0EA
:102EB0008DFA002070BD12F0080F09D02E498E4205
:102EC000F7D912F4004FF4D04FF400429A60F0E7C3
:102ED00012F0200F02D020229A60EAE712F0280FA9
:102EE000E7D125498E4206D912F4004F03D04FF4A2
:102EF00000429A60DDE705EBC50204EB8202D2F8DE
:102F000074121B69C3F31203CB1AC2F868327DB97D
:102F100005EBC50204EB8202D2F864226AB105EB2C
:102F2000C50204EB8202D2F860121944C2F86012A2
:102F3000E9B2204607F04AFABBE704F29C420121BD
:102F400004F054FAF4E712F4004F03D04FF40042B7
:102F50009A60AEE712F0200F01D020229A60E9B209
:102F6000204607F033FAA4E704F29C42002104F063
:102F70003DFA9AE70A31544F0A30544F38B50446A7
:102F800003681D6C03EB4113D3F8081B0E4A9542EE
:102F900007D903F5306311F4004F02D04FF400421B
:102FA0009A60204607F00AFA074B9D4202D9A3799E
:102FB000012B01D0002038BD04F29C420121206881
:102FC00004F014FAF6E700BF0A30544F90F8943436
:102FD000012B0CD010B50446012380F894344174C1
:102FE000006804F065F9002084F8940410BD022004
:102FF000704738B505468C4611F0800F2BD101F093
:103000000F0E0EEBCE04A40004F514740444211D2D
:103010000EEBCE0E00EB8E0E00208EF855020CF05B
:103020000F0C81F800C0C2F30A028A600B714A7863
:103030000AB1A1F81AC0022B1CD095F89434012BC8
:103040001BD0012385F89434286803F05FFE00202C
:1030500085F8940438BD01F00F0000EBC001890031
:1030600010312944043100EBC00005EB800001243D
:103070004475D4E700234B71DFE70220EAE710B57F
:1030800004460A4611F0800F20D101F00F0000EB3A
:10309000C0039B0003F514732344191D00EBC0000B
:1030A00004EB8000002380F8553202F00F020A7012
:1030B00094F89434012B18D0012384F894342068B8
:1030C00003F070FE002084F8940410BD01F00F009E
:1030D00000EBC0039B0010332344191D00EBC0001C
:1030E00004EB800001234375DFE70220EDE710B514
:1030F000144601F00F0C0CEBCC01890001F51471A2
:10310000014404310CEBCC0E00EB8E0ECEF86022A5
:10311000CEF864320023CEF868328EF855328EF83D
:1031200054C28279012A04D0006803F021FF0020F4
:1031300010BDCEF87042F7E701F00F0101EBC101BD
:1031400000EB8100D0F86802704710B5144601F01A
:103150000F0C0CEBCC0189001031014404310CEB55
:10316000CC0E00EB8E0ECEF82020CEF824300023BB
:10317000CEF8283001238EF815308EF814C08279ED
:103180009A4204D0006803F0F3FE002010BDCEF890
:103190003040F7E738B501F00F050279AA4238D37D
:1031A00004460B4611F0800F1FD101EBC1018900CD
:1031B00001F514710144043103EBC30300EB8303F5
:1031C000002283F8552201238B700D7094F89434FB
:1031D000012B20D0012384F89434206804F00DF8EA
:1031E00085B1002084F8940438BD05EBC501890041
:1031F00010310144043105EBC50300EB83030122C8
:103200005A75E0E704F29C42A179206804F0EEF8D8
:10321000E7E70120E8E70220E6E701F00F03027983
:103220009A4230D310B5044611F0800F1ED103EB43
:10323000C301890001F514710144043103EBC30299
:1032400000EB8202002082F8550200228A700B7087
:1032500094F89434012B18D0012384F89434206816
:1032600003F0F8FF002084F8940410BD03EBC301C1
:10327000890010310144043103EBC30200EB8202E8
:1032800001205075E1E7012070470220EDE708B505
:1032900011F0800F0CD101F00F0101EBC101890089
:1032A00001F5147101440431006803F0EBFD08BD21
:1032B00001F00F0101EBC10189001031014404311B
:1032C000F2E72DE9F04F83B004460568284604F084
:1032D0004AF810B103B0BDE8F08F0646206804F04C
:1032E00013F80028F6D005F50067BB68C3F30D237B
:1032F000C4F8D434206804F007F810F0020F04D0AA
:103300002268536903F002035361206803F0FCFF55
:1033100010F0100F16D02268936923F01003936108
:10332000D5F8208008F00F0908F4F013B3F5802FCA
:103330006AD0B3F5402F00F08D802268936943F086
:1033400010039361206803F0DFFF10F4002F40F0BA
:103350009380206803F0D8FF10F4802F40F0FC80A9
:10336000206803F0D1FF0028C0F27D81206803F0BF
:10337000CBFF10F4006F09D0BB6813F0010F40F0D1
:103380008A812268536903F400635361206803F063
:10339000BBFF10F0006F15D02268536903F0006383
:1033A000536194F8CC34002B40F07981012184F8EA
:1033B000CC1423685B6DC3F38303C4F8D034204678
:1033C00000F0BEFA206803F09FFF10F4805F40F029
:1033D0006A81206803F098FF10F4005F40F0B68126
:1033E000206803F091FF10F0080F40F0C7812068BB
:1033F00003F08AFF10F0800F00F0DA81AB6923F050
:103400008003AB610126C3E147F6F07318EA030FAE
:1034100093D04FEA181A4FEAC903019309EBC90B7D
:1034200004EB8B0BC8F30A12DBF86012284603F09A
:10343000C1FEDBF86032CAF30A0A5344CBF86032AB
:10344000DBF86832019A4A4404EB82025344C2F822
:10345000683272E7082204F29C41284603F0AAFE73
:1034600009EBC90304EB8303D3F86822C8F30A18F5
:103470004244C3F8682260E7206803F049FF8046B1
:10348000B14635E005EB49130122C3F8082B494644
:103490002046FFF7F1FC3CE005EB49130822C3F896
:1034A000082B49462046FFF769FD35E009EBC903C3
:1034B00004EB830393F85732012B41D005EB4913FA
:1034C0000222C3F8082B1AF0200F04D005EB491391
:1034D0002022C3F8082B1AF4005F05D005EB49132E
:1034E0004FF40052C3F8082B09F101094FEA5808BC
:1034F000B8F1000F3FF42DAF18F0010FF4D05FFAD0
:1035000089FB5946206803F013FF824610F0010F33
:10351000B8D11AF0080FBFD11AF0100F04D005EB84
:1035200049131022C3F8082B1AF0020FCBD06B6995
:1035300013F0800FBAD07B6843F480637B60B5E7FB
:1035400009EBC90304EB8303002283F85722594691
:10355000204606F08BFFB1E7206803F0E1FE8046CD
:10356000B14625E05946204606F03CFF1AF0080F08
:1035700004D005EB49130822C3F808291AF0100FEC
:1035800004D005EB49131022C3F808291AF0400FA4
:1035900004D005EB49134022C3F808291AF0020FA2
:1035A00040D11AF0800F59D109F101094FEA5808AA
:1035B000B8F1000F3FF4D4AE18F0010FF4D05FFA69
:1035C00089FB5946206803F0BCFE824610F0010FCB
:1035D000CCD009F00F02012101FA02F27B6B23EA41
:1035E00002037B6305EB4913C3F80819A3798B42E7
:1035F000B8D109EBC90304EB83031A6AD9690A44F9
:103600001A62B9F1000FADD109EBC90304EB8303D2
:103610005B6A002BA6D104F29C420121206803F0D2
:10362000E5FE9FE74946284603F046FA09EBC90341
:1036300004EB8303DB7D012B05D005EB491302224C
:10364000C3F80829ADE709EBC90304EB83030022A3
:10365000DA755946204606F00FFFEEE74946204648
:10366000FFF7FEFAA0E77B6823F001037B6094F884
:10367000CC34012B08D0204606F0F2FE22685369B4
:1036800003F00043536171E6002184F8CC14204616
:1036900000F056F9F2E7204606F0CAFE71E6204631
:1036A00006F0C6FE8EE67B6823F001037B601021E6
:1036B000206803F001FA1AE005EB46134FF67F315C
:1036C000C3F80819D3F8002922F40012C3F800291E
:1036D000C3F8081BD3F8002B22F40012C3F8002B08
:1036E000D3F8002B42F00062C3F8002B0136237997
:1036F000B342E1D8FB6943F00113FB61E37BDBB12B
:10370000D7F8843043F00B03C7F884307B6C43F068
:103710000B037B64D5F8003823F4FE63C5F800384A
:1037200004F29C42A179206803F060FE226853698C
:1037300003F4805353614CE67A6942F22B0313433E
:103740007B613B6943F00B033B61E3E7206803F0D7
:103750003FFE206803F0C8FAE071266800F0AEFE74
:103760000146E279304603F029F9204606F04BFE87
:103770002268536903F40053536131E6204606F092
:103780003CFE2268536903F0080353612FE60136BB
:103790002379B3420CD906EBC60304EB830393F8F9
:1037A0005732012BF3D1F1B22046FFF770FDEEE75F
:1037B000206803F0A9FD10F4801F25D1206803F0D4
:1037C000A3FD10F4001F58D0012326E00136237911
:1037D000B3421BD905EB4613D3F8002906EBC60309
:1037E00004EB83031B7E012BF0D1002AEEDA06EBFB
:1037F000C60304EB83030122DA7566F07F01C9B2C8
:103800002046FFF744FDE1E70126E0E7226853691F
:1038100003F480135361D1E7013322799A4227D907
:1038200005EB4312D2F8001B03EBC30204EB820248
:1038300092F85822012AEFD10029EDDAD4F8D424E5
:1038400082EA114212F0010FE6D103EBC30204EB4E
:103850008202012182F85712AA6942F08002AA610D
:103860006A6912F0800FD7D17B6843F400737B60E4
:103870002268536903F400135361206803F044FD88
:1038800010F0804F10D1206803F03EFD10F0040FBF
:103890003FF420AD23685D6815F0040F0DD1226858
:1038A00053682B43536015E5204606F0EBFD226874
:1038B000536903F080435361E5E7204606F0E8FDD5
:1038C000EDE710B40468606A31B940EA0240A062D2
:1038D00000205DF8044B70478C46A36A00EB134050
:1038E000002308E003F1400104EB8101496800EB8B
:1038F00011400133DBB20CF1FF318B42F2D340EACD
:1039000002400CF13F0104EB81046060E0E70368D2
:103910005962002070470000034602680121C0F888
:10392000D814002083F8CC04936943F000639361BA
:10393000516D024B0B435365704700BF03000010ED
:1039400070470000134BDB6813F0040F07D1114BD5
:10395000DB6803F0070383421AD00120704710B5DB
:103960000C4AD36823F007030343D360FEF7DEFF5E
:103970000446084B5B6813F4005F07D1FEF7D6FFDF
:10398000001BB0F57A7FF4D9012000E0002010BDC3
:103990000020704700480258024AD36843F0807301
:1039A000D360704700480258002800F0D58238B52F
:1039B0000446036813F0010F25D0A04A136903F0F1
:1039C0003803926A102B15D0182B0FD06368B3F50B
:1039D000803F3FD0002B53D1984B1A6822F480329D
:1039E0001A601A6822F480221A6038E002F003029A
:1039F000022AEBD1914B1B6813F4003F03D063689C
:103A0000002B00F0AB82236813F0020F00F08880D7
:103A10008A4A1369926A13F038035AD0182B55D08A
:103A2000E368002B00F0A98084490A6822F019029B
:103A300013430B60FEF77AFF0546804B1B6813F0BB
:103A4000040F40F09180FEF771FF401B0228F4D96B
:103A500003208AE2794A136843F480331360636871
:103A60002BB3FEF763FF0546744B1B6813F4003F4E
:103A7000C9D1FEF75BFF401B6428F5D9032074E22F
:103A8000B3F5A02F09D06D4B1A6822F480321A606A
:103A90001A6822F480221A60E1E7684B1A6842F43F
:103AA00080221A601A6842F480321A60D7E7FEF763
:103AB0003DFF0546614B1B6813F4003FA3D0FEF7A2
:103AC00035FF401B6428F5D903204EE212F0030FA6
:103AD000A6D15A4B1B6813F0040F03D0E368002BE8
:103AE00000F03E82554A136823F01903E1680B4346
:103AF0001360FEF71BFF0546504B1B6813F0040FC5
:103B000006D1FEF713FF401B0228F5D903202CE253
:103B10004A4A536823F0FE43216943EA0163536034
:103B2000236813F0100F51D0444A136903F038038F
:103B3000926A082B39D0182B33D0E369002B69D057
:103B40003E4A136843F080031360FEF7EFFE05461C
:103B50003A4B1B6813F4807F53D1FEF7E7FE401BFE
:103B60000228F5D9032000E2344A536823F0FE43CB
:103B7000216943EA01635360D2E7304A136823F0B6
:103B800001031360FEF7D2FE05462C4B1B6813F0B1
:103B9000040FC5D0FEF7CAFE401B0228F5D903204A
:103BA000E3E102F00302012AC7D1244B1B6813F49E
:103BB000807F03D0E369802B40F0D4811F4AD36813
:103BC00023F07C53216A43EA0163D360236813F036
:103BD000080F49D06369002B32D0184A536F43F065
:103BE00001035367FEF7A2FE0546144B5B6F13F00B
:103BF000020F39D1FEF79AFE401B0228F5D90320A7
:103C0000B3E10E4AD36823F07C53216A43EA01638F
:103C1000D360DBE7094A136823F080031360FEF7E3
:103C200085FE0546054B1B6813F4807FCED0FEF75A
:103C30007DFE401B0228F5D9032096E1004402587E
:103C40009D4A536F23F001035367FEF76FFE05464D
:103C5000994B5B6F13F0020F06D0FEF767FE401B17
:103C60000228F5D9032080E1236813F0200F29D022
:103C7000A3699BB1904A136843F480531360FEF725
:103C800055FE05468C4B1B6813F4005F1AD1FEF7F6
:103C90004DFE401B0228F5D9032066E1864A1368D1
:103CA00023F480531360FEF741FE0546824B1B68E8
:103CB00013F4005F06D0FEF739FE401B0228F5D949
:103CC000032052E1236813F0040F21D1636A002B13
:103CD00000F04A81784A126902F03802182A00F08E
:103CE000F180022B75D0744A136823F0807313603F
:103CF000FEF71CFE0446704B1B6813F0007F00F0BB
:103D0000D880FEF713FE001B0228F4D903202CE113
:103D10006A4A136843F480731360FEF707FE054692
:103D2000664B1B6813F4807F06D1FEF7FFFD401B36
:103D30006428F5D9032018E1A368012B0AD00BBB36
:103D40005D4B1A6F22F001021A671A6F22F004020B
:103D50001A6704E0584A136F43F001031367A3681E
:103D600033B3FEF7E3FD0546534B1B6F13F0020F11
:103D7000ACD1FEF7DBFD401B41F288339842F3D90A
:103D80000320F2E0052B09D04B4B1A6F22F0010201
:103D90001A671A6F22F004021A67E0E7464B1A6F9F
:103DA00042F004021A671A6F42F001021A67D6E75E
:103DB000FEF7BCFD0546404B1B6F13F0020F85D08C
:103DC000FEF7B4FD401B41F288339842F3D903203B
:103DD000CBE0394A136823F080731360FEF7A6FD29
:103DE0000546354B1B6813F0007F06D0FEF79EFD9D
:103DF000401B0228F5D90320B7E02F4B996A304ABF
:103E00000A40A16AE06A41EA00110A439A62226B01
:103E1000013AC2F30802616B0139490289B20A43CF
:103E2000A16B0139090401F4FE010A43E16B013978
:103E3000090601F0FE410A431A63DA6A22F0010220
:103E4000DA625A6B6FF3CF02A16C42EAC1025A6385
:103E5000DA6A22F00C02216C0A43DA62DA6A22F092
:103E60000202616C0A43DA62DA6A42F48032DA6290
:103E7000DA6A42F40032DA62DA6A42F48022DA6202
:103E8000DA6A42F00102DA621A6842F080721A605D
:103E9000FEF74CFD0446084B1B6813F0007F06D16B
:103EA000FEF744FD001B0228F5D903205DE0002049
:103EB0005BE0002059E000BF00440258004802586F
:103EC0000CFCFFFF30498A6A086B012B4ED002F0D0
:103ED0000303A16A8B424BD1C2F30512E36A9A42F3
:103EE00048D1C0F30802236B013B9A4244D1C0F38E
:103EF0004622636B013B9A4240D1C0F30642A36B5A
:103F0000013B9A423CD1C0F30660E36B013B98420F
:103F100038D11D4B5B6BC3F3CC03A26C9A4201D129
:103F2000002022E0184AD36A23F00103D362FEF78F
:103F3000FDFC0546FEF7FAFCA842FBD0124A536B83
:103F40006FF3CF03A16C43EAC1035363D36A43F019
:103F50000103D362002008E001207047012004E043
:103F6000012002E0012000E0002038BD0120FCE734
:103F70000120FAE70120F8E70120F6E70120F4E745
:103F80000120F2E70120F0E70044025870B588B044
:103F90000C46154610BB234ED6F8E03043F0010323
:103FA000C6F8E030D6F8E03003F001030193019B3E
:103FB0004FF4807303930223049303230693002397
:103FC0000593079303A91848FEF73AFD336923F0D8
:103FD000FE7325431D43356108B070BD114ED6F800
:103FE000E03043F00403C6F8E030D6F8E03003F0E8
:103FF00004030293029B4FF4007303930223049380
:104000000323069300230593079303A90748FEF7AC
:1040100017FD336923F07E4344EAC5141C43346121
:10402000DAE700BF004402580000025800080258B6
:10403000754B1B6903F03803102B00F0DE80182B42
:104040000FD0002B40F0DB806F4B1B6813F0200F6C
:1040500000F0D7806C4B1B68C3F3C1036B48D8409A
:10406000704710B4684B9A6A02F003029C6AC4F36A
:104070000510D96A01F001015B6BC3F3CC0301FBAE
:1040800003F307EE903AF8EE677A14F47C7F77D06A
:10409000012A4AD0022A76D0002A40F091805A4B59
:1040A0001B6813F0200F23D057490A68C2F3C102DE
:1040B000564BD34007EE103AF8EE476A07EE100A67
:1040C000B8EE476A86EE867A0B6BC3F3080306EEFA
:1040D000903AF8EE666A9FED4E6A67EE867A76EE63
:1040E000A77AF7EE006A77EEA67A27EE277A38E00D
:1040F00007EE100AF8EE476A9FED466A86EE267ACA
:10410000414B1B6BC3F3080306EE903AF8EE666A68
:104110009FED3F6A67EE867A76EEA77AF7EE006A41
:1041200077EEA67A27EE277A1BE007EE100AF8EE64
:10413000476A9FED396A86EE267A334B1B6BC3F3D1
:10414000080306EE903AF8EE666A9FED316A67EE74
:10415000867A76EEA77AF7EE006A77EEA67A27EEF1
:10416000277A294B1B6BC3F34623013307EE903AA2
:10417000F8EE677AC7EE276AFCEEE67A17EE900A49
:104180005DF8044B704707EE100AF8EE476A9FEDA2
:10419000236A86EE267A1C4B1B6BC3F3080306EEDC
:1041A000903AF8EE666A9FED1A6A67EE867A76EEC6
:1041B000A77AF7EE006A77EEA67A27EE277AD0E79D
:1041C00007EE100AF8EE476A9FED136A86EE267A2C
:1041D0000D4B1B6BC3F3080306EE903AF8EE666ACC
:1041E0009FED0B6A67EE867A76EEA77AF7EE006AA5
:1041F00077EEA67A27EE277AB3E709487047094891
:1042000070470248704700BF004402580090D00336
:10421000000000390024744C0024744A001BB74B82
:1042200000366E0100093D00002800F0328170B5B3
:104230000D4604469B4B1B6803F00F038B420BD2C9
:10424000984A136823F00F030B431360136803F0BD
:104250000F038B4240F01F81236813F0040F0CD032
:104260002269914B9B6903F070039A4205D98E49EC
:104270008B6923F070031A438A61236813F0080FD7
:104280000CD06269884BDB6903F070039A4205D950
:104290008549CB6923F070031A43CA61236813F080
:1042A000100F0CD0A269804BDB6903F4E0639A42E3
:1042B00005D97D49CB6923F4E0631A43CA612368B9
:1042C00013F0200F0CD0E269774B1B6A03F07003E8
:1042D0009A4205D974490B6A23F070031A430A62A3
:1042E000236813F0020F0CD0E2686F4B9B6903F058
:1042F0000F039A4205D96C498B6923F00F031A43C7
:104300008A61236813F0010F41D0674A936923F44F
:104310007063A1680B4393616368022B0AD0032B7F
:1043200027D0012B2CD0604A126812F0040F06D15E
:104330000120ADE0126812F4003F00F0AE805A494F
:104340000A6922F0070213430B61FEF7EFFA0646F3
:10435000554B1B6903F038036268B3EBC20F16D0EC
:10436000FEF7E4FA801B41F288339842F0D903202B
:104370008EE04D4A126812F0007FE0D1012087E004
:10438000494A126812F4807FD9D1012080E0236865
:1043900013F0020F0CD0E268434B9B6903F00F034C
:1043A0009A4205D240498B6923F00F031A438A6170
:1043B0003C4B1B6803F00F03AB420AD9394A136820
:1043C00023F00F032B431360136803F00F03AB427A
:1043D00065D1236813F0040F0CD02269324B9B691E
:1043E00003F070039A4205D22F498B6923F07003C2
:1043F0001A438A61236813F0080F0CD062692A4BB4
:10440000DB6903F070039A4205D22749CB6923F098
:1044100070031A43CA61236813F0100F0CD0A2690D
:10442000214BDB6903F4E0639A4205D21E49CB6954
:1044300023F4E0631A43CA61236813F0200F0CD001
:10444000E269194B1B6A03F070039A4205D21649C0
:104450000B6A23F070031A430A62FFF7E9FD124961
:104460008B69C3F30323114AD35C03F01F03D840C5
:104470008B6903F00F03D35C03F01F0320FA03F3EF
:104480000B4A13600B4B18600B4B1868FDF750FF7D
:1044900070BD012070470120FAE70120F8E70120F4
:1044A000F6E700BF002000520044025818C200087E
:1044B00014000024180000242000002408B5FFF791
:1044C000B7FD0B4A9369C3F303230A49CB5C03F09E
:1044D0001F0320FA03F3926902F00F02885C00F0D8
:1044E0001F0023FA00F0044A1060044A136008BD5C
:1044F0000044025818C200081400002418000024C8
:1045000008B5FFF7DBFF054BDB69C3F30223044A61
:10451000D35C03F01F03D84008BD00BF004402581D
:1045200018C200083F230360114B1A6902F007020A
:1045300042609A6902F4706282609A6902F00F0226
:10454000C2609A6902F070020261DA6902F07002D8
:104550004261DA6902F4E06282611B6A03F070036F
:10456000C361044B1B6803F00F030B60704700BF6F
:104570000044025800200052404B9B6A03F00303A2
:10458000032B79D070B505460E463C4A136823F0DC
:1045900080631360FEF7CAF90446384B1B6813F0BA
:1045A000006F06D0FEF7C2F9031B022BF5D90320DA
:1045B00070BD324B9A6A22F47C32296842EA013299
:1045C0009A626A68013AC2F30802A968013949028D
:1045D00089B20A43E9680139090401F4FE010A437A
:1045E00029690139090601F0FE410A439A63DA6A32
:1045F00022F0C00269690A43DA62DA6A22F0200214
:10460000A9690A43DA62DA6A22F01002DA62DA6B26
:104610006FF3CF02E96942EAC102DA63DA6A42F073
:104620001002DA62C6B91A46DB6A43F40023D36289
:10463000124A136843F080631360FEF777F904466B
:104640000E4B1B6813F0006F14D1FEF76FF9001BBF
:104650000228F5D90320ABE7012E05D0074AD36A1B
:1046600043F40013D362E3E7044AD36A43F48013AC
:10467000D362DDE700209BE7012070470044025829
:10468000404B9B6A03F00303032B79D070B50546BA
:104690000E463C4A136823F080531360FEF746F938
:1046A0000446384B1B6813F0005F06D0FEF73EF956
:1046B000031B022BF5D9032070BD324B9A6A22F0FE
:1046C0007C72296842EA01529A626A68013AC2F32E
:1046D0000802A9680139490289B20A43E968013927
:1046E000090401F4FE010A4329690139090601F0B0
:1046F000FE410A431A64DA6A22F4406269690A4395
:10470000DA62DA6A22F40072A9690A43DA62DA6AC2
:1047100022F48072DA625A6C6FF3CF02E96942EADE
:10472000C1025A64DA6A42F48072DA62C6B91A4681
:10473000DB6A43F48003D362124A136843F0805368
:104740001360FEF7F3F804460E4B1B6813F0005F8E
:1047500014D1FEF7EBF8001B0228F5D90320ABE7D4
:10476000012E05D0074AD36A43F08073D362E3E792
:10477000044AD36A43F40003D362DDE700209BE7D9
:104780000120704700440258F8B50446036813F04E
:10479000006F30D0436EB3F5001F26D00ED8ABB1FA
:1047A000B3F5801F07D102210830FFF7E5FE05466B
:1047B00095B12E4621E0012635461EE0B3F5401F97
:1047C00001D1002508E00126354616E09B4AD36A50
:1047D00043F40033D3620025984A136D23F4401349
:1047E000616E0B431365002607E002212830FFF7B6
:1047F00047FF0546DCE700263546236813F4807F33
:1048000014D0A36D042B34D8DFE803F003252C0863
:1048100008008A4AD36A43F40033D36265BB874AEF
:10482000136D23F00703A16D0B431365236813F485
:10483000806F47D0D4F8A430B3F5800F33D020D8A0
:104840005BB3B3F5001F19D1002104F10800FFF795
:1048500093FE05462DE0002104F10800FFF78CFED1
:104860000546DBE7002104F12800FFF709FF0546B4
:10487000D4E701263546D9E72E46D7E70126354647
:1048800020E0B3F5000F14D0B3F5200F11D0B3F52D
:10489000C00F0ED00126354614E0684AD36A43F4AF
:1048A0000033D36205E0002104F12800FFF7E8FEA1
:1048B0000546E5B9614A936D23F46003D4F8A4106A
:1048C0000B439365236813F4006F36D0D4F8A830F7
:1048D000B3F1007F22D00FD8D3B1B3F1807F08D1DC
:1048E000002104F10800FFF747FE05461CE02E46B4
:1048F000E8E70126354620E0B3F1806F14D0B3F12C
:10490000A06F11D0B3F1407F0ED00126354614E0E0
:104910004A4AD36A43F40033D36205E0002104F12C
:104920002800FFF7ADFE0546C5B9444A936D23F054
:10493000E063D4F8A8100B439365236813F0007F5D
:1049400024D0E36C202B13D00DD8BBB1102B07D192
:104950003A4AD36A43F40033D3620FE02E46ECE7C1
:104960000126354612E0302B08D0012635460DE0F1
:10497000022104F10800FFF7FFFD0546D5B92F4AD3
:10498000D36C23F03003E16C0B43D364236813F43E
:10499000805F31D0E36DB3F5005F1FD00FD8BBB19E
:1049A000B3F5805F08D1002104F10800FFF7E4FDB2
:1049B000054619E02E46E9E7012635461CE0B3F529
:1049C000405F11D0B3F5804F0ED00126354613E07D
:1049D0001A4AD36A43F40033D36205E0002104F19C
:1049E0002800FFF74DFE054615BB144A136D23F44E
:1049F000E043E16D0B431365236813F4005F33D08C
:104A0000236EB3F5003F27D01AD843B1B3F5803FEA
:104A100010D1012104F10800FFF7AEFD054615BBDA
:104A2000064A136D23F4E023216E0B4313651BE04C
:104A30002E46E1E70126354616E000BF0044025845
:104A4000B3F5802FEBD0B3F5A02FE8D0B3F5403FFE
:104A5000E5D00126354607E0012104F12800FFF7E3
:104A60000FFE0546DBE72E46236813F4804F30D057
:104A7000D4F8AC30B3F1005F23D016D843B1B3F112
:104A8000805F0FD1012104F10800FFF775FD054695
:104A9000F5B98B4A936D23F0E043D4F8AC100B4387
:104AA000936516E00126354613E0B3F1804FEFD051
:104AB000B3F1A04FECD0B3F1405FE9D00126354609
:104AC00007E0012104F12800FFF7DAFD0546DFE7E2
:104AD0002E46236813F4004F20D0E36EB3F1805FBD
:104AE00006D0B3F1005F11D03BB10126354615E089
:104AF000734AD36A43F40033D36275B9704A136DB5
:104B000023F04053E16E0B43136507E0012104F1EC
:104B10000800FFF731FD0546EFE72E46236813F046
:104B2000807F13D0A36C032B3BD8DFE803F0070290
:104B30003307634AD36A43F40033D362A5BB604AA8
:104B4000D36C23F00303A16C0B43D364236813F4E9
:104B5000800F2BD1236813F0010F00F0A380A36F07
:104B6000282B00F29D80DFE803F08B9B9B9B9B9B97
:104B70009B9B859B9B9B9B9B9B9B949B9B9B9B9BA2
:104B80009B9B8B9B9B9B9B9B9B9B8B9B9B9B9B9B95
:104B90009B9B8B00022104F10800FFF7EDFC05460A
:104BA000CCE701263546D1E72E46CFE7454A1368C4
:104BB00043F480731360FDF7B9FE0746414B1B6851
:104BC00013F4807F05D1FDF7B1FEC01B6428F5D931
:104BD0000325002D4AD13A4B1B6FD4F8B020534027
:104BE00013F4407F0CD0364B1A6F22F44072196FC9
:104BF00041F480311967196F21F4803119671A6700
:104C0000D4F8B030B3F5807F15D08DBBD4F8B03078
:104C100003F44072B2F5407F1ED0294A136923F491
:104C20007C53136126490B6FD4F8B020C2F30B02FA
:104C300013430B678EE7FDF779FE0746204B1B6F8A
:104C400013F0020FE1D1FDF771FEC01B41F2883372
:104C50009842F3D90325D8E71948026922F47C5217
:104C6000194901EA131313430361DBE72E4671E789
:104C70002E466FE7012104F10800FFF77DFC054691
:104C8000E5B90F4A536D23F03803A16F0B43536509
:104C900008E0012104F12800FFF7F2FC0546EFE7E8
:104CA00001263546236813F0020F1DD0636F052BD4
:104CB00032D8DFE803F0110B2A1111112E46F1E76B
:104CC0000044025800480258CFFFFF00012104F1C0
:104CD0000800FFF751FC05460DBBB74A536D23F0A2
:104CE0000703616F0B435365236813F0040F29D04A
:104CF000D4F89030052B00F20881DFE813F018009B
:104D00001200FF00180018001800012104F128000B
:104D1000FFF7B6FC0546DFE701263546E4E72E46F9
:104D2000E2E7012104F10800FFF726FC0546002D0B
:104D300040F0EE80A04A936D23F00703D4F8901062
:104D40000B439365236813F0200F1DD0D4F88C30EB
:104D5000B3F1005F00F0F08000F2DF804BB1B3F1FF
:104D6000805F40F0D780002104F10800FFF704FCC9
:104D70000546002D40F0E7808F4A536D23F0E04355
:104D8000D4F88C100B435365236813F0400F1DD0EB
:104D9000D4F89830B3F5006F00F0E98000F2D880C5
:104DA0004BB1B3F5806F40F0D080002104F10800D2
:104DB000FFF7E2FB0546002D40F0E0807E4A936D50
:104DC00023F4E053D4F898100B439365236813F051
:104DD000800F1DD0D4F89C30B3F5804F00F0E280F6
:104DE00000F2D1804BB1B3F5005F40F0C9800021E3
:104DF00004F10800FFF7C0FB0546002D40F0D98004
:104E00006D4A936D23F46043D4F89C100B43936573
:104E1000236813F0080F0DD0D4F88030B3F5805F0D
:104E200000F0CC80644A536D23F44053D4F88010D2
:104E30000B435365236813F0100F0DD0D4F8943052
:104E4000B3F5807F00F0C4805B4A936D23F4407318
:104E5000D4F894100B439365236813F4002F1CD0EF
:104E6000D4F8A030B3F5803F00F0BC80B3F5003F2C
:104E700008D0002B40F0BD80002104F10800FFF7AE
:104E80007BFB0546002D40F0B7804B4A936D23F421
:104E90004033D4F8A0100B439365236813F4802F9C
:104EA0001CD0D4F88430B3F5001F00F0A780B3F510
:104EB000401F08D0B3F5801F40F0A7803E4AD36A58
:104EC00043F40033D362002D40F0A2803A4A536D80
:104ED00023F44013D4F884100B435365236813F470
:104EE000803F00F0AD80236D002B00F09380B3F580
:104EF000803F00F09D8001263546A1E0012104F1AC
:104F00002800FFF7BDFB054611E70126354619E7E6
:104F10002E4617E70126354636E7B3F1804F3FF4BA
:104F200028AFB3F1A04F3FF424AFB3F1405F3FF49B
:104F300020AF0126354627E7022104F12800FFF7BC
:104F40009FFB054615E72E461EE7012635463DE741
:104F5000B3F5805F3FF42FAFB3F5A05F3FF42BAF05
:104F6000B3F5406F3FF427AF012635462EE7022107
:104F700004F12800FFF784FB05461CE72E4625E7D1
:104F80000126354644E7B3F5004F3FF436AFB3F59D
:104F9000204F3FF432AFB3F5C04F3FF42EAF0126A0
:104FA000354635E7022104F12800FFF769FB054685
:104FB00023E72E462CE700BF00440258022104F1EB
:104FC0002800FFF75DFB00283FF42CAF012629E7FE
:104FD000022104F12800FFF753FB00283FF434AF0F
:104FE000012631E7022104F12800FFF749FB0546BD
:104FF00048E70126354650E72E464EE7012104F1E9
:105000002800FFF73DFB05465DE70126354665E7CD
:105010002E4663E7694AD36A43F40033D36275B915
:10502000664AD36C23F48033216D0B43D36407E0CD
:10503000022104F10800FFF79FFA0546EFE72E462C
:10504000236813F0005F10D1236813F4003F26D0CB
:10505000E36FB3F5807F14D010D9B3F5007F15D07E
:10506000B3F5407F12D0012619E0022104F1280097
:10507000FFF706FB0028E7D00126E5E733B101265C
:105080000DE04E4AD36A43F40033D362002D5CD165
:105090004A4A536D23F44073E16F0B435365236811
:1050A00013F4801F06D0454A136D23F00043216F8F
:1050B0000B431365236813F4001F06D03F4A136D9A
:1050C00023F08073A16E0B431365236813F0804FA8
:1050D00009D03A4B1A6922F400421A611A69D4F8CD
:1050E000B4100A431A612368002B06DA334AD36CE2
:1050F00023F04053616D0B43D364236813F4000F16
:1051000007D02E4A536D23F44003D4F888100B4384
:105110005365636813F0010F19D1636813F0020F30
:105120001ED1636813F0040F23D1636813F0080FD6
:1051300028D1636813F0100F2DD1636813F0200F8E
:1051400032D106B101263046F8BD2E46A7E7002130
:1051500004F10800FFF710FA0028DED00646DCE76D
:10516000012104F10800FFF707FA0028D9D006460C
:10517000D7E7022104F10800FFF7FEF90028D4D098
:105180000646D2E7002104F12800FFF779FA00284B
:10519000CFD00646CDE7012104F12800FFF770FAD1
:1051A0000028CAD00646C8E7022104F12800FFF70C
:1051B00067FA0028C5D00126C5E700BF00440258A1
:1051C00010B402685369916941F008019161016866
:1051D0008A6942F010028A6101680A6822F00102BD
:1051E0000A6001680C69284A22400A6101688A68DD
:1051F00022F440428A6090F88120042A0DD013F0F6
:10520000200F0AD0D0F8842042F08002C0F8842019
:1052100001688A6942F020028A6190F88120032A9D
:105220000DD013F0400F0AD0D0F8842042F00402D1
:10523000C0F8842001688A6942F040028A6113F450
:10524000007F0AD0D0F8842042F00102C0F8842008
:1052500001688A6942F400728A6113F4807F0AD07F
:10526000D0F8843043F00803C0F8843002689369B2
:1052700043F4807393610023A0F86230A0F86A3091
:105280005DF8044B704700BF90FCFFFFC36B5B09E8
:10529000C0680830C00803FB000070472DE9F843E0
:1052A00080460F4616461D46DDF8209000E0BDB151
:1052B000D8F800305C6937EA04040CBF01230023EE
:1052C000B3420AD1FDF732FBA0EB0900A842EED3AE
:1052D000B5F1FF3FEBD0032000E00020BDE8F883EC
:1052E0000320FBE7002800F0B78070B504460023D8
:1052F000836205685C4B5D4E9D4218BFB54214BF8A
:105300000126002607D0A3F574439D4203D0C3684D
:105310000F2B00F2A3802046FFF7B8FF2EB1544BAD
:105320009D4202D0082800F29B804F4A4F4B9D427D
:1053300018BF954203D003F580639D4202D1102827
:1053400000F2908094F88130F3B1022384F8813028
:105350002268136823F00103136023689A6802F43B
:10536000F812A169B1F1806F14D0636813F4800F53
:1053700023D0E368062B20D921680B6823F48073BF
:10538000206D03430B601DE084F880302046FCF75D
:10539000F1FEDAE76168B1F5800F06D00029E4D1AB
:1053A000A16BB1F1805FE0D102E0A06B0028F5D1E4
:1053B000196841F480511960D7E721680B6823F41C
:1053C00080730B60E369A16A0B431343E26B1343E1
:1053D000E16822680B439360636B626A1343A26BBC
:1053E0001343A26913432269134362691343226A78
:1053F000134362681343E26C1343A2681343A26C25
:105400001343A16D22680B43D36063686BB92268B4
:10541000936823F4C05343F4006393602268936855
:1054200023F4C06343F4806393602268136D23F018
:1054300001031365636813F4800F06D02268D368F4
:1054400023F00043616D0B43D3600020C4F8840057
:10545000012384F8813070BD012070470120FAE7F4
:105460000120F8E70120F6E7003001400038004055
:10547000003C00402DE9F04782B004468A46914640
:105480001D46D0F80080FDF751FA94F88130012BC9
:1054900040F049810646DFB2B9F1000F18BFBAF1FA
:1054A000000F00F0418194F88030012B00F0408122
:1054B000012384F88030032384F881300023C4F86A
:1054C0008430C4F85CA0A4F86090A4F8629063668D
:1054D000A4F86830A4F86A3063672367A368B3F55B
:1054E000C02F1CD02268D36823F4C02343F40033B8
:1054F000D360226853686FF30F0349EA03035360D4
:105500002268136843F0010313606368B3F5800FEA
:105510000BD0E3680F2B1BD8072B4DD8ACE02268CB
:10552000136843F400631360E3E72268136843F4ED
:1055300000731360EDE7E26D12681A62E36D0433E5
:10554000E365B4F8622092B2013A92B2A4F8622004
:10555000B4F862309BB2002B00F0C98023685A690E
:1055600012F0020FE7D1FDF7E1F9801BA84202D348
:10557000B5F1FF3F01D1002DEAD12046FFF720FE13
:10558000D4F8843043F48073C4F88430012384F861
:105590008130002384F880300327C5E0E36D1B8849
:1055A000A8F82030E36D0233E365B4F862309BB2B3
:1055B000013B9BB2A4F86230B4F862309BB2002B7E
:1055C00000F095802268536913F0020F15D0B4F8EB
:1055D00062309BB2012BE1D9E36B002BDED0E36D8F
:1055E0001B681362E36D0433E365B4F862309BB269
:1055F000023B9BB2A4F86230DEE7FDF797F9801B0F
:10560000A84202D3B5F1FF3F01D1002DD4D12046ED
:10561000FFF7D6FDD4F8843043F48073C4F88430A7
:10562000012384F88130002384F8803003277BE055
:10563000B4F862309BB2012B10D9E36B73B1E36D08
:105640001B88A8F82030E36D0233E365B4F86230BC
:105650009BB2023B9BB2A4F862300DE0E36D1B7875
:1056600082F82030E36D0133E365B4F862309BB219
:10567000013B9BB2A4F86230B4F862309BB2002BBD
:1056800035D02268536913F0020F15D0B4F8623098
:105690009BB2032BCCD9E36B402BC9D9E36D1B68BC
:1056A0001362E36D0433E365B4F862309BB2043BEC
:1056B0009BB2A4F86230DFE7FDF738F9801BA842FF
:1056C00002D3B5F1FF3F01D1002DD5D12046FFF720
:1056D00077FDD4F8843043F48073C4F88430012318
:1056E00084F88130002384F8803003271CE0009682
:1056F0002B46002208212046FFF7D0FD28B1D4F820
:10570000843043F02003C4F884302046FFF758FD6E
:10571000012384F88130002384F88030D4F8843069
:1057200013B9002700E00227384602B0BDE8F08731
:105730000227F9E72DE9F04F83B0044689469046E9
:105740001D46D0F800B0C66BC6F34F16FDF7EEF855
:1057500094F88130012B40F030820136B6B2074612
:105760005FFA83FAB8F1000F18BFB9F1000F00F02B
:105770002682002D00F0238294F88030012B00F067
:105780002282012384F88030052384F881300023AD
:10579000C4F88430C4F86480A4F86A50A4F868504F
:1057A000C4F85C90A4F86250A4F860502367636763
:1057B0002268D36823F4C023D36022689C499D4BA0
:1057C0009A4218BF8A4209D003F580639A4202D0F8
:1057D0004FF0080804E04FF0100801E04FF0100807
:1057E00053686FF30F032B4353602268136843F031
:1057F000010313606368B3F5800F06D0E3680F2BD5
:105800007AD94FEA980BA8461FE02268136843F440
:1058100000731360F2E723685A69B8F1000F14D0DF
:10582000596911F0010F32D0626E1B6B1360636E09
:1058300004336366B4F86A309BB2013B9BB2A4F8B0
:105840006A30B4F86A801FFA88F845EA08039BB208
:10585000002B00F0958123685A6912F0020FDAD00C
:10586000002DD8D005EB0B029045D4D2E26D126822
:105870001A62E36D0433E365B4F862309BB2013B16
:105880009BB2A4F86230B4F86250ADB2C3E7B04541
:1058900014D212F4004F11D0626E1B6B1360636E52
:1058A00004336366B4F86A309BB2013B9BB2A4F840
:1058B0006A30B4F86A801FFA88F8C6E7FDF736F850
:1058C000C01B0C9B984202D3B3F1FF3F02D10C9B4B
:1058D000002BBAD12046FFF773FCD4F8843043F490
:1058E0008073C4F88430012384F88130002384F865
:1058F00080304FF0030A62E1072B40F23F814FEA0C
:1059000058039946A8461AE023685A69B8F1000F6F
:1059100015D05B6913F0010F34D0636EBBF83020F3
:105920001A80636E02336366B4F86A309BB2013B3F
:105930009BB2A4F86A30B4F86A801FFA88F845EA86
:1059400008039BB2002B00F01B8123685B6913F0F6
:10595000020FD9D0002DD7D04B46EB189845D3D2A3
:10596000E36D1B88ABF82030E36D0233E365B4F8D8
:1059700062309BB2013B9BB2A4F86230B4F8625033
:10598000ADB2C1E7B0451BD212F4004F18D0636E20
:10599000BBF830201A80636E9A1C6266BBF8302018
:1059A0005A80636E02336366B4F86A309BB2023B7E
:1059B0009BB2A4F86A30B4F86A801FFA88F8BEE790
:1059C000B8F1010F15D112F4005F12D0636EBBF86D
:1059D00030201A80636E02336366B4F86A309BB27B
:1059E000013B9BB2A4F86A30B4F86A801FFA88F8C9
:1059F000A5E7FCF79BFFC01B0C9B984202D3B3F1B9
:105A0000FF3F02D10C9B002B99D12046FFF7D8FB1A
:105A1000D4F8843043F48073C4F88430012384F8CC
:105A20008130002384F880304FF0030AC7E000BFC4
:105A3000003001400038004023685A69BBF1000F74
:105A400015D0596911F0010F34D0626E93F83030DF
:105A50001370636E01336366B4F86A309BB2013B26
:105A60009BB2A4F86A30B4F86AB01FFA8BFB45EA1F
:105A70000B039BB2002B00F0838023685A6912F05D
:105A8000020FD9D0002DD7D005EB08029345D3D211
:105A9000E26D127883F82020E36D0133E365B4F8FA
:105AA00062309BB2013B9BB2A4F86230B4F8625002
:105AB000ADB2C1E7B3452AD212F4004F27D0626ECF
:105AC00093F830301370636E5A1C6266226892F845
:105AD00030205A70636E5A1C6266226892F8302039
